{
	"Multi send.sol": {
		"MultiSend": {
			"abi": [
				{
					"inputs": [
						{
							"internalType": "address payable",
							"name": "name",
							"type": "address"
						}
					],
					"name": "ClicktoPay1ether",
					"outputs": [],
					"stateMutability": "nonpayable",
					"type": "function"
				},
				{
					"inputs": [
						{
							"internalType": "address payable",
							"name": "name",
							"type": "address"
						},
						{
							"internalType": "address payable",
							"name": "adr",
							"type": "address"
						}
					],
					"name": "EthereumAddress",
					"outputs": [],
					"stateMutability": "pure",
					"type": "function"
				},
				{
					"inputs": [],
					"name": "EthersPaid",
					"outputs": [
						{
							"internalType": "uint256",
							"name": "",
							"type": "uint256"
						}
					],
					"stateMutability": "view",
					"type": "function"
				}
			],
			"devdoc": {
				"kind": "dev",
				"methods": {},
				"version": 1
			},
			"evm": {
				"assembly": "    /* \"Multi send.sol\":74:417  contract MultiSend{... */\n  mstore(0x40, 0x80)\n    /* \"Multi send.sol\":110:111  0 */\n  0x00\n    /* \"Multi send.sol\":99:111  uint count=0 */\n  dup1\n  sstore\n    /* \"Multi send.sol\":74:417  contract MultiSend{... */\n  callvalue\n  dup1\n  iszero\n  tag_1\n  jumpi\n  0x00\n  dup1\n  revert\ntag_1:\n  pop\n  dataSize(sub_0)\n  dup1\n  dataOffset(sub_0)\n  0x00\n  codecopy\n  0x00\n  return\nstop\n\nsub_0: assembly {\n        /* \"Multi send.sol\":74:417  contract MultiSend{... */\n      mstore(0x40, 0x80)\n      callvalue\n      dup1\n      iszero\n      tag_1\n      jumpi\n      0x00\n      dup1\n      revert\n    tag_1:\n      pop\n      jumpi(tag_2, lt(calldatasize, 0x04))\n      shr(0xe0, calldataload(0x00))\n      dup1\n      0x2ef2ab8a\n      eq\n      tag_3\n      jumpi\n      dup1\n      0x932e3084\n      eq\n      tag_4\n      jumpi\n      dup1\n      0x99d84714\n      eq\n      tag_5\n      jumpi\n    tag_2:\n      0x00\n      dup1\n      revert\n        /* \"Multi send.sol\":120:234  function EthereumAddress(address payable name , address payable  adr ) public pure {... */\n    tag_3:\n      tag_6\n      0x04\n      dup1\n      calldatasize\n      sub\n      dup2\n      add\n      swap1\n      tag_7\n      swap2\n      swap1\n      tag_8\n      jump\t// in\n    tag_7:\n      tag_9\n      jump\t// in\n    tag_6:\n      stop\n        /* \"Multi send.sol\":238:341  function ClicktoPay1ether(address payable name ) public {... */\n    tag_4:\n      tag_10\n      0x04\n      dup1\n      calldatasize\n      sub\n      dup2\n      add\n      swap1\n      tag_11\n      swap2\n      swap1\n      tag_12\n      jump\t// in\n    tag_11:\n      tag_13\n      jump\t// in\n    tag_10:\n      stop\n        /* \"Multi send.sol\":345:412  function EthersPaid() public view returns (uint){... */\n    tag_5:\n      tag_14\n      tag_15\n      jump\t// in\n    tag_14:\n      mload(0x40)\n      tag_16\n      swap2\n      swap1\n      tag_17\n      jump\t// in\n    tag_16:\n      mload(0x40)\n      dup1\n      swap2\n      sub\n      swap1\n      return\n        /* \"Multi send.sol\":120:234  function EthereumAddress(address payable name , address payable  adr ) public pure {... */\n    tag_9:\n        /* \"Multi send.sol\":224:227  adr */\n      dup1\n        /* \"Multi send.sol\":208:228  name = payable (adr) */\n      swap2\n      pop\n        /* \"Multi send.sol\":120:234  function EthereumAddress(address payable name , address payable  adr ) public pure {... */\n      pop\n      pop\n      jump\t// out\n        /* \"Multi send.sol\":238:341  function ClicktoPay1ether(address payable name ) public {... */\n    tag_13:\n        /* \"Multi send.sol\":297:301  name */\n      dup1\n        /* \"Multi send.sol\":297:310  name.transfer */\n      0xffffffffffffffffffffffffffffffffffffffff\n      and\n        /* \"Multi send.sol\":297:319  name.transfer(1 ether) */\n      0x08fc\n        /* \"Multi send.sol\":311:318  1 ether */\n      0x0de0b6b3a7640000\n        /* \"Multi send.sol\":297:319  name.transfer(1 ether) */\n      swap1\n      dup2\n      iszero\n      mul\n      swap1\n      mload(0x40)\n      0x00\n      mload(0x40)\n      dup1\n      dup4\n      sub\n      dup2\n      dup6\n      dup9\n      dup9\n      call\n      swap4\n      pop\n      pop\n      pop\n      pop\n      iszero\n      dup1\n      iszero\n      tag_21\n      jumpi\n      returndatasize\n      0x00\n      dup1\n      returndatacopy\n      revert(0x00, returndatasize)\n    tag_21:\n      pop\n        /* \"Multi send.sol\":336:337  1 */\n      0x01\n        /* \"Multi send.sol\":330:335  count */\n      sload(0x00)\n        /* \"Multi send.sol\":330:337  count+1 */\n      tag_22\n      swap2\n      swap1\n      tag_23\n      jump\t// in\n    tag_22:\n        /* \"Multi send.sol\":322:327  count */\n      0x00\n        /* \"Multi send.sol\":322:337  count = count+1 */\n      dup2\n      swap1\n      sstore\n      pop\n        /* \"Multi send.sol\":238:341  function ClicktoPay1ether(address payable name ) public {... */\n      pop\n      jump\t// out\n        /* \"Multi send.sol\":345:412  function EthersPaid() public view returns (uint){... */\n    tag_15:\n        /* \"Multi send.sol\":388:392  uint */\n      0x00\n        /* \"Multi send.sol\":403:408  count */\n      dup1\n      sload\n        /* \"Multi send.sol\":396:408  return count */\n      swap1\n      pop\n        /* \"Multi send.sol\":345:412  function EthersPaid() public view returns (uint){... */\n      swap1\n      jump\t// out\n        /* \"#utility.yul\":88:205   */\n    tag_26:\n        /* \"#utility.yul\":197:198   */\n      0x00\n        /* \"#utility.yul\":194:195   */\n      dup1\n        /* \"#utility.yul\":187:199   */\n      revert\n        /* \"#utility.yul\":334:460   */\n    tag_28:\n        /* \"#utility.yul\":371:378   */\n      0x00\n        /* \"#utility.yul\":411:453   */\n      0xffffffffffffffffffffffffffffffffffffffff\n        /* \"#utility.yul\":404:409   */\n      dup3\n        /* \"#utility.yul\":400:454   */\n      and\n        /* \"#utility.yul\":389:454   */\n      swap1\n      pop\n        /* \"#utility.yul\":334:460   */\n      swap2\n      swap1\n      pop\n      jump\t// out\n        /* \"#utility.yul\":466:570   */\n    tag_29:\n        /* \"#utility.yul\":511:518   */\n      0x00\n        /* \"#utility.yul\":540:564   */\n      tag_41\n        /* \"#utility.yul\":558:563   */\n      dup3\n        /* \"#utility.yul\":540:564   */\n      tag_28\n      jump\t// in\n    tag_41:\n        /* \"#utility.yul\":529:564   */\n      swap1\n      pop\n        /* \"#utility.yul\":466:570   */\n      swap2\n      swap1\n      pop\n      jump\t// out\n        /* \"#utility.yul\":576:714   */\n    tag_30:\n        /* \"#utility.yul\":657:689   */\n      tag_43\n        /* \"#utility.yul\":683:688   */\n      dup2\n        /* \"#utility.yul\":657:689   */\n      tag_29\n      jump\t// in\n    tag_43:\n        /* \"#utility.yul\":650:655   */\n      dup2\n        /* \"#utility.yul\":647:690   */\n      eq\n        /* \"#utility.yul\":637:708   */\n      tag_44\n      jumpi\n        /* \"#utility.yul\":704:705   */\n      0x00\n        /* \"#utility.yul\":701:702   */\n      dup1\n        /* \"#utility.yul\":694:706   */\n      revert\n        /* \"#utility.yul\":637:708   */\n    tag_44:\n        /* \"#utility.yul\":576:714   */\n      pop\n      jump\t// out\n        /* \"#utility.yul\":720:875   */\n    tag_31:\n        /* \"#utility.yul\":774:779   */\n      0x00\n        /* \"#utility.yul\":812:818   */\n      dup2\n        /* \"#utility.yul\":799:819   */\n      calldataload\n        /* \"#utility.yul\":790:819   */\n      swap1\n      pop\n        /* \"#utility.yul\":828:869   */\n      tag_46\n        /* \"#utility.yul\":863:868   */\n      dup2\n        /* \"#utility.yul\":828:869   */\n      tag_30\n      jump\t// in\n    tag_46:\n        /* \"#utility.yul\":720:875   */\n      swap3\n      swap2\n      pop\n      pop\n      jump\t// out\n        /* \"#utility.yul\":881:1387   */\n    tag_8:\n        /* \"#utility.yul\":965:971   */\n      0x00\n        /* \"#utility.yul\":973:979   */\n      dup1\n        /* \"#utility.yul\":1022:1024   */\n      0x40\n        /* \"#utility.yul\":1010:1019   */\n      dup4\n        /* \"#utility.yul\":1001:1008   */\n      dup6\n        /* \"#utility.yul\":997:1020   */\n      sub\n        /* \"#utility.yul\":993:1025   */\n      slt\n        /* \"#utility.yul\":990:1109   */\n      iszero\n      tag_48\n      jumpi\n        /* \"#utility.yul\":1028:1107   */\n      tag_49\n      tag_26\n      jump\t// in\n    tag_49:\n        /* \"#utility.yul\":990:1109   */\n    tag_48:\n        /* \"#utility.yul\":1148:1149   */\n      0x00\n        /* \"#utility.yul\":1173:1234   */\n      tag_50\n        /* \"#utility.yul\":1226:1233   */\n      dup6\n        /* \"#utility.yul\":1217:1223   */\n      dup3\n        /* \"#utility.yul\":1206:1215   */\n      dup7\n        /* \"#utility.yul\":1202:1224   */\n      add\n        /* \"#utility.yul\":1173:1234   */\n      tag_31\n      jump\t// in\n    tag_50:\n        /* \"#utility.yul\":1163:1234   */\n      swap3\n      pop\n        /* \"#utility.yul\":1119:1244   */\n      pop\n        /* \"#utility.yul\":1283:1285   */\n      0x20\n        /* \"#utility.yul\":1309:1370   */\n      tag_51\n        /* \"#utility.yul\":1362:1369   */\n      dup6\n        /* \"#utility.yul\":1353:1359   */\n      dup3\n        /* \"#utility.yul\":1342:1351   */\n      dup7\n        /* \"#utility.yul\":1338:1360   */\n      add\n        /* \"#utility.yul\":1309:1370   */\n      tag_31\n      jump\t// in\n    tag_51:\n        /* \"#utility.yul\":1299:1370   */\n      swap2\n      pop\n        /* \"#utility.yul\":1254:1380   */\n      pop\n        /* \"#utility.yul\":881:1387   */\n      swap3\n      pop\n      swap3\n      swap1\n      pop\n      jump\t// out\n        /* \"#utility.yul\":1393:1738   */\n    tag_12:\n        /* \"#utility.yul\":1460:1466   */\n      0x00\n        /* \"#utility.yul\":1509:1511   */\n      0x20\n        /* \"#utility.yul\":1497:1506   */\n      dup3\n        /* \"#utility.yul\":1488:1495   */\n      dup5\n        /* \"#utility.yul\":1484:1507   */\n      sub\n        /* \"#utility.yul\":1480:1512   */\n      slt\n        /* \"#utility.yul\":1477:1596   */\n      iszero\n      tag_53\n      jumpi\n        /* \"#utility.yul\":1515:1594   */\n      tag_54\n      tag_26\n      jump\t// in\n    tag_54:\n        /* \"#utility.yul\":1477:1596   */\n    tag_53:\n        /* \"#utility.yul\":1635:1636   */\n      0x00\n        /* \"#utility.yul\":1660:1721   */\n      tag_55\n        /* \"#utility.yul\":1713:1720   */\n      dup5\n        /* \"#utility.yul\":1704:1710   */\n      dup3\n        /* \"#utility.yul\":1693:1702   */\n      dup6\n        /* \"#utility.yul\":1689:1711   */\n      add\n        /* \"#utility.yul\":1660:1721   */\n      tag_31\n      jump\t// in\n    tag_55:\n        /* \"#utility.yul\":1650:1721   */\n      swap2\n      pop\n        /* \"#utility.yul\":1606:1731   */\n      pop\n        /* \"#utility.yul\":1393:1738   */\n      swap3\n      swap2\n      pop\n      pop\n      jump\t// out\n        /* \"#utility.yul\":1744:1821   */\n    tag_32:\n        /* \"#utility.yul\":1781:1788   */\n      0x00\n        /* \"#utility.yul\":1810:1815   */\n      dup2\n        /* \"#utility.yul\":1799:1815   */\n      swap1\n      pop\n        /* \"#utility.yul\":1744:1821   */\n      swap2\n      swap1\n      pop\n      jump\t// out\n        /* \"#utility.yul\":1827:1945   */\n    tag_33:\n        /* \"#utility.yul\":1914:1938   */\n      tag_58\n        /* \"#utility.yul\":1932:1937   */\n      dup2\n        /* \"#utility.yul\":1914:1938   */\n      tag_32\n      jump\t// in\n    tag_58:\n        /* \"#utility.yul\":1909:1912   */\n      dup3\n        /* \"#utility.yul\":1902:1939   */\n      mstore\n        /* \"#utility.yul\":1827:1945   */\n      pop\n      pop\n      jump\t// out\n        /* \"#utility.yul\":1951:2173   */\n    tag_17:\n        /* \"#utility.yul\":2044:2048   */\n      0x00\n        /* \"#utility.yul\":2082:2084   */\n      0x20\n        /* \"#utility.yul\":2071:2080   */\n      dup3\n        /* \"#utility.yul\":2067:2085   */\n      add\n        /* \"#utility.yul\":2059:2085   */\n      swap1\n      pop\n        /* \"#utility.yul\":2095:2166   */\n      tag_60\n        /* \"#utility.yul\":2163:2164   */\n      0x00\n        /* \"#utility.yul\":2152:2161   */\n      dup4\n        /* \"#utility.yul\":2148:2165   */\n      add\n        /* \"#utility.yul\":2139:2145   */\n      dup5\n        /* \"#utility.yul\":2095:2166   */\n      tag_33\n      jump\t// in\n    tag_60:\n        /* \"#utility.yul\":1951:2173   */\n      swap3\n      swap2\n      pop\n      pop\n      jump\t// out\n        /* \"#utility.yul\":2179:2359   */\n    tag_34:\n        /* \"#utility.yul\":2227:2304   */\n      0x4e487b7100000000000000000000000000000000000000000000000000000000\n        /* \"#utility.yul\":2224:2225   */\n      0x00\n        /* \"#utility.yul\":2217:2305   */\n      mstore\n        /* \"#utility.yul\":2324:2328   */\n      0x11\n        /* \"#utility.yul\":2321:2322   */\n      0x04\n        /* \"#utility.yul\":2314:2329   */\n      mstore\n        /* \"#utility.yul\":2348:2352   */\n      0x24\n        /* \"#utility.yul\":2345:2346   */\n      0x00\n        /* \"#utility.yul\":2338:2353   */\n      revert\n        /* \"#utility.yul\":2365:2556   */\n    tag_23:\n        /* \"#utility.yul\":2405:2408   */\n      0x00\n        /* \"#utility.yul\":2424:2444   */\n      tag_63\n        /* \"#utility.yul\":2442:2443   */\n      dup3\n        /* \"#utility.yul\":2424:2444   */\n      tag_32\n      jump\t// in\n    tag_63:\n        /* \"#utility.yul\":2419:2444   */\n      swap2\n      pop\n        /* \"#utility.yul\":2458:2478   */\n      tag_64\n        /* \"#utility.yul\":2476:2477   */\n      dup4\n        /* \"#utility.yul\":2458:2478   */\n      tag_32\n      jump\t// in\n    tag_64:\n        /* \"#utility.yul\":2453:2478   */\n      swap3\n      pop\n        /* \"#utility.yul\":2501:2502   */\n      dup3\n        /* \"#utility.yul\":2498:2499   */\n      dup3\n        /* \"#utility.yul\":2494:2503   */\n      add\n        /* \"#utility.yul\":2487:2503   */\n      swap1\n      pop\n        /* \"#utility.yul\":2522:2525   */\n      dup1\n        /* \"#utility.yul\":2519:2520   */\n      dup3\n        /* \"#utility.yul\":2516:2526   */\n      gt\n        /* \"#utility.yul\":2513:2549   */\n      iszero\n      tag_65\n      jumpi\n        /* \"#utility.yul\":2529:2547   */\n      tag_66\n      tag_34\n      jump\t// in\n    tag_66:\n        /* \"#utility.yul\":2513:2549   */\n    tag_65:\n        /* \"#utility.yul\":2365:2556   */\n      swap3\n      swap2\n      pop\n      pop\n      jump\t// out\n\n    auxdata: 0xa2646970667358221220fd473ce30487c83887207951b28c73bcd1e25d686f8a9674ffab0b46949959c164736f6c63430008120033\n}\n",
				"bytecode": {
					"linkReferences": {},
					"object": "60806040526000805534801561001457600080fd5b506102b0806100246000396000f3fe608060405234801561001057600080fd5b50600436106100415760003560e01c80632ef2ab8a14610046578063932e30841461006257806399d847141461007e575b600080fd5b610060600480360381019061005b9190610176565b61009c565b005b61007c600480360381019061007791906101b6565b6100a3565b005b61008661010a565b60405161009391906101fc565b60405180910390f35b8091505050565b8073ffffffffffffffffffffffffffffffffffffffff166108fc670de0b6b3a76400009081150290604051600060405180830381858888f193505050501580156100f1573d6000803e3d6000fd5b5060016000546101019190610246565b60008190555050565b60008054905090565b600080fd5b600073ffffffffffffffffffffffffffffffffffffffff82169050919050565b600061014382610118565b9050919050565b61015381610138565b811461015e57600080fd5b50565b6000813590506101708161014a565b92915050565b6000806040838503121561018d5761018c610113565b5b600061019b85828601610161565b92505060206101ac85828601610161565b9150509250929050565b6000602082840312156101cc576101cb610113565b5b60006101da84828501610161565b91505092915050565b6000819050919050565b6101f6816101e3565b82525050565b600060208201905061021160008301846101ed565b92915050565b7f4e487b7100000000000000000000000000000000000000000000000000000000600052601160045260246000fd5b6000610251826101e3565b915061025c836101e3565b925082820190508082111561027457610273610217565b5b9291505056fea2646970667358221220fd473ce30487c83887207951b28c73bcd1e25d686f8a9674ffab0b46949959c164736f6c63430008120033",
					"opcodes": "PUSH1 0x80 PUSH1 0x40 MSTORE PUSH1 0x0 DUP1 SSTORE CALLVALUE DUP1 ISZERO PUSH2 0x14 JUMPI PUSH1 0x0 DUP1 REVERT JUMPDEST POP PUSH2 0x2B0 DUP1 PUSH2 0x24 PUSH1 0x0 CODECOPY PUSH1 0x0 RETURN INVALID PUSH1 0x80 PUSH1 0x40 MSTORE CALLVALUE DUP1 ISZERO PUSH2 0x10 JUMPI PUSH1 0x0 DUP1 REVERT JUMPDEST POP PUSH1 0x4 CALLDATASIZE LT PUSH2 0x41 JUMPI PUSH1 0x0 CALLDATALOAD PUSH1 0xE0 SHR DUP1 PUSH4 0x2EF2AB8A EQ PUSH2 0x46 JUMPI DUP1 PUSH4 0x932E3084 EQ PUSH2 0x62 JUMPI DUP1 PUSH4 0x99D84714 EQ PUSH2 0x7E JUMPI JUMPDEST PUSH1 0x0 DUP1 REVERT JUMPDEST PUSH2 0x60 PUSH1 0x4 DUP1 CALLDATASIZE SUB DUP2 ADD SWAP1 PUSH2 0x5B SWAP2 SWAP1 PUSH2 0x176 JUMP JUMPDEST PUSH2 0x9C JUMP JUMPDEST STOP JUMPDEST PUSH2 0x7C PUSH1 0x4 DUP1 CALLDATASIZE SUB DUP2 ADD SWAP1 PUSH2 0x77 SWAP2 SWAP1 PUSH2 0x1B6 JUMP JUMPDEST PUSH2 0xA3 JUMP JUMPDEST STOP JUMPDEST PUSH2 0x86 PUSH2 0x10A JUMP JUMPDEST PUSH1 0x40 MLOAD PUSH2 0x93 SWAP2 SWAP1 PUSH2 0x1FC JUMP JUMPDEST PUSH1 0x40 MLOAD DUP1 SWAP2 SUB SWAP1 RETURN JUMPDEST DUP1 SWAP2 POP POP POP JUMP JUMPDEST DUP1 PUSH20 0xFFFFFFFFFFFFFFFFFFFFFFFFFFFFFFFFFFFFFFFF AND PUSH2 0x8FC PUSH8 0xDE0B6B3A7640000 SWAP1 DUP2 ISZERO MUL SWAP1 PUSH1 0x40 MLOAD PUSH1 0x0 PUSH1 0x40 MLOAD DUP1 DUP4 SUB DUP2 DUP6 DUP9 DUP9 CALL SWAP4 POP POP POP POP ISZERO DUP1 ISZERO PUSH2 0xF1 JUMPI RETURNDATASIZE PUSH1 0x0 DUP1 RETURNDATACOPY RETURNDATASIZE PUSH1 0x0 REVERT JUMPDEST POP PUSH1 0x1 PUSH1 0x0 SLOAD PUSH2 0x101 SWAP2 SWAP1 PUSH2 0x246 JUMP JUMPDEST PUSH1 0x0 DUP2 SWAP1 SSTORE POP POP JUMP JUMPDEST PUSH1 0x0 DUP1 SLOAD SWAP1 POP SWAP1 JUMP JUMPDEST PUSH1 0x0 DUP1 REVERT JUMPDEST PUSH1 0x0 PUSH20 0xFFFFFFFFFFFFFFFFFFFFFFFFFFFFFFFFFFFFFFFF DUP3 AND SWAP1 POP SWAP2 SWAP1 POP JUMP JUMPDEST PUSH1 0x0 PUSH2 0x143 DUP3 PUSH2 0x118 JUMP JUMPDEST SWAP1 POP SWAP2 SWAP1 POP JUMP JUMPDEST PUSH2 0x153 DUP2 PUSH2 0x138 JUMP JUMPDEST DUP2 EQ PUSH2 0x15E JUMPI PUSH1 0x0 DUP1 REVERT JUMPDEST POP JUMP JUMPDEST PUSH1 0x0 DUP2 CALLDATALOAD SWAP1 POP PUSH2 0x170 DUP2 PUSH2 0x14A JUMP JUMPDEST SWAP3 SWAP2 POP POP JUMP JUMPDEST PUSH1 0x0 DUP1 PUSH1 0x40 DUP4 DUP6 SUB SLT ISZERO PUSH2 0x18D JUMPI PUSH2 0x18C PUSH2 0x113 JUMP JUMPDEST JUMPDEST PUSH1 0x0 PUSH2 0x19B DUP6 DUP3 DUP7 ADD PUSH2 0x161 JUMP JUMPDEST SWAP3 POP POP PUSH1 0x20 PUSH2 0x1AC DUP6 DUP3 DUP7 ADD PUSH2 0x161 JUMP JUMPDEST SWAP2 POP POP SWAP3 POP SWAP3 SWAP1 POP JUMP JUMPDEST PUSH1 0x0 PUSH1 0x20 DUP3 DUP5 SUB SLT ISZERO PUSH2 0x1CC JUMPI PUSH2 0x1CB PUSH2 0x113 JUMP JUMPDEST JUMPDEST PUSH1 0x0 PUSH2 0x1DA DUP5 DUP3 DUP6 ADD PUSH2 0x161 JUMP JUMPDEST SWAP2 POP POP SWAP3 SWAP2 POP POP JUMP JUMPDEST PUSH1 0x0 DUP2 SWAP1 POP SWAP2 SWAP1 POP JUMP JUMPDEST PUSH2 0x1F6 DUP2 PUSH2 0x1E3 JUMP JUMPDEST DUP3 MSTORE POP POP JUMP JUMPDEST PUSH1 0x0 PUSH1 0x20 DUP3 ADD SWAP1 POP PUSH2 0x211 PUSH1 0x0 DUP4 ADD DUP5 PUSH2 0x1ED JUMP JUMPDEST SWAP3 SWAP2 POP POP JUMP JUMPDEST PUSH32 0x4E487B7100000000000000000000000000000000000000000000000000000000 PUSH1 0x0 MSTORE PUSH1 0x11 PUSH1 0x4 MSTORE PUSH1 0x24 PUSH1 0x0 REVERT JUMPDEST PUSH1 0x0 PUSH2 0x251 DUP3 PUSH2 0x1E3 JUMP JUMPDEST SWAP2 POP PUSH2 0x25C DUP4 PUSH2 0x1E3 JUMP JUMPDEST SWAP3 POP DUP3 DUP3 ADD SWAP1 POP DUP1 DUP3 GT ISZERO PUSH2 0x274 JUMPI PUSH2 0x273 PUSH2 0x217 JUMP JUMPDEST JUMPDEST SWAP3 SWAP2 POP POP JUMP INVALID LOG2 PUSH5 0x6970667358 0x22 SLT KECCAK256 REVERT SELFBALANCE EXTCODECOPY 0xE3 DIV DUP8 0xC8 CODESIZE DUP8 KECCAK256 PUSH26 0x51B28C73BCD1E25D686F8A9674FFAB0B46949959C164736F6C63 NUMBER STOP ADDMOD SLT STOP CALLER "
				},
				"gasEstimates": {
					"creation": {
						"codeDepositCost": "137600",
						"executionCost": "5189",
						"totalCost": "142789"
					},
					"external": {
						"ClicktoPay1ether(address)": "infinite",
						"EthereumAddress(address,address)": "infinite",
						"EthersPaid()": "2459"
					}
				},
				"methodIdentifiers": {
					"ClicktoPay1ether(address)": "932e3084",
					"EthereumAddress(address,address)": "2ef2ab8a",
					"EthersPaid()": "99d84714"
				}
			},
			"storageLayout": {
				"storage": [
					{
						"astId": 4,
						"contract": "Multi send.sol:MultiSend",
						"label": "count",
						"offset": 0,
						"slot": "0",
						"type": "t_uint256"
					}
				],
				"types": {
					"t_uint256": {
						"encoding": "inplace",
						"label": "uint256",
						"numberOfBytes": "32"
					}
				}
			},
			"userdoc": {
				"kind": "user",
				"methods": {},
				"version": 1
			}
		}
	}
}