{
	"swaraj.sol": {
		"state": {
			"abi": [
				{
					"inputs": [],
					"stateMutability": "nonpayable",
					"type": "constructor"
				},
				{
					"inputs": [],
					"name": "age",
					"outputs": [
						{
							"internalType": "uint256",
							"name": "",
							"type": "uint256"
						}
					],
					"stateMutability": "view",
					"type": "function"
				},
				{
					"inputs": [
						{
							"internalType": "uint256",
							"name": "",
							"type": "uint256"
						}
					],
					"name": "arr",
					"outputs": [
						{
							"internalType": "uint256",
							"name": "",
							"type": "uint256"
						}
					],
					"stateMutability": "view",
					"type": "function"
				},
				{
					"inputs": [
						{
							"internalType": "uint256",
							"name": "",
							"type": "uint256"
						}
					],
					"name": "array",
					"outputs": [
						{
							"internalType": "uint256",
							"name": "",
							"type": "uint256"
						}
					],
					"stateMutability": "view",
					"type": "function"
				},
				{
					"inputs": [
						{
							"internalType": "uint256",
							"name": "",
							"type": "uint256"
						}
					],
					"name": "array2",
					"outputs": [
						{
							"internalType": "uint256",
							"name": "",
							"type": "uint256"
						}
					],
					"stateMutability": "view",
					"type": "function"
				},
				{
					"inputs": [],
					"name": "count",
					"outputs": [
						{
							"internalType": "uint256",
							"name": "",
							"type": "uint256"
						}
					],
					"stateMutability": "view",
					"type": "function"
				},
				{
					"inputs": [],
					"name": "getter",
					"outputs": [
						{
							"internalType": "uint256",
							"name": "",
							"type": "uint256"
						}
					],
					"stateMutability": "view",
					"type": "function"
				},
				{
					"inputs": [],
					"name": "getter2",
					"outputs": [
						{
							"internalType": "uint256",
							"name": "",
							"type": "uint256"
						}
					],
					"stateMutability": "pure",
					"type": "function"
				},
				{
					"inputs": [],
					"name": "len",
					"outputs": [
						{
							"internalType": "uint256",
							"name": "",
							"type": "uint256"
						}
					],
					"stateMutability": "view",
					"type": "function"
				},
				{
					"inputs": [],
					"name": "length",
					"outputs": [
						{
							"internalType": "uint256",
							"name": "",
							"type": "uint256"
						}
					],
					"stateMutability": "view",
					"type": "function"
				},
				{
					"inputs": [],
					"name": "loop",
					"outputs": [],
					"stateMutability": "nonpayable",
					"type": "function"
				},
				{
					"inputs": [],
					"name": "popelement",
					"outputs": [],
					"stateMutability": "nonpayable",
					"type": "function"
				},
				{
					"inputs": [
						{
							"internalType": "uint256",
							"name": "item",
							"type": "uint256"
						}
					],
					"name": "pushelement",
					"outputs": [],
					"stateMutability": "nonpayable",
					"type": "function"
				},
				{
					"inputs": [],
					"name": "setage",
					"outputs": [],
					"stateMutability": "nonpayable",
					"type": "function"
				},
				{
					"inputs": [
						{
							"internalType": "uint256",
							"name": "index",
							"type": "uint256"
						},
						{
							"internalType": "uint256",
							"name": "value",
							"type": "uint256"
						}
					],
					"name": "setter",
					"outputs": [],
					"stateMutability": "nonpayable",
					"type": "function"
				},
				{
					"inputs": [],
					"name": "store",
					"outputs": [
						{
							"internalType": "uint256",
							"name": "",
							"type": "uint256"
						}
					],
					"stateMutability": "pure",
					"type": "function"
				},
				{
					"inputs": [],
					"name": "value",
					"outputs": [
						{
							"internalType": "bool",
							"name": "",
							"type": "bool"
						}
					],
					"stateMutability": "view",
					"type": "function"
				}
			],
			"devdoc": {
				"kind": "dev",
				"methods": {},
				"version": 1
			},
			"evm": {
				"assembly": "    /* \"swaraj.sol\":74:2387  contract state{... */\n  mstore(0x40, 0x80)\n    /* \"swaraj.sol\":1568:1603  uint [4] public arr = [10,20,30,40] */\n  mload(0x40)\n  dup1\n  0x80\n  add\n  0x40\n  mstore\n  dup1\n    /* \"swaraj.sol\":1591:1593  10 */\n  0x0a\n    /* \"swaraj.sol\":1568:1603  uint [4] public arr = [10,20,30,40] */\n  0xff\n  and\n  dup2\n  mstore\n  0x20\n  add\n    /* \"swaraj.sol\":1594:1596  20 */\n  0x14\n    /* \"swaraj.sol\":1568:1603  uint [4] public arr = [10,20,30,40] */\n  0xff\n  and\n  dup2\n  mstore\n  0x20\n  add\n    /* \"swaraj.sol\":1597:1599  30 */\n  0x1e\n    /* \"swaraj.sol\":1568:1603  uint [4] public arr = [10,20,30,40] */\n  0xff\n  and\n  dup2\n  mstore\n  0x20\n  add\n    /* \"swaraj.sol\":1600:1602  40 */\n  0x28\n    /* \"swaraj.sol\":1568:1603  uint [4] public arr = [10,20,30,40] */\n  0xff\n  and\n  dup2\n  mstore\n  pop\n  0x01\n  swap1\n  0x04\n  tag_1\n  swap3\n  swap2\n  swap1\n  tag_2\n  jump\t// in\ntag_1:\n  pop\n    /* \"swaraj.sol\":377:410  constructor() {... */\n  callvalue\n  dup1\n  iszero\n  tag_3\n  jumpi\n  0x00\n  dup1\n  revert\ntag_3:\n  pop\n    /* \"swaraj.sol\":404:406  20 */\n  0x14\n    /* \"swaraj.sol\":398:401  age */\n  0x00\n    /* \"swaraj.sol\":398:406  age = 20 */\n  dup2\n  swap1\n  sstore\n  pop\n    /* \"swaraj.sol\":74:2387  contract state{... */\n  jump(tag_6)\ntag_2:\n  dup3\n  0x04\n  dup2\n  add\n  swap3\n  dup3\n  iszero\n  tag_7\n  jumpi\n  swap2\n  0x20\n  mul\n  dup3\n  add\ntag_8:\n  dup3\n  dup2\n  gt\n  iszero\n  tag_9\n  jumpi\n  dup3\n  mload\n  dup3\n  swap1\n  0xff\n  and\n  swap1\n  sstore\n  swap2\n  0x20\n  add\n  swap2\n  swap1\n  0x01\n  add\n  swap1\n  jump(tag_8)\ntag_9:\ntag_7:\n  pop\n  swap1\n  pop\n  tag_10\n  swap2\n  swap1\n  tag_11\n  jump\t// in\ntag_10:\n  pop\n  swap1\n  jump\t// out\ntag_11:\ntag_12:\n  dup1\n  dup3\n  gt\n  iszero\n  tag_13\n  jumpi\n  0x00\n  dup2\n  0x00\n  swap1\n  sstore\n  pop\n  0x01\n  add\n  jump(tag_12)\ntag_13:\n  pop\n  swap1\n  jump\t// out\ntag_6:\n  dataSize(sub_0)\n  dup1\n  dataOffset(sub_0)\n  0x00\n  codecopy\n  0x00\n  return\nstop\n\nsub_0: assembly {\n        /* \"swaraj.sol\":74:2387  contract state{... */\n      mstore(0x40, 0x80)\n      callvalue\n      dup1\n      iszero\n      tag_1\n      jumpi\n      0x00\n      dup1\n      revert\n    tag_1:\n      pop\n      jumpi(tag_2, lt(calldatasize, 0x04))\n      shr(0xe0, calldataload(0x00))\n      dup1\n      0x61125b63\n      gt\n      tag_19\n      jumpi\n      dup1\n      0x975057e7\n      gt\n      tag_20\n      jumpi\n      dup1\n      0x975057e7\n      eq\n      tag_15\n      jumpi\n      dup1\n      0x993a04b7\n      eq\n      tag_16\n      jumpi\n      dup1\n      0xa92100cb\n      eq\n      tag_17\n      jumpi\n      dup1\n      0xe255e5f9\n      eq\n      tag_18\n      jumpi\n      jump(tag_2)\n    tag_20:\n      dup1\n      0x61125b63\n      eq\n      tag_11\n      jumpi\n      dup1\n      0x6af90033\n      eq\n      tag_12\n      jumpi\n      dup1\n      0x71e5ee5f\n      eq\n      tag_13\n      jumpi\n      dup1\n      0x83c53fef\n      eq\n      tag_14\n      jumpi\n      jump(tag_2)\n    tag_19:\n      dup1\n      0x38d94193\n      gt\n      tag_21\n      jumpi\n      dup1\n      0x38d94193\n      eq\n      tag_7\n      jumpi\n      dup1\n      0x3fa4f245\n      eq\n      tag_8\n      jumpi\n      dup1\n      0x5298f36d\n      eq\n      tag_9\n      jumpi\n      dup1\n      0x56d88e27\n      eq\n      tag_10\n      jumpi\n      jump(tag_2)\n    tag_21:\n      dup1\n      0x06661abd\n      eq\n      tag_3\n      jumpi\n      dup1\n      0x1f7b6d32\n      eq\n      tag_4\n      jumpi\n      dup1\n      0x233ec35b\n      eq\n      tag_5\n      jumpi\n      dup1\n      0x262a9dff\n      eq\n      tag_6\n      jumpi\n    tag_2:\n      0x00\n      dup1\n      revert\n        /* \"swaraj.sol\":2012:2029  uint public count */\n    tag_3:\n      tag_22\n      tag_23\n      jump\t// in\n    tag_22:\n      mload(0x40)\n      tag_24\n      swap2\n      swap1\n      tag_25\n      jump\t// in\n    tag_24:\n      mload(0x40)\n      dup1\n      swap2\n      sub\n      swap1\n      return\n        /* \"swaraj.sol\":1687:1761  function length () public view returns (uint) {... */\n    tag_4:\n      tag_26\n      tag_27\n      jump\t// in\n    tag_26:\n      mload(0x40)\n      tag_28\n      swap2\n      swap1\n      tag_25\n      jump\t// in\n    tag_28:\n      mload(0x40)\n      dup1\n      swap2\n      sub\n      swap1\n      return\n        /* \"swaraj.sol\":248:373  function setage() public ... */\n    tag_5:\n      tag_29\n      tag_30\n      jump\t// in\n    tag_29:\n      stop\n        /* \"swaraj.sol\":93:108  uint public age */\n    tag_6:\n      tag_31\n      tag_32\n      jump\t// in\n    tag_31:\n      mload(0x40)\n      tag_33\n      swap2\n      swap1\n      tag_25\n      jump\t// in\n    tag_33:\n      mload(0x40)\n      dup1\n      swap2\n      sub\n      swap1\n      return\n        /* \"swaraj.sol\":1765:1784  uint[] public array */\n    tag_7:\n      tag_34\n      0x04\n      dup1\n      calldatasize\n      sub\n      dup2\n      add\n      swap1\n      tag_35\n      swap2\n      swap1\n      tag_36\n      jump\t// in\n    tag_35:\n      tag_37\n      jump\t// in\n    tag_34:\n      mload(0x40)\n      tag_38\n      swap2\n      swap1\n      tag_25\n      jump\t// in\n    tag_38:\n      mload(0x40)\n      dup1\n      swap2\n      sub\n      swap1\n      return\n        /* \"swaraj.sol\":2271:2288  bool public value */\n    tag_8:\n      tag_39\n      tag_40\n      jump\t// in\n    tag_39:\n      mload(0x40)\n      tag_41\n      swap2\n      swap1\n      tag_42\n      jump\t// in\n    tag_41:\n      mload(0x40)\n      dup1\n      swap2\n      sub\n      swap1\n      return\n        /* \"swaraj.sol\":1608:1683  function setter(uint index , uint value) public {... */\n    tag_9:\n      tag_43\n      0x04\n      dup1\n      calldatasize\n      sub\n      dup2\n      add\n      swap1\n      tag_44\n      swap2\n      swap1\n      tag_45\n      jump\t// in\n    tag_44:\n      tag_46\n      jump\t// in\n    tag_43:\n      stop\n        /* \"swaraj.sol\":1857:1926  function len() public view returns (uint){... */\n    tag_10:\n      tag_47\n      tag_48\n      jump\t// in\n    tag_47:\n      mload(0x40)\n      tag_49\n      swap2\n      swap1\n      tag_25\n      jump\t// in\n    tag_49:\n      mload(0x40)\n      dup1\n      swap2\n      sub\n      swap1\n      return\n        /* \"swaraj.sol\":1988:2009  uint[3] public array2 */\n    tag_11:\n      tag_50\n      0x04\n      dup1\n      calldatasize\n      sub\n      dup2\n      add\n      swap1\n      tag_51\n      swap2\n      swap1\n      tag_36\n      jump\t// in\n    tag_51:\n      tag_52\n      jump\t// in\n    tag_50:\n      mload(0x40)\n      tag_53\n      swap2\n      swap1\n      tag_25\n      jump\t// in\n    tag_53:\n      mload(0x40)\n      dup1\n      swap2\n      sub\n      swap1\n      return\n        /* \"swaraj.sol\":1790:1853  function pushelement (uint item) public {... */\n    tag_12:\n      tag_54\n      0x04\n      dup1\n      calldatasize\n      sub\n      dup2\n      add\n      swap1\n      tag_55\n      swap2\n      swap1\n      tag_36\n      jump\t// in\n    tag_55:\n      tag_56\n      jump\t// in\n    tag_54:\n      stop\n        /* \"swaraj.sol\":1568:1603  uint [4] public arr = [10,20,30,40] */\n    tag_13:\n      tag_57\n      0x04\n      dup1\n      calldatasize\n      sub\n      dup2\n      add\n      swap1\n      tag_58\n      swap2\n      swap1\n      tag_36\n      jump\t// in\n    tag_58:\n      tag_59\n      jump\t// in\n    tag_57:\n      mload(0x40)\n      tag_60\n      swap2\n      swap1\n      tag_25\n      jump\t// in\n    tag_60:\n      mload(0x40)\n      dup1\n      swap2\n      sub\n      swap1\n      return\n        /* \"swaraj.sol\":1930:1981  function popelement() public {... */\n    tag_14:\n      tag_61\n      tag_62\n      jump\t// in\n    tag_61:\n      stop\n        /* \"swaraj.sol\":520:1155  function store() pure public returns(uint){... */\n    tag_15:\n      tag_63\n      tag_64\n      jump\t// in\n    tag_63:\n      mload(0x40)\n      tag_65\n      swap2\n      swap1\n      tag_25\n      jump\t// in\n    tag_65:\n      mload(0x40)\n      dup1\n      swap2\n      sub\n      swap1\n      return\n        /* \"swaraj.sol\":1159:1219  function getter() public view returns(uint){... */\n    tag_16:\n      tag_66\n      tag_67\n      jump\t// in\n    tag_66:\n      mload(0x40)\n      tag_68\n      swap2\n      swap1\n      tag_25\n      jump\t// in\n    tag_68:\n      mload(0x40)\n      dup1\n      swap2\n      sub\n      swap1\n      return\n        /* \"swaraj.sol\":2032:2122  function loop() public ... */\n    tag_17:\n      tag_69\n      tag_70\n      jump\t// in\n    tag_69:\n      stop\n        /* \"swaraj.sol\":1410:1564  function getter2() public pure returns(uint){... */\n    tag_18:\n      tag_71\n      tag_72\n      jump\t// in\n    tag_71:\n      mload(0x40)\n      tag_73\n      swap2\n      swap1\n      tag_25\n      jump\t// in\n    tag_73:\n      mload(0x40)\n      dup1\n      swap2\n      sub\n      swap1\n      return\n        /* \"swaraj.sol\":2012:2029  uint public count */\n    tag_23:\n      sload(0x09)\n      dup2\n      jump\t// out\n        /* \"swaraj.sol\":1687:1761  function length () public view returns (uint) {... */\n    tag_27:\n        /* \"swaraj.sol\":1727:1731  uint */\n      0x00\n        /* \"swaraj.sol\":1747:1757  arr.length */\n      0x04\n        /* \"swaraj.sol\":1740:1757  return arr.length */\n      swap1\n      pop\n        /* \"swaraj.sol\":1687:1761  function length () public view returns (uint) {... */\n      swap1\n      jump\t// out\n        /* \"swaraj.sol\":248:373  function setage() public ... */\n    tag_30:\n        /* \"swaraj.sol\":284:286  10 */\n      0x0a\n        /* \"swaraj.sol\":278:281  age */\n      0x00\n        /* \"swaraj.sol\":278:286  age = 10 */\n      dup2\n      swap1\n      sstore\n      pop\n        /* \"swaraj.sol\":248:373  function setage() public ... */\n      jump\t// out\n        /* \"swaraj.sol\":93:108  uint public age */\n    tag_32:\n      sload(0x00)\n      dup2\n      jump\t// out\n        /* \"swaraj.sol\":1765:1784  uint[] public array */\n    tag_37:\n      0x05\n      dup2\n      dup2\n      sload\n      dup2\n      lt\n      tag_76\n      jumpi\n      0x00\n      dup1\n      revert\n    tag_76:\n      swap1\n      0x00\n      mstore\n      keccak256(0x00, 0x20)\n      add\n      0x00\n      swap2\n      pop\n      swap1\n      pop\n      sload\n      dup2\n      jump\t// out\n        /* \"swaraj.sol\":2271:2288  bool public value */\n    tag_40:\n      0x0a\n      0x00\n      swap1\n      sload\n      swap1\n      0x0100\n      exp\n      swap1\n      div\n      0xff\n      and\n      dup2\n      jump\t// out\n        /* \"swaraj.sol\":1608:1683  function setter(uint index , uint value) public {... */\n    tag_46:\n        /* \"swaraj.sol\":1672:1677  value */\n      dup1\n        /* \"swaraj.sol\":1659:1662  arr */\n      0x01\n        /* \"swaraj.sol\":1663:1668  index */\n      dup4\n        /* \"swaraj.sol\":1659:1669  arr[index] */\n      0x04\n      dup2\n      lt\n      tag_79\n      jumpi\n      tag_80\n      tag_81\n      jump\t// in\n    tag_80:\n    tag_79:\n      add\n        /* \"swaraj.sol\":1659:1677  arr[index] = value */\n      dup2\n      swap1\n      sstore\n      pop\n        /* \"swaraj.sol\":1608:1683  function setter(uint index , uint value) public {... */\n      pop\n      pop\n      jump\t// out\n        /* \"swaraj.sol\":1857:1926  function len() public view returns (uint){... */\n    tag_48:\n        /* \"swaraj.sol\":1893:1897  uint */\n      0x00\n        /* \"swaraj.sol\":1912:1922  arr.length */\n      0x04\n        /* \"swaraj.sol\":1905:1922  return arr.length */\n      swap1\n      pop\n        /* \"swaraj.sol\":1857:1926  function len() public view returns (uint){... */\n      swap1\n      jump\t// out\n        /* \"swaraj.sol\":1988:2009  uint[3] public array2 */\n    tag_52:\n      0x06\n      dup2\n      0x03\n      dup2\n      lt\n      tag_84\n      jumpi\n      0x00\n      dup1\n      revert\n    tag_84:\n      add\n      0x00\n      swap2\n      pop\n      swap1\n      pop\n      sload\n      dup2\n      jump\t// out\n        /* \"swaraj.sol\":1790:1853  function pushelement (uint item) public {... */\n    tag_56:\n        /* \"swaraj.sol\":1833:1838  array */\n      0x05\n        /* \"swaraj.sol\":1844:1848  item */\n      dup2\n        /* \"swaraj.sol\":1833:1849  array.push(item) */\n      swap1\n      dup1\n      0x01\n      dup2\n      sload\n      add\n      dup1\n      dup3\n      sstore\n      dup1\n      swap2\n      pop\n      pop\n      0x01\n      swap1\n      sub\n      swap1\n      0x00\n      mstore\n      keccak256(0x00, 0x20)\n      add\n      0x00\n      swap1\n      swap2\n      swap1\n      swap2\n      swap1\n      swap2\n      pop\n      sstore\n        /* \"swaraj.sol\":1790:1853  function pushelement (uint item) public {... */\n      pop\n      jump\t// out\n        /* \"swaraj.sol\":1568:1603  uint [4] public arr = [10,20,30,40] */\n    tag_59:\n      0x01\n      dup2\n      0x04\n      dup2\n      lt\n      tag_88\n      jumpi\n      0x00\n      dup1\n      revert\n    tag_88:\n      add\n      0x00\n      swap2\n      pop\n      swap1\n      pop\n      sload\n      dup2\n      jump\t// out\n        /* \"swaraj.sol\":1930:1981  function popelement() public {... */\n    tag_62:\n        /* \"swaraj.sol\":1966:1971  array */\n      0x05\n        /* \"swaraj.sol\":1966:1977  array.pop() */\n      dup1\n      sload\n      dup1\n      tag_91\n      jumpi\n      tag_92\n      tag_93\n      jump\t// in\n    tag_92:\n    tag_91:\n      0x01\n      swap1\n      sub\n      dup2\n      dup2\n      swap1\n      0x00\n      mstore\n      keccak256(0x00, 0x20)\n      add\n      0x00\n      swap1\n      sstore\n      swap1\n      sstore\n        /* \"swaraj.sol\":1930:1981  function popelement() public {... */\n      jump\t// out\n        /* \"swaraj.sol\":520:1155  function store() pure public returns(uint){... */\n    tag_64:\n        /* \"swaraj.sol\":557:561  uint */\n      0x00\n        /* \"swaraj.sol\":636:645  uint age1 */\n      dup1\n        /* \"swaraj.sol\":648:650  10 */\n      0x0a\n        /* \"swaraj.sol\":636:650  uint age1 = 10 */\n      swap1\n      pop\n        /* \"swaraj.sol\":1016:1034  string memory name */\n      0x00\n        /* \"swaraj.sol\":1016:1045  string memory name = \"swaraj\" */\n      mload(0x40)\n      dup1\n      0x40\n      add\n      0x40\n      mstore\n      dup1\n      0x06\n      dup2\n      mstore\n      0x20\n      add\n      0x73776172616a0000000000000000000000000000000000000000000000000000\n      dup2\n      mstore\n      pop\n      swap1\n      pop\n        /* \"swaraj.sol\":1147:1151  age1 */\n      dup2\n        /* \"swaraj.sol\":1140:1151  return age1 */\n      swap3\n      pop\n      pop\n      pop\n        /* \"swaraj.sol\":520:1155  function store() pure public returns(uint){... */\n      swap1\n      jump\t// out\n        /* \"swaraj.sol\":1159:1219  function getter() public view returns(uint){... */\n    tag_67:\n        /* \"swaraj.sol\":1197:1201  uint */\n      0x00\n        /* \"swaraj.sol\":1212:1215  age */\n      dup1\n      sload\n        /* \"swaraj.sol\":1205:1215  return age */\n      swap1\n      pop\n        /* \"swaraj.sol\":1159:1219  function getter() public view returns(uint){... */\n      swap1\n      jump\t// out\n        /* \"swaraj.sol\":2032:2122  function loop() public ... */\n    tag_70:\n        /* \"swaraj.sol\":2060:2119  while (count<array2.length){... */\n    tag_98:\n        /* \"swaraj.sol\":2073:2086  array2.length */\n      0x03\n        /* \"swaraj.sol\":2067:2072  count */\n      sload(0x09)\n        /* \"swaraj.sol\":2067:2086  count<array2.length */\n      lt\n        /* \"swaraj.sol\":2060:2119  while (count<array2.length){... */\n      iszero\n      tag_99\n      jumpi\n        /* \"swaraj.sol\":2110:2115  count */\n      sload(0x09)\n        /* \"swaraj.sol\":2094:2100  array2 */\n      0x06\n        /* \"swaraj.sol\":2101:2106  count */\n      sload(0x09)\n        /* \"swaraj.sol\":2094:2107  array2[count] */\n      0x03\n      dup2\n      lt\n      tag_100\n      jumpi\n      tag_101\n      tag_81\n      jump\t// in\n    tag_101:\n    tag_100:\n      add\n        /* \"swaraj.sol\":2094:2115  array2[count] = count */\n      dup2\n      swap1\n      sstore\n      pop\n        /* \"swaraj.sol\":2060:2119  while (count<array2.length){... */\n      jump(tag_98)\n    tag_99:\n        /* \"swaraj.sol\":2032:2122  function loop() public ... */\n      jump\t// out\n        /* \"swaraj.sol\":1410:1564  function getter2() public pure returns(uint){... */\n    tag_72:\n        /* \"swaraj.sol\":1449:1453  uint */\n      0x00\n        /* \"swaraj.sol\":1461:1470  uint roll */\n      dup1\n        /* \"swaraj.sol\":1471:1473  10 */\n      0x0a\n        /* \"swaraj.sol\":1461:1473  uint roll=10 */\n      swap1\n      pop\n        /* \"swaraj.sol\":1483:1487  roll */\n      dup1\n        /* \"swaraj.sol\":1476:1487  return roll */\n      swap2\n      pop\n      pop\n        /* \"swaraj.sol\":1410:1564  function getter2() public pure returns(uint){... */\n      swap1\n      jump\t// out\n        /* \"#utility.yul\":7:84   */\n    tag_104:\n        /* \"#utility.yul\":44:51   */\n      0x00\n        /* \"#utility.yul\":73:78   */\n      dup2\n        /* \"#utility.yul\":62:78   */\n      swap1\n      pop\n        /* \"#utility.yul\":7:84   */\n      swap2\n      swap1\n      pop\n      jump\t// out\n        /* \"#utility.yul\":90:208   */\n    tag_105:\n        /* \"#utility.yul\":177:201   */\n      tag_116\n        /* \"#utility.yul\":195:200   */\n      dup2\n        /* \"#utility.yul\":177:201   */\n      tag_104\n      jump\t// in\n    tag_116:\n        /* \"#utility.yul\":172:175   */\n      dup3\n        /* \"#utility.yul\":165:202   */\n      mstore\n        /* \"#utility.yul\":90:208   */\n      pop\n      pop\n      jump\t// out\n        /* \"#utility.yul\":214:436   */\n    tag_25:\n        /* \"#utility.yul\":307:311   */\n      0x00\n        /* \"#utility.yul\":345:347   */\n      0x20\n        /* \"#utility.yul\":334:343   */\n      dup3\n        /* \"#utility.yul\":330:348   */\n      add\n        /* \"#utility.yul\":322:348   */\n      swap1\n      pop\n        /* \"#utility.yul\":358:429   */\n      tag_118\n        /* \"#utility.yul\":426:427   */\n      0x00\n        /* \"#utility.yul\":415:424   */\n      dup4\n        /* \"#utility.yul\":411:428   */\n      add\n        /* \"#utility.yul\":402:408   */\n      dup5\n        /* \"#utility.yul\":358:429   */\n      tag_105\n      jump\t// in\n    tag_118:\n        /* \"#utility.yul\":214:436   */\n      swap3\n      swap2\n      pop\n      pop\n      jump\t// out\n        /* \"#utility.yul\":523:640   */\n    tag_107:\n        /* \"#utility.yul\":632:633   */\n      0x00\n        /* \"#utility.yul\":629:630   */\n      dup1\n        /* \"#utility.yul\":622:634   */\n      revert\n        /* \"#utility.yul\":769:891   */\n    tag_109:\n        /* \"#utility.yul\":842:866   */\n      tag_123\n        /* \"#utility.yul\":860:865   */\n      dup2\n        /* \"#utility.yul\":842:866   */\n      tag_104\n      jump\t// in\n    tag_123:\n        /* \"#utility.yul\":835:840   */\n      dup2\n        /* \"#utility.yul\":832:867   */\n      eq\n        /* \"#utility.yul\":822:885   */\n      tag_124\n      jumpi\n        /* \"#utility.yul\":881:882   */\n      0x00\n        /* \"#utility.yul\":878:879   */\n      dup1\n        /* \"#utility.yul\":871:883   */\n      revert\n        /* \"#utility.yul\":822:885   */\n    tag_124:\n        /* \"#utility.yul\":769:891   */\n      pop\n      jump\t// out\n        /* \"#utility.yul\":897:1036   */\n    tag_110:\n        /* \"#utility.yul\":943:948   */\n      0x00\n        /* \"#utility.yul\":981:987   */\n      dup2\n        /* \"#utility.yul\":968:988   */\n      calldataload\n        /* \"#utility.yul\":959:988   */\n      swap1\n      pop\n        /* \"#utility.yul\":997:1030   */\n      tag_126\n        /* \"#utility.yul\":1024:1029   */\n      dup2\n        /* \"#utility.yul\":997:1030   */\n      tag_109\n      jump\t// in\n    tag_126:\n        /* \"#utility.yul\":897:1036   */\n      swap3\n      swap2\n      pop\n      pop\n      jump\t// out\n        /* \"#utility.yul\":1042:1371   */\n    tag_36:\n        /* \"#utility.yul\":1101:1107   */\n      0x00\n        /* \"#utility.yul\":1150:1152   */\n      0x20\n        /* \"#utility.yul\":1138:1147   */\n      dup3\n        /* \"#utility.yul\":1129:1136   */\n      dup5\n        /* \"#utility.yul\":1125:1148   */\n      sub\n        /* \"#utility.yul\":1121:1153   */\n      slt\n        /* \"#utility.yul\":1118:1237   */\n      iszero\n      tag_128\n      jumpi\n        /* \"#utility.yul\":1156:1235   */\n      tag_129\n      tag_107\n      jump\t// in\n    tag_129:\n        /* \"#utility.yul\":1118:1237   */\n    tag_128:\n        /* \"#utility.yul\":1276:1277   */\n      0x00\n        /* \"#utility.yul\":1301:1354   */\n      tag_130\n        /* \"#utility.yul\":1346:1353   */\n      dup5\n        /* \"#utility.yul\":1337:1343   */\n      dup3\n        /* \"#utility.yul\":1326:1335   */\n      dup6\n        /* \"#utility.yul\":1322:1344   */\n      add\n        /* \"#utility.yul\":1301:1354   */\n      tag_110\n      jump\t// in\n    tag_130:\n        /* \"#utility.yul\":1291:1354   */\n      swap2\n      pop\n        /* \"#utility.yul\":1247:1364   */\n      pop\n        /* \"#utility.yul\":1042:1371   */\n      swap3\n      swap2\n      pop\n      pop\n      jump\t// out\n        /* \"#utility.yul\":1377:1467   */\n    tag_111:\n        /* \"#utility.yul\":1411:1418   */\n      0x00\n        /* \"#utility.yul\":1454:1459   */\n      dup2\n        /* \"#utility.yul\":1447:1460   */\n      iszero\n        /* \"#utility.yul\":1440:1461   */\n      iszero\n        /* \"#utility.yul\":1429:1461   */\n      swap1\n      pop\n        /* \"#utility.yul\":1377:1467   */\n      swap2\n      swap1\n      pop\n      jump\t// out\n        /* \"#utility.yul\":1473:1582   */\n    tag_112:\n        /* \"#utility.yul\":1554:1575   */\n      tag_133\n        /* \"#utility.yul\":1569:1574   */\n      dup2\n        /* \"#utility.yul\":1554:1575   */\n      tag_111\n      jump\t// in\n    tag_133:\n        /* \"#utility.yul\":1549:1552   */\n      dup3\n        /* \"#utility.yul\":1542:1576   */\n      mstore\n        /* \"#utility.yul\":1473:1582   */\n      pop\n      pop\n      jump\t// out\n        /* \"#utility.yul\":1588:1798   */\n    tag_42:\n        /* \"#utility.yul\":1675:1679   */\n      0x00\n        /* \"#utility.yul\":1713:1715   */\n      0x20\n        /* \"#utility.yul\":1702:1711   */\n      dup3\n        /* \"#utility.yul\":1698:1716   */\n      add\n        /* \"#utility.yul\":1690:1716   */\n      swap1\n      pop\n        /* \"#utility.yul\":1726:1791   */\n      tag_135\n        /* \"#utility.yul\":1788:1789   */\n      0x00\n        /* \"#utility.yul\":1777:1786   */\n      dup4\n        /* \"#utility.yul\":1773:1790   */\n      add\n        /* \"#utility.yul\":1764:1770   */\n      dup5\n        /* \"#utility.yul\":1726:1791   */\n      tag_112\n      jump\t// in\n    tag_135:\n        /* \"#utility.yul\":1588:1798   */\n      swap3\n      swap2\n      pop\n      pop\n      jump\t// out\n        /* \"#utility.yul\":1804:2278   */\n    tag_45:\n        /* \"#utility.yul\":1872:1878   */\n      0x00\n        /* \"#utility.yul\":1880:1886   */\n      dup1\n        /* \"#utility.yul\":1929:1931   */\n      0x40\n        /* \"#utility.yul\":1917:1926   */\n      dup4\n        /* \"#utility.yul\":1908:1915   */\n      dup6\n        /* \"#utility.yul\":1904:1927   */\n      sub\n        /* \"#utility.yul\":1900:1932   */\n      slt\n        /* \"#utility.yul\":1897:2016   */\n      iszero\n      tag_137\n      jumpi\n        /* \"#utility.yul\":1935:2014   */\n      tag_138\n      tag_107\n      jump\t// in\n    tag_138:\n        /* \"#utility.yul\":1897:2016   */\n    tag_137:\n        /* \"#utility.yul\":2055:2056   */\n      0x00\n        /* \"#utility.yul\":2080:2133   */\n      tag_139\n        /* \"#utility.yul\":2125:2132   */\n      dup6\n        /* \"#utility.yul\":2116:2122   */\n      dup3\n        /* \"#utility.yul\":2105:2114   */\n      dup7\n        /* \"#utility.yul\":2101:2123   */\n      add\n        /* \"#utility.yul\":2080:2133   */\n      tag_110\n      jump\t// in\n    tag_139:\n        /* \"#utility.yul\":2070:2133   */\n      swap3\n      pop\n        /* \"#utility.yul\":2026:2143   */\n      pop\n        /* \"#utility.yul\":2182:2184   */\n      0x20\n        /* \"#utility.yul\":2208:2261   */\n      tag_140\n        /* \"#utility.yul\":2253:2260   */\n      dup6\n        /* \"#utility.yul\":2244:2250   */\n      dup3\n        /* \"#utility.yul\":2233:2242   */\n      dup7\n        /* \"#utility.yul\":2229:2251   */\n      add\n        /* \"#utility.yul\":2208:2261   */\n      tag_110\n      jump\t// in\n    tag_140:\n        /* \"#utility.yul\":2198:2261   */\n      swap2\n      pop\n        /* \"#utility.yul\":2153:2271   */\n      pop\n        /* \"#utility.yul\":1804:2278   */\n      swap3\n      pop\n      swap3\n      swap1\n      pop\n      jump\t// out\n        /* \"#utility.yul\":2284:2464   */\n    tag_81:\n        /* \"#utility.yul\":2332:2409   */\n      0x4e487b7100000000000000000000000000000000000000000000000000000000\n        /* \"#utility.yul\":2329:2330   */\n      0x00\n        /* \"#utility.yul\":2322:2410   */\n      mstore\n        /* \"#utility.yul\":2429:2433   */\n      0x32\n        /* \"#utility.yul\":2426:2427   */\n      0x04\n        /* \"#utility.yul\":2419:2434   */\n      mstore\n        /* \"#utility.yul\":2453:2457   */\n      0x24\n        /* \"#utility.yul\":2450:2451   */\n      0x00\n        /* \"#utility.yul\":2443:2458   */\n      revert\n        /* \"#utility.yul\":2470:2650   */\n    tag_93:\n        /* \"#utility.yul\":2518:2595   */\n      0x4e487b7100000000000000000000000000000000000000000000000000000000\n        /* \"#utility.yul\":2515:2516   */\n      0x00\n        /* \"#utility.yul\":2508:2596   */\n      mstore\n        /* \"#utility.yul\":2615:2619   */\n      0x31\n        /* \"#utility.yul\":2612:2613   */\n      0x04\n        /* \"#utility.yul\":2605:2620   */\n      mstore\n        /* \"#utility.yul\":2639:2643   */\n      0x24\n        /* \"#utility.yul\":2636:2637   */\n      0x00\n        /* \"#utility.yul\":2629:2644   */\n      revert\n\n    auxdata: 0xa26469706673582212206afe53a22d33d9c367b1238ba286aa58b203c0895e854b32eebbee3c4a2a713664736f6c63430008120033\n}\n",
				"bytecode": {
					"linkReferences": {},
					"object": "60806040526040518060800160405280600a60ff168152602001601460ff168152602001601e60ff168152602001602860ff168152506001906004610045929190610060565b5034801561005257600080fd5b5060146000819055506100c2565b8260048101928215610094579160200282015b82811115610093578251829060ff16905591602001919060010190610073565b5b5090506100a191906100a5565b5090565b5b808211156100be5760008160009055506001016100a6565b5090565b610611806100d16000396000f3fe608060405234801561001057600080fd5b50600436106101005760003560e01c806361125b6311610097578063975057e711610066578063975057e714610277578063993a04b714610295578063a92100cb146102b3578063e255e5f9146102bd57610100565b806361125b63146101f15780636af900331461022157806371e5ee5f1461023d57806383c53fef1461026d57610100565b806338d94193116100d357806338d94193146101695780633fa4f245146101995780635298f36d146101b757806356d88e27146101d357610100565b806306661abd146101055780631f7b6d3214610123578063233ec35b14610141578063262a9dff1461014b575b600080fd5b61010d6102db565b60405161011a919061048e565b60405180910390f35b61012b6102e1565b604051610138919061048e565b60405180910390f35b6101496102ea565b005b6101536102f4565b604051610160919061048e565b60405180910390f35b610183600480360381019061017e91906104da565b6102fa565b604051610190919061048e565b60405180910390f35b6101a161031e565b6040516101ae9190610522565b60405180910390f35b6101d160048036038101906101cc919061053d565b610331565b005b6101db61034f565b6040516101e8919061048e565b60405180910390f35b61020b600480360381019061020691906104da565b610358565b604051610218919061048e565b60405180910390f35b61023b600480360381019061023691906104da565b610373565b005b610257600480360381019061025291906104da565b61039f565b604051610264919061048e565b60405180910390f35b6102756103ba565b005b61027f6103e4565b60405161028c919061048e565b60405180910390f35b61029d61042d565b6040516102aa919061048e565b60405180910390f35b6102bb610436565b005b6102c5610467565b6040516102d2919061048e565b60405180910390f35b60095481565b60006004905090565b600a600081905550565b60005481565b6005818154811061030a57600080fd5b906000526020600020016000915090505481565b600a60009054906101000a900460ff1681565b80600183600481106103465761034561057d565b5b01819055505050565b60006004905090565b6006816003811061036857600080fd5b016000915090505481565b600581908060018154018082558091505060019003906000526020600020016000909190919091505550565b600181600481106103af57600080fd5b016000915090505481565b60058054806103cc576103cb6105ac565b5b60019003818190600052602060002001600090559055565b600080600a905060006040518060400160405280600681526020017f73776172616a00000000000000000000000000000000000000000000000000008152509050819250505090565b60008054905090565b5b600360095410156104655760095460066009546003811061045b5761045a61057d565b5b0181905550610437565b565b600080600a90508091505090565b6000819050919050565b61048881610475565b82525050565b60006020820190506104a3600083018461047f565b92915050565b600080fd5b6104b781610475565b81146104c257600080fd5b50565b6000813590506104d4816104ae565b92915050565b6000602082840312156104f0576104ef6104a9565b5b60006104fe848285016104c5565b91505092915050565b60008115159050919050565b61051c81610507565b82525050565b60006020820190506105376000830184610513565b92915050565b60008060408385031215610554576105536104a9565b5b6000610562858286016104c5565b9250506020610573858286016104c5565b9150509250929050565b7f4e487b7100000000000000000000000000000000000000000000000000000000600052603260045260246000fd5b7f4e487b7100000000000000000000000000000000000000000000000000000000600052603160045260246000fdfea26469706673582212206afe53a22d33d9c367b1238ba286aa58b203c0895e854b32eebbee3c4a2a713664736f6c63430008120033",
					"opcodes": "PUSH1 0x80 PUSH1 0x40 MSTORE PUSH1 0x40 MLOAD DUP1 PUSH1 0x80 ADD PUSH1 0x40 MSTORE DUP1 PUSH1 0xA PUSH1 0xFF AND DUP2 MSTORE PUSH1 0x20 ADD PUSH1 0x14 PUSH1 0xFF AND DUP2 MSTORE PUSH1 0x20 ADD PUSH1 0x1E PUSH1 0xFF AND DUP2 MSTORE PUSH1 0x20 ADD PUSH1 0x28 PUSH1 0xFF AND DUP2 MSTORE POP PUSH1 0x1 SWAP1 PUSH1 0x4 PUSH2 0x45 SWAP3 SWAP2 SWAP1 PUSH2 0x60 JUMP JUMPDEST POP CALLVALUE DUP1 ISZERO PUSH2 0x52 JUMPI PUSH1 0x0 DUP1 REVERT JUMPDEST POP PUSH1 0x14 PUSH1 0x0 DUP2 SWAP1 SSTORE POP PUSH2 0xC2 JUMP JUMPDEST DUP3 PUSH1 0x4 DUP2 ADD SWAP3 DUP3 ISZERO PUSH2 0x94 JUMPI SWAP2 PUSH1 0x20 MUL DUP3 ADD JUMPDEST DUP3 DUP2 GT ISZERO PUSH2 0x93 JUMPI DUP3 MLOAD DUP3 SWAP1 PUSH1 0xFF AND SWAP1 SSTORE SWAP2 PUSH1 0x20 ADD SWAP2 SWAP1 PUSH1 0x1 ADD SWAP1 PUSH2 0x73 JUMP JUMPDEST JUMPDEST POP SWAP1 POP PUSH2 0xA1 SWAP2 SWAP1 PUSH2 0xA5 JUMP JUMPDEST POP SWAP1 JUMP JUMPDEST JUMPDEST DUP1 DUP3 GT ISZERO PUSH2 0xBE JUMPI PUSH1 0x0 DUP2 PUSH1 0x0 SWAP1 SSTORE POP PUSH1 0x1 ADD PUSH2 0xA6 JUMP JUMPDEST POP SWAP1 JUMP JUMPDEST PUSH2 0x611 DUP1 PUSH2 0xD1 PUSH1 0x0 CODECOPY PUSH1 0x0 RETURN INVALID PUSH1 0x80 PUSH1 0x40 MSTORE CALLVALUE DUP1 ISZERO PUSH2 0x10 JUMPI PUSH1 0x0 DUP1 REVERT JUMPDEST POP PUSH1 0x4 CALLDATASIZE LT PUSH2 0x100 JUMPI PUSH1 0x0 CALLDATALOAD PUSH1 0xE0 SHR DUP1 PUSH4 0x61125B63 GT PUSH2 0x97 JUMPI DUP1 PUSH4 0x975057E7 GT PUSH2 0x66 JUMPI DUP1 PUSH4 0x975057E7 EQ PUSH2 0x277 JUMPI DUP1 PUSH4 0x993A04B7 EQ PUSH2 0x295 JUMPI DUP1 PUSH4 0xA92100CB EQ PUSH2 0x2B3 JUMPI DUP1 PUSH4 0xE255E5F9 EQ PUSH2 0x2BD JUMPI PUSH2 0x100 JUMP JUMPDEST DUP1 PUSH4 0x61125B63 EQ PUSH2 0x1F1 JUMPI DUP1 PUSH4 0x6AF90033 EQ PUSH2 0x221 JUMPI DUP1 PUSH4 0x71E5EE5F EQ PUSH2 0x23D JUMPI DUP1 PUSH4 0x83C53FEF EQ PUSH2 0x26D JUMPI PUSH2 0x100 JUMP JUMPDEST DUP1 PUSH4 0x38D94193 GT PUSH2 0xD3 JUMPI DUP1 PUSH4 0x38D94193 EQ PUSH2 0x169 JUMPI DUP1 PUSH4 0x3FA4F245 EQ PUSH2 0x199 JUMPI DUP1 PUSH4 0x5298F36D EQ PUSH2 0x1B7 JUMPI DUP1 PUSH4 0x56D88E27 EQ PUSH2 0x1D3 JUMPI PUSH2 0x100 JUMP JUMPDEST DUP1 PUSH4 0x6661ABD EQ PUSH2 0x105 JUMPI DUP1 PUSH4 0x1F7B6D32 EQ PUSH2 0x123 JUMPI DUP1 PUSH4 0x233EC35B EQ PUSH2 0x141 JUMPI DUP1 PUSH4 0x262A9DFF EQ PUSH2 0x14B JUMPI JUMPDEST PUSH1 0x0 DUP1 REVERT JUMPDEST PUSH2 0x10D PUSH2 0x2DB JUMP JUMPDEST PUSH1 0x40 MLOAD PUSH2 0x11A SWAP2 SWAP1 PUSH2 0x48E JUMP JUMPDEST PUSH1 0x40 MLOAD DUP1 SWAP2 SUB SWAP1 RETURN JUMPDEST PUSH2 0x12B PUSH2 0x2E1 JUMP JUMPDEST PUSH1 0x40 MLOAD PUSH2 0x138 SWAP2 SWAP1 PUSH2 0x48E JUMP JUMPDEST PUSH1 0x40 MLOAD DUP1 SWAP2 SUB SWAP1 RETURN JUMPDEST PUSH2 0x149 PUSH2 0x2EA JUMP JUMPDEST STOP JUMPDEST PUSH2 0x153 PUSH2 0x2F4 JUMP JUMPDEST PUSH1 0x40 MLOAD PUSH2 0x160 SWAP2 SWAP1 PUSH2 0x48E JUMP JUMPDEST PUSH1 0x40 MLOAD DUP1 SWAP2 SUB SWAP1 RETURN JUMPDEST PUSH2 0x183 PUSH1 0x4 DUP1 CALLDATASIZE SUB DUP2 ADD SWAP1 PUSH2 0x17E SWAP2 SWAP1 PUSH2 0x4DA JUMP JUMPDEST PUSH2 0x2FA JUMP JUMPDEST PUSH1 0x40 MLOAD PUSH2 0x190 SWAP2 SWAP1 PUSH2 0x48E JUMP JUMPDEST PUSH1 0x40 MLOAD DUP1 SWAP2 SUB SWAP1 RETURN JUMPDEST PUSH2 0x1A1 PUSH2 0x31E JUMP JUMPDEST PUSH1 0x40 MLOAD PUSH2 0x1AE SWAP2 SWAP1 PUSH2 0x522 JUMP JUMPDEST PUSH1 0x40 MLOAD DUP1 SWAP2 SUB SWAP1 RETURN JUMPDEST PUSH2 0x1D1 PUSH1 0x4 DUP1 CALLDATASIZE SUB DUP2 ADD SWAP1 PUSH2 0x1CC SWAP2 SWAP1 PUSH2 0x53D JUMP JUMPDEST PUSH2 0x331 JUMP JUMPDEST STOP JUMPDEST PUSH2 0x1DB PUSH2 0x34F JUMP JUMPDEST PUSH1 0x40 MLOAD PUSH2 0x1E8 SWAP2 SWAP1 PUSH2 0x48E JUMP JUMPDEST PUSH1 0x40 MLOAD DUP1 SWAP2 SUB SWAP1 RETURN JUMPDEST PUSH2 0x20B PUSH1 0x4 DUP1 CALLDATASIZE SUB DUP2 ADD SWAP1 PUSH2 0x206 SWAP2 SWAP1 PUSH2 0x4DA JUMP JUMPDEST PUSH2 0x358 JUMP JUMPDEST PUSH1 0x40 MLOAD PUSH2 0x218 SWAP2 SWAP1 PUSH2 0x48E JUMP JUMPDEST PUSH1 0x40 MLOAD DUP1 SWAP2 SUB SWAP1 RETURN JUMPDEST PUSH2 0x23B PUSH1 0x4 DUP1 CALLDATASIZE SUB DUP2 ADD SWAP1 PUSH2 0x236 SWAP2 SWAP1 PUSH2 0x4DA JUMP JUMPDEST PUSH2 0x373 JUMP JUMPDEST STOP JUMPDEST PUSH2 0x257 PUSH1 0x4 DUP1 CALLDATASIZE SUB DUP2 ADD SWAP1 PUSH2 0x252 SWAP2 SWAP1 PUSH2 0x4DA JUMP JUMPDEST PUSH2 0x39F JUMP JUMPDEST PUSH1 0x40 MLOAD PUSH2 0x264 SWAP2 SWAP1 PUSH2 0x48E JUMP JUMPDEST PUSH1 0x40 MLOAD DUP1 SWAP2 SUB SWAP1 RETURN JUMPDEST PUSH2 0x275 PUSH2 0x3BA JUMP JUMPDEST STOP JUMPDEST PUSH2 0x27F PUSH2 0x3E4 JUMP JUMPDEST PUSH1 0x40 MLOAD PUSH2 0x28C SWAP2 SWAP1 PUSH2 0x48E JUMP JUMPDEST PUSH1 0x40 MLOAD DUP1 SWAP2 SUB SWAP1 RETURN JUMPDEST PUSH2 0x29D PUSH2 0x42D JUMP JUMPDEST PUSH1 0x40 MLOAD PUSH2 0x2AA SWAP2 SWAP1 PUSH2 0x48E JUMP JUMPDEST PUSH1 0x40 MLOAD DUP1 SWAP2 SUB SWAP1 RETURN JUMPDEST PUSH2 0x2BB PUSH2 0x436 JUMP JUMPDEST STOP JUMPDEST PUSH2 0x2C5 PUSH2 0x467 JUMP JUMPDEST PUSH1 0x40 MLOAD PUSH2 0x2D2 SWAP2 SWAP1 PUSH2 0x48E JUMP JUMPDEST PUSH1 0x40 MLOAD DUP1 SWAP2 SUB SWAP1 RETURN JUMPDEST PUSH1 0x9 SLOAD DUP2 JUMP JUMPDEST PUSH1 0x0 PUSH1 0x4 SWAP1 POP SWAP1 JUMP JUMPDEST PUSH1 0xA PUSH1 0x0 DUP2 SWAP1 SSTORE POP JUMP JUMPDEST PUSH1 0x0 SLOAD DUP2 JUMP JUMPDEST PUSH1 0x5 DUP2 DUP2 SLOAD DUP2 LT PUSH2 0x30A JUMPI PUSH1 0x0 DUP1 REVERT JUMPDEST SWAP1 PUSH1 0x0 MSTORE PUSH1 0x20 PUSH1 0x0 KECCAK256 ADD PUSH1 0x0 SWAP2 POP SWAP1 POP SLOAD DUP2 JUMP JUMPDEST PUSH1 0xA PUSH1 0x0 SWAP1 SLOAD SWAP1 PUSH2 0x100 EXP SWAP1 DIV PUSH1 0xFF AND DUP2 JUMP JUMPDEST DUP1 PUSH1 0x1 DUP4 PUSH1 0x4 DUP2 LT PUSH2 0x346 JUMPI PUSH2 0x345 PUSH2 0x57D JUMP JUMPDEST JUMPDEST ADD DUP2 SWAP1 SSTORE POP POP POP JUMP JUMPDEST PUSH1 0x0 PUSH1 0x4 SWAP1 POP SWAP1 JUMP JUMPDEST PUSH1 0x6 DUP2 PUSH1 0x3 DUP2 LT PUSH2 0x368 JUMPI PUSH1 0x0 DUP1 REVERT JUMPDEST ADD PUSH1 0x0 SWAP2 POP SWAP1 POP SLOAD DUP2 JUMP JUMPDEST PUSH1 0x5 DUP2 SWAP1 DUP1 PUSH1 0x1 DUP2 SLOAD ADD DUP1 DUP3 SSTORE DUP1 SWAP2 POP POP PUSH1 0x1 SWAP1 SUB SWAP1 PUSH1 0x0 MSTORE PUSH1 0x20 PUSH1 0x0 KECCAK256 ADD PUSH1 0x0 SWAP1 SWAP2 SWAP1 SWAP2 SWAP1 SWAP2 POP SSTORE POP JUMP JUMPDEST PUSH1 0x1 DUP2 PUSH1 0x4 DUP2 LT PUSH2 0x3AF JUMPI PUSH1 0x0 DUP1 REVERT JUMPDEST ADD PUSH1 0x0 SWAP2 POP SWAP1 POP SLOAD DUP2 JUMP JUMPDEST PUSH1 0x5 DUP1 SLOAD DUP1 PUSH2 0x3CC JUMPI PUSH2 0x3CB PUSH2 0x5AC JUMP JUMPDEST JUMPDEST PUSH1 0x1 SWAP1 SUB DUP2 DUP2 SWAP1 PUSH1 0x0 MSTORE PUSH1 0x20 PUSH1 0x0 KECCAK256 ADD PUSH1 0x0 SWAP1 SSTORE SWAP1 SSTORE JUMP JUMPDEST PUSH1 0x0 DUP1 PUSH1 0xA SWAP1 POP PUSH1 0x0 PUSH1 0x40 MLOAD DUP1 PUSH1 0x40 ADD PUSH1 0x40 MSTORE DUP1 PUSH1 0x6 DUP2 MSTORE PUSH1 0x20 ADD PUSH32 0x73776172616A0000000000000000000000000000000000000000000000000000 DUP2 MSTORE POP SWAP1 POP DUP2 SWAP3 POP POP POP SWAP1 JUMP JUMPDEST PUSH1 0x0 DUP1 SLOAD SWAP1 POP SWAP1 JUMP JUMPDEST JUMPDEST PUSH1 0x3 PUSH1 0x9 SLOAD LT ISZERO PUSH2 0x465 JUMPI PUSH1 0x9 SLOAD PUSH1 0x6 PUSH1 0x9 SLOAD PUSH1 0x3 DUP2 LT PUSH2 0x45B JUMPI PUSH2 0x45A PUSH2 0x57D JUMP JUMPDEST JUMPDEST ADD DUP2 SWAP1 SSTORE POP PUSH2 0x437 JUMP JUMPDEST JUMP JUMPDEST PUSH1 0x0 DUP1 PUSH1 0xA SWAP1 POP DUP1 SWAP2 POP POP SWAP1 JUMP JUMPDEST PUSH1 0x0 DUP2 SWAP1 POP SWAP2 SWAP1 POP JUMP JUMPDEST PUSH2 0x488 DUP2 PUSH2 0x475 JUMP JUMPDEST DUP3 MSTORE POP POP JUMP JUMPDEST PUSH1 0x0 PUSH1 0x20 DUP3 ADD SWAP1 POP PUSH2 0x4A3 PUSH1 0x0 DUP4 ADD DUP5 PUSH2 0x47F JUMP JUMPDEST SWAP3 SWAP2 POP POP JUMP JUMPDEST PUSH1 0x0 DUP1 REVERT JUMPDEST PUSH2 0x4B7 DUP2 PUSH2 0x475 JUMP JUMPDEST DUP2 EQ PUSH2 0x4C2 JUMPI PUSH1 0x0 DUP1 REVERT JUMPDEST POP JUMP JUMPDEST PUSH1 0x0 DUP2 CALLDATALOAD SWAP1 POP PUSH2 0x4D4 DUP2 PUSH2 0x4AE JUMP JUMPDEST SWAP3 SWAP2 POP POP JUMP JUMPDEST PUSH1 0x0 PUSH1 0x20 DUP3 DUP5 SUB SLT ISZERO PUSH2 0x4F0 JUMPI PUSH2 0x4EF PUSH2 0x4A9 JUMP JUMPDEST JUMPDEST PUSH1 0x0 PUSH2 0x4FE DUP5 DUP3 DUP6 ADD PUSH2 0x4C5 JUMP JUMPDEST SWAP2 POP POP SWAP3 SWAP2 POP POP JUMP JUMPDEST PUSH1 0x0 DUP2 ISZERO ISZERO SWAP1 POP SWAP2 SWAP1 POP JUMP JUMPDEST PUSH2 0x51C DUP2 PUSH2 0x507 JUMP JUMPDEST DUP3 MSTORE POP POP JUMP JUMPDEST PUSH1 0x0 PUSH1 0x20 DUP3 ADD SWAP1 POP PUSH2 0x537 PUSH1 0x0 DUP4 ADD DUP5 PUSH2 0x513 JUMP JUMPDEST SWAP3 SWAP2 POP POP JUMP JUMPDEST PUSH1 0x0 DUP1 PUSH1 0x40 DUP4 DUP6 SUB SLT ISZERO PUSH2 0x554 JUMPI PUSH2 0x553 PUSH2 0x4A9 JUMP JUMPDEST JUMPDEST PUSH1 0x0 PUSH2 0x562 DUP6 DUP3 DUP7 ADD PUSH2 0x4C5 JUMP JUMPDEST SWAP3 POP POP PUSH1 0x20 PUSH2 0x573 DUP6 DUP3 DUP7 ADD PUSH2 0x4C5 JUMP JUMPDEST SWAP2 POP POP SWAP3 POP SWAP3 SWAP1 POP JUMP JUMPDEST PUSH32 0x4E487B7100000000000000000000000000000000000000000000000000000000 PUSH1 0x0 MSTORE PUSH1 0x32 PUSH1 0x4 MSTORE PUSH1 0x24 PUSH1 0x0 REVERT JUMPDEST PUSH32 0x4E487B7100000000000000000000000000000000000000000000000000000000 PUSH1 0x0 MSTORE PUSH1 0x31 PUSH1 0x4 MSTORE PUSH1 0x24 PUSH1 0x0 REVERT INVALID LOG2 PUSH5 0x6970667358 0x22 SLT KECCAK256 PUSH11 0xFE53A22D33D9C367B1238B LOG2 DUP7 0xAA PC 0xB2 SUB 0xC0 DUP10 0x5E DUP6 0x4B ORIGIN 0xEE 0xBB 0xEE EXTCODECOPY 0x4A 0x2A PUSH18 0x3664736F6C63430008120033000000000000 "
				},
				"gasEstimates": {
					"creation": {
						"codeDepositCost": "310600",
						"executionCost": "infinite",
						"totalCost": "infinite"
					},
					"external": {
						"age()": "2519",
						"arr(uint256)": "infinite",
						"array(uint256)": "infinite",
						"array2(uint256)": "infinite",
						"count()": "2453",
						"getter()": "2481",
						"getter2()": "438",
						"len()": "426",
						"length()": "383",
						"loop()": "infinite",
						"popelement()": "29534",
						"pushelement(uint256)": "46874",
						"setage()": "22326",
						"setter(uint256,uint256)": "infinite",
						"store()": "438",
						"value()": "2516"
					}
				},
				"methodIdentifiers": {
					"age()": "262a9dff",
					"arr(uint256)": "71e5ee5f",
					"array(uint256)": "38d94193",
					"array2(uint256)": "61125b63",
					"count()": "06661abd",
					"getter()": "993a04b7",
					"getter2()": "e255e5f9",
					"len()": "56d88e27",
					"length()": "1f7b6d32",
					"loop()": "a92100cb",
					"popelement()": "83c53fef",
					"pushelement(uint256)": "6af90033",
					"setage()": "233ec35b",
					"setter(uint256,uint256)": "5298f36d",
					"store()": "975057e7",
					"value()": "3fa4f245"
				}
			},
			"storageLayout": {
				"storage": [
					{
						"astId": 3,
						"contract": "swaraj.sol:state",
						"label": "age",
						"offset": 0,
						"slot": "0",
						"type": "t_uint256"
					},
					{
						"astId": 64,
						"contract": "swaraj.sol:state",
						"label": "arr",
						"offset": 0,
						"slot": "1",
						"type": "t_array(t_uint256)4_storage"
					},
					{
						"astId": 90,
						"contract": "swaraj.sol:state",
						"label": "array",
						"offset": 0,
						"slot": "5",
						"type": "t_array(t_uint256)dyn_storage"
					},
					{
						"astId": 124,
						"contract": "swaraj.sol:state",
						"label": "array2",
						"offset": 0,
						"slot": "6",
						"type": "t_array(t_uint256)3_storage"
					},
					{
						"astId": 126,
						"contract": "swaraj.sol:state",
						"label": "count",
						"offset": 0,
						"slot": "9",
						"type": "t_uint256"
					},
					{
						"astId": 144,
						"contract": "swaraj.sol:state",
						"label": "value",
						"offset": 0,
						"slot": "10",
						"type": "t_bool"
					}
				],
				"types": {
					"t_array(t_uint256)3_storage": {
						"base": "t_uint256",
						"encoding": "inplace",
						"label": "uint256[3]",
						"numberOfBytes": "96"
					},
					"t_array(t_uint256)4_storage": {
						"base": "t_uint256",
						"encoding": "inplace",
						"label": "uint256[4]",
						"numberOfBytes": "128"
					},
					"t_array(t_uint256)dyn_storage": {
						"base": "t_uint256",
						"encoding": "dynamic_array",
						"label": "uint256[]",
						"numberOfBytes": "32"
					},
					"t_bool": {
						"encoding": "inplace",
						"label": "bool",
						"numberOfBytes": "1"
					},
					"t_uint256": {
						"encoding": "inplace",
						"label": "uint256",
						"numberOfBytes": "32"
					}
				}
			},
			"userdoc": {
				"kind": "user",
				"methods": {},
				"version": 1
			}
		}
	}
}