{
	"interacting with ganache.sol": {
		"Registry": {
			"abi": [
				{
					"inputs": [],
					"stateMutability": "nonpayable",
					"type": "constructor"
				},
				{
					"inputs": [
						{
							"internalType": "uint256",
							"name": "rollno",
							"type": "uint256"
						},
						{
							"internalType": "uint256",
							"name": "regno",
							"type": "uint256"
						},
						{
							"internalType": "uint256",
							"name": "classno",
							"type": "uint256"
						}
					],
					"name": "FillDetails",
					"outputs": [],
					"stateMutability": "nonpayable",
					"type": "function"
				},
				{
					"inputs": [
						{
							"internalType": "string",
							"name": "name",
							"type": "string"
						}
					],
					"name": "ViewStudentClassno",
					"outputs": [
						{
							"internalType": "uint256",
							"name": "",
							"type": "uint256"
						}
					],
					"stateMutability": "view",
					"type": "function"
				},
				{
					"inputs": [
						{
							"internalType": "string",
							"name": "name",
							"type": "string"
						}
					],
					"name": "ViewStudentRegno",
					"outputs": [
						{
							"internalType": "uint256",
							"name": "",
							"type": "uint256"
						}
					],
					"stateMutability": "view",
					"type": "function"
				},
				{
					"inputs": [
						{
							"internalType": "string",
							"name": "name",
							"type": "string"
						}
					],
					"name": "ViewStudentRollno",
					"outputs": [
						{
							"internalType": "uint256",
							"name": "",
							"type": "uint256"
						}
					],
					"stateMutability": "view",
					"type": "function"
				},
				{
					"inputs": [
						{
							"internalType": "string",
							"name": "name",
							"type": "string"
						}
					],
					"name": "enroll",
					"outputs": [],
					"stateMutability": "payable",
					"type": "function"
				}
			],
			"devdoc": {
				"kind": "dev",
				"methods": {},
				"version": 1
			},
			"evm": {
				"assembly": "    /* \"interacting with ganache.sol\":74:1022  contract Registry{... */\n  mstore(0x40, 0x80)\n    /* \"interacting with ganache.sol\":100:150  constructor(){... */\n  callvalue\n  dup1\n  iszero\n  tag_1\n  jumpi\n  0x00\n  dup1\n  revert\ntag_1:\n  pop\n    /* \"interacting with ganache.sol\":136:146  msg.sender */\n  caller\n    /* \"interacting with ganache.sol\":120:133  administrator */\n  0x04\n  0x00\n    /* \"interacting with ganache.sol\":120:146  administrator = msg.sender */\n  0x0100\n  exp\n  dup2\n  sload\n  dup2\n  0xffffffffffffffffffffffffffffffffffffffff\n  mul\n  not\n  and\n  swap1\n  dup4\n  0xffffffffffffffffffffffffffffffffffffffff\n  and\n  mul\n  or\n  swap1\n  sstore\n  pop\n    /* \"interacting with ganache.sol\":74:1022  contract Registry{... */\n  dataSize(sub_0)\n  dup1\n  dataOffset(sub_0)\n  0x00\n  codecopy\n  0x00\n  return\nstop\n\nsub_0: assembly {\n        /* \"interacting with ganache.sol\":74:1022  contract Registry{... */\n      mstore(0x40, 0x80)\n      jumpi(tag_1, lt(calldatasize, 0x04))\n      shr(0xe0, calldataload(0x00))\n      dup1\n      0x67b09cdb\n      eq\n      tag_2\n      jumpi\n      dup1\n      0x80f7bd8b\n      eq\n      tag_3\n      jumpi\n      dup1\n      0x9a1145cb\n      eq\n      tag_4\n      jumpi\n      dup1\n      0xcbe28563\n      eq\n      tag_5\n      jumpi\n      dup1\n      0xe15ed529\n      eq\n      tag_6\n      jumpi\n    tag_1:\n      0x00\n      dup1\n      revert\n        /* \"interacting with ganache.sol\":338:451  function enroll(string memory name) public payable{... */\n    tag_2:\n      tag_7\n      0x04\n      dup1\n      calldatasize\n      sub\n      dup2\n      add\n      swap1\n      tag_8\n      swap2\n      swap1\n      tag_9\n      jump\t// in\n    tag_8:\n      tag_10\n      jump\t// in\n    tag_7:\n      stop\n        /* \"interacting with ganache.sol\":794:900  function ViewStudentRegno(string memory name) public view returns (uint) {... */\n    tag_3:\n      callvalue\n      dup1\n      iszero\n      tag_11\n      jumpi\n      0x00\n      dup1\n      revert\n    tag_11:\n      pop\n      tag_12\n      0x04\n      dup1\n      calldatasize\n      sub\n      dup2\n      add\n      swap1\n      tag_13\n      swap2\n      swap1\n      tag_9\n      jump\t// in\n    tag_13:\n      tag_14\n      jump\t// in\n    tag_12:\n      mload(0x40)\n      tag_15\n      swap2\n      swap1\n      tag_16\n      jump\t// in\n    tag_15:\n      mload(0x40)\n      dup1\n      swap2\n      sub\n      swap1\n      return\n        /* \"interacting with ganache.sol\":681:790  function ViewStudentRollno(string memory name) public view returns (uint) {... */\n    tag_4:\n      callvalue\n      dup1\n      iszero\n      tag_17\n      jumpi\n      0x00\n      dup1\n      revert\n    tag_17:\n      pop\n      tag_18\n      0x04\n      dup1\n      calldatasize\n      sub\n      dup2\n      add\n      swap1\n      tag_19\n      swap2\n      swap1\n      tag_9\n      jump\t// in\n    tag_19:\n      tag_20\n      jump\t// in\n    tag_18:\n      mload(0x40)\n      tag_21\n      swap2\n      swap1\n      tag_16\n      jump\t// in\n    tag_21:\n      mload(0x40)\n      dup1\n      swap2\n      sub\n      swap1\n      return\n        /* \"interacting with ganache.sol\":455:677  function FillDetails(uint rollno , uint regno , uint classno) public {... */\n    tag_5:\n      callvalue\n      dup1\n      iszero\n      tag_22\n      jumpi\n      0x00\n      dup1\n      revert\n    tag_22:\n      pop\n      tag_23\n      0x04\n      dup1\n      calldatasize\n      sub\n      dup2\n      add\n      swap1\n      tag_24\n      swap2\n      swap1\n      tag_25\n      jump\t// in\n    tag_24:\n      tag_26\n      jump\t// in\n    tag_23:\n      stop\n        /* \"interacting with ganache.sol\":904:1015  function ViewStudentClassno(string memory name) public view returns (uint) {... */\n    tag_6:\n      callvalue\n      dup1\n      iszero\n      tag_27\n      jumpi\n      0x00\n      dup1\n      revert\n    tag_27:\n      pop\n      tag_28\n      0x04\n      dup1\n      calldatasize\n      sub\n      dup2\n      add\n      swap1\n      tag_29\n      swap2\n      swap1\n      tag_9\n      jump\t// in\n    tag_29:\n      tag_30\n      jump\t// in\n    tag_28:\n      mload(0x40)\n      tag_31\n      swap2\n      swap1\n      tag_16\n      jump\t// in\n    tag_31:\n      mload(0x40)\n      dup1\n      swap2\n      sub\n      swap1\n      return\n        /* \"interacting with ganache.sol\":338:451  function enroll(string memory name) public payable{... */\n    tag_10:\n        /* \"interacting with ganache.sol\":416:423  1 ether */\n      0x0de0b6b3a7640000\n        /* \"interacting with ganache.sol\":403:412  msg.value */\n      callvalue\n        /* \"interacting with ganache.sol\":403:423  msg.value == 1 ether */\n      eq\n        /* \"interacting with ganache.sol\":395:424  require(msg.value == 1 ether) */\n      tag_33\n      jumpi\n      0x00\n      dup1\n      revert\n    tag_33:\n        /* \"interacting with ganache.sol\":441:445  name */\n      dup1\n        /* \"interacting with ganache.sol\":431:438  student */\n      0x03\n        /* \"interacting with ganache.sol\":431:445  student = name */\n      swap1\n      dup2\n      tag_34\n      swap2\n      swap1\n      tag_35\n      jump\t// in\n    tag_34:\n      pop\n        /* \"interacting with ganache.sol\":338:451  function enroll(string memory name) public payable{... */\n      pop\n      jump\t// out\n        /* \"interacting with ganache.sol\":794:900  function ViewStudentRegno(string memory name) public view returns (uint) {... */\n    tag_14:\n        /* \"interacting with ganache.sol\":861:865  uint */\n      0x00\n        /* \"interacting with ganache.sol\":883:889  regnos */\n      0x01\n        /* \"interacting with ganache.sol\":890:894  name */\n      dup3\n        /* \"interacting with ganache.sol\":883:895  regnos[name] */\n      mload(0x40)\n      tag_37\n      swap2\n      swap1\n      tag_38\n      jump\t// in\n    tag_37:\n      swap1\n      dup2\n      mstore\n      0x20\n      add\n      mload(0x40)\n      dup1\n      swap2\n      sub\n      swap1\n      keccak256\n      sload\n        /* \"interacting with ganache.sol\":876:895  return regnos[name] */\n      swap1\n      pop\n        /* \"interacting with ganache.sol\":794:900  function ViewStudentRegno(string memory name) public view returns (uint) {... */\n      swap2\n      swap1\n      pop\n      jump\t// out\n        /* \"interacting with ganache.sol\":681:790  function ViewStudentRollno(string memory name) public view returns (uint) {... */\n    tag_20:\n        /* \"interacting with ganache.sol\":749:753  uint */\n      0x00\n        /* \"interacting with ganache.sol\":771:778  rollnos */\n      dup1\n        /* \"interacting with ganache.sol\":779:783  name */\n      dup3\n        /* \"interacting with ganache.sol\":771:784  rollnos[name] */\n      mload(0x40)\n      tag_40\n      swap2\n      swap1\n      tag_38\n      jump\t// in\n    tag_40:\n      swap1\n      dup2\n      mstore\n      0x20\n      add\n      mload(0x40)\n      dup1\n      swap2\n      sub\n      swap1\n      keccak256\n      sload\n        /* \"interacting with ganache.sol\":764:784  return rollnos[name] */\n      swap1\n      pop\n        /* \"interacting with ganache.sol\":681:790  function ViewStudentRollno(string memory name) public view returns (uint) {... */\n      swap2\n      swap1\n      pop\n      jump\t// out\n        /* \"interacting with ganache.sol\":455:677  function FillDetails(uint rollno , uint regno , uint classno) public {... */\n    tag_26:\n        /* \"interacting with ganache.sol\":553:566  administrator */\n      0x04\n      0x00\n      swap1\n      sload\n      swap1\n      0x0100\n      exp\n      swap1\n      div\n      0xffffffffffffffffffffffffffffffffffffffff\n      and\n        /* \"interacting with ganache.sol\":539:566  msg.sender == administrator */\n      0xffffffffffffffffffffffffffffffffffffffff\n      and\n        /* \"interacting with ganache.sol\":539:549  msg.sender */\n      caller\n        /* \"interacting with ganache.sol\":539:566  msg.sender == administrator */\n      0xffffffffffffffffffffffffffffffffffffffff\n      and\n      eq\n        /* \"interacting with ganache.sol\":531:567  require(msg.sender == administrator) */\n      tag_42\n      jumpi\n      0x00\n      dup1\n      revert\n    tag_42:\n        /* \"interacting with ganache.sol\":594:600  rollno */\n      dup3\n        /* \"interacting with ganache.sol\":575:582  rollnos */\n      0x00\n        /* \"interacting with ganache.sol\":583:590  student */\n      0x03\n        /* \"interacting with ganache.sol\":575:591  rollnos[student] */\n      mload(0x40)\n      tag_43\n      swap2\n      swap1\n      tag_44\n      jump\t// in\n    tag_43:\n      swap1\n      dup2\n      mstore\n      0x20\n      add\n      mload(0x40)\n      dup1\n      swap2\n      sub\n      swap1\n      keccak256\n        /* \"interacting with ganache.sol\":575:600  rollnos[student] = rollno */\n      dup2\n      swap1\n      sstore\n      pop\n        /* \"interacting with ganache.sol\":628:633  regno */\n      dup2\n        /* \"interacting with ganache.sol\":610:616  regnos */\n      0x01\n        /* \"interacting with ganache.sol\":617:624  student */\n      0x03\n        /* \"interacting with ganache.sol\":610:625  regnos[student] */\n      mload(0x40)\n      tag_45\n      swap2\n      swap1\n      tag_44\n      jump\t// in\n    tag_45:\n      swap1\n      dup2\n      mstore\n      0x20\n      add\n      mload(0x40)\n      dup1\n      swap2\n      sub\n      swap1\n      keccak256\n        /* \"interacting with ganache.sol\":610:633  regnos[student] = regno */\n      dup2\n      swap1\n      sstore\n      pop\n        /* \"interacting with ganache.sol\":666:673  classno */\n      dup1\n        /* \"interacting with ganache.sol\":646:654  classnos */\n      0x02\n        /* \"interacting with ganache.sol\":655:662  student */\n      0x03\n        /* \"interacting with ganache.sol\":646:663  classnos[student] */\n      mload(0x40)\n      tag_46\n      swap2\n      swap1\n      tag_44\n      jump\t// in\n    tag_46:\n      swap1\n      dup2\n      mstore\n      0x20\n      add\n      mload(0x40)\n      dup1\n      swap2\n      sub\n      swap1\n      keccak256\n        /* \"interacting with ganache.sol\":646:673  classnos[student] = classno */\n      dup2\n      swap1\n      sstore\n      pop\n        /* \"interacting with ganache.sol\":455:677  function FillDetails(uint rollno , uint regno , uint classno) public {... */\n      pop\n      pop\n      pop\n      jump\t// out\n        /* \"interacting with ganache.sol\":904:1015  function ViewStudentClassno(string memory name) public view returns (uint) {... */\n    tag_30:\n        /* \"interacting with ganache.sol\":973:977  uint */\n      0x00\n        /* \"interacting with ganache.sol\":995:1003  classnos */\n      0x02\n        /* \"interacting with ganache.sol\":1004:1008  name */\n      dup3\n        /* \"interacting with ganache.sol\":995:1009  classnos[name] */\n      mload(0x40)\n      tag_48\n      swap2\n      swap1\n      tag_38\n      jump\t// in\n    tag_48:\n      swap1\n      dup2\n      mstore\n      0x20\n      add\n      mload(0x40)\n      dup1\n      swap2\n      sub\n      swap1\n      keccak256\n      sload\n        /* \"interacting with ganache.sol\":988:1009  return classnos[name] */\n      swap1\n      pop\n        /* \"interacting with ganache.sol\":904:1015  function ViewStudentClassno(string memory name) public view returns (uint) {... */\n      swap2\n      swap1\n      pop\n      jump\t// out\n        /* \"#utility.yul\":7:82   */\n    tag_49:\n        /* \"#utility.yul\":40:46   */\n      0x00\n        /* \"#utility.yul\":73:75   */\n      0x40\n        /* \"#utility.yul\":67:76   */\n      mload\n        /* \"#utility.yul\":57:76   */\n      swap1\n      pop\n        /* \"#utility.yul\":7:82   */\n      swap1\n      jump\t// out\n        /* \"#utility.yul\":88:205   */\n    tag_50:\n        /* \"#utility.yul\":197:198   */\n      0x00\n        /* \"#utility.yul\":194:195   */\n      dup1\n        /* \"#utility.yul\":187:199   */\n      revert\n        /* \"#utility.yul\":211:328   */\n    tag_51:\n        /* \"#utility.yul\":320:321   */\n      0x00\n        /* \"#utility.yul\":317:318   */\n      dup1\n        /* \"#utility.yul\":310:322   */\n      revert\n        /* \"#utility.yul\":334:451   */\n    tag_52:\n        /* \"#utility.yul\":443:444   */\n      0x00\n        /* \"#utility.yul\":440:441   */\n      dup1\n        /* \"#utility.yul\":433:445   */\n      revert\n        /* \"#utility.yul\":457:574   */\n    tag_53:\n        /* \"#utility.yul\":566:567   */\n      0x00\n        /* \"#utility.yul\":563:564   */\n      dup1\n        /* \"#utility.yul\":556:568   */\n      revert\n        /* \"#utility.yul\":580:682   */\n    tag_54:\n        /* \"#utility.yul\":621:627   */\n      0x00\n        /* \"#utility.yul\":672:674   */\n      0x1f\n        /* \"#utility.yul\":668:675   */\n      not\n        /* \"#utility.yul\":663:665   */\n      0x1f\n        /* \"#utility.yul\":656:661   */\n      dup4\n        /* \"#utility.yul\":652:666   */\n      add\n        /* \"#utility.yul\":648:676   */\n      and\n        /* \"#utility.yul\":638:676   */\n      swap1\n      pop\n        /* \"#utility.yul\":580:682   */\n      swap2\n      swap1\n      pop\n      jump\t// out\n        /* \"#utility.yul\":688:868   */\n    tag_55:\n        /* \"#utility.yul\":736:813   */\n      0x4e487b7100000000000000000000000000000000000000000000000000000000\n        /* \"#utility.yul\":733:734   */\n      0x00\n        /* \"#utility.yul\":726:814   */\n      mstore\n        /* \"#utility.yul\":833:837   */\n      0x41\n        /* \"#utility.yul\":830:831   */\n      0x04\n        /* \"#utility.yul\":823:838   */\n      mstore\n        /* \"#utility.yul\":857:861   */\n      0x24\n        /* \"#utility.yul\":854:855   */\n      0x00\n        /* \"#utility.yul\":847:862   */\n      revert\n        /* \"#utility.yul\":874:1155   */\n    tag_56:\n        /* \"#utility.yul\":957:984   */\n      tag_97\n        /* \"#utility.yul\":979:983   */\n      dup3\n        /* \"#utility.yul\":957:984   */\n      tag_54\n      jump\t// in\n    tag_97:\n        /* \"#utility.yul\":949:955   */\n      dup2\n        /* \"#utility.yul\":945:985   */\n      add\n        /* \"#utility.yul\":1087:1093   */\n      dup2\n        /* \"#utility.yul\":1075:1085   */\n      dup2\n        /* \"#utility.yul\":1072:1094   */\n      lt\n        /* \"#utility.yul\":1051:1069   */\n      0xffffffffffffffff\n        /* \"#utility.yul\":1039:1049   */\n      dup3\n        /* \"#utility.yul\":1036:1070   */\n      gt\n        /* \"#utility.yul\":1033:1095   */\n      or\n        /* \"#utility.yul\":1030:1118   */\n      iszero\n      tag_98\n      jumpi\n        /* \"#utility.yul\":1098:1116   */\n      tag_99\n      tag_55\n      jump\t// in\n    tag_99:\n        /* \"#utility.yul\":1030:1118   */\n    tag_98:\n        /* \"#utility.yul\":1138:1148   */\n      dup1\n        /* \"#utility.yul\":1134:1136   */\n      0x40\n        /* \"#utility.yul\":1127:1149   */\n      mstore\n        /* \"#utility.yul\":917:1155   */\n      pop\n        /* \"#utility.yul\":874:1155   */\n      pop\n      pop\n      jump\t// out\n        /* \"#utility.yul\":1161:1290   */\n    tag_57:\n        /* \"#utility.yul\":1195:1201   */\n      0x00\n        /* \"#utility.yul\":1222:1242   */\n      tag_101\n      tag_49\n      jump\t// in\n    tag_101:\n        /* \"#utility.yul\":1212:1242   */\n      swap1\n      pop\n        /* \"#utility.yul\":1251:1284   */\n      tag_102\n        /* \"#utility.yul\":1279:1283   */\n      dup3\n        /* \"#utility.yul\":1271:1277   */\n      dup3\n        /* \"#utility.yul\":1251:1284   */\n      tag_56\n      jump\t// in\n    tag_102:\n        /* \"#utility.yul\":1161:1290   */\n      swap2\n      swap1\n      pop\n      jump\t// out\n        /* \"#utility.yul\":1296:1604   */\n    tag_58:\n        /* \"#utility.yul\":1358:1362   */\n      0x00\n        /* \"#utility.yul\":1448:1466   */\n      0xffffffffffffffff\n        /* \"#utility.yul\":1440:1446   */\n      dup3\n        /* \"#utility.yul\":1437:1467   */\n      gt\n        /* \"#utility.yul\":1434:1490   */\n      iszero\n      tag_104\n      jumpi\n        /* \"#utility.yul\":1470:1488   */\n      tag_105\n      tag_55\n      jump\t// in\n    tag_105:\n        /* \"#utility.yul\":1434:1490   */\n    tag_104:\n        /* \"#utility.yul\":1508:1537   */\n      tag_106\n        /* \"#utility.yul\":1530:1536   */\n      dup3\n        /* \"#utility.yul\":1508:1537   */\n      tag_54\n      jump\t// in\n    tag_106:\n        /* \"#utility.yul\":1500:1537   */\n      swap1\n      pop\n        /* \"#utility.yul\":1592:1596   */\n      0x20\n        /* \"#utility.yul\":1586:1590   */\n      dup2\n        /* \"#utility.yul\":1582:1597   */\n      add\n        /* \"#utility.yul\":1574:1597   */\n      swap1\n      pop\n        /* \"#utility.yul\":1296:1604   */\n      swap2\n      swap1\n      pop\n      jump\t// out\n        /* \"#utility.yul\":1610:1756   */\n    tag_59:\n        /* \"#utility.yul\":1707:1713   */\n      dup3\n        /* \"#utility.yul\":1702:1705   */\n      dup2\n        /* \"#utility.yul\":1697:1700   */\n      dup4\n        /* \"#utility.yul\":1684:1714   */\n      calldatacopy\n        /* \"#utility.yul\":1748:1749   */\n      0x00\n        /* \"#utility.yul\":1739:1745   */\n      dup4\n        /* \"#utility.yul\":1734:1737   */\n      dup4\n        /* \"#utility.yul\":1730:1746   */\n      add\n        /* \"#utility.yul\":1723:1750   */\n      mstore\n        /* \"#utility.yul\":1610:1756   */\n      pop\n      pop\n      pop\n      jump\t// out\n        /* \"#utility.yul\":1762:2187   */\n    tag_60:\n        /* \"#utility.yul\":1840:1845   */\n      0x00\n        /* \"#utility.yul\":1865:1931   */\n      tag_109\n        /* \"#utility.yul\":1881:1930   */\n      tag_110\n        /* \"#utility.yul\":1923:1929   */\n      dup5\n        /* \"#utility.yul\":1881:1930   */\n      tag_58\n      jump\t// in\n    tag_110:\n        /* \"#utility.yul\":1865:1931   */\n      tag_57\n      jump\t// in\n    tag_109:\n        /* \"#utility.yul\":1856:1931   */\n      swap1\n      pop\n        /* \"#utility.yul\":1954:1960   */\n      dup3\n        /* \"#utility.yul\":1947:1952   */\n      dup2\n        /* \"#utility.yul\":1940:1961   */\n      mstore\n        /* \"#utility.yul\":1992:1996   */\n      0x20\n        /* \"#utility.yul\":1985:1990   */\n      dup2\n        /* \"#utility.yul\":1981:1997   */\n      add\n        /* \"#utility.yul\":2030:2033   */\n      dup5\n        /* \"#utility.yul\":2021:2027   */\n      dup5\n        /* \"#utility.yul\":2016:2019   */\n      dup5\n        /* \"#utility.yul\":2012:2028   */\n      add\n        /* \"#utility.yul\":2009:2034   */\n      gt\n        /* \"#utility.yul\":2006:2118   */\n      iszero\n      tag_111\n      jumpi\n        /* \"#utility.yul\":2037:2116   */\n      tag_112\n      tag_53\n      jump\t// in\n    tag_112:\n        /* \"#utility.yul\":2006:2118   */\n    tag_111:\n        /* \"#utility.yul\":2127:2181   */\n      tag_113\n        /* \"#utility.yul\":2174:2180   */\n      dup5\n        /* \"#utility.yul\":2169:2172   */\n      dup3\n        /* \"#utility.yul\":2164:2167   */\n      dup6\n        /* \"#utility.yul\":2127:2181   */\n      tag_59\n      jump\t// in\n    tag_113:\n        /* \"#utility.yul\":1846:2187   */\n      pop\n        /* \"#utility.yul\":1762:2187   */\n      swap4\n      swap3\n      pop\n      pop\n      pop\n      jump\t// out\n        /* \"#utility.yul\":2207:2547   */\n    tag_61:\n        /* \"#utility.yul\":2263:2268   */\n      0x00\n        /* \"#utility.yul\":2312:2315   */\n      dup3\n        /* \"#utility.yul\":2305:2309   */\n      0x1f\n        /* \"#utility.yul\":2297:2303   */\n      dup4\n        /* \"#utility.yul\":2293:2310   */\n      add\n        /* \"#utility.yul\":2289:2316   */\n      slt\n        /* \"#utility.yul\":2279:2401   */\n      tag_115\n      jumpi\n        /* \"#utility.yul\":2320:2399   */\n      tag_116\n      tag_52\n      jump\t// in\n    tag_116:\n        /* \"#utility.yul\":2279:2401   */\n    tag_115:\n        /* \"#utility.yul\":2437:2443   */\n      dup2\n        /* \"#utility.yul\":2424:2444   */\n      calldataload\n        /* \"#utility.yul\":2462:2541   */\n      tag_117\n        /* \"#utility.yul\":2537:2540   */\n      dup5\n        /* \"#utility.yul\":2529:2535   */\n      dup3\n        /* \"#utility.yul\":2522:2526   */\n      0x20\n        /* \"#utility.yul\":2514:2520   */\n      dup7\n        /* \"#utility.yul\":2510:2527   */\n      add\n        /* \"#utility.yul\":2462:2541   */\n      tag_60\n      jump\t// in\n    tag_117:\n        /* \"#utility.yul\":2453:2541   */\n      swap2\n      pop\n        /* \"#utility.yul\":2269:2547   */\n      pop\n        /* \"#utility.yul\":2207:2547   */\n      swap3\n      swap2\n      pop\n      pop\n      jump\t// out\n        /* \"#utility.yul\":2553:3062   */\n    tag_9:\n        /* \"#utility.yul\":2622:2628   */\n      0x00\n        /* \"#utility.yul\":2671:2673   */\n      0x20\n        /* \"#utility.yul\":2659:2668   */\n      dup3\n        /* \"#utility.yul\":2650:2657   */\n      dup5\n        /* \"#utility.yul\":2646:2669   */\n      sub\n        /* \"#utility.yul\":2642:2674   */\n      slt\n        /* \"#utility.yul\":2639:2758   */\n      iszero\n      tag_119\n      jumpi\n        /* \"#utility.yul\":2677:2756   */\n      tag_120\n      tag_50\n      jump\t// in\n    tag_120:\n        /* \"#utility.yul\":2639:2758   */\n    tag_119:\n        /* \"#utility.yul\":2825:2826   */\n      0x00\n        /* \"#utility.yul\":2814:2823   */\n      dup3\n        /* \"#utility.yul\":2810:2827   */\n      add\n        /* \"#utility.yul\":2797:2828   */\n      calldataload\n        /* \"#utility.yul\":2855:2873   */\n      0xffffffffffffffff\n        /* \"#utility.yul\":2847:2853   */\n      dup2\n        /* \"#utility.yul\":2844:2874   */\n      gt\n        /* \"#utility.yul\":2841:2958   */\n      iszero\n      tag_121\n      jumpi\n        /* \"#utility.yul\":2877:2956   */\n      tag_122\n      tag_51\n      jump\t// in\n    tag_122:\n        /* \"#utility.yul\":2841:2958   */\n    tag_121:\n        /* \"#utility.yul\":2982:3045   */\n      tag_123\n        /* \"#utility.yul\":3037:3044   */\n      dup5\n        /* \"#utility.yul\":3028:3034   */\n      dup3\n        /* \"#utility.yul\":3017:3026   */\n      dup6\n        /* \"#utility.yul\":3013:3035   */\n      add\n        /* \"#utility.yul\":2982:3045   */\n      tag_61\n      jump\t// in\n    tag_123:\n        /* \"#utility.yul\":2972:3045   */\n      swap2\n      pop\n        /* \"#utility.yul\":2768:3055   */\n      pop\n        /* \"#utility.yul\":2553:3062   */\n      swap3\n      swap2\n      pop\n      pop\n      jump\t// out\n        /* \"#utility.yul\":3068:3145   */\n    tag_62:\n        /* \"#utility.yul\":3105:3112   */\n      0x00\n        /* \"#utility.yul\":3134:3139   */\n      dup2\n        /* \"#utility.yul\":3123:3139   */\n      swap1\n      pop\n        /* \"#utility.yul\":3068:3145   */\n      swap2\n      swap1\n      pop\n      jump\t// out\n        /* \"#utility.yul\":3151:3269   */\n    tag_63:\n        /* \"#utility.yul\":3238:3262   */\n      tag_126\n        /* \"#utility.yul\":3256:3261   */\n      dup2\n        /* \"#utility.yul\":3238:3262   */\n      tag_62\n      jump\t// in\n    tag_126:\n        /* \"#utility.yul\":3233:3236   */\n      dup3\n        /* \"#utility.yul\":3226:3263   */\n      mstore\n        /* \"#utility.yul\":3151:3269   */\n      pop\n      pop\n      jump\t// out\n        /* \"#utility.yul\":3275:3497   */\n    tag_16:\n        /* \"#utility.yul\":3368:3372   */\n      0x00\n        /* \"#utility.yul\":3406:3408   */\n      0x20\n        /* \"#utility.yul\":3395:3404   */\n      dup3\n        /* \"#utility.yul\":3391:3409   */\n      add\n        /* \"#utility.yul\":3383:3409   */\n      swap1\n      pop\n        /* \"#utility.yul\":3419:3490   */\n      tag_128\n        /* \"#utility.yul\":3487:3488   */\n      0x00\n        /* \"#utility.yul\":3476:3485   */\n      dup4\n        /* \"#utility.yul\":3472:3489   */\n      add\n        /* \"#utility.yul\":3463:3469   */\n      dup5\n        /* \"#utility.yul\":3419:3490   */\n      tag_63\n      jump\t// in\n    tag_128:\n        /* \"#utility.yul\":3275:3497   */\n      swap3\n      swap2\n      pop\n      pop\n      jump\t// out\n        /* \"#utility.yul\":3503:3625   */\n    tag_64:\n        /* \"#utility.yul\":3576:3600   */\n      tag_130\n        /* \"#utility.yul\":3594:3599   */\n      dup2\n        /* \"#utility.yul\":3576:3600   */\n      tag_62\n      jump\t// in\n    tag_130:\n        /* \"#utility.yul\":3569:3574   */\n      dup2\n        /* \"#utility.yul\":3566:3601   */\n      eq\n        /* \"#utility.yul\":3556:3619   */\n      tag_131\n      jumpi\n        /* \"#utility.yul\":3615:3616   */\n      0x00\n        /* \"#utility.yul\":3612:3613   */\n      dup1\n        /* \"#utility.yul\":3605:3617   */\n      revert\n        /* \"#utility.yul\":3556:3619   */\n    tag_131:\n        /* \"#utility.yul\":3503:3625   */\n      pop\n      jump\t// out\n        /* \"#utility.yul\":3631:3770   */\n    tag_65:\n        /* \"#utility.yul\":3677:3682   */\n      0x00\n        /* \"#utility.yul\":3715:3721   */\n      dup2\n        /* \"#utility.yul\":3702:3722   */\n      calldataload\n        /* \"#utility.yul\":3693:3722   */\n      swap1\n      pop\n        /* \"#utility.yul\":3731:3764   */\n      tag_133\n        /* \"#utility.yul\":3758:3763   */\n      dup2\n        /* \"#utility.yul\":3731:3764   */\n      tag_64\n      jump\t// in\n    tag_133:\n        /* \"#utility.yul\":3631:3770   */\n      swap3\n      swap2\n      pop\n      pop\n      jump\t// out\n        /* \"#utility.yul\":3776:4395   */\n    tag_25:\n        /* \"#utility.yul\":3853:3859   */\n      0x00\n        /* \"#utility.yul\":3861:3867   */\n      dup1\n        /* \"#utility.yul\":3869:3875   */\n      0x00\n        /* \"#utility.yul\":3918:3920   */\n      0x60\n        /* \"#utility.yul\":3906:3915   */\n      dup5\n        /* \"#utility.yul\":3897:3904   */\n      dup7\n        /* \"#utility.yul\":3893:3916   */\n      sub\n        /* \"#utility.yul\":3889:3921   */\n      slt\n        /* \"#utility.yul\":3886:4005   */\n      iszero\n      tag_135\n      jumpi\n        /* \"#utility.yul\":3924:4003   */\n      tag_136\n      tag_50\n      jump\t// in\n    tag_136:\n        /* \"#utility.yul\":3886:4005   */\n    tag_135:\n        /* \"#utility.yul\":4044:4045   */\n      0x00\n        /* \"#utility.yul\":4069:4122   */\n      tag_137\n        /* \"#utility.yul\":4114:4121   */\n      dup7\n        /* \"#utility.yul\":4105:4111   */\n      dup3\n        /* \"#utility.yul\":4094:4103   */\n      dup8\n        /* \"#utility.yul\":4090:4112   */\n      add\n        /* \"#utility.yul\":4069:4122   */\n      tag_65\n      jump\t// in\n    tag_137:\n        /* \"#utility.yul\":4059:4122   */\n      swap4\n      pop\n        /* \"#utility.yul\":4015:4132   */\n      pop\n        /* \"#utility.yul\":4171:4173   */\n      0x20\n        /* \"#utility.yul\":4197:4250   */\n      tag_138\n        /* \"#utility.yul\":4242:4249   */\n      dup7\n        /* \"#utility.yul\":4233:4239   */\n      dup3\n        /* \"#utility.yul\":4222:4231   */\n      dup8\n        /* \"#utility.yul\":4218:4240   */\n      add\n        /* \"#utility.yul\":4197:4250   */\n      tag_65\n      jump\t// in\n    tag_138:\n        /* \"#utility.yul\":4187:4250   */\n      swap3\n      pop\n        /* \"#utility.yul\":4142:4260   */\n      pop\n        /* \"#utility.yul\":4299:4301   */\n      0x40\n        /* \"#utility.yul\":4325:4378   */\n      tag_139\n        /* \"#utility.yul\":4370:4377   */\n      dup7\n        /* \"#utility.yul\":4361:4367   */\n      dup3\n        /* \"#utility.yul\":4350:4359   */\n      dup8\n        /* \"#utility.yul\":4346:4368   */\n      add\n        /* \"#utility.yul\":4325:4378   */\n      tag_65\n      jump\t// in\n    tag_139:\n        /* \"#utility.yul\":4315:4378   */\n      swap2\n      pop\n        /* \"#utility.yul\":4270:4388   */\n      pop\n        /* \"#utility.yul\":3776:4395   */\n      swap3\n      pop\n      swap3\n      pop\n      swap3\n      jump\t// out\n        /* \"#utility.yul\":4401:4500   */\n    tag_66:\n        /* \"#utility.yul\":4453:4459   */\n      0x00\n        /* \"#utility.yul\":4487:4492   */\n      dup2\n        /* \"#utility.yul\":4481:4493   */\n      mload\n        /* \"#utility.yul\":4471:4493   */\n      swap1\n      pop\n        /* \"#utility.yul\":4401:4500   */\n      swap2\n      swap1\n      pop\n      jump\t// out\n        /* \"#utility.yul\":4506:4686   */\n    tag_67:\n        /* \"#utility.yul\":4554:4631   */\n      0x4e487b7100000000000000000000000000000000000000000000000000000000\n        /* \"#utility.yul\":4551:4552   */\n      0x00\n        /* \"#utility.yul\":4544:4632   */\n      mstore\n        /* \"#utility.yul\":4651:4655   */\n      0x22\n        /* \"#utility.yul\":4648:4649   */\n      0x04\n        /* \"#utility.yul\":4641:4656   */\n      mstore\n        /* \"#utility.yul\":4675:4679   */\n      0x24\n        /* \"#utility.yul\":4672:4673   */\n      0x00\n        /* \"#utility.yul\":4665:4680   */\n      revert\n        /* \"#utility.yul\":4692:5012   */\n    tag_68:\n        /* \"#utility.yul\":4736:4742   */\n      0x00\n        /* \"#utility.yul\":4773:4774   */\n      0x02\n        /* \"#utility.yul\":4767:4771   */\n      dup3\n        /* \"#utility.yul\":4763:4775   */\n      div\n        /* \"#utility.yul\":4753:4775   */\n      swap1\n      pop\n        /* \"#utility.yul\":4820:4821   */\n      0x01\n        /* \"#utility.yul\":4814:4818   */\n      dup3\n        /* \"#utility.yul\":4810:4822   */\n      and\n        /* \"#utility.yul\":4841:4859   */\n      dup1\n        /* \"#utility.yul\":4831:4912   */\n      tag_143\n      jumpi\n        /* \"#utility.yul\":4897:4901   */\n      0x7f\n        /* \"#utility.yul\":4889:4895   */\n      dup3\n        /* \"#utility.yul\":4885:4902   */\n      and\n        /* \"#utility.yul\":4875:4902   */\n      swap2\n      pop\n        /* \"#utility.yul\":4831:4912   */\n    tag_143:\n        /* \"#utility.yul\":4959:4961   */\n      0x20\n        /* \"#utility.yul\":4951:4957   */\n      dup3\n        /* \"#utility.yul\":4948:4962   */\n      lt\n        /* \"#utility.yul\":4928:4946   */\n      dup2\n        /* \"#utility.yul\":4925:4963   */\n      sub\n        /* \"#utility.yul\":4922:5006   */\n      tag_144\n      jumpi\n        /* \"#utility.yul\":4978:4996   */\n      tag_145\n      tag_67\n      jump\t// in\n    tag_145:\n        /* \"#utility.yul\":4922:5006   */\n    tag_144:\n        /* \"#utility.yul\":4743:5012   */\n      pop\n        /* \"#utility.yul\":4692:5012   */\n      swap2\n      swap1\n      pop\n      jump\t// out\n        /* \"#utility.yul\":5018:5159   */\n    tag_69:\n        /* \"#utility.yul\":5067:5071   */\n      0x00\n        /* \"#utility.yul\":5090:5093   */\n      dup2\n        /* \"#utility.yul\":5082:5093   */\n      swap1\n      pop\n        /* \"#utility.yul\":5113:5116   */\n      dup2\n        /* \"#utility.yul\":5110:5111   */\n      0x00\n        /* \"#utility.yul\":5103:5117   */\n      mstore\n        /* \"#utility.yul\":5147:5151   */\n      0x20\n        /* \"#utility.yul\":5144:5145   */\n      0x00\n        /* \"#utility.yul\":5134:5152   */\n      keccak256\n        /* \"#utility.yul\":5126:5152   */\n      swap1\n      pop\n        /* \"#utility.yul\":5018:5159   */\n      swap2\n      swap1\n      pop\n      jump\t// out\n        /* \"#utility.yul\":5165:5258   */\n    tag_70:\n        /* \"#utility.yul\":5202:5208   */\n      0x00\n        /* \"#utility.yul\":5249:5251   */\n      0x20\n        /* \"#utility.yul\":5244:5246   */\n      0x1f\n        /* \"#utility.yul\":5237:5242   */\n      dup4\n        /* \"#utility.yul\":5233:5247   */\n      add\n        /* \"#utility.yul\":5229:5252   */\n      div\n        /* \"#utility.yul\":5219:5252   */\n      swap1\n      pop\n        /* \"#utility.yul\":5165:5258   */\n      swap2\n      swap1\n      pop\n      jump\t// out\n        /* \"#utility.yul\":5264:5371   */\n    tag_71:\n        /* \"#utility.yul\":5308:5316   */\n      0x00\n        /* \"#utility.yul\":5358:5363   */\n      dup3\n        /* \"#utility.yul\":5352:5356   */\n      dup3\n        /* \"#utility.yul\":5348:5364   */\n      shl\n        /* \"#utility.yul\":5327:5364   */\n      swap1\n      pop\n        /* \"#utility.yul\":5264:5371   */\n      swap3\n      swap2\n      pop\n      pop\n      jump\t// out\n        /* \"#utility.yul\":5377:5770   */\n    tag_72:\n        /* \"#utility.yul\":5446:5452   */\n      0x00\n        /* \"#utility.yul\":5496:5497   */\n      0x08\n        /* \"#utility.yul\":5484:5494   */\n      dup4\n        /* \"#utility.yul\":5480:5498   */\n      mul\n        /* \"#utility.yul\":5519:5616   */\n      tag_150\n        /* \"#utility.yul\":5549:5615   */\n      0xffffffffffffffffffffffffffffffffffffffffffffffffffffffffffffffff\n        /* \"#utility.yul\":5538:5547   */\n      dup3\n        /* \"#utility.yul\":5519:5616   */\n      tag_71\n      jump\t// in\n    tag_150:\n        /* \"#utility.yul\":5637:5676   */\n      tag_151\n        /* \"#utility.yul\":5667:5675   */\n      dup7\n        /* \"#utility.yul\":5656:5665   */\n      dup4\n        /* \"#utility.yul\":5637:5676   */\n      tag_71\n      jump\t// in\n    tag_151:\n        /* \"#utility.yul\":5625:5676   */\n      swap6\n      pop\n        /* \"#utility.yul\":5709:5713   */\n      dup1\n        /* \"#utility.yul\":5705:5714   */\n      not\n        /* \"#utility.yul\":5698:5703   */\n      dup5\n        /* \"#utility.yul\":5694:5715   */\n      and\n        /* \"#utility.yul\":5685:5715   */\n      swap4\n      pop\n        /* \"#utility.yul\":5758:5762   */\n      dup1\n        /* \"#utility.yul\":5748:5756   */\n      dup7\n        /* \"#utility.yul\":5744:5763   */\n      and\n        /* \"#utility.yul\":5737:5742   */\n      dup5\n        /* \"#utility.yul\":5734:5764   */\n      or\n        /* \"#utility.yul\":5724:5764   */\n      swap3\n      pop\n        /* \"#utility.yul\":5453:5770   */\n      pop\n      pop\n        /* \"#utility.yul\":5377:5770   */\n      swap4\n      swap3\n      pop\n      pop\n      pop\n      jump\t// out\n        /* \"#utility.yul\":5776:5836   */\n    tag_73:\n        /* \"#utility.yul\":5804:5807   */\n      0x00\n        /* \"#utility.yul\":5825:5830   */\n      dup2\n        /* \"#utility.yul\":5818:5830   */\n      swap1\n      pop\n        /* \"#utility.yul\":5776:5836   */\n      swap2\n      swap1\n      pop\n      jump\t// out\n        /* \"#utility.yul\":5842:5984   */\n    tag_74:\n        /* \"#utility.yul\":5892:5901   */\n      0x00\n        /* \"#utility.yul\":5925:5978   */\n      tag_154\n        /* \"#utility.yul\":5943:5977   */\n      tag_155\n        /* \"#utility.yul\":5952:5976   */\n      tag_156\n        /* \"#utility.yul\":5970:5975   */\n      dup5\n        /* \"#utility.yul\":5952:5976   */\n      tag_62\n      jump\t// in\n    tag_156:\n        /* \"#utility.yul\":5943:5977   */\n      tag_73\n      jump\t// in\n    tag_155:\n        /* \"#utility.yul\":5925:5978   */\n      tag_62\n      jump\t// in\n    tag_154:\n        /* \"#utility.yul\":5912:5978   */\n      swap1\n      pop\n        /* \"#utility.yul\":5842:5984   */\n      swap2\n      swap1\n      pop\n      jump\t// out\n        /* \"#utility.yul\":5990:6065   */\n    tag_75:\n        /* \"#utility.yul\":6033:6036   */\n      0x00\n        /* \"#utility.yul\":6054:6059   */\n      dup2\n        /* \"#utility.yul\":6047:6059   */\n      swap1\n      pop\n        /* \"#utility.yul\":5990:6065   */\n      swap2\n      swap1\n      pop\n      jump\t// out\n        /* \"#utility.yul\":6071:6340   */\n    tag_76:\n        /* \"#utility.yul\":6181:6220   */\n      tag_159\n        /* \"#utility.yul\":6212:6219   */\n      dup4\n        /* \"#utility.yul\":6181:6220   */\n      tag_74\n      jump\t// in\n    tag_159:\n        /* \"#utility.yul\":6242:6333   */\n      tag_160\n        /* \"#utility.yul\":6291:6332   */\n      tag_161\n        /* \"#utility.yul\":6315:6331   */\n      dup3\n        /* \"#utility.yul\":6291:6332   */\n      tag_75\n      jump\t// in\n    tag_161:\n        /* \"#utility.yul\":6283:6289   */\n      dup5\n        /* \"#utility.yul\":6276:6280   */\n      dup5\n        /* \"#utility.yul\":6270:6281   */\n      sload\n        /* \"#utility.yul\":6242:6333   */\n      tag_72\n      jump\t// in\n    tag_160:\n        /* \"#utility.yul\":6236:6240   */\n      dup3\n        /* \"#utility.yul\":6229:6334   */\n      sstore\n        /* \"#utility.yul\":6147:6340   */\n      pop\n        /* \"#utility.yul\":6071:6340   */\n      pop\n      pop\n      pop\n      jump\t// out\n        /* \"#utility.yul\":6346:6419   */\n    tag_77:\n        /* \"#utility.yul\":6391:6394   */\n      0x00\n        /* \"#utility.yul\":6346:6419   */\n      swap1\n      jump\t// out\n        /* \"#utility.yul\":6425:6614   */\n    tag_78:\n        /* \"#utility.yul\":6502:6534   */\n      tag_164\n      tag_77\n      jump\t// in\n    tag_164:\n        /* \"#utility.yul\":6543:6608   */\n      tag_165\n        /* \"#utility.yul\":6601:6607   */\n      dup2\n        /* \"#utility.yul\":6593:6599   */\n      dup5\n        /* \"#utility.yul\":6587:6591   */\n      dup5\n        /* \"#utility.yul\":6543:6608   */\n      tag_76\n      jump\t// in\n    tag_165:\n        /* \"#utility.yul\":6478:6614   */\n      pop\n        /* \"#utility.yul\":6425:6614   */\n      pop\n      pop\n      jump\t// out\n        /* \"#utility.yul\":6620:6806   */\n    tag_79:\n        /* \"#utility.yul\":6680:6800   */\n    tag_167:\n        /* \"#utility.yul\":6697:6700   */\n      dup2\n        /* \"#utility.yul\":6690:6695   */\n      dup2\n        /* \"#utility.yul\":6687:6701   */\n      lt\n        /* \"#utility.yul\":6680:6800   */\n      iszero\n      tag_169\n      jumpi\n        /* \"#utility.yul\":6751:6790   */\n      tag_170\n        /* \"#utility.yul\":6788:6789   */\n      0x00\n        /* \"#utility.yul\":6781:6786   */\n      dup3\n        /* \"#utility.yul\":6751:6790   */\n      tag_78\n      jump\t// in\n    tag_170:\n        /* \"#utility.yul\":6724:6725   */\n      0x01\n        /* \"#utility.yul\":6717:6722   */\n      dup2\n        /* \"#utility.yul\":6713:6726   */\n      add\n        /* \"#utility.yul\":6704:6726   */\n      swap1\n      pop\n        /* \"#utility.yul\":6680:6800   */\n      jump(tag_167)\n    tag_169:\n        /* \"#utility.yul\":6620:6806   */\n      pop\n      pop\n      jump\t// out\n        /* \"#utility.yul\":6812:7355   */\n    tag_80:\n        /* \"#utility.yul\":6913:6915   */\n      0x1f\n        /* \"#utility.yul\":6908:6911   */\n      dup3\n        /* \"#utility.yul\":6905:6916   */\n      gt\n        /* \"#utility.yul\":6902:7348   */\n      iszero\n      tag_172\n      jumpi\n        /* \"#utility.yul\":6947:6985   */\n      tag_173\n        /* \"#utility.yul\":6979:6984   */\n      dup2\n        /* \"#utility.yul\":6947:6985   */\n      tag_69\n      jump\t// in\n    tag_173:\n        /* \"#utility.yul\":7031:7060   */\n      tag_174\n        /* \"#utility.yul\":7049:7059   */\n      dup5\n        /* \"#utility.yul\":7031:7060   */\n      tag_70\n      jump\t// in\n    tag_174:\n        /* \"#utility.yul\":7021:7029   */\n      dup2\n        /* \"#utility.yul\":7017:7061   */\n      add\n        /* \"#utility.yul\":7214:7216   */\n      0x20\n        /* \"#utility.yul\":7202:7212   */\n      dup6\n        /* \"#utility.yul\":7199:7217   */\n      lt\n        /* \"#utility.yul\":7196:7245   */\n      iszero\n      tag_175\n      jumpi\n        /* \"#utility.yul\":7235:7243   */\n      dup2\n        /* \"#utility.yul\":7220:7243   */\n      swap1\n      pop\n        /* \"#utility.yul\":7196:7245   */\n    tag_175:\n        /* \"#utility.yul\":7258:7338   */\n      tag_176\n        /* \"#utility.yul\":7314:7336   */\n      tag_177\n        /* \"#utility.yul\":7332:7335   */\n      dup6\n        /* \"#utility.yul\":7314:7336   */\n      tag_70\n      jump\t// in\n    tag_177:\n        /* \"#utility.yul\":7304:7312   */\n      dup4\n        /* \"#utility.yul\":7300:7337   */\n      add\n        /* \"#utility.yul\":7287:7298   */\n      dup3\n        /* \"#utility.yul\":7258:7338   */\n      tag_79\n      jump\t// in\n    tag_176:\n        /* \"#utility.yul\":6917:7348   */\n      pop\n      pop\n        /* \"#utility.yul\":6902:7348   */\n    tag_172:\n        /* \"#utility.yul\":6812:7355   */\n      pop\n      pop\n      pop\n      jump\t// out\n        /* \"#utility.yul\":7361:7478   */\n    tag_81:\n        /* \"#utility.yul\":7415:7423   */\n      0x00\n        /* \"#utility.yul\":7465:7470   */\n      dup3\n        /* \"#utility.yul\":7459:7463   */\n      dup3\n        /* \"#utility.yul\":7455:7471   */\n      shr\n        /* \"#utility.yul\":7434:7471   */\n      swap1\n      pop\n        /* \"#utility.yul\":7361:7478   */\n      swap3\n      swap2\n      pop\n      pop\n      jump\t// out\n        /* \"#utility.yul\":7484:7653   */\n    tag_82:\n        /* \"#utility.yul\":7528:7534   */\n      0x00\n        /* \"#utility.yul\":7561:7612   */\n      tag_180\n        /* \"#utility.yul\":7609:7610   */\n      0x00\n        /* \"#utility.yul\":7605:7611   */\n      not\n        /* \"#utility.yul\":7597:7602   */\n      dup5\n        /* \"#utility.yul\":7594:7595   */\n      0x08\n        /* \"#utility.yul\":7590:7603   */\n      mul\n        /* \"#utility.yul\":7561:7612   */\n      tag_81\n      jump\t// in\n    tag_180:\n        /* \"#utility.yul\":7557:7613   */\n      not\n        /* \"#utility.yul\":7642:7646   */\n      dup1\n        /* \"#utility.yul\":7636:7640   */\n      dup4\n        /* \"#utility.yul\":7632:7647   */\n      and\n        /* \"#utility.yul\":7622:7647   */\n      swap2\n      pop\n        /* \"#utility.yul\":7535:7653   */\n      pop\n        /* \"#utility.yul\":7484:7653   */\n      swap3\n      swap2\n      pop\n      pop\n      jump\t// out\n        /* \"#utility.yul\":7658:7953   */\n    tag_83:\n        /* \"#utility.yul\":7734:7738   */\n      0x00\n        /* \"#utility.yul\":7880:7909   */\n      tag_182\n        /* \"#utility.yul\":7905:7908   */\n      dup4\n        /* \"#utility.yul\":7899:7903   */\n      dup4\n        /* \"#utility.yul\":7880:7909   */\n      tag_82\n      jump\t// in\n    tag_182:\n        /* \"#utility.yul\":7872:7909   */\n      swap2\n      pop\n        /* \"#utility.yul\":7942:7945   */\n      dup3\n        /* \"#utility.yul\":7939:7940   */\n      0x02\n        /* \"#utility.yul\":7935:7946   */\n      mul\n        /* \"#utility.yul\":7929:7933   */\n      dup3\n        /* \"#utility.yul\":7926:7947   */\n      or\n        /* \"#utility.yul\":7918:7947   */\n      swap1\n      pop\n        /* \"#utility.yul\":7658:7953   */\n      swap3\n      swap2\n      pop\n      pop\n      jump\t// out\n        /* \"#utility.yul\":7958:9353   */\n    tag_35:\n        /* \"#utility.yul\":8075:8112   */\n      tag_184\n        /* \"#utility.yul\":8108:8111   */\n      dup3\n        /* \"#utility.yul\":8075:8112   */\n      tag_66\n      jump\t// in\n    tag_184:\n        /* \"#utility.yul\":8177:8195   */\n      0xffffffffffffffff\n        /* \"#utility.yul\":8169:8175   */\n      dup2\n        /* \"#utility.yul\":8166:8196   */\n      gt\n        /* \"#utility.yul\":8163:8219   */\n      iszero\n      tag_185\n      jumpi\n        /* \"#utility.yul\":8199:8217   */\n      tag_186\n      tag_55\n      jump\t// in\n    tag_186:\n        /* \"#utility.yul\":8163:8219   */\n    tag_185:\n        /* \"#utility.yul\":8243:8281   */\n      tag_187\n        /* \"#utility.yul\":8275:8279   */\n      dup3\n        /* \"#utility.yul\":8269:8280   */\n      sload\n        /* \"#utility.yul\":8243:8281   */\n      tag_68\n      jump\t// in\n    tag_187:\n        /* \"#utility.yul\":8328:8395   */\n      tag_188\n        /* \"#utility.yul\":8388:8394   */\n      dup3\n        /* \"#utility.yul\":8380:8386   */\n      dup3\n        /* \"#utility.yul\":8374:8378   */\n      dup6\n        /* \"#utility.yul\":8328:8395   */\n      tag_80\n      jump\t// in\n    tag_188:\n        /* \"#utility.yul\":8422:8423   */\n      0x00\n        /* \"#utility.yul\":8446:8450   */\n      0x20\n        /* \"#utility.yul\":8433:8450   */\n      swap1\n      pop\n        /* \"#utility.yul\":8478:8480   */\n      0x1f\n        /* \"#utility.yul\":8470:8476   */\n      dup4\n        /* \"#utility.yul\":8467:8481   */\n      gt\n        /* \"#utility.yul\":8495:8496   */\n      0x01\n        /* \"#utility.yul\":8490:9108   */\n      dup2\n      eq\n      tag_190\n      jumpi\n        /* \"#utility.yul\":9152:9153   */\n      0x00\n        /* \"#utility.yul\":9169:9175   */\n      dup5\n        /* \"#utility.yul\":9166:9243   */\n      iszero\n      tag_191\n      jumpi\n        /* \"#utility.yul\":9218:9227   */\n      dup3\n        /* \"#utility.yul\":9213:9216   */\n      dup8\n        /* \"#utility.yul\":9209:9228   */\n      add\n        /* \"#utility.yul\":9203:9229   */\n      mload\n        /* \"#utility.yul\":9194:9229   */\n      swap1\n      pop\n        /* \"#utility.yul\":9166:9243   */\n    tag_191:\n        /* \"#utility.yul\":9269:9336   */\n      tag_192\n        /* \"#utility.yul\":9329:9335   */\n      dup6\n        /* \"#utility.yul\":9322:9327   */\n      dup3\n        /* \"#utility.yul\":9269:9336   */\n      tag_83\n      jump\t// in\n    tag_192:\n        /* \"#utility.yul\":9263:9267   */\n      dup7\n        /* \"#utility.yul\":9256:9337   */\n      sstore\n        /* \"#utility.yul\":9125:9347   */\n      pop\n        /* \"#utility.yul\":8460:9347   */\n      jump(tag_189)\n        /* \"#utility.yul\":8490:9108   */\n    tag_190:\n        /* \"#utility.yul\":8542:8546   */\n      0x1f\n        /* \"#utility.yul\":8538:8547   */\n      not\n        /* \"#utility.yul\":8530:8536   */\n      dup5\n        /* \"#utility.yul\":8526:8548   */\n      and\n        /* \"#utility.yul\":8576:8613   */\n      tag_193\n        /* \"#utility.yul\":8608:8612   */\n      dup7\n        /* \"#utility.yul\":8576:8613   */\n      tag_69\n      jump\t// in\n    tag_193:\n        /* \"#utility.yul\":8635:8636   */\n      0x00\n        /* \"#utility.yul\":8649:8857   */\n    tag_194:\n        /* \"#utility.yul\":8663:8670   */\n      dup3\n        /* \"#utility.yul\":8660:8661   */\n      dup2\n        /* \"#utility.yul\":8657:8671   */\n      lt\n        /* \"#utility.yul\":8649:8857   */\n      iszero\n      tag_196\n      jumpi\n        /* \"#utility.yul\":8742:8751   */\n      dup5\n        /* \"#utility.yul\":8737:8740   */\n      dup10\n        /* \"#utility.yul\":8733:8752   */\n      add\n        /* \"#utility.yul\":8727:8753   */\n      mload\n        /* \"#utility.yul\":8719:8725   */\n      dup3\n        /* \"#utility.yul\":8712:8754   */\n      sstore\n        /* \"#utility.yul\":8793:8794   */\n      0x01\n        /* \"#utility.yul\":8785:8791   */\n      dup3\n        /* \"#utility.yul\":8781:8795   */\n      add\n        /* \"#utility.yul\":8771:8795   */\n      swap2\n      pop\n        /* \"#utility.yul\":8840:8842   */\n      0x20\n        /* \"#utility.yul\":8829:8838   */\n      dup6\n        /* \"#utility.yul\":8825:8843   */\n      add\n        /* \"#utility.yul\":8812:8843   */\n      swap5\n      pop\n        /* \"#utility.yul\":8686:8690   */\n      0x20\n        /* \"#utility.yul\":8683:8684   */\n      dup2\n        /* \"#utility.yul\":8679:8691   */\n      add\n        /* \"#utility.yul\":8674:8691   */\n      swap1\n      pop\n        /* \"#utility.yul\":8649:8857   */\n      jump(tag_194)\n    tag_196:\n        /* \"#utility.yul\":8885:8891   */\n      dup7\n        /* \"#utility.yul\":8876:8883   */\n      dup4\n        /* \"#utility.yul\":8873:8892   */\n      lt\n        /* \"#utility.yul\":8870:9049   */\n      iszero\n      tag_197\n      jumpi\n        /* \"#utility.yul\":8943:8952   */\n      dup5\n        /* \"#utility.yul\":8938:8941   */\n      dup10\n        /* \"#utility.yul\":8934:8953   */\n      add\n        /* \"#utility.yul\":8928:8954   */\n      mload\n        /* \"#utility.yul\":8986:9034   */\n      tag_198\n        /* \"#utility.yul\":9028:9032   */\n      0x1f\n        /* \"#utility.yul\":9020:9026   */\n      dup10\n        /* \"#utility.yul\":9016:9033   */\n      and\n        /* \"#utility.yul\":9005:9014   */\n      dup3\n        /* \"#utility.yul\":8986:9034   */\n      tag_82\n      jump\t// in\n    tag_198:\n        /* \"#utility.yul\":8978:8984   */\n      dup4\n        /* \"#utility.yul\":8971:9035   */\n      sstore\n        /* \"#utility.yul\":8893:9049   */\n      pop\n        /* \"#utility.yul\":8870:9049   */\n    tag_197:\n        /* \"#utility.yul\":9095:9096   */\n      0x01\n        /* \"#utility.yul\":9091:9092   */\n      0x02\n        /* \"#utility.yul\":9083:9089   */\n      dup9\n        /* \"#utility.yul\":9079:9093   */\n      mul\n        /* \"#utility.yul\":9075:9097   */\n      add\n        /* \"#utility.yul\":9069:9073   */\n      dup9\n        /* \"#utility.yul\":9062:9098   */\n      sstore\n        /* \"#utility.yul\":8497:9108   */\n      pop\n      pop\n      pop\n        /* \"#utility.yul\":8460:9347   */\n    tag_189:\n      pop\n        /* \"#utility.yul\":8050:9353   */\n      pop\n      pop\n      pop\n        /* \"#utility.yul\":7958:9353   */\n      pop\n      pop\n      jump\t// out\n        /* \"#utility.yul\":9359:9507   */\n    tag_84:\n        /* \"#utility.yul\":9461:9472   */\n      0x00\n        /* \"#utility.yul\":9498:9501   */\n      dup2\n        /* \"#utility.yul\":9483:9501   */\n      swap1\n      pop\n        /* \"#utility.yul\":9359:9507   */\n      swap3\n      swap2\n      pop\n      pop\n      jump\t// out\n        /* \"#utility.yul\":9513:9759   */\n    tag_85:\n        /* \"#utility.yul\":9594:9595   */\n      0x00\n        /* \"#utility.yul\":9604:9717   */\n    tag_201:\n        /* \"#utility.yul\":9618:9624   */\n      dup4\n        /* \"#utility.yul\":9615:9616   */\n      dup2\n        /* \"#utility.yul\":9612:9625   */\n      lt\n        /* \"#utility.yul\":9604:9717   */\n      iszero\n      tag_203\n      jumpi\n        /* \"#utility.yul\":9703:9704   */\n      dup1\n        /* \"#utility.yul\":9698:9701   */\n      dup3\n        /* \"#utility.yul\":9694:9705   */\n      add\n        /* \"#utility.yul\":9688:9706   */\n      mload\n        /* \"#utility.yul\":9684:9685   */\n      dup2\n        /* \"#utility.yul\":9679:9682   */\n      dup5\n        /* \"#utility.yul\":9675:9686   */\n      add\n        /* \"#utility.yul\":9668:9707   */\n      mstore\n        /* \"#utility.yul\":9640:9642   */\n      0x20\n        /* \"#utility.yul\":9637:9638   */\n      dup2\n        /* \"#utility.yul\":9633:9643   */\n      add\n        /* \"#utility.yul\":9628:9643   */\n      swap1\n      pop\n        /* \"#utility.yul\":9604:9717   */\n      jump(tag_201)\n    tag_203:\n        /* \"#utility.yul\":9751:9752   */\n      0x00\n        /* \"#utility.yul\":9742:9748   */\n      dup5\n        /* \"#utility.yul\":9737:9740   */\n      dup5\n        /* \"#utility.yul\":9733:9749   */\n      add\n        /* \"#utility.yul\":9726:9753   */\n      mstore\n        /* \"#utility.yul\":9575:9759   */\n      pop\n        /* \"#utility.yul\":9513:9759   */\n      pop\n      pop\n      pop\n      jump\t// out\n        /* \"#utility.yul\":9765:10155   */\n    tag_86:\n        /* \"#utility.yul\":9871:9874   */\n      0x00\n        /* \"#utility.yul\":9899:9938   */\n      tag_205\n        /* \"#utility.yul\":9932:9937   */\n      dup3\n        /* \"#utility.yul\":9899:9938   */\n      tag_66\n      jump\t// in\n    tag_205:\n        /* \"#utility.yul\":9954:10043   */\n      tag_206\n        /* \"#utility.yul\":10036:10042   */\n      dup2\n        /* \"#utility.yul\":10031:10034   */\n      dup6\n        /* \"#utility.yul\":9954:10043   */\n      tag_84\n      jump\t// in\n    tag_206:\n        /* \"#utility.yul\":9947:10043   */\n      swap4\n      pop\n        /* \"#utility.yul\":10052:10117   */\n      tag_207\n        /* \"#utility.yul\":10110:10116   */\n      dup2\n        /* \"#utility.yul\":10105:10108   */\n      dup6\n        /* \"#utility.yul\":10098:10102   */\n      0x20\n        /* \"#utility.yul\":10091:10096   */\n      dup7\n        /* \"#utility.yul\":10087:10103   */\n      add\n        /* \"#utility.yul\":10052:10117   */\n      tag_85\n      jump\t// in\n    tag_207:\n        /* \"#utility.yul\":10142:10148   */\n      dup1\n        /* \"#utility.yul\":10137:10140   */\n      dup5\n        /* \"#utility.yul\":10133:10149   */\n      add\n        /* \"#utility.yul\":10126:10149   */\n      swap2\n      pop\n        /* \"#utility.yul\":9875:10155   */\n      pop\n        /* \"#utility.yul\":9765:10155   */\n      swap3\n      swap2\n      pop\n      pop\n      jump\t// out\n        /* \"#utility.yul\":10161:10436   */\n    tag_38:\n        /* \"#utility.yul\":10293:10296   */\n      0x00\n        /* \"#utility.yul\":10315:10410   */\n      tag_209\n        /* \"#utility.yul\":10406:10409   */\n      dup3\n        /* \"#utility.yul\":10397:10403   */\n      dup5\n        /* \"#utility.yul\":10315:10410   */\n      tag_86\n      jump\t// in\n    tag_209:\n        /* \"#utility.yul\":10308:10410   */\n      swap2\n      pop\n        /* \"#utility.yul\":10427:10430   */\n      dup2\n        /* \"#utility.yul\":10420:10430   */\n      swap1\n      pop\n        /* \"#utility.yul\":10161:10436   */\n      swap3\n      swap2\n      pop\n      pop\n      jump\t// out\n        /* \"#utility.yul\":10466:11340   */\n    tag_87:\n        /* \"#utility.yul\":10569:10572   */\n      0x00\n        /* \"#utility.yul\":10606:10611   */\n      dup2\n        /* \"#utility.yul\":10600:10612   */\n      sload\n        /* \"#utility.yul\":10635:10671   */\n      tag_211\n        /* \"#utility.yul\":10661:10670   */\n      dup2\n        /* \"#utility.yul\":10635:10671   */\n      tag_68\n      jump\t// in\n    tag_211:\n        /* \"#utility.yul\":10687:10776   */\n      tag_212\n        /* \"#utility.yul\":10769:10775   */\n      dup2\n        /* \"#utility.yul\":10764:10767   */\n      dup7\n        /* \"#utility.yul\":10687:10776   */\n      tag_84\n      jump\t// in\n    tag_212:\n        /* \"#utility.yul\":10680:10776   */\n      swap5\n      pop\n        /* \"#utility.yul\":10807:10808   */\n      0x01\n        /* \"#utility.yul\":10796:10805   */\n      dup3\n        /* \"#utility.yul\":10792:10809   */\n      and\n        /* \"#utility.yul\":10823:10824   */\n      0x00\n        /* \"#utility.yul\":10818:10984   */\n      dup2\n      eq\n      tag_214\n      jumpi\n        /* \"#utility.yul\":10998:10999   */\n      0x01\n        /* \"#utility.yul\":10993:11334   */\n      dup2\n      eq\n      tag_215\n      jumpi\n        /* \"#utility.yul\":10785:11334   */\n      jump(tag_213)\n        /* \"#utility.yul\":10818:10984   */\n    tag_214:\n        /* \"#utility.yul\":10902:10906   */\n      0xff\n        /* \"#utility.yul\":10898:10907   */\n      not\n        /* \"#utility.yul\":10887:10896   */\n      dup4\n        /* \"#utility.yul\":10883:10908   */\n      and\n        /* \"#utility.yul\":10878:10881   */\n      dup7\n        /* \"#utility.yul\":10871:10909   */\n      mstore\n        /* \"#utility.yul\":10964:10970   */\n      dup2\n        /* \"#utility.yul\":10957:10971   */\n      iszero\n        /* \"#utility.yul\":10950:10972   */\n      iszero\n        /* \"#utility.yul\":10942:10948   */\n      dup3\n        /* \"#utility.yul\":10938:10973   */\n      mul\n        /* \"#utility.yul\":10933:10936   */\n      dup7\n        /* \"#utility.yul\":10929:10974   */\n      add\n        /* \"#utility.yul\":10922:10974   */\n      swap4\n      pop\n        /* \"#utility.yul\":10818:10984   */\n      jump(tag_213)\n        /* \"#utility.yul\":10993:11334   */\n    tag_215:\n        /* \"#utility.yul\":11060:11098   */\n      tag_216\n        /* \"#utility.yul\":11092:11097   */\n      dup6\n        /* \"#utility.yul\":11060:11098   */\n      tag_69\n      jump\t// in\n    tag_216:\n        /* \"#utility.yul\":11120:11121   */\n      0x00\n        /* \"#utility.yul\":11134:11288   */\n    tag_217:\n        /* \"#utility.yul\":11148:11154   */\n      dup4\n        /* \"#utility.yul\":11145:11146   */\n      dup2\n        /* \"#utility.yul\":11142:11155   */\n      lt\n        /* \"#utility.yul\":11134:11288   */\n      iszero\n      tag_219\n      jumpi\n        /* \"#utility.yul\":11222:11229   */\n      dup2\n        /* \"#utility.yul\":11216:11230   */\n      sload\n        /* \"#utility.yul\":11212:11213   */\n      dup2\n        /* \"#utility.yul\":11207:11210   */\n      dup10\n        /* \"#utility.yul\":11203:11214   */\n      add\n        /* \"#utility.yul\":11196:11231   */\n      mstore\n        /* \"#utility.yul\":11272:11273   */\n      0x01\n        /* \"#utility.yul\":11263:11270   */\n      dup3\n        /* \"#utility.yul\":11259:11274   */\n      add\n        /* \"#utility.yul\":11248:11274   */\n      swap2\n      pop\n        /* \"#utility.yul\":11170:11174   */\n      0x20\n        /* \"#utility.yul\":11167:11168   */\n      dup2\n        /* \"#utility.yul\":11163:11175   */\n      add\n        /* \"#utility.yul\":11158:11175   */\n      swap1\n      pop\n        /* \"#utility.yul\":11134:11288   */\n      jump(tag_217)\n    tag_219:\n        /* \"#utility.yul\":11317:11323   */\n      dup4\n        /* \"#utility.yul\":11312:11315   */\n      dup9\n        /* \"#utility.yul\":11308:11324   */\n      add\n        /* \"#utility.yul\":11301:11324   */\n      swap6\n      pop\n        /* \"#utility.yul\":11000:11334   */\n      pop\n      pop\n        /* \"#utility.yul\":10785:11334   */\n    tag_213:\n      pop\n        /* \"#utility.yul\":10573:11340   */\n      pop\n      pop\n        /* \"#utility.yul\":10466:11340   */\n      swap3\n      swap2\n      pop\n      pop\n      jump\t// out\n        /* \"#utility.yul\":11346:11615   */\n    tag_44:\n        /* \"#utility.yul\":11475:11478   */\n      0x00\n        /* \"#utility.yul\":11497:11589   */\n      tag_221\n        /* \"#utility.yul\":11585:11588   */\n      dup3\n        /* \"#utility.yul\":11576:11582   */\n      dup5\n        /* \"#utility.yul\":11497:11589   */\n      tag_87\n      jump\t// in\n    tag_221:\n        /* \"#utility.yul\":11490:11589   */\n      swap2\n      pop\n        /* \"#utility.yul\":11606:11609   */\n      dup2\n        /* \"#utility.yul\":11599:11609   */\n      swap1\n      pop\n        /* \"#utility.yul\":11346:11615   */\n      swap3\n      swap2\n      pop\n      pop\n      jump\t// out\n\n    auxdata: 0xa264697066735822122061910797729259c9a6a8de5925b36338a85e9f1a45e0df1d44027cdaca50110664736f6c63430008120033\n}\n",
				"bytecode": {
					"linkReferences": {},
					"object": "608060405234801561001057600080fd5b5033600460006101000a81548173ffffffffffffffffffffffffffffffffffffffff021916908373ffffffffffffffffffffffffffffffffffffffff160217905550610940806100616000396000f3fe60806040526004361061004a5760003560e01c806367b09cdb1461004f57806380f7bd8b1461006b5780639a1145cb146100a8578063cbe28563146100e5578063e15ed5291461010e575b600080fd5b6100696004803603810190610064919061040e565b61014b565b005b34801561007757600080fd5b50610092600480360381019061008d919061040e565b610172565b60405161009f9190610470565b60405180910390f35b3480156100b457600080fd5b506100cf60048036038101906100ca919061040e565b61019a565b6040516100dc9190610470565b60405180910390f35b3480156100f157600080fd5b5061010c600480360381019061010791906104b7565b6101c1565b005b34801561011a57600080fd5b506101356004803603810190610130919061040e565b61028c565b6040516101429190610470565b60405180910390f35b670de0b6b3a7640000341461015f57600080fd5b806003908161016e9190610721565b5050565b60006001826040516101849190610859565b9081526020016040518091039020549050919050565b600080826040516101ab9190610859565b9081526020016040518091039020549050919050565b600460009054906101000a900473ffffffffffffffffffffffffffffffffffffffff1673ffffffffffffffffffffffffffffffffffffffff163373ffffffffffffffffffffffffffffffffffffffff161461021b57600080fd5b826000600360405161022d91906108f3565b908152602001604051809103902081905550816001600360405161025191906108f3565b908152602001604051809103902081905550806002600360405161027591906108f3565b908152602001604051809103902081905550505050565b600060028260405161029e9190610859565b9081526020016040518091039020549050919050565b6000604051905090565b600080fd5b600080fd5b600080fd5b600080fd5b6000601f19601f8301169050919050565b7f4e487b7100000000000000000000000000000000000000000000000000000000600052604160045260246000fd5b61031b826102d2565b810181811067ffffffffffffffff8211171561033a576103396102e3565b5b80604052505050565b600061034d6102b4565b90506103598282610312565b919050565b600067ffffffffffffffff821115610379576103786102e3565b5b610382826102d2565b9050602081019050919050565b82818337600083830152505050565b60006103b16103ac8461035e565b610343565b9050828152602081018484840111156103cd576103cc6102cd565b5b6103d884828561038f565b509392505050565b600082601f8301126103f5576103f46102c8565b5b813561040584826020860161039e565b91505092915050565b600060208284031215610424576104236102be565b5b600082013567ffffffffffffffff811115610442576104416102c3565b5b61044e848285016103e0565b91505092915050565b6000819050919050565b61046a81610457565b82525050565b60006020820190506104856000830184610461565b92915050565b61049481610457565b811461049f57600080fd5b50565b6000813590506104b18161048b565b92915050565b6000806000606084860312156104d0576104cf6102be565b5b60006104de868287016104a2565b93505060206104ef868287016104a2565b9250506040610500868287016104a2565b9150509250925092565b600081519050919050565b7f4e487b7100000000000000000000000000000000000000000000000000000000600052602260045260246000fd5b6000600282049050600182168061055c57607f821691505b60208210810361056f5761056e610515565b5b50919050565b60008190508160005260206000209050919050565b60006020601f8301049050919050565b600082821b905092915050565b6000600883026105d77fffffffffffffffffffffffffffffffffffffffffffffffffffffffffffffffff8261059a565b6105e1868361059a565b95508019841693508086168417925050509392505050565b6000819050919050565b600061061e61061961061484610457565b6105f9565b610457565b9050919050565b6000819050919050565b61063883610603565b61064c61064482610625565b8484546105a7565b825550505050565b600090565b610661610654565b61066c81848461062f565b505050565b5b8181101561069057610685600082610659565b600181019050610672565b5050565b601f8211156106d5576106a681610575565b6106af8461058a565b810160208510156106be578190505b6106d26106ca8561058a565b830182610671565b50505b505050565b600082821c905092915050565b60006106f8600019846008026106da565b1980831691505092915050565b600061071183836106e7565b9150826002028217905092915050565b61072a8261050a565b67ffffffffffffffff811115610743576107426102e3565b5b61074d8254610544565b610758828285610694565b600060209050601f83116001811461078b5760008415610779578287015190505b6107838582610705565b8655506107eb565b601f19841661079986610575565b60005b828110156107c15784890151825560018201915060208501945060208101905061079c565b868310156107de57848901516107da601f8916826106e7565b8355505b6001600288020188555050505b505050505050565b600081905092915050565b60005b8381101561081c578082015181840152602081019050610801565b60008484015250505050565b60006108338261050a565b61083d81856107f3565b935061084d8185602086016107fe565b80840191505092915050565b60006108658284610828565b915081905092915050565b6000815461087d81610544565b61088781866107f3565b945060018216600081146108a257600181146108b7576108ea565b60ff19831686528115158202860193506108ea565b6108c085610575565b60005b838110156108e2578154818901526001820191506020810190506108c3565b838801955050505b50505092915050565b60006108ff8284610870565b91508190509291505056fea264697066735822122061910797729259c9a6a8de5925b36338a85e9f1a45e0df1d44027cdaca50110664736f6c63430008120033",
					"opcodes": "PUSH1 0x80 PUSH1 0x40 MSTORE CALLVALUE DUP1 ISZERO PUSH2 0x10 JUMPI PUSH1 0x0 DUP1 REVERT JUMPDEST POP CALLER PUSH1 0x4 PUSH1 0x0 PUSH2 0x100 EXP DUP2 SLOAD DUP2 PUSH20 0xFFFFFFFFFFFFFFFFFFFFFFFFFFFFFFFFFFFFFFFF MUL NOT AND SWAP1 DUP4 PUSH20 0xFFFFFFFFFFFFFFFFFFFFFFFFFFFFFFFFFFFFFFFF AND MUL OR SWAP1 SSTORE POP PUSH2 0x940 DUP1 PUSH2 0x61 PUSH1 0x0 CODECOPY PUSH1 0x0 RETURN INVALID PUSH1 0x80 PUSH1 0x40 MSTORE PUSH1 0x4 CALLDATASIZE LT PUSH2 0x4A JUMPI PUSH1 0x0 CALLDATALOAD PUSH1 0xE0 SHR DUP1 PUSH4 0x67B09CDB EQ PUSH2 0x4F JUMPI DUP1 PUSH4 0x80F7BD8B EQ PUSH2 0x6B JUMPI DUP1 PUSH4 0x9A1145CB EQ PUSH2 0xA8 JUMPI DUP1 PUSH4 0xCBE28563 EQ PUSH2 0xE5 JUMPI DUP1 PUSH4 0xE15ED529 EQ PUSH2 0x10E JUMPI JUMPDEST PUSH1 0x0 DUP1 REVERT JUMPDEST PUSH2 0x69 PUSH1 0x4 DUP1 CALLDATASIZE SUB DUP2 ADD SWAP1 PUSH2 0x64 SWAP2 SWAP1 PUSH2 0x40E JUMP JUMPDEST PUSH2 0x14B JUMP JUMPDEST STOP JUMPDEST CALLVALUE DUP1 ISZERO PUSH2 0x77 JUMPI PUSH1 0x0 DUP1 REVERT JUMPDEST POP PUSH2 0x92 PUSH1 0x4 DUP1 CALLDATASIZE SUB DUP2 ADD SWAP1 PUSH2 0x8D SWAP2 SWAP1 PUSH2 0x40E JUMP JUMPDEST PUSH2 0x172 JUMP JUMPDEST PUSH1 0x40 MLOAD PUSH2 0x9F SWAP2 SWAP1 PUSH2 0x470 JUMP JUMPDEST PUSH1 0x40 MLOAD DUP1 SWAP2 SUB SWAP1 RETURN JUMPDEST CALLVALUE DUP1 ISZERO PUSH2 0xB4 JUMPI PUSH1 0x0 DUP1 REVERT JUMPDEST POP PUSH2 0xCF PUSH1 0x4 DUP1 CALLDATASIZE SUB DUP2 ADD SWAP1 PUSH2 0xCA SWAP2 SWAP1 PUSH2 0x40E JUMP JUMPDEST PUSH2 0x19A JUMP JUMPDEST PUSH1 0x40 MLOAD PUSH2 0xDC SWAP2 SWAP1 PUSH2 0x470 JUMP JUMPDEST PUSH1 0x40 MLOAD DUP1 SWAP2 SUB SWAP1 RETURN JUMPDEST CALLVALUE DUP1 ISZERO PUSH2 0xF1 JUMPI PUSH1 0x0 DUP1 REVERT JUMPDEST POP PUSH2 0x10C PUSH1 0x4 DUP1 CALLDATASIZE SUB DUP2 ADD SWAP1 PUSH2 0x107 SWAP2 SWAP1 PUSH2 0x4B7 JUMP JUMPDEST PUSH2 0x1C1 JUMP JUMPDEST STOP JUMPDEST CALLVALUE DUP1 ISZERO PUSH2 0x11A JUMPI PUSH1 0x0 DUP1 REVERT JUMPDEST POP PUSH2 0x135 PUSH1 0x4 DUP1 CALLDATASIZE SUB DUP2 ADD SWAP1 PUSH2 0x130 SWAP2 SWAP1 PUSH2 0x40E JUMP JUMPDEST PUSH2 0x28C JUMP JUMPDEST PUSH1 0x40 MLOAD PUSH2 0x142 SWAP2 SWAP1 PUSH2 0x470 JUMP JUMPDEST PUSH1 0x40 MLOAD DUP1 SWAP2 SUB SWAP1 RETURN JUMPDEST PUSH8 0xDE0B6B3A7640000 CALLVALUE EQ PUSH2 0x15F JUMPI PUSH1 0x0 DUP1 REVERT JUMPDEST DUP1 PUSH1 0x3 SWAP1 DUP2 PUSH2 0x16E SWAP2 SWAP1 PUSH2 0x721 JUMP JUMPDEST POP POP JUMP JUMPDEST PUSH1 0x0 PUSH1 0x1 DUP3 PUSH1 0x40 MLOAD PUSH2 0x184 SWAP2 SWAP1 PUSH2 0x859 JUMP JUMPDEST SWAP1 DUP2 MSTORE PUSH1 0x20 ADD PUSH1 0x40 MLOAD DUP1 SWAP2 SUB SWAP1 KECCAK256 SLOAD SWAP1 POP SWAP2 SWAP1 POP JUMP JUMPDEST PUSH1 0x0 DUP1 DUP3 PUSH1 0x40 MLOAD PUSH2 0x1AB SWAP2 SWAP1 PUSH2 0x859 JUMP JUMPDEST SWAP1 DUP2 MSTORE PUSH1 0x20 ADD PUSH1 0x40 MLOAD DUP1 SWAP2 SUB SWAP1 KECCAK256 SLOAD SWAP1 POP SWAP2 SWAP1 POP JUMP JUMPDEST PUSH1 0x4 PUSH1 0x0 SWAP1 SLOAD SWAP1 PUSH2 0x100 EXP SWAP1 DIV PUSH20 0xFFFFFFFFFFFFFFFFFFFFFFFFFFFFFFFFFFFFFFFF AND PUSH20 0xFFFFFFFFFFFFFFFFFFFFFFFFFFFFFFFFFFFFFFFF AND CALLER PUSH20 0xFFFFFFFFFFFFFFFFFFFFFFFFFFFFFFFFFFFFFFFF AND EQ PUSH2 0x21B JUMPI PUSH1 0x0 DUP1 REVERT JUMPDEST DUP3 PUSH1 0x0 PUSH1 0x3 PUSH1 0x40 MLOAD PUSH2 0x22D SWAP2 SWAP1 PUSH2 0x8F3 JUMP JUMPDEST SWAP1 DUP2 MSTORE PUSH1 0x20 ADD PUSH1 0x40 MLOAD DUP1 SWAP2 SUB SWAP1 KECCAK256 DUP2 SWAP1 SSTORE POP DUP2 PUSH1 0x1 PUSH1 0x3 PUSH1 0x40 MLOAD PUSH2 0x251 SWAP2 SWAP1 PUSH2 0x8F3 JUMP JUMPDEST SWAP1 DUP2 MSTORE PUSH1 0x20 ADD PUSH1 0x40 MLOAD DUP1 SWAP2 SUB SWAP1 KECCAK256 DUP2 SWAP1 SSTORE POP DUP1 PUSH1 0x2 PUSH1 0x3 PUSH1 0x40 MLOAD PUSH2 0x275 SWAP2 SWAP1 PUSH2 0x8F3 JUMP JUMPDEST SWAP1 DUP2 MSTORE PUSH1 0x20 ADD PUSH1 0x40 MLOAD DUP1 SWAP2 SUB SWAP1 KECCAK256 DUP2 SWAP1 SSTORE POP POP POP POP JUMP JUMPDEST PUSH1 0x0 PUSH1 0x2 DUP3 PUSH1 0x40 MLOAD PUSH2 0x29E SWAP2 SWAP1 PUSH2 0x859 JUMP JUMPDEST SWAP1 DUP2 MSTORE PUSH1 0x20 ADD PUSH1 0x40 MLOAD DUP1 SWAP2 SUB SWAP1 KECCAK256 SLOAD SWAP1 POP SWAP2 SWAP1 POP JUMP JUMPDEST PUSH1 0x0 PUSH1 0x40 MLOAD SWAP1 POP SWAP1 JUMP JUMPDEST PUSH1 0x0 DUP1 REVERT JUMPDEST PUSH1 0x0 DUP1 REVERT JUMPDEST PUSH1 0x0 DUP1 REVERT JUMPDEST PUSH1 0x0 DUP1 REVERT JUMPDEST PUSH1 0x0 PUSH1 0x1F NOT PUSH1 0x1F DUP4 ADD AND SWAP1 POP SWAP2 SWAP1 POP JUMP JUMPDEST PUSH32 0x4E487B7100000000000000000000000000000000000000000000000000000000 PUSH1 0x0 MSTORE PUSH1 0x41 PUSH1 0x4 MSTORE PUSH1 0x24 PUSH1 0x0 REVERT JUMPDEST PUSH2 0x31B DUP3 PUSH2 0x2D2 JUMP JUMPDEST DUP2 ADD DUP2 DUP2 LT PUSH8 0xFFFFFFFFFFFFFFFF DUP3 GT OR ISZERO PUSH2 0x33A JUMPI PUSH2 0x339 PUSH2 0x2E3 JUMP JUMPDEST JUMPDEST DUP1 PUSH1 0x40 MSTORE POP POP POP JUMP JUMPDEST PUSH1 0x0 PUSH2 0x34D PUSH2 0x2B4 JUMP JUMPDEST SWAP1 POP PUSH2 0x359 DUP3 DUP3 PUSH2 0x312 JUMP JUMPDEST SWAP2 SWAP1 POP JUMP JUMPDEST PUSH1 0x0 PUSH8 0xFFFFFFFFFFFFFFFF DUP3 GT ISZERO PUSH2 0x379 JUMPI PUSH2 0x378 PUSH2 0x2E3 JUMP JUMPDEST JUMPDEST PUSH2 0x382 DUP3 PUSH2 0x2D2 JUMP JUMPDEST SWAP1 POP PUSH1 0x20 DUP2 ADD SWAP1 POP SWAP2 SWAP1 POP JUMP JUMPDEST DUP3 DUP2 DUP4 CALLDATACOPY PUSH1 0x0 DUP4 DUP4 ADD MSTORE POP POP POP JUMP JUMPDEST PUSH1 0x0 PUSH2 0x3B1 PUSH2 0x3AC DUP5 PUSH2 0x35E JUMP JUMPDEST PUSH2 0x343 JUMP JUMPDEST SWAP1 POP DUP3 DUP2 MSTORE PUSH1 0x20 DUP2 ADD DUP5 DUP5 DUP5 ADD GT ISZERO PUSH2 0x3CD JUMPI PUSH2 0x3CC PUSH2 0x2CD JUMP JUMPDEST JUMPDEST PUSH2 0x3D8 DUP5 DUP3 DUP6 PUSH2 0x38F JUMP JUMPDEST POP SWAP4 SWAP3 POP POP POP JUMP JUMPDEST PUSH1 0x0 DUP3 PUSH1 0x1F DUP4 ADD SLT PUSH2 0x3F5 JUMPI PUSH2 0x3F4 PUSH2 0x2C8 JUMP JUMPDEST JUMPDEST DUP2 CALLDATALOAD PUSH2 0x405 DUP5 DUP3 PUSH1 0x20 DUP7 ADD PUSH2 0x39E JUMP JUMPDEST SWAP2 POP POP SWAP3 SWAP2 POP POP JUMP JUMPDEST PUSH1 0x0 PUSH1 0x20 DUP3 DUP5 SUB SLT ISZERO PUSH2 0x424 JUMPI PUSH2 0x423 PUSH2 0x2BE JUMP JUMPDEST JUMPDEST PUSH1 0x0 DUP3 ADD CALLDATALOAD PUSH8 0xFFFFFFFFFFFFFFFF DUP2 GT ISZERO PUSH2 0x442 JUMPI PUSH2 0x441 PUSH2 0x2C3 JUMP JUMPDEST JUMPDEST PUSH2 0x44E DUP5 DUP3 DUP6 ADD PUSH2 0x3E0 JUMP JUMPDEST SWAP2 POP POP SWAP3 SWAP2 POP POP JUMP JUMPDEST PUSH1 0x0 DUP2 SWAP1 POP SWAP2 SWAP1 POP JUMP JUMPDEST PUSH2 0x46A DUP2 PUSH2 0x457 JUMP JUMPDEST DUP3 MSTORE POP POP JUMP JUMPDEST PUSH1 0x0 PUSH1 0x20 DUP3 ADD SWAP1 POP PUSH2 0x485 PUSH1 0x0 DUP4 ADD DUP5 PUSH2 0x461 JUMP JUMPDEST SWAP3 SWAP2 POP POP JUMP JUMPDEST PUSH2 0x494 DUP2 PUSH2 0x457 JUMP JUMPDEST DUP2 EQ PUSH2 0x49F JUMPI PUSH1 0x0 DUP1 REVERT JUMPDEST POP JUMP JUMPDEST PUSH1 0x0 DUP2 CALLDATALOAD SWAP1 POP PUSH2 0x4B1 DUP2 PUSH2 0x48B JUMP JUMPDEST SWAP3 SWAP2 POP POP JUMP JUMPDEST PUSH1 0x0 DUP1 PUSH1 0x0 PUSH1 0x60 DUP5 DUP7 SUB SLT ISZERO PUSH2 0x4D0 JUMPI PUSH2 0x4CF PUSH2 0x2BE JUMP JUMPDEST JUMPDEST PUSH1 0x0 PUSH2 0x4DE DUP7 DUP3 DUP8 ADD PUSH2 0x4A2 JUMP JUMPDEST SWAP4 POP POP PUSH1 0x20 PUSH2 0x4EF DUP7 DUP3 DUP8 ADD PUSH2 0x4A2 JUMP JUMPDEST SWAP3 POP POP PUSH1 0x40 PUSH2 0x500 DUP7 DUP3 DUP8 ADD PUSH2 0x4A2 JUMP JUMPDEST SWAP2 POP POP SWAP3 POP SWAP3 POP SWAP3 JUMP JUMPDEST PUSH1 0x0 DUP2 MLOAD SWAP1 POP SWAP2 SWAP1 POP JUMP JUMPDEST PUSH32 0x4E487B7100000000000000000000000000000000000000000000000000000000 PUSH1 0x0 MSTORE PUSH1 0x22 PUSH1 0x4 MSTORE PUSH1 0x24 PUSH1 0x0 REVERT JUMPDEST PUSH1 0x0 PUSH1 0x2 DUP3 DIV SWAP1 POP PUSH1 0x1 DUP3 AND DUP1 PUSH2 0x55C JUMPI PUSH1 0x7F DUP3 AND SWAP2 POP JUMPDEST PUSH1 0x20 DUP3 LT DUP2 SUB PUSH2 0x56F JUMPI PUSH2 0x56E PUSH2 0x515 JUMP JUMPDEST JUMPDEST POP SWAP2 SWAP1 POP JUMP JUMPDEST PUSH1 0x0 DUP2 SWAP1 POP DUP2 PUSH1 0x0 MSTORE PUSH1 0x20 PUSH1 0x0 KECCAK256 SWAP1 POP SWAP2 SWAP1 POP JUMP JUMPDEST PUSH1 0x0 PUSH1 0x20 PUSH1 0x1F DUP4 ADD DIV SWAP1 POP SWAP2 SWAP1 POP JUMP JUMPDEST PUSH1 0x0 DUP3 DUP3 SHL SWAP1 POP SWAP3 SWAP2 POP POP JUMP JUMPDEST PUSH1 0x0 PUSH1 0x8 DUP4 MUL PUSH2 0x5D7 PUSH32 0xFFFFFFFFFFFFFFFFFFFFFFFFFFFFFFFFFFFFFFFFFFFFFFFFFFFFFFFFFFFFFFFF DUP3 PUSH2 0x59A JUMP JUMPDEST PUSH2 0x5E1 DUP7 DUP4 PUSH2 0x59A JUMP JUMPDEST SWAP6 POP DUP1 NOT DUP5 AND SWAP4 POP DUP1 DUP7 AND DUP5 OR SWAP3 POP POP POP SWAP4 SWAP3 POP POP POP JUMP JUMPDEST PUSH1 0x0 DUP2 SWAP1 POP SWAP2 SWAP1 POP JUMP JUMPDEST PUSH1 0x0 PUSH2 0x61E PUSH2 0x619 PUSH2 0x614 DUP5 PUSH2 0x457 JUMP JUMPDEST PUSH2 0x5F9 JUMP JUMPDEST PUSH2 0x457 JUMP JUMPDEST SWAP1 POP SWAP2 SWAP1 POP JUMP JUMPDEST PUSH1 0x0 DUP2 SWAP1 POP SWAP2 SWAP1 POP JUMP JUMPDEST PUSH2 0x638 DUP4 PUSH2 0x603 JUMP JUMPDEST PUSH2 0x64C PUSH2 0x644 DUP3 PUSH2 0x625 JUMP JUMPDEST DUP5 DUP5 SLOAD PUSH2 0x5A7 JUMP JUMPDEST DUP3 SSTORE POP POP POP POP JUMP JUMPDEST PUSH1 0x0 SWAP1 JUMP JUMPDEST PUSH2 0x661 PUSH2 0x654 JUMP JUMPDEST PUSH2 0x66C DUP2 DUP5 DUP5 PUSH2 0x62F JUMP JUMPDEST POP POP POP JUMP JUMPDEST JUMPDEST DUP2 DUP2 LT ISZERO PUSH2 0x690 JUMPI PUSH2 0x685 PUSH1 0x0 DUP3 PUSH2 0x659 JUMP JUMPDEST PUSH1 0x1 DUP2 ADD SWAP1 POP PUSH2 0x672 JUMP JUMPDEST POP POP JUMP JUMPDEST PUSH1 0x1F DUP3 GT ISZERO PUSH2 0x6D5 JUMPI PUSH2 0x6A6 DUP2 PUSH2 0x575 JUMP JUMPDEST PUSH2 0x6AF DUP5 PUSH2 0x58A JUMP JUMPDEST DUP2 ADD PUSH1 0x20 DUP6 LT ISZERO PUSH2 0x6BE JUMPI DUP2 SWAP1 POP JUMPDEST PUSH2 0x6D2 PUSH2 0x6CA DUP6 PUSH2 0x58A JUMP JUMPDEST DUP4 ADD DUP3 PUSH2 0x671 JUMP JUMPDEST POP POP JUMPDEST POP POP POP JUMP JUMPDEST PUSH1 0x0 DUP3 DUP3 SHR SWAP1 POP SWAP3 SWAP2 POP POP JUMP JUMPDEST PUSH1 0x0 PUSH2 0x6F8 PUSH1 0x0 NOT DUP5 PUSH1 0x8 MUL PUSH2 0x6DA JUMP JUMPDEST NOT DUP1 DUP4 AND SWAP2 POP POP SWAP3 SWAP2 POP POP JUMP JUMPDEST PUSH1 0x0 PUSH2 0x711 DUP4 DUP4 PUSH2 0x6E7 JUMP JUMPDEST SWAP2 POP DUP3 PUSH1 0x2 MUL DUP3 OR SWAP1 POP SWAP3 SWAP2 POP POP JUMP JUMPDEST PUSH2 0x72A DUP3 PUSH2 0x50A JUMP JUMPDEST PUSH8 0xFFFFFFFFFFFFFFFF DUP2 GT ISZERO PUSH2 0x743 JUMPI PUSH2 0x742 PUSH2 0x2E3 JUMP JUMPDEST JUMPDEST PUSH2 0x74D DUP3 SLOAD PUSH2 0x544 JUMP JUMPDEST PUSH2 0x758 DUP3 DUP3 DUP6 PUSH2 0x694 JUMP JUMPDEST PUSH1 0x0 PUSH1 0x20 SWAP1 POP PUSH1 0x1F DUP4 GT PUSH1 0x1 DUP2 EQ PUSH2 0x78B JUMPI PUSH1 0x0 DUP5 ISZERO PUSH2 0x779 JUMPI DUP3 DUP8 ADD MLOAD SWAP1 POP JUMPDEST PUSH2 0x783 DUP6 DUP3 PUSH2 0x705 JUMP JUMPDEST DUP7 SSTORE POP PUSH2 0x7EB JUMP JUMPDEST PUSH1 0x1F NOT DUP5 AND PUSH2 0x799 DUP7 PUSH2 0x575 JUMP JUMPDEST PUSH1 0x0 JUMPDEST DUP3 DUP2 LT ISZERO PUSH2 0x7C1 JUMPI DUP5 DUP10 ADD MLOAD DUP3 SSTORE PUSH1 0x1 DUP3 ADD SWAP2 POP PUSH1 0x20 DUP6 ADD SWAP5 POP PUSH1 0x20 DUP2 ADD SWAP1 POP PUSH2 0x79C JUMP JUMPDEST DUP7 DUP4 LT ISZERO PUSH2 0x7DE JUMPI DUP5 DUP10 ADD MLOAD PUSH2 0x7DA PUSH1 0x1F DUP10 AND DUP3 PUSH2 0x6E7 JUMP JUMPDEST DUP4 SSTORE POP JUMPDEST PUSH1 0x1 PUSH1 0x2 DUP9 MUL ADD DUP9 SSTORE POP POP POP JUMPDEST POP POP POP POP POP POP JUMP JUMPDEST PUSH1 0x0 DUP2 SWAP1 POP SWAP3 SWAP2 POP POP JUMP JUMPDEST PUSH1 0x0 JUMPDEST DUP4 DUP2 LT ISZERO PUSH2 0x81C JUMPI DUP1 DUP3 ADD MLOAD DUP2 DUP5 ADD MSTORE PUSH1 0x20 DUP2 ADD SWAP1 POP PUSH2 0x801 JUMP JUMPDEST PUSH1 0x0 DUP5 DUP5 ADD MSTORE POP POP POP POP JUMP JUMPDEST PUSH1 0x0 PUSH2 0x833 DUP3 PUSH2 0x50A JUMP JUMPDEST PUSH2 0x83D DUP2 DUP6 PUSH2 0x7F3 JUMP JUMPDEST SWAP4 POP PUSH2 0x84D DUP2 DUP6 PUSH1 0x20 DUP7 ADD PUSH2 0x7FE JUMP JUMPDEST DUP1 DUP5 ADD SWAP2 POP POP SWAP3 SWAP2 POP POP JUMP JUMPDEST PUSH1 0x0 PUSH2 0x865 DUP3 DUP5 PUSH2 0x828 JUMP JUMPDEST SWAP2 POP DUP2 SWAP1 POP SWAP3 SWAP2 POP POP JUMP JUMPDEST PUSH1 0x0 DUP2 SLOAD PUSH2 0x87D DUP2 PUSH2 0x544 JUMP JUMPDEST PUSH2 0x887 DUP2 DUP7 PUSH2 0x7F3 JUMP JUMPDEST SWAP5 POP PUSH1 0x1 DUP3 AND PUSH1 0x0 DUP2 EQ PUSH2 0x8A2 JUMPI PUSH1 0x1 DUP2 EQ PUSH2 0x8B7 JUMPI PUSH2 0x8EA JUMP JUMPDEST PUSH1 0xFF NOT DUP4 AND DUP7 MSTORE DUP2 ISZERO ISZERO DUP3 MUL DUP7 ADD SWAP4 POP PUSH2 0x8EA JUMP JUMPDEST PUSH2 0x8C0 DUP6 PUSH2 0x575 JUMP JUMPDEST PUSH1 0x0 JUMPDEST DUP4 DUP2 LT ISZERO PUSH2 0x8E2 JUMPI DUP2 SLOAD DUP2 DUP10 ADD MSTORE PUSH1 0x1 DUP3 ADD SWAP2 POP PUSH1 0x20 DUP2 ADD SWAP1 POP PUSH2 0x8C3 JUMP JUMPDEST DUP4 DUP9 ADD SWAP6 POP POP POP JUMPDEST POP POP POP SWAP3 SWAP2 POP POP JUMP JUMPDEST PUSH1 0x0 PUSH2 0x8FF DUP3 DUP5 PUSH2 0x870 JUMP JUMPDEST SWAP2 POP DUP2 SWAP1 POP SWAP3 SWAP2 POP POP JUMP INVALID LOG2 PUSH5 0x6970667358 0x22 SLT KECCAK256 PUSH2 0x9107 SWAP8 PUSH19 0x9259C9A6A8DE5925B36338A85E9F1A45E0DF1D PREVRANDAO MUL PUSH29 0xDACA50110664736F6C6343000812003300000000000000000000000000 "
				},
				"gasEstimates": {
					"creation": {
						"codeDepositCost": "473600",
						"executionCost": "24771",
						"totalCost": "498371"
					},
					"external": {
						"FillDetails(uint256,uint256,uint256)": "infinite",
						"ViewStudentClassno(string)": "infinite",
						"ViewStudentRegno(string)": "infinite",
						"ViewStudentRollno(string)": "infinite",
						"enroll(string)": "infinite"
					}
				},
				"methodIdentifiers": {
					"FillDetails(uint256,uint256,uint256)": "cbe28563",
					"ViewStudentClassno(string)": "e15ed529",
					"ViewStudentRegno(string)": "80f7bd8b",
					"ViewStudentRollno(string)": "9a1145cb",
					"enroll(string)": "67b09cdb"
				}
			},
			"storageLayout": {
				"storage": [
					{
						"astId": 14,
						"contract": "interacting with ganache.sol:Registry",
						"label": "rollnos",
						"offset": 0,
						"slot": "0",
						"type": "t_mapping(t_string_memory_ptr,t_uint256)"
					},
					{
						"astId": 18,
						"contract": "interacting with ganache.sol:Registry",
						"label": "regnos",
						"offset": 0,
						"slot": "1",
						"type": "t_mapping(t_string_memory_ptr,t_uint256)"
					},
					{
						"astId": 22,
						"contract": "interacting with ganache.sol:Registry",
						"label": "classnos",
						"offset": 0,
						"slot": "2",
						"type": "t_mapping(t_string_memory_ptr,t_uint256)"
					},
					{
						"astId": 24,
						"contract": "interacting with ganache.sol:Registry",
						"label": "student",
						"offset": 0,
						"slot": "3",
						"type": "t_string_storage"
					},
					{
						"astId": 26,
						"contract": "interacting with ganache.sol:Registry",
						"label": "administrator",
						"offset": 0,
						"slot": "4",
						"type": "t_address"
					}
				],
				"types": {
					"t_address": {
						"encoding": "inplace",
						"label": "address",
						"numberOfBytes": "20"
					},
					"t_mapping(t_string_memory_ptr,t_uint256)": {
						"encoding": "mapping",
						"key": "t_string_memory_ptr",
						"label": "mapping(string => uint256)",
						"numberOfBytes": "32",
						"value": "t_uint256"
					},
					"t_string_memory_ptr": {
						"encoding": "bytes",
						"label": "string",
						"numberOfBytes": "32"
					},
					"t_string_storage": {
						"encoding": "bytes",
						"label": "string",
						"numberOfBytes": "32"
					},
					"t_uint256": {
						"encoding": "inplace",
						"label": "uint256",
						"numberOfBytes": "32"
					}
				}
			},
			"userdoc": {
				"kind": "user",
				"methods": {},
				"version": 1
			}
		}
	}
}