{
	"storage , memory , calldata.sol": {
		"A": {
			"abi": [
				{
					"inputs": [
						{
							"internalType": "string",
							"name": "str",
							"type": "string"
						},
						{
							"internalType": "uint256[]",
							"name": "arr",
							"type": "uint256[]"
						}
					],
					"name": "CallData",
					"outputs": [],
					"stateMutability": "nonpayable",
					"type": "function"
				},
				{
					"inputs": [
						{
							"internalType": "string",
							"name": "str",
							"type": "string"
						},
						{
							"internalType": "uint256[]",
							"name": "arr",
							"type": "uint256[]"
						}
					],
					"name": "Memory",
					"outputs": [],
					"stateMutability": "nonpayable",
					"type": "function"
				},
				{
					"inputs": [
						{
							"internalType": "uint256[]",
							"name": "arr",
							"type": "uint256[]"
						}
					],
					"name": "getinCall",
					"outputs": [],
					"stateMutability": "nonpayable",
					"type": "function"
				},
				{
					"inputs": [
						{
							"internalType": "uint256[]",
							"name": "arr",
							"type": "uint256[]"
						}
					],
					"name": "getinMem",
					"outputs": [],
					"stateMutability": "nonpayable",
					"type": "function"
				}
			],
			"devdoc": {
				"kind": "dev",
				"methods": {},
				"version": 1
			},
			"evm": {
				"assembly": "    /* \"storage , memory , calldata.sol\":291:969  contract A{... */\n  mstore(0x40, 0x80)\n  callvalue\n  dup1\n  iszero\n  tag_1\n  jumpi\n  0x00\n  dup1\n  revert\ntag_1:\n  pop\n  dataSize(sub_0)\n  dup1\n  dataOffset(sub_0)\n  0x00\n  codecopy\n  0x00\n  return\nstop\n\nsub_0: assembly {\n        /* \"storage , memory , calldata.sol\":291:969  contract A{... */\n      mstore(0x40, 0x80)\n      callvalue\n      dup1\n      iszero\n      tag_1\n      jumpi\n      0x00\n      dup1\n      revert\n    tag_1:\n      pop\n      jumpi(tag_2, lt(calldatasize, 0x04))\n      shr(0xe0, calldataload(0x00))\n      dup1\n      0x07b39a27\n      eq\n      tag_3\n      jumpi\n      dup1\n      0xa8fc48fa\n      eq\n      tag_4\n      jumpi\n      dup1\n      0xda777692\n      eq\n      tag_5\n      jumpi\n      dup1\n      0xe8fedc94\n      eq\n      tag_6\n      jumpi\n    tag_2:\n      0x00\n      dup1\n      revert\n        /* \"storage , memory , calldata.sol\":609:721  function CallData(string calldata str , uint[] calldata arr) public {... */\n    tag_3:\n      tag_7\n      0x04\n      dup1\n      calldatasize\n      sub\n      dup2\n      add\n      swap1\n      tag_8\n      swap2\n      swap1\n      tag_9\n      jump\t// in\n    tag_8:\n      tag_10\n      jump\t// in\n    tag_7:\n      stop\n        /* \"storage , memory , calldata.sol\":306:603  function Memory(string memory str , uint[] memory arr) public {... */\n    tag_4:\n      tag_11\n      0x04\n      dup1\n      calldatasize\n      sub\n      dup2\n      add\n      swap1\n      tag_12\n      swap2\n      swap1\n      tag_13\n      jump\t// in\n    tag_12:\n      tag_14\n      jump\t// in\n    tag_11:\n      stop\n        /* \"storage , memory , calldata.sol\":781:834  function getinCall(uint[] calldata arr) public {... */\n    tag_5:\n      tag_15\n      0x04\n      dup1\n      calldatasize\n      sub\n      dup2\n      add\n      swap1\n      tag_16\n      swap2\n      swap1\n      tag_17\n      jump\t// in\n    tag_16:\n      tag_18\n      jump\t// in\n    tag_15:\n      stop\n        /* \"storage , memory , calldata.sol\":727:777  function getinMem(uint[] memory arr) public {... */\n    tag_6:\n      tag_19\n      0x04\n      dup1\n      calldatasize\n      sub\n      dup2\n      add\n      swap1\n      tag_20\n      swap2\n      swap1\n      tag_21\n      jump\t// in\n    tag_20:\n      tag_22\n      jump\t// in\n    tag_19:\n      stop\n        /* \"storage , memory , calldata.sol\":609:721  function CallData(string calldata str , uint[] calldata arr) public {... */\n    tag_10:\n        /* \"storage , memory , calldata.sol\":686:699  getinMem(arr) */\n      tag_24\n        /* \"storage , memory , calldata.sol\":695:698  arr */\n      dup3\n      dup3\n        /* \"storage , memory , calldata.sol\":686:699  getinMem(arr) */\n      dup1\n      dup1\n      0x20\n      mul\n      0x20\n      add\n      mload(0x40)\n      swap1\n      dup2\n      add\n      0x40\n      mstore\n      dup1\n      swap4\n      swap3\n      swap2\n      swap1\n      dup2\n      dup2\n      mstore\n      0x20\n      add\n      dup4\n      dup4\n      0x20\n      mul\n      dup1\n      dup3\n      dup5\n      calldatacopy\n      0x00\n      dup2\n      dup5\n      add\n      mstore\n      not(0x1f)\n      0x1f\n      dup3\n      add\n      and\n      swap1\n      pop\n      dup1\n      dup4\n      add\n      swap3\n      pop\n      pop\n      pop\n      pop\n      pop\n      pop\n      pop\n        /* \"storage , memory , calldata.sol\":686:694  getinMem */\n      tag_22\n        /* \"storage , memory , calldata.sol\":686:699  getinMem(arr) */\n      jump\t// in\n    tag_24:\n        /* \"storage , memory , calldata.sol\":702:716  getinCall(arr) */\n      tag_25\n        /* \"storage , memory , calldata.sol\":712:715  arr */\n      dup3\n      dup3\n        /* \"storage , memory , calldata.sol\":702:711  getinCall */\n      tag_18\n        /* \"storage , memory , calldata.sol\":702:716  getinCall(arr) */\n      jump\t// in\n    tag_25:\n        /* \"storage , memory , calldata.sol\":609:721  function CallData(string calldata str , uint[] calldata arr) public {... */\n      pop\n      pop\n      pop\n      pop\n      jump\t// out\n        /* \"storage , memory , calldata.sol\":306:603  function Memory(string memory str , uint[] memory arr) public {... */\n    tag_14:\n        /* \"storage , memory , calldata.sol\":371:384  getinMem(arr) */\n      tag_27\n        /* \"storage , memory , calldata.sol\":380:383  arr */\n      dup2\n        /* \"storage , memory , calldata.sol\":371:379  getinMem */\n      tag_22\n        /* \"storage , memory , calldata.sol\":371:384  getinMem(arr) */\n      jump\t// in\n    tag_27:\n        /* \"storage , memory , calldata.sol\":306:603  function Memory(string memory str , uint[] memory arr) public {... */\n      pop\n      pop\n      jump\t// out\n        /* \"storage , memory , calldata.sol\":781:834  function getinCall(uint[] calldata arr) public {... */\n    tag_18:\n      pop\n      pop\n      jump\t// out\n        /* \"storage , memory , calldata.sol\":727:777  function getinMem(uint[] memory arr) public {... */\n    tag_22:\n      pop\n      jump\t// out\n        /* \"#utility.yul\":7:82   */\n    tag_30:\n        /* \"#utility.yul\":40:46   */\n      0x00\n        /* \"#utility.yul\":73:75   */\n      0x40\n        /* \"#utility.yul\":67:76   */\n      mload\n        /* \"#utility.yul\":57:76   */\n      swap1\n      pop\n        /* \"#utility.yul\":7:82   */\n      swap1\n      jump\t// out\n        /* \"#utility.yul\":88:205   */\n    tag_31:\n        /* \"#utility.yul\":197:198   */\n      0x00\n        /* \"#utility.yul\":194:195   */\n      dup1\n        /* \"#utility.yul\":187:199   */\n      revert\n        /* \"#utility.yul\":211:328   */\n    tag_32:\n        /* \"#utility.yul\":320:321   */\n      0x00\n        /* \"#utility.yul\":317:318   */\n      dup1\n        /* \"#utility.yul\":310:322   */\n      revert\n        /* \"#utility.yul\":334:451   */\n    tag_33:\n        /* \"#utility.yul\":443:444   */\n      0x00\n        /* \"#utility.yul\":440:441   */\n      dup1\n        /* \"#utility.yul\":433:445   */\n      revert\n        /* \"#utility.yul\":457:574   */\n    tag_34:\n        /* \"#utility.yul\":566:567   */\n      0x00\n        /* \"#utility.yul\":563:564   */\n      dup1\n        /* \"#utility.yul\":556:568   */\n      revert\n        /* \"#utility.yul\":580:697   */\n    tag_35:\n        /* \"#utility.yul\":689:690   */\n      0x00\n        /* \"#utility.yul\":686:687   */\n      dup1\n        /* \"#utility.yul\":679:691   */\n      revert\n        /* \"#utility.yul\":717:1270   */\n    tag_36:\n        /* \"#utility.yul\":775:783   */\n      0x00\n        /* \"#utility.yul\":785:791   */\n      dup1\n        /* \"#utility.yul\":835:838   */\n      dup4\n        /* \"#utility.yul\":828:832   */\n      0x1f\n        /* \"#utility.yul\":820:826   */\n      dup5\n        /* \"#utility.yul\":816:833   */\n      add\n        /* \"#utility.yul\":812:839   */\n      slt\n        /* \"#utility.yul\":802:924   */\n      tag_61\n      jumpi\n        /* \"#utility.yul\":843:922   */\n      tag_62\n      tag_33\n      jump\t// in\n    tag_62:\n        /* \"#utility.yul\":802:924   */\n    tag_61:\n        /* \"#utility.yul\":956:962   */\n      dup3\n        /* \"#utility.yul\":943:963   */\n      calldataload\n        /* \"#utility.yul\":933:963   */\n      swap1\n      pop\n        /* \"#utility.yul\":986:1004   */\n      0xffffffffffffffff\n        /* \"#utility.yul\":978:984   */\n      dup2\n        /* \"#utility.yul\":975:1005   */\n      gt\n        /* \"#utility.yul\":972:1089   */\n      iszero\n      tag_63\n      jumpi\n        /* \"#utility.yul\":1008:1087   */\n      tag_64\n      tag_34\n      jump\t// in\n    tag_64:\n        /* \"#utility.yul\":972:1089   */\n    tag_63:\n        /* \"#utility.yul\":1122:1126   */\n      0x20\n        /* \"#utility.yul\":1114:1120   */\n      dup4\n        /* \"#utility.yul\":1110:1127   */\n      add\n        /* \"#utility.yul\":1098:1127   */\n      swap2\n      pop\n        /* \"#utility.yul\":1176:1179   */\n      dup4\n        /* \"#utility.yul\":1168:1172   */\n      0x01\n        /* \"#utility.yul\":1160:1166   */\n      dup3\n        /* \"#utility.yul\":1156:1173   */\n      mul\n        /* \"#utility.yul\":1146:1154   */\n      dup4\n        /* \"#utility.yul\":1142:1174   */\n      add\n        /* \"#utility.yul\":1139:1180   */\n      gt\n        /* \"#utility.yul\":1136:1264   */\n      iszero\n      tag_65\n      jumpi\n        /* \"#utility.yul\":1183:1262   */\n      tag_66\n      tag_35\n      jump\t// in\n    tag_66:\n        /* \"#utility.yul\":1136:1264   */\n    tag_65:\n        /* \"#utility.yul\":717:1270   */\n      swap3\n      pop\n      swap3\n      swap1\n      pop\n      jump\t// out\n        /* \"#utility.yul\":1293:1861   */\n    tag_37:\n        /* \"#utility.yul\":1366:1374   */\n      0x00\n        /* \"#utility.yul\":1376:1382   */\n      dup1\n        /* \"#utility.yul\":1426:1429   */\n      dup4\n        /* \"#utility.yul\":1419:1423   */\n      0x1f\n        /* \"#utility.yul\":1411:1417   */\n      dup5\n        /* \"#utility.yul\":1407:1424   */\n      add\n        /* \"#utility.yul\":1403:1430   */\n      slt\n        /* \"#utility.yul\":1393:1515   */\n      tag_68\n      jumpi\n        /* \"#utility.yul\":1434:1513   */\n      tag_69\n      tag_33\n      jump\t// in\n    tag_69:\n        /* \"#utility.yul\":1393:1515   */\n    tag_68:\n        /* \"#utility.yul\":1547:1553   */\n      dup3\n        /* \"#utility.yul\":1534:1554   */\n      calldataload\n        /* \"#utility.yul\":1524:1554   */\n      swap1\n      pop\n        /* \"#utility.yul\":1577:1595   */\n      0xffffffffffffffff\n        /* \"#utility.yul\":1569:1575   */\n      dup2\n        /* \"#utility.yul\":1566:1596   */\n      gt\n        /* \"#utility.yul\":1563:1680   */\n      iszero\n      tag_70\n      jumpi\n        /* \"#utility.yul\":1599:1678   */\n      tag_71\n      tag_34\n      jump\t// in\n    tag_71:\n        /* \"#utility.yul\":1563:1680   */\n    tag_70:\n        /* \"#utility.yul\":1713:1717   */\n      0x20\n        /* \"#utility.yul\":1705:1711   */\n      dup4\n        /* \"#utility.yul\":1701:1718   */\n      add\n        /* \"#utility.yul\":1689:1718   */\n      swap2\n      pop\n        /* \"#utility.yul\":1767:1770   */\n      dup4\n        /* \"#utility.yul\":1759:1763   */\n      0x20\n        /* \"#utility.yul\":1751:1757   */\n      dup3\n        /* \"#utility.yul\":1747:1764   */\n      mul\n        /* \"#utility.yul\":1737:1745   */\n      dup4\n        /* \"#utility.yul\":1733:1765   */\n      add\n        /* \"#utility.yul\":1730:1771   */\n      gt\n        /* \"#utility.yul\":1727:1855   */\n      iszero\n      tag_72\n      jumpi\n        /* \"#utility.yul\":1774:1853   */\n      tag_73\n      tag_35\n      jump\t// in\n    tag_73:\n        /* \"#utility.yul\":1727:1855   */\n    tag_72:\n        /* \"#utility.yul\":1293:1861   */\n      swap3\n      pop\n      swap3\n      swap1\n      pop\n      jump\t// out\n        /* \"#utility.yul\":1867:2771   */\n    tag_9:\n        /* \"#utility.yul\":1974:1980   */\n      0x00\n        /* \"#utility.yul\":1982:1988   */\n      dup1\n        /* \"#utility.yul\":1990:1996   */\n      0x00\n        /* \"#utility.yul\":1998:2004   */\n      dup1\n        /* \"#utility.yul\":2047:2049   */\n      0x40\n        /* \"#utility.yul\":2035:2044   */\n      dup6\n        /* \"#utility.yul\":2026:2033   */\n      dup8\n        /* \"#utility.yul\":2022:2045   */\n      sub\n        /* \"#utility.yul\":2018:2050   */\n      slt\n        /* \"#utility.yul\":2015:2134   */\n      iszero\n      tag_75\n      jumpi\n        /* \"#utility.yul\":2053:2132   */\n      tag_76\n      tag_31\n      jump\t// in\n    tag_76:\n        /* \"#utility.yul\":2015:2134   */\n    tag_75:\n        /* \"#utility.yul\":2201:2202   */\n      0x00\n        /* \"#utility.yul\":2190:2199   */\n      dup6\n        /* \"#utility.yul\":2186:2203   */\n      add\n        /* \"#utility.yul\":2173:2204   */\n      calldataload\n        /* \"#utility.yul\":2231:2249   */\n      0xffffffffffffffff\n        /* \"#utility.yul\":2223:2229   */\n      dup2\n        /* \"#utility.yul\":2220:2250   */\n      gt\n        /* \"#utility.yul\":2217:2334   */\n      iszero\n      tag_77\n      jumpi\n        /* \"#utility.yul\":2253:2332   */\n      tag_78\n      tag_32\n      jump\t// in\n    tag_78:\n        /* \"#utility.yul\":2217:2334   */\n    tag_77:\n        /* \"#utility.yul\":2366:2431   */\n      tag_79\n        /* \"#utility.yul\":2423:2430   */\n      dup8\n        /* \"#utility.yul\":2414:2420   */\n      dup3\n        /* \"#utility.yul\":2403:2412   */\n      dup9\n        /* \"#utility.yul\":2399:2421   */\n      add\n        /* \"#utility.yul\":2366:2431   */\n      tag_36\n      jump\t// in\n    tag_79:\n        /* \"#utility.yul\":2348:2431   */\n      swap5\n      pop\n      swap5\n      pop\n        /* \"#utility.yul\":2144:2441   */\n      pop\n        /* \"#utility.yul\":2508:2510   */\n      0x20\n        /* \"#utility.yul\":2497:2506   */\n      dup6\n        /* \"#utility.yul\":2493:2511   */\n      add\n        /* \"#utility.yul\":2480:2512   */\n      calldataload\n        /* \"#utility.yul\":2539:2557   */\n      0xffffffffffffffff\n        /* \"#utility.yul\":2531:2537   */\n      dup2\n        /* \"#utility.yul\":2528:2558   */\n      gt\n        /* \"#utility.yul\":2525:2642   */\n      iszero\n      tag_80\n      jumpi\n        /* \"#utility.yul\":2561:2640   */\n      tag_81\n      tag_32\n      jump\t// in\n    tag_81:\n        /* \"#utility.yul\":2525:2642   */\n    tag_80:\n        /* \"#utility.yul\":2674:2754   */\n      tag_82\n        /* \"#utility.yul\":2746:2753   */\n      dup8\n        /* \"#utility.yul\":2737:2743   */\n      dup3\n        /* \"#utility.yul\":2726:2735   */\n      dup9\n        /* \"#utility.yul\":2722:2744   */\n      add\n        /* \"#utility.yul\":2674:2754   */\n      tag_37\n      jump\t// in\n    tag_82:\n        /* \"#utility.yul\":2656:2754   */\n      swap3\n      pop\n      swap3\n      pop\n        /* \"#utility.yul\":2451:2764   */\n      pop\n        /* \"#utility.yul\":1867:2771   */\n      swap3\n      swap6\n      swap2\n      swap5\n      pop\n      swap3\n      pop\n      jump\t// out\n        /* \"#utility.yul\":2777:2894   */\n    tag_38:\n        /* \"#utility.yul\":2886:2887   */\n      0x00\n        /* \"#utility.yul\":2883:2884   */\n      dup1\n        /* \"#utility.yul\":2876:2888   */\n      revert\n        /* \"#utility.yul\":2900:3002   */\n    tag_39:\n        /* \"#utility.yul\":2941:2947   */\n      0x00\n        /* \"#utility.yul\":2992:2994   */\n      0x1f\n        /* \"#utility.yul\":2988:2995   */\n      not\n        /* \"#utility.yul\":2983:2985   */\n      0x1f\n        /* \"#utility.yul\":2976:2981   */\n      dup4\n        /* \"#utility.yul\":2972:2986   */\n      add\n        /* \"#utility.yul\":2968:2996   */\n      and\n        /* \"#utility.yul\":2958:2996   */\n      swap1\n      pop\n        /* \"#utility.yul\":2900:3002   */\n      swap2\n      swap1\n      pop\n      jump\t// out\n        /* \"#utility.yul\":3008:3188   */\n    tag_40:\n        /* \"#utility.yul\":3056:3133   */\n      0x4e487b7100000000000000000000000000000000000000000000000000000000\n        /* \"#utility.yul\":3053:3054   */\n      0x00\n        /* \"#utility.yul\":3046:3134   */\n      mstore\n        /* \"#utility.yul\":3153:3157   */\n      0x41\n        /* \"#utility.yul\":3150:3151   */\n      0x04\n        /* \"#utility.yul\":3143:3158   */\n      mstore\n        /* \"#utility.yul\":3177:3181   */\n      0x24\n        /* \"#utility.yul\":3174:3175   */\n      0x00\n        /* \"#utility.yul\":3167:3182   */\n      revert\n        /* \"#utility.yul\":3194:3475   */\n    tag_41:\n        /* \"#utility.yul\":3277:3304   */\n      tag_87\n        /* \"#utility.yul\":3299:3303   */\n      dup3\n        /* \"#utility.yul\":3277:3304   */\n      tag_39\n      jump\t// in\n    tag_87:\n        /* \"#utility.yul\":3269:3275   */\n      dup2\n        /* \"#utility.yul\":3265:3305   */\n      add\n        /* \"#utility.yul\":3407:3413   */\n      dup2\n        /* \"#utility.yul\":3395:3405   */\n      dup2\n        /* \"#utility.yul\":3392:3414   */\n      lt\n        /* \"#utility.yul\":3371:3389   */\n      0xffffffffffffffff\n        /* \"#utility.yul\":3359:3369   */\n      dup3\n        /* \"#utility.yul\":3356:3390   */\n      gt\n        /* \"#utility.yul\":3353:3415   */\n      or\n        /* \"#utility.yul\":3350:3438   */\n      iszero\n      tag_88\n      jumpi\n        /* \"#utility.yul\":3418:3436   */\n      tag_89\n      tag_40\n      jump\t// in\n    tag_89:\n        /* \"#utility.yul\":3350:3438   */\n    tag_88:\n        /* \"#utility.yul\":3458:3468   */\n      dup1\n        /* \"#utility.yul\":3454:3456   */\n      0x40\n        /* \"#utility.yul\":3447:3469   */\n      mstore\n        /* \"#utility.yul\":3237:3475   */\n      pop\n        /* \"#utility.yul\":3194:3475   */\n      pop\n      pop\n      jump\t// out\n        /* \"#utility.yul\":3481:3610   */\n    tag_42:\n        /* \"#utility.yul\":3515:3521   */\n      0x00\n        /* \"#utility.yul\":3542:3562   */\n      tag_91\n      tag_30\n      jump\t// in\n    tag_91:\n        /* \"#utility.yul\":3532:3562   */\n      swap1\n      pop\n        /* \"#utility.yul\":3571:3604   */\n      tag_92\n        /* \"#utility.yul\":3599:3603   */\n      dup3\n        /* \"#utility.yul\":3591:3597   */\n      dup3\n        /* \"#utility.yul\":3571:3604   */\n      tag_41\n      jump\t// in\n    tag_92:\n        /* \"#utility.yul\":3481:3610   */\n      swap2\n      swap1\n      pop\n      jump\t// out\n        /* \"#utility.yul\":3616:3924   */\n    tag_43:\n        /* \"#utility.yul\":3678:3682   */\n      0x00\n        /* \"#utility.yul\":3768:3786   */\n      0xffffffffffffffff\n        /* \"#utility.yul\":3760:3766   */\n      dup3\n        /* \"#utility.yul\":3757:3787   */\n      gt\n        /* \"#utility.yul\":3754:3810   */\n      iszero\n      tag_94\n      jumpi\n        /* \"#utility.yul\":3790:3808   */\n      tag_95\n      tag_40\n      jump\t// in\n    tag_95:\n        /* \"#utility.yul\":3754:3810   */\n    tag_94:\n        /* \"#utility.yul\":3828:3857   */\n      tag_96\n        /* \"#utility.yul\":3850:3856   */\n      dup3\n        /* \"#utility.yul\":3828:3857   */\n      tag_39\n      jump\t// in\n    tag_96:\n        /* \"#utility.yul\":3820:3857   */\n      swap1\n      pop\n        /* \"#utility.yul\":3912:3916   */\n      0x20\n        /* \"#utility.yul\":3906:3910   */\n      dup2\n        /* \"#utility.yul\":3902:3917   */\n      add\n        /* \"#utility.yul\":3894:3917   */\n      swap1\n      pop\n        /* \"#utility.yul\":3616:3924   */\n      swap2\n      swap1\n      pop\n      jump\t// out\n        /* \"#utility.yul\":3930:4076   */\n    tag_44:\n        /* \"#utility.yul\":4027:4033   */\n      dup3\n        /* \"#utility.yul\":4022:4025   */\n      dup2\n        /* \"#utility.yul\":4017:4020   */\n      dup4\n        /* \"#utility.yul\":4004:4034   */\n      calldatacopy\n        /* \"#utility.yul\":4068:4069   */\n      0x00\n        /* \"#utility.yul\":4059:4065   */\n      dup4\n        /* \"#utility.yul\":4054:4057   */\n      dup4\n        /* \"#utility.yul\":4050:4066   */\n      add\n        /* \"#utility.yul\":4043:4070   */\n      mstore\n        /* \"#utility.yul\":3930:4076   */\n      pop\n      pop\n      pop\n      jump\t// out\n        /* \"#utility.yul\":4082:4507   */\n    tag_45:\n        /* \"#utility.yul\":4160:4165   */\n      0x00\n        /* \"#utility.yul\":4185:4251   */\n      tag_99\n        /* \"#utility.yul\":4201:4250   */\n      tag_100\n        /* \"#utility.yul\":4243:4249   */\n      dup5\n        /* \"#utility.yul\":4201:4250   */\n      tag_43\n      jump\t// in\n    tag_100:\n        /* \"#utility.yul\":4185:4251   */\n      tag_42\n      jump\t// in\n    tag_99:\n        /* \"#utility.yul\":4176:4251   */\n      swap1\n      pop\n        /* \"#utility.yul\":4274:4280   */\n      dup3\n        /* \"#utility.yul\":4267:4272   */\n      dup2\n        /* \"#utility.yul\":4260:4281   */\n      mstore\n        /* \"#utility.yul\":4312:4316   */\n      0x20\n        /* \"#utility.yul\":4305:4310   */\n      dup2\n        /* \"#utility.yul\":4301:4317   */\n      add\n        /* \"#utility.yul\":4350:4353   */\n      dup5\n        /* \"#utility.yul\":4341:4347   */\n      dup5\n        /* \"#utility.yul\":4336:4339   */\n      dup5\n        /* \"#utility.yul\":4332:4348   */\n      add\n        /* \"#utility.yul\":4329:4354   */\n      gt\n        /* \"#utility.yul\":4326:4438   */\n      iszero\n      tag_101\n      jumpi\n        /* \"#utility.yul\":4357:4436   */\n      tag_102\n      tag_38\n      jump\t// in\n    tag_102:\n        /* \"#utility.yul\":4326:4438   */\n    tag_101:\n        /* \"#utility.yul\":4447:4501   */\n      tag_103\n        /* \"#utility.yul\":4494:4500   */\n      dup5\n        /* \"#utility.yul\":4489:4492   */\n      dup3\n        /* \"#utility.yul\":4484:4487   */\n      dup6\n        /* \"#utility.yul\":4447:4501   */\n      tag_44\n      jump\t// in\n    tag_103:\n        /* \"#utility.yul\":4166:4507   */\n      pop\n        /* \"#utility.yul\":4082:4507   */\n      swap4\n      swap3\n      pop\n      pop\n      pop\n      jump\t// out\n        /* \"#utility.yul\":4527:4867   */\n    tag_46:\n        /* \"#utility.yul\":4583:4588   */\n      0x00\n        /* \"#utility.yul\":4632:4635   */\n      dup3\n        /* \"#utility.yul\":4625:4629   */\n      0x1f\n        /* \"#utility.yul\":4617:4623   */\n      dup4\n        /* \"#utility.yul\":4613:4630   */\n      add\n        /* \"#utility.yul\":4609:4636   */\n      slt\n        /* \"#utility.yul\":4599:4721   */\n      tag_105\n      jumpi\n        /* \"#utility.yul\":4640:4719   */\n      tag_106\n      tag_33\n      jump\t// in\n    tag_106:\n        /* \"#utility.yul\":4599:4721   */\n    tag_105:\n        /* \"#utility.yul\":4757:4763   */\n      dup2\n        /* \"#utility.yul\":4744:4764   */\n      calldataload\n        /* \"#utility.yul\":4782:4861   */\n      tag_107\n        /* \"#utility.yul\":4857:4860   */\n      dup5\n        /* \"#utility.yul\":4849:4855   */\n      dup3\n        /* \"#utility.yul\":4842:4846   */\n      0x20\n        /* \"#utility.yul\":4834:4840   */\n      dup7\n        /* \"#utility.yul\":4830:4847   */\n      add\n        /* \"#utility.yul\":4782:4861   */\n      tag_45\n      jump\t// in\n    tag_107:\n        /* \"#utility.yul\":4773:4861   */\n      swap2\n      pop\n        /* \"#utility.yul\":4589:4867   */\n      pop\n        /* \"#utility.yul\":4527:4867   */\n      swap3\n      swap2\n      pop\n      pop\n      jump\t// out\n        /* \"#utility.yul\":4873:5184   */\n    tag_47:\n        /* \"#utility.yul\":4950:4954   */\n      0x00\n        /* \"#utility.yul\":5040:5058   */\n      0xffffffffffffffff\n        /* \"#utility.yul\":5032:5038   */\n      dup3\n        /* \"#utility.yul\":5029:5059   */\n      gt\n        /* \"#utility.yul\":5026:5082   */\n      iszero\n      tag_109\n      jumpi\n        /* \"#utility.yul\":5062:5080   */\n      tag_110\n      tag_40\n      jump\t// in\n    tag_110:\n        /* \"#utility.yul\":5026:5082   */\n    tag_109:\n        /* \"#utility.yul\":5112:5116   */\n      0x20\n        /* \"#utility.yul\":5104:5110   */\n      dup3\n        /* \"#utility.yul\":5100:5117   */\n      mul\n        /* \"#utility.yul\":5092:5117   */\n      swap1\n      pop\n        /* \"#utility.yul\":5172:5176   */\n      0x20\n        /* \"#utility.yul\":5166:5170   */\n      dup2\n        /* \"#utility.yul\":5162:5177   */\n      add\n        /* \"#utility.yul\":5154:5177   */\n      swap1\n      pop\n        /* \"#utility.yul\":4873:5184   */\n      swap2\n      swap1\n      pop\n      jump\t// out\n        /* \"#utility.yul\":5190:5267   */\n    tag_48:\n        /* \"#utility.yul\":5227:5234   */\n      0x00\n        /* \"#utility.yul\":5256:5261   */\n      dup2\n        /* \"#utility.yul\":5245:5261   */\n      swap1\n      pop\n        /* \"#utility.yul\":5190:5267   */\n      swap2\n      swap1\n      pop\n      jump\t// out\n        /* \"#utility.yul\":5273:5395   */\n    tag_49:\n        /* \"#utility.yul\":5346:5370   */\n      tag_113\n        /* \"#utility.yul\":5364:5369   */\n      dup2\n        /* \"#utility.yul\":5346:5370   */\n      tag_48\n      jump\t// in\n    tag_113:\n        /* \"#utility.yul\":5339:5344   */\n      dup2\n        /* \"#utility.yul\":5336:5371   */\n      eq\n        /* \"#utility.yul\":5326:5389   */\n      tag_114\n      jumpi\n        /* \"#utility.yul\":5385:5386   */\n      0x00\n        /* \"#utility.yul\":5382:5383   */\n      dup1\n        /* \"#utility.yul\":5375:5387   */\n      revert\n        /* \"#utility.yul\":5326:5389   */\n    tag_114:\n        /* \"#utility.yul\":5273:5395   */\n      pop\n      jump\t// out\n        /* \"#utility.yul\":5401:5540   */\n    tag_50:\n        /* \"#utility.yul\":5447:5452   */\n      0x00\n        /* \"#utility.yul\":5485:5491   */\n      dup2\n        /* \"#utility.yul\":5472:5492   */\n      calldataload\n        /* \"#utility.yul\":5463:5492   */\n      swap1\n      pop\n        /* \"#utility.yul\":5501:5534   */\n      tag_116\n        /* \"#utility.yul\":5528:5533   */\n      dup2\n        /* \"#utility.yul\":5501:5534   */\n      tag_49\n      jump\t// in\n    tag_116:\n        /* \"#utility.yul\":5401:5540   */\n      swap3\n      swap2\n      pop\n      pop\n      jump\t// out\n        /* \"#utility.yul\":5563:6273   */\n    tag_51:\n        /* \"#utility.yul\":5659:5664   */\n      0x00\n        /* \"#utility.yul\":5684:5765   */\n      tag_118\n        /* \"#utility.yul\":5700:5764   */\n      tag_119\n        /* \"#utility.yul\":5757:5763   */\n      dup5\n        /* \"#utility.yul\":5700:5764   */\n      tag_47\n      jump\t// in\n    tag_119:\n        /* \"#utility.yul\":5684:5765   */\n      tag_42\n      jump\t// in\n    tag_118:\n        /* \"#utility.yul\":5675:5765   */\n      swap1\n      pop\n        /* \"#utility.yul\":5785:5790   */\n      dup1\n        /* \"#utility.yul\":5814:5820   */\n      dup4\n        /* \"#utility.yul\":5807:5812   */\n      dup3\n        /* \"#utility.yul\":5800:5821   */\n      mstore\n        /* \"#utility.yul\":5848:5852   */\n      0x20\n        /* \"#utility.yul\":5841:5846   */\n      dup3\n        /* \"#utility.yul\":5837:5853   */\n      add\n        /* \"#utility.yul\":5830:5853   */\n      swap1\n      pop\n        /* \"#utility.yul\":5901:5905   */\n      0x20\n        /* \"#utility.yul\":5893:5899   */\n      dup5\n        /* \"#utility.yul\":5889:5906   */\n      mul\n        /* \"#utility.yul\":5881:5887   */\n      dup4\n        /* \"#utility.yul\":5877:5907   */\n      add\n        /* \"#utility.yul\":5930:5933   */\n      dup6\n        /* \"#utility.yul\":5922:5928   */\n      dup2\n        /* \"#utility.yul\":5919:5934   */\n      gt\n        /* \"#utility.yul\":5916:6038   */\n      iszero\n      tag_120\n      jumpi\n        /* \"#utility.yul\":5949:6028   */\n      tag_121\n      tag_35\n      jump\t// in\n    tag_121:\n        /* \"#utility.yul\":5916:6038   */\n    tag_120:\n        /* \"#utility.yul\":6064:6070   */\n      dup4\n        /* \"#utility.yul\":6047:6267   */\n    tag_122:\n        /* \"#utility.yul\":6081:6087   */\n      dup2\n        /* \"#utility.yul\":6076:6079   */\n      dup2\n        /* \"#utility.yul\":6073:6088   */\n      lt\n        /* \"#utility.yul\":6047:6267   */\n      iszero\n      tag_124\n      jumpi\n        /* \"#utility.yul\":6156:6159   */\n      dup1\n        /* \"#utility.yul\":6185:6222   */\n      tag_125\n        /* \"#utility.yul\":6218:6221   */\n      dup9\n        /* \"#utility.yul\":6206:6216   */\n      dup3\n        /* \"#utility.yul\":6185:6222   */\n      tag_50\n      jump\t// in\n    tag_125:\n        /* \"#utility.yul\":6180:6183   */\n      dup5\n        /* \"#utility.yul\":6173:6223   */\n      mstore\n        /* \"#utility.yul\":6252:6256   */\n      0x20\n        /* \"#utility.yul\":6247:6250   */\n      dup5\n        /* \"#utility.yul\":6243:6257   */\n      add\n        /* \"#utility.yul\":6236:6257   */\n      swap4\n      pop\n        /* \"#utility.yul\":6123:6267   */\n      pop\n        /* \"#utility.yul\":6107:6111   */\n      0x20\n        /* \"#utility.yul\":6102:6105   */\n      dup2\n        /* \"#utility.yul\":6098:6112   */\n      add\n        /* \"#utility.yul\":6091:6112   */\n      swap1\n      pop\n        /* \"#utility.yul\":6047:6267   */\n      jump(tag_122)\n    tag_124:\n        /* \"#utility.yul\":6051:6072   */\n      pop\n        /* \"#utility.yul\":5665:6273   */\n      pop\n      pop\n        /* \"#utility.yul\":5563:6273   */\n      swap4\n      swap3\n      pop\n      pop\n      pop\n      jump\t// out\n        /* \"#utility.yul\":6296:6666   */\n    tag_52:\n        /* \"#utility.yul\":6367:6372   */\n      0x00\n        /* \"#utility.yul\":6416:6419   */\n      dup3\n        /* \"#utility.yul\":6409:6413   */\n      0x1f\n        /* \"#utility.yul\":6401:6407   */\n      dup4\n        /* \"#utility.yul\":6397:6414   */\n      add\n        /* \"#utility.yul\":6393:6420   */\n      slt\n        /* \"#utility.yul\":6383:6505   */\n      tag_127\n      jumpi\n        /* \"#utility.yul\":6424:6503   */\n      tag_128\n      tag_33\n      jump\t// in\n    tag_128:\n        /* \"#utility.yul\":6383:6505   */\n    tag_127:\n        /* \"#utility.yul\":6541:6547   */\n      dup2\n        /* \"#utility.yul\":6528:6548   */\n      calldataload\n        /* \"#utility.yul\":6566:6660   */\n      tag_129\n        /* \"#utility.yul\":6656:6659   */\n      dup5\n        /* \"#utility.yul\":6648:6654   */\n      dup3\n        /* \"#utility.yul\":6641:6645   */\n      0x20\n        /* \"#utility.yul\":6633:6639   */\n      dup7\n        /* \"#utility.yul\":6629:6646   */\n      add\n        /* \"#utility.yul\":6566:6660   */\n      tag_51\n      jump\t// in\n    tag_129:\n        /* \"#utility.yul\":6557:6660   */\n      swap2\n      pop\n        /* \"#utility.yul\":6373:6666   */\n      pop\n        /* \"#utility.yul\":6296:6666   */\n      swap3\n      swap2\n      pop\n      pop\n      jump\t// out\n        /* \"#utility.yul\":6672:7536   */\n    tag_13:\n        /* \"#utility.yul\":6775:6781   */\n      0x00\n        /* \"#utility.yul\":6783:6789   */\n      dup1\n        /* \"#utility.yul\":6832:6834   */\n      0x40\n        /* \"#utility.yul\":6820:6829   */\n      dup4\n        /* \"#utility.yul\":6811:6818   */\n      dup6\n        /* \"#utility.yul\":6807:6830   */\n      sub\n        /* \"#utility.yul\":6803:6835   */\n      slt\n        /* \"#utility.yul\":6800:6919   */\n      iszero\n      tag_131\n      jumpi\n        /* \"#utility.yul\":6838:6917   */\n      tag_132\n      tag_31\n      jump\t// in\n    tag_132:\n        /* \"#utility.yul\":6800:6919   */\n    tag_131:\n        /* \"#utility.yul\":6986:6987   */\n      0x00\n        /* \"#utility.yul\":6975:6984   */\n      dup4\n        /* \"#utility.yul\":6971:6988   */\n      add\n        /* \"#utility.yul\":6958:6989   */\n      calldataload\n        /* \"#utility.yul\":7016:7034   */\n      0xffffffffffffffff\n        /* \"#utility.yul\":7008:7014   */\n      dup2\n        /* \"#utility.yul\":7005:7035   */\n      gt\n        /* \"#utility.yul\":7002:7119   */\n      iszero\n      tag_133\n      jumpi\n        /* \"#utility.yul\":7038:7117   */\n      tag_134\n      tag_32\n      jump\t// in\n    tag_134:\n        /* \"#utility.yul\":7002:7119   */\n    tag_133:\n        /* \"#utility.yul\":7143:7206   */\n      tag_135\n        /* \"#utility.yul\":7198:7205   */\n      dup6\n        /* \"#utility.yul\":7189:7195   */\n      dup3\n        /* \"#utility.yul\":7178:7187   */\n      dup7\n        /* \"#utility.yul\":7174:7196   */\n      add\n        /* \"#utility.yul\":7143:7206   */\n      tag_46\n      jump\t// in\n    tag_135:\n        /* \"#utility.yul\":7133:7206   */\n      swap3\n      pop\n        /* \"#utility.yul\":6929:7216   */\n      pop\n        /* \"#utility.yul\":7283:7285   */\n      0x20\n        /* \"#utility.yul\":7272:7281   */\n      dup4\n        /* \"#utility.yul\":7268:7286   */\n      add\n        /* \"#utility.yul\":7255:7287   */\n      calldataload\n        /* \"#utility.yul\":7314:7332   */\n      0xffffffffffffffff\n        /* \"#utility.yul\":7306:7312   */\n      dup2\n        /* \"#utility.yul\":7303:7333   */\n      gt\n        /* \"#utility.yul\":7300:7417   */\n      iszero\n      tag_136\n      jumpi\n        /* \"#utility.yul\":7336:7415   */\n      tag_137\n      tag_32\n      jump\t// in\n    tag_137:\n        /* \"#utility.yul\":7300:7417   */\n    tag_136:\n        /* \"#utility.yul\":7441:7519   */\n      tag_138\n        /* \"#utility.yul\":7511:7518   */\n      dup6\n        /* \"#utility.yul\":7502:7508   */\n      dup3\n        /* \"#utility.yul\":7491:7500   */\n      dup7\n        /* \"#utility.yul\":7487:7509   */\n      add\n        /* \"#utility.yul\":7441:7519   */\n      tag_52\n      jump\t// in\n    tag_138:\n        /* \"#utility.yul\":7431:7519   */\n      swap2\n      pop\n        /* \"#utility.yul\":7226:7529   */\n      pop\n        /* \"#utility.yul\":6672:7536   */\n      swap3\n      pop\n      swap3\n      swap1\n      pop\n      jump\t// out\n        /* \"#utility.yul\":7542:8101   */\n    tag_17:\n        /* \"#utility.yul\":7628:7634   */\n      0x00\n        /* \"#utility.yul\":7636:7642   */\n      dup1\n        /* \"#utility.yul\":7685:7687   */\n      0x20\n        /* \"#utility.yul\":7673:7682   */\n      dup4\n        /* \"#utility.yul\":7664:7671   */\n      dup6\n        /* \"#utility.yul\":7660:7683   */\n      sub\n        /* \"#utility.yul\":7656:7688   */\n      slt\n        /* \"#utility.yul\":7653:7772   */\n      iszero\n      tag_140\n      jumpi\n        /* \"#utility.yul\":7691:7770   */\n      tag_141\n      tag_31\n      jump\t// in\n    tag_141:\n        /* \"#utility.yul\":7653:7772   */\n    tag_140:\n        /* \"#utility.yul\":7839:7840   */\n      0x00\n        /* \"#utility.yul\":7828:7837   */\n      dup4\n        /* \"#utility.yul\":7824:7841   */\n      add\n        /* \"#utility.yul\":7811:7842   */\n      calldataload\n        /* \"#utility.yul\":7869:7887   */\n      0xffffffffffffffff\n        /* \"#utility.yul\":7861:7867   */\n      dup2\n        /* \"#utility.yul\":7858:7888   */\n      gt\n        /* \"#utility.yul\":7855:7972   */\n      iszero\n      tag_142\n      jumpi\n        /* \"#utility.yul\":7891:7970   */\n      tag_143\n      tag_32\n      jump\t// in\n    tag_143:\n        /* \"#utility.yul\":7855:7972   */\n    tag_142:\n        /* \"#utility.yul\":8004:8084   */\n      tag_144\n        /* \"#utility.yul\":8076:8083   */\n      dup6\n        /* \"#utility.yul\":8067:8073   */\n      dup3\n        /* \"#utility.yul\":8056:8065   */\n      dup7\n        /* \"#utility.yul\":8052:8074   */\n      add\n        /* \"#utility.yul\":8004:8084   */\n      tag_37\n      jump\t// in\n    tag_144:\n        /* \"#utility.yul\":7986:8084   */\n      swap3\n      pop\n      swap3\n      pop\n        /* \"#utility.yul\":7782:8094   */\n      pop\n        /* \"#utility.yul\":7542:8101   */\n      swap3\n      pop\n      swap3\n      swap1\n      pop\n      jump\t// out\n        /* \"#utility.yul\":8107:8646   */\n    tag_21:\n        /* \"#utility.yul\":8191:8197   */\n      0x00\n        /* \"#utility.yul\":8240:8242   */\n      0x20\n        /* \"#utility.yul\":8228:8237   */\n      dup3\n        /* \"#utility.yul\":8219:8226   */\n      dup5\n        /* \"#utility.yul\":8215:8238   */\n      sub\n        /* \"#utility.yul\":8211:8243   */\n      slt\n        /* \"#utility.yul\":8208:8327   */\n      iszero\n      tag_146\n      jumpi\n        /* \"#utility.yul\":8246:8325   */\n      tag_147\n      tag_31\n      jump\t// in\n    tag_147:\n        /* \"#utility.yul\":8208:8327   */\n    tag_146:\n        /* \"#utility.yul\":8394:8395   */\n      0x00\n        /* \"#utility.yul\":8383:8392   */\n      dup3\n        /* \"#utility.yul\":8379:8396   */\n      add\n        /* \"#utility.yul\":8366:8397   */\n      calldataload\n        /* \"#utility.yul\":8424:8442   */\n      0xffffffffffffffff\n        /* \"#utility.yul\":8416:8422   */\n      dup2\n        /* \"#utility.yul\":8413:8443   */\n      gt\n        /* \"#utility.yul\":8410:8527   */\n      iszero\n      tag_148\n      jumpi\n        /* \"#utility.yul\":8446:8525   */\n      tag_149\n      tag_32\n      jump\t// in\n    tag_149:\n        /* \"#utility.yul\":8410:8527   */\n    tag_148:\n        /* \"#utility.yul\":8551:8629   */\n      tag_150\n        /* \"#utility.yul\":8621:8628   */\n      dup5\n        /* \"#utility.yul\":8612:8618   */\n      dup3\n        /* \"#utility.yul\":8601:8610   */\n      dup6\n        /* \"#utility.yul\":8597:8619   */\n      add\n        /* \"#utility.yul\":8551:8629   */\n      tag_52\n      jump\t// in\n    tag_150:\n        /* \"#utility.yul\":8541:8629   */\n      swap2\n      pop\n        /* \"#utility.yul\":8337:8639   */\n      pop\n        /* \"#utility.yul\":8107:8646   */\n      swap3\n      swap2\n      pop\n      pop\n      jump\t// out\n\n    auxdata: 0xa2646970667358221220b42d2e593ca0ba4b815ece15fb422d9830c66cdd7763fe92ed16456cbb53e11764736f6c63430008120033\n}\n",
				"bytecode": {
					"linkReferences": {},
					"object": "608060405234801561001057600080fd5b506105fd806100206000396000f3fe608060405234801561001057600080fd5b506004361061004c5760003560e01c806307b39a2714610051578063a8fc48fa1461006d578063da77769214610089578063e8fedc94146100a5575b600080fd5b61006b600480360381019061006691906101fe565b6100c1565b005b610087600480360381019061008291906104b9565b61011b565b005b6100a3600480360381019061009e9190610531565b610128565b005b6100bf60048036038101906100ba919061057e565b61012c565b005b61010b828280806020026020016040519081016040528093929190818152602001838360200280828437600081840152601f19601f8201169050808301925050505050505061012c565b6101158282610128565b50505050565b6101248161012c565b5050565b5050565b50565b6000604051905090565b600080fd5b600080fd5b600080fd5b600080fd5b600080fd5b60008083601f84011261016857610167610143565b5b8235905067ffffffffffffffff81111561018557610184610148565b5b6020830191508360018202830111156101a1576101a061014d565b5b9250929050565b60008083601f8401126101be576101bd610143565b5b8235905067ffffffffffffffff8111156101db576101da610148565b5b6020830191508360208202830111156101f7576101f661014d565b5b9250929050565b6000806000806040858703121561021857610217610139565b5b600085013567ffffffffffffffff8111156102365761023561013e565b5b61024287828801610152565b9450945050602085013567ffffffffffffffff8111156102655761026461013e565b5b610271878288016101a8565b925092505092959194509250565b600080fd5b6000601f19601f8301169050919050565b7f4e487b7100000000000000000000000000000000000000000000000000000000600052604160045260246000fd5b6102cd82610284565b810181811067ffffffffffffffff821117156102ec576102eb610295565b5b80604052505050565b60006102ff61012f565b905061030b82826102c4565b919050565b600067ffffffffffffffff82111561032b5761032a610295565b5b61033482610284565b9050602081019050919050565b82818337600083830152505050565b600061036361035e84610310565b6102f5565b90508281526020810184848401111561037f5761037e61027f565b5b61038a848285610341565b509392505050565b600082601f8301126103a7576103a6610143565b5b81356103b7848260208601610350565b91505092915050565b600067ffffffffffffffff8211156103db576103da610295565b5b602082029050602081019050919050565b6000819050919050565b6103ff816103ec565b811461040a57600080fd5b50565b60008135905061041c816103f6565b92915050565b6000610435610430846103c0565b6102f5565b905080838252602082019050602084028301858111156104585761045761014d565b5b835b81811015610481578061046d888261040d565b84526020840193505060208101905061045a565b5050509392505050565b600082601f8301126104a05761049f610143565b5b81356104b0848260208601610422565b91505092915050565b600080604083850312156104d0576104cf610139565b5b600083013567ffffffffffffffff8111156104ee576104ed61013e565b5b6104fa85828601610392565b925050602083013567ffffffffffffffff81111561051b5761051a61013e565b5b6105278582860161048b565b9150509250929050565b6000806020838503121561054857610547610139565b5b600083013567ffffffffffffffff8111156105665761056561013e565b5b610572858286016101a8565b92509250509250929050565b60006020828403121561059457610593610139565b5b600082013567ffffffffffffffff8111156105b2576105b161013e565b5b6105be8482850161048b565b9150509291505056fea2646970667358221220b42d2e593ca0ba4b815ece15fb422d9830c66cdd7763fe92ed16456cbb53e11764736f6c63430008120033",
					"opcodes": "PUSH1 0x80 PUSH1 0x40 MSTORE CALLVALUE DUP1 ISZERO PUSH2 0x10 JUMPI PUSH1 0x0 DUP1 REVERT JUMPDEST POP PUSH2 0x5FD DUP1 PUSH2 0x20 PUSH1 0x0 CODECOPY PUSH1 0x0 RETURN INVALID PUSH1 0x80 PUSH1 0x40 MSTORE CALLVALUE DUP1 ISZERO PUSH2 0x10 JUMPI PUSH1 0x0 DUP1 REVERT JUMPDEST POP PUSH1 0x4 CALLDATASIZE LT PUSH2 0x4C JUMPI PUSH1 0x0 CALLDATALOAD PUSH1 0xE0 SHR DUP1 PUSH4 0x7B39A27 EQ PUSH2 0x51 JUMPI DUP1 PUSH4 0xA8FC48FA EQ PUSH2 0x6D JUMPI DUP1 PUSH4 0xDA777692 EQ PUSH2 0x89 JUMPI DUP1 PUSH4 0xE8FEDC94 EQ PUSH2 0xA5 JUMPI JUMPDEST PUSH1 0x0 DUP1 REVERT JUMPDEST PUSH2 0x6B PUSH1 0x4 DUP1 CALLDATASIZE SUB DUP2 ADD SWAP1 PUSH2 0x66 SWAP2 SWAP1 PUSH2 0x1FE JUMP JUMPDEST PUSH2 0xC1 JUMP JUMPDEST STOP JUMPDEST PUSH2 0x87 PUSH1 0x4 DUP1 CALLDATASIZE SUB DUP2 ADD SWAP1 PUSH2 0x82 SWAP2 SWAP1 PUSH2 0x4B9 JUMP JUMPDEST PUSH2 0x11B JUMP JUMPDEST STOP JUMPDEST PUSH2 0xA3 PUSH1 0x4 DUP1 CALLDATASIZE SUB DUP2 ADD SWAP1 PUSH2 0x9E SWAP2 SWAP1 PUSH2 0x531 JUMP JUMPDEST PUSH2 0x128 JUMP JUMPDEST STOP JUMPDEST PUSH2 0xBF PUSH1 0x4 DUP1 CALLDATASIZE SUB DUP2 ADD SWAP1 PUSH2 0xBA SWAP2 SWAP1 PUSH2 0x57E JUMP JUMPDEST PUSH2 0x12C JUMP JUMPDEST STOP JUMPDEST PUSH2 0x10B DUP3 DUP3 DUP1 DUP1 PUSH1 0x20 MUL PUSH1 0x20 ADD PUSH1 0x40 MLOAD SWAP1 DUP2 ADD PUSH1 0x40 MSTORE DUP1 SWAP4 SWAP3 SWAP2 SWAP1 DUP2 DUP2 MSTORE PUSH1 0x20 ADD DUP4 DUP4 PUSH1 0x20 MUL DUP1 DUP3 DUP5 CALLDATACOPY PUSH1 0x0 DUP2 DUP5 ADD MSTORE PUSH1 0x1F NOT PUSH1 0x1F DUP3 ADD AND SWAP1 POP DUP1 DUP4 ADD SWAP3 POP POP POP POP POP POP POP PUSH2 0x12C JUMP JUMPDEST PUSH2 0x115 DUP3 DUP3 PUSH2 0x128 JUMP JUMPDEST POP POP POP POP JUMP JUMPDEST PUSH2 0x124 DUP2 PUSH2 0x12C JUMP JUMPDEST POP POP JUMP JUMPDEST POP POP JUMP JUMPDEST POP JUMP JUMPDEST PUSH1 0x0 PUSH1 0x40 MLOAD SWAP1 POP SWAP1 JUMP JUMPDEST PUSH1 0x0 DUP1 REVERT JUMPDEST PUSH1 0x0 DUP1 REVERT JUMPDEST PUSH1 0x0 DUP1 REVERT JUMPDEST PUSH1 0x0 DUP1 REVERT JUMPDEST PUSH1 0x0 DUP1 REVERT JUMPDEST PUSH1 0x0 DUP1 DUP4 PUSH1 0x1F DUP5 ADD SLT PUSH2 0x168 JUMPI PUSH2 0x167 PUSH2 0x143 JUMP JUMPDEST JUMPDEST DUP3 CALLDATALOAD SWAP1 POP PUSH8 0xFFFFFFFFFFFFFFFF DUP2 GT ISZERO PUSH2 0x185 JUMPI PUSH2 0x184 PUSH2 0x148 JUMP JUMPDEST JUMPDEST PUSH1 0x20 DUP4 ADD SWAP2 POP DUP4 PUSH1 0x1 DUP3 MUL DUP4 ADD GT ISZERO PUSH2 0x1A1 JUMPI PUSH2 0x1A0 PUSH2 0x14D JUMP JUMPDEST JUMPDEST SWAP3 POP SWAP3 SWAP1 POP JUMP JUMPDEST PUSH1 0x0 DUP1 DUP4 PUSH1 0x1F DUP5 ADD SLT PUSH2 0x1BE JUMPI PUSH2 0x1BD PUSH2 0x143 JUMP JUMPDEST JUMPDEST DUP3 CALLDATALOAD SWAP1 POP PUSH8 0xFFFFFFFFFFFFFFFF DUP2 GT ISZERO PUSH2 0x1DB JUMPI PUSH2 0x1DA PUSH2 0x148 JUMP JUMPDEST JUMPDEST PUSH1 0x20 DUP4 ADD SWAP2 POP DUP4 PUSH1 0x20 DUP3 MUL DUP4 ADD GT ISZERO PUSH2 0x1F7 JUMPI PUSH2 0x1F6 PUSH2 0x14D JUMP JUMPDEST JUMPDEST SWAP3 POP SWAP3 SWAP1 POP JUMP JUMPDEST PUSH1 0x0 DUP1 PUSH1 0x0 DUP1 PUSH1 0x40 DUP6 DUP8 SUB SLT ISZERO PUSH2 0x218 JUMPI PUSH2 0x217 PUSH2 0x139 JUMP JUMPDEST JUMPDEST PUSH1 0x0 DUP6 ADD CALLDATALOAD PUSH8 0xFFFFFFFFFFFFFFFF DUP2 GT ISZERO PUSH2 0x236 JUMPI PUSH2 0x235 PUSH2 0x13E JUMP JUMPDEST JUMPDEST PUSH2 0x242 DUP8 DUP3 DUP9 ADD PUSH2 0x152 JUMP JUMPDEST SWAP5 POP SWAP5 POP POP PUSH1 0x20 DUP6 ADD CALLDATALOAD PUSH8 0xFFFFFFFFFFFFFFFF DUP2 GT ISZERO PUSH2 0x265 JUMPI PUSH2 0x264 PUSH2 0x13E JUMP JUMPDEST JUMPDEST PUSH2 0x271 DUP8 DUP3 DUP9 ADD PUSH2 0x1A8 JUMP JUMPDEST SWAP3 POP SWAP3 POP POP SWAP3 SWAP6 SWAP2 SWAP5 POP SWAP3 POP JUMP JUMPDEST PUSH1 0x0 DUP1 REVERT JUMPDEST PUSH1 0x0 PUSH1 0x1F NOT PUSH1 0x1F DUP4 ADD AND SWAP1 POP SWAP2 SWAP1 POP JUMP JUMPDEST PUSH32 0x4E487B7100000000000000000000000000000000000000000000000000000000 PUSH1 0x0 MSTORE PUSH1 0x41 PUSH1 0x4 MSTORE PUSH1 0x24 PUSH1 0x0 REVERT JUMPDEST PUSH2 0x2CD DUP3 PUSH2 0x284 JUMP JUMPDEST DUP2 ADD DUP2 DUP2 LT PUSH8 0xFFFFFFFFFFFFFFFF DUP3 GT OR ISZERO PUSH2 0x2EC JUMPI PUSH2 0x2EB PUSH2 0x295 JUMP JUMPDEST JUMPDEST DUP1 PUSH1 0x40 MSTORE POP POP POP JUMP JUMPDEST PUSH1 0x0 PUSH2 0x2FF PUSH2 0x12F JUMP JUMPDEST SWAP1 POP PUSH2 0x30B DUP3 DUP3 PUSH2 0x2C4 JUMP JUMPDEST SWAP2 SWAP1 POP JUMP JUMPDEST PUSH1 0x0 PUSH8 0xFFFFFFFFFFFFFFFF DUP3 GT ISZERO PUSH2 0x32B JUMPI PUSH2 0x32A PUSH2 0x295 JUMP JUMPDEST JUMPDEST PUSH2 0x334 DUP3 PUSH2 0x284 JUMP JUMPDEST SWAP1 POP PUSH1 0x20 DUP2 ADD SWAP1 POP SWAP2 SWAP1 POP JUMP JUMPDEST DUP3 DUP2 DUP4 CALLDATACOPY PUSH1 0x0 DUP4 DUP4 ADD MSTORE POP POP POP JUMP JUMPDEST PUSH1 0x0 PUSH2 0x363 PUSH2 0x35E DUP5 PUSH2 0x310 JUMP JUMPDEST PUSH2 0x2F5 JUMP JUMPDEST SWAP1 POP DUP3 DUP2 MSTORE PUSH1 0x20 DUP2 ADD DUP5 DUP5 DUP5 ADD GT ISZERO PUSH2 0x37F JUMPI PUSH2 0x37E PUSH2 0x27F JUMP JUMPDEST JUMPDEST PUSH2 0x38A DUP5 DUP3 DUP6 PUSH2 0x341 JUMP JUMPDEST POP SWAP4 SWAP3 POP POP POP JUMP JUMPDEST PUSH1 0x0 DUP3 PUSH1 0x1F DUP4 ADD SLT PUSH2 0x3A7 JUMPI PUSH2 0x3A6 PUSH2 0x143 JUMP JUMPDEST JUMPDEST DUP2 CALLDATALOAD PUSH2 0x3B7 DUP5 DUP3 PUSH1 0x20 DUP7 ADD PUSH2 0x350 JUMP JUMPDEST SWAP2 POP POP SWAP3 SWAP2 POP POP JUMP JUMPDEST PUSH1 0x0 PUSH8 0xFFFFFFFFFFFFFFFF DUP3 GT ISZERO PUSH2 0x3DB JUMPI PUSH2 0x3DA PUSH2 0x295 JUMP JUMPDEST JUMPDEST PUSH1 0x20 DUP3 MUL SWAP1 POP PUSH1 0x20 DUP2 ADD SWAP1 POP SWAP2 SWAP1 POP JUMP JUMPDEST PUSH1 0x0 DUP2 SWAP1 POP SWAP2 SWAP1 POP JUMP JUMPDEST PUSH2 0x3FF DUP2 PUSH2 0x3EC JUMP JUMPDEST DUP2 EQ PUSH2 0x40A JUMPI PUSH1 0x0 DUP1 REVERT JUMPDEST POP JUMP JUMPDEST PUSH1 0x0 DUP2 CALLDATALOAD SWAP1 POP PUSH2 0x41C DUP2 PUSH2 0x3F6 JUMP JUMPDEST SWAP3 SWAP2 POP POP JUMP JUMPDEST PUSH1 0x0 PUSH2 0x435 PUSH2 0x430 DUP5 PUSH2 0x3C0 JUMP JUMPDEST PUSH2 0x2F5 JUMP JUMPDEST SWAP1 POP DUP1 DUP4 DUP3 MSTORE PUSH1 0x20 DUP3 ADD SWAP1 POP PUSH1 0x20 DUP5 MUL DUP4 ADD DUP6 DUP2 GT ISZERO PUSH2 0x458 JUMPI PUSH2 0x457 PUSH2 0x14D JUMP JUMPDEST JUMPDEST DUP4 JUMPDEST DUP2 DUP2 LT ISZERO PUSH2 0x481 JUMPI DUP1 PUSH2 0x46D DUP9 DUP3 PUSH2 0x40D JUMP JUMPDEST DUP5 MSTORE PUSH1 0x20 DUP5 ADD SWAP4 POP POP PUSH1 0x20 DUP2 ADD SWAP1 POP PUSH2 0x45A JUMP JUMPDEST POP POP POP SWAP4 SWAP3 POP POP POP JUMP JUMPDEST PUSH1 0x0 DUP3 PUSH1 0x1F DUP4 ADD SLT PUSH2 0x4A0 JUMPI PUSH2 0x49F PUSH2 0x143 JUMP JUMPDEST JUMPDEST DUP2 CALLDATALOAD PUSH2 0x4B0 DUP5 DUP3 PUSH1 0x20 DUP7 ADD PUSH2 0x422 JUMP JUMPDEST SWAP2 POP POP SWAP3 SWAP2 POP POP JUMP JUMPDEST PUSH1 0x0 DUP1 PUSH1 0x40 DUP4 DUP6 SUB SLT ISZERO PUSH2 0x4D0 JUMPI PUSH2 0x4CF PUSH2 0x139 JUMP JUMPDEST JUMPDEST PUSH1 0x0 DUP4 ADD CALLDATALOAD PUSH8 0xFFFFFFFFFFFFFFFF DUP2 GT ISZERO PUSH2 0x4EE JUMPI PUSH2 0x4ED PUSH2 0x13E JUMP JUMPDEST JUMPDEST PUSH2 0x4FA DUP6 DUP3 DUP7 ADD PUSH2 0x392 JUMP JUMPDEST SWAP3 POP POP PUSH1 0x20 DUP4 ADD CALLDATALOAD PUSH8 0xFFFFFFFFFFFFFFFF DUP2 GT ISZERO PUSH2 0x51B JUMPI PUSH2 0x51A PUSH2 0x13E JUMP JUMPDEST JUMPDEST PUSH2 0x527 DUP6 DUP3 DUP7 ADD PUSH2 0x48B JUMP JUMPDEST SWAP2 POP POP SWAP3 POP SWAP3 SWAP1 POP JUMP JUMPDEST PUSH1 0x0 DUP1 PUSH1 0x20 DUP4 DUP6 SUB SLT ISZERO PUSH2 0x548 JUMPI PUSH2 0x547 PUSH2 0x139 JUMP JUMPDEST JUMPDEST PUSH1 0x0 DUP4 ADD CALLDATALOAD PUSH8 0xFFFFFFFFFFFFFFFF DUP2 GT ISZERO PUSH2 0x566 JUMPI PUSH2 0x565 PUSH2 0x13E JUMP JUMPDEST JUMPDEST PUSH2 0x572 DUP6 DUP3 DUP7 ADD PUSH2 0x1A8 JUMP JUMPDEST SWAP3 POP SWAP3 POP POP SWAP3 POP SWAP3 SWAP1 POP JUMP JUMPDEST PUSH1 0x0 PUSH1 0x20 DUP3 DUP5 SUB SLT ISZERO PUSH2 0x594 JUMPI PUSH2 0x593 PUSH2 0x139 JUMP JUMPDEST JUMPDEST PUSH1 0x0 DUP3 ADD CALLDATALOAD PUSH8 0xFFFFFFFFFFFFFFFF DUP2 GT ISZERO PUSH2 0x5B2 JUMPI PUSH2 0x5B1 PUSH2 0x13E JUMP JUMPDEST JUMPDEST PUSH2 0x5BE DUP5 DUP3 DUP6 ADD PUSH2 0x48B JUMP JUMPDEST SWAP2 POP POP SWAP3 SWAP2 POP POP JUMP INVALID LOG2 PUSH5 0x6970667358 0x22 SLT KECCAK256 0xB4 0x2D 0x2E MSIZE EXTCODECOPY LOG0 0xBA 0x4B DUP2 0x5E 0xCE ISZERO 0xFB TIMESTAMP 0x2D SWAP9 ADDRESS 0xC6 PUSH13 0xDD7763FE92ED16456CBB53E117 PUSH5 0x736F6C6343 STOP ADDMOD SLT STOP CALLER "
				},
				"gasEstimates": {
					"creation": {
						"codeDepositCost": "306600",
						"executionCost": "343",
						"totalCost": "306943"
					},
					"external": {
						"CallData(string,uint256[])": "infinite",
						"Memory(string,uint256[])": "infinite",
						"getinCall(uint256[])": "496",
						"getinMem(uint256[])": "infinite"
					}
				},
				"methodIdentifiers": {
					"CallData(string,uint256[])": "07b39a27",
					"Memory(string,uint256[])": "a8fc48fa",
					"getinCall(uint256[])": "da777692",
					"getinMem(uint256[])": "e8fedc94"
				}
			},
			"storageLayout": {
				"storage": [],
				"types": null
			},
			"userdoc": {
				"kind": "user",
				"methods": {},
				"version": 1
			}
		}
	}
}