{
	"cryptographic func.sol": {
		"A": {
			"abi": [
				{
					"inputs": [
						{
							"internalType": "uint256",
							"name": "x",
							"type": "uint256"
						},
						{
							"internalType": "string",
							"name": "name",
							"type": "string"
						}
					],
					"name": "hash1",
					"outputs": [
						{
							"internalType": "bytes32",
							"name": "",
							"type": "bytes32"
						}
					],
					"stateMutability": "pure",
					"type": "function"
				},
				{
					"inputs": [
						{
							"internalType": "uint256",
							"name": "x",
							"type": "uint256"
						},
						{
							"internalType": "string",
							"name": "name",
							"type": "string"
						}
					],
					"name": "hash2",
					"outputs": [
						{
							"internalType": "bytes32",
							"name": "",
							"type": "bytes32"
						}
					],
					"stateMutability": "pure",
					"type": "function"
				},
				{
					"inputs": [
						{
							"internalType": "uint256",
							"name": "x",
							"type": "uint256"
						},
						{
							"internalType": "string",
							"name": "name",
							"type": "string"
						}
					],
					"name": "hash3",
					"outputs": [
						{
							"internalType": "bytes32",
							"name": "",
							"type": "bytes32"
						}
					],
					"stateMutability": "pure",
					"type": "function"
				}
			],
			"devdoc": {
				"kind": "dev",
				"methods": {},
				"version": 1
			},
			"evm": {
				"assembly": "    /* \"cryptographic func.sol\":74:655  contract A{... */\n  mstore(0x40, 0x80)\n  callvalue\n  dup1\n  iszero\n  tag_1\n  jumpi\n  0x00\n  dup1\n  revert\ntag_1:\n  pop\n  dataSize(sub_0)\n  dup1\n  dataOffset(sub_0)\n  0x00\n  codecopy\n  0x00\n  return\nstop\n\nsub_0: assembly {\n        /* \"cryptographic func.sol\":74:655  contract A{... */\n      mstore(0x40, 0x80)\n      callvalue\n      dup1\n      iszero\n      tag_1\n      jumpi\n      0x00\n      dup1\n      revert\n    tag_1:\n      pop\n      jumpi(tag_2, lt(calldatasize, 0x04))\n      shr(0xe0, calldataload(0x00))\n      dup1\n      0x05ec40db\n      eq\n      tag_3\n      jumpi\n      dup1\n      0x559174bb\n      eq\n      tag_4\n      jumpi\n      dup1\n      0xb1fbcefb\n      eq\n      tag_5\n      jumpi\n    tag_2:\n      0x00\n      dup1\n      revert\n        /* \"cryptographic func.sol\":480:600  function hash3(uint x ,string memory name) public pure returns(bytes32){... */\n    tag_3:\n      tag_6\n      0x04\n      dup1\n      calldatasize\n      sub\n      dup2\n      add\n      swap1\n      tag_7\n      swap2\n      swap1\n      tag_8\n      jump\t// in\n    tag_7:\n      tag_9\n      jump\t// in\n    tag_6:\n      mload(0x40)\n      tag_10\n      swap2\n      swap1\n      tag_11\n      jump\t// in\n    tag_10:\n      mload(0x40)\n      dup1\n      swap2\n      sub\n      swap1\n      return\n        /* \"cryptographic func.sol\":91:351  function hash1(uint x ,string memory name) public pure returns(bytes32){... */\n    tag_4:\n      tag_12\n      0x04\n      dup1\n      calldatasize\n      sub\n      dup2\n      add\n      swap1\n      tag_13\n      swap2\n      swap1\n      tag_8\n      jump\t// in\n    tag_13:\n      tag_14\n      jump\t// in\n    tag_12:\n      mload(0x40)\n      tag_15\n      swap2\n      swap1\n      tag_11\n      jump\t// in\n    tag_15:\n      mload(0x40)\n      dup1\n      swap2\n      sub\n      swap1\n      return\n        /* \"cryptographic func.sol\":357:474  function hash2(uint x ,string memory name) public pure returns(bytes32){... */\n    tag_5:\n      tag_16\n      0x04\n      dup1\n      calldatasize\n      sub\n      dup2\n      add\n      swap1\n      tag_17\n      swap2\n      swap1\n      tag_8\n      jump\t// in\n    tag_17:\n      tag_18\n      jump\t// in\n    tag_16:\n      mload(0x40)\n      tag_19\n      swap2\n      swap1\n      tag_11\n      jump\t// in\n    tag_19:\n      mload(0x40)\n      dup1\n      swap2\n      sub\n      swap1\n      return\n        /* \"cryptographic func.sol\":480:600  function hash3(uint x ,string memory name) public pure returns(bytes32){... */\n    tag_9:\n        /* \"cryptographic func.sol\":543:550  bytes32 */\n      0x00\n        /* \"cryptographic func.sol\":561:596  ripemd160(abi.encodePacked(x,name)) */\n      0x03\n        /* \"cryptographic func.sol\":588:589  x */\n      dup4\n        /* \"cryptographic func.sol\":590:594  name */\n      dup4\n        /* \"cryptographic func.sol\":571:595  abi.encodePacked(x,name) */\n      add(0x20, mload(0x40))\n      tag_21\n      swap3\n      swap2\n      swap1\n      tag_22\n      jump\t// in\n    tag_21:\n      mload(0x40)\n      0x20\n      dup2\n      dup4\n      sub\n      sub\n      dup2\n      mstore\n      swap1\n      0x40\n      mstore\n        /* \"cryptographic func.sol\":561:596  ripemd160(abi.encodePacked(x,name)) */\n      mload(0x40)\n      tag_23\n      swap2\n      swap1\n      tag_24\n      jump\t// in\n    tag_23:\n      0x20\n      mload(0x40)\n      dup1\n      dup4\n      sub\n      dup2\n      dup6\n      gas\n      staticcall\n      iszero\n      dup1\n      iszero\n      tag_26\n      jumpi\n      returndatasize\n      0x00\n      dup1\n      returndatacopy\n      revert(0x00, returndatasize)\n    tag_26:\n      pop\n      pop\n      pop\n      shl(0x60, mload(mload(0x40)))\n        /* \"cryptographic func.sol\":554:596  return ripemd160(abi.encodePacked(x,name)) */\n      not(0xffffffffffffffffffffffff)\n      and\n      swap1\n      pop\n        /* \"cryptographic func.sol\":480:600  function hash3(uint x ,string memory name) public pure returns(bytes32){... */\n      swap3\n      swap2\n      pop\n      pop\n      jump\t// out\n        /* \"cryptographic func.sol\":91:351  function hash1(uint x ,string memory name) public pure returns(bytes32){... */\n    tag_14:\n        /* \"cryptographic func.sol\":154:161  bytes32 */\n      0x00\n        /* \"cryptographic func.sol\":199:200  x */\n      dup3\n        /* \"cryptographic func.sol\":201:205  name */\n      dup3\n        /* \"cryptographic func.sol\":182:206  abi.encodePacked(x,name) */\n      add(0x20, mload(0x40))\n      tag_28\n      swap3\n      swap2\n      swap1\n      tag_22\n      jump\t// in\n    tag_28:\n      mload(0x40)\n      0x20\n      dup2\n      dup4\n      sub\n      sub\n      dup2\n      mstore\n      swap1\n      0x40\n      mstore\n        /* \"cryptographic func.sol\":172:207  keccak256(abi.encodePacked(x,name)) */\n      dup1\n      mload\n      swap1\n      0x20\n      add\n      keccak256\n        /* \"cryptographic func.sol\":165:207  return keccak256(abi.encodePacked(x,name)) */\n      swap1\n      pop\n        /* \"cryptographic func.sol\":91:351  function hash1(uint x ,string memory name) public pure returns(bytes32){... */\n      swap3\n      swap2\n      pop\n      pop\n      jump\t// out\n        /* \"cryptographic func.sol\":357:474  function hash2(uint x ,string memory name) public pure returns(bytes32){... */\n    tag_18:\n        /* \"cryptographic func.sol\":420:427  bytes32 */\n      0x00\n        /* \"cryptographic func.sol\":438:470  sha256(abi.encodePacked(x,name)) */\n      0x02\n        /* \"cryptographic func.sol\":462:463  x */\n      dup4\n        /* \"cryptographic func.sol\":464:468  name */\n      dup4\n        /* \"cryptographic func.sol\":445:469  abi.encodePacked(x,name) */\n      add(0x20, mload(0x40))\n      tag_30\n      swap3\n      swap2\n      swap1\n      tag_22\n      jump\t// in\n    tag_30:\n      mload(0x40)\n      0x20\n      dup2\n      dup4\n      sub\n      sub\n      dup2\n      mstore\n      swap1\n      0x40\n      mstore\n        /* \"cryptographic func.sol\":438:470  sha256(abi.encodePacked(x,name)) */\n      mload(0x40)\n      tag_31\n      swap2\n      swap1\n      tag_24\n      jump\t// in\n    tag_31:\n      0x20\n      mload(0x40)\n      dup1\n      dup4\n      sub\n      dup2\n      dup6\n      gas\n      staticcall\n      iszero\n      dup1\n      iszero\n      tag_33\n      jumpi\n      returndatasize\n      0x00\n      dup1\n      returndatacopy\n      revert(0x00, returndatasize)\n    tag_33:\n      pop\n      pop\n      pop\n      mload(0x40)\n      returndatasize\n      not(0x1f)\n      0x1f\n      dup3\n      add\n      and\n      dup3\n      add\n      dup1\n      0x40\n      mstore\n      pop\n      dup2\n      add\n      swap1\n      tag_34\n      swap2\n      swap1\n      tag_35\n      jump\t// in\n    tag_34:\n        /* \"cryptographic func.sol\":431:470  return sha256(abi.encodePacked(x,name)) */\n      swap1\n      pop\n        /* \"cryptographic func.sol\":357:474  function hash2(uint x ,string memory name) public pure returns(bytes32){... */\n      swap3\n      swap2\n      pop\n      pop\n      jump\t// out\n        /* \"#utility.yul\":7:82   */\n    tag_36:\n        /* \"#utility.yul\":40:46   */\n      0x00\n        /* \"#utility.yul\":73:75   */\n      0x40\n        /* \"#utility.yul\":67:76   */\n      mload\n        /* \"#utility.yul\":57:76   */\n      swap1\n      pop\n        /* \"#utility.yul\":7:82   */\n      swap1\n      jump\t// out\n        /* \"#utility.yul\":88:205   */\n    tag_37:\n        /* \"#utility.yul\":197:198   */\n      0x00\n        /* \"#utility.yul\":194:195   */\n      dup1\n        /* \"#utility.yul\":187:199   */\n      revert\n        /* \"#utility.yul\":211:328   */\n    tag_38:\n        /* \"#utility.yul\":320:321   */\n      0x00\n        /* \"#utility.yul\":317:318   */\n      dup1\n        /* \"#utility.yul\":310:322   */\n      revert\n        /* \"#utility.yul\":334:411   */\n    tag_39:\n        /* \"#utility.yul\":371:378   */\n      0x00\n        /* \"#utility.yul\":400:405   */\n      dup2\n        /* \"#utility.yul\":389:405   */\n      swap1\n      pop\n        /* \"#utility.yul\":334:411   */\n      swap2\n      swap1\n      pop\n      jump\t// out\n        /* \"#utility.yul\":417:539   */\n    tag_40:\n        /* \"#utility.yul\":490:514   */\n      tag_71\n        /* \"#utility.yul\":508:513   */\n      dup2\n        /* \"#utility.yul\":490:514   */\n      tag_39\n      jump\t// in\n    tag_71:\n        /* \"#utility.yul\":483:488   */\n      dup2\n        /* \"#utility.yul\":480:515   */\n      eq\n        /* \"#utility.yul\":470:533   */\n      tag_72\n      jumpi\n        /* \"#utility.yul\":529:530   */\n      0x00\n        /* \"#utility.yul\":526:527   */\n      dup1\n        /* \"#utility.yul\":519:531   */\n      revert\n        /* \"#utility.yul\":470:533   */\n    tag_72:\n        /* \"#utility.yul\":417:539   */\n      pop\n      jump\t// out\n        /* \"#utility.yul\":545:684   */\n    tag_41:\n        /* \"#utility.yul\":591:596   */\n      0x00\n        /* \"#utility.yul\":629:635   */\n      dup2\n        /* \"#utility.yul\":616:636   */\n      calldataload\n        /* \"#utility.yul\":607:636   */\n      swap1\n      pop\n        /* \"#utility.yul\":645:678   */\n      tag_74\n        /* \"#utility.yul\":672:677   */\n      dup2\n        /* \"#utility.yul\":645:678   */\n      tag_40\n      jump\t// in\n    tag_74:\n        /* \"#utility.yul\":545:684   */\n      swap3\n      swap2\n      pop\n      pop\n      jump\t// out\n        /* \"#utility.yul\":690:807   */\n    tag_42:\n        /* \"#utility.yul\":799:800   */\n      0x00\n        /* \"#utility.yul\":796:797   */\n      dup1\n        /* \"#utility.yul\":789:801   */\n      revert\n        /* \"#utility.yul\":813:930   */\n    tag_43:\n        /* \"#utility.yul\":922:923   */\n      0x00\n        /* \"#utility.yul\":919:920   */\n      dup1\n        /* \"#utility.yul\":912:924   */\n      revert\n        /* \"#utility.yul\":936:1038   */\n    tag_44:\n        /* \"#utility.yul\":977:983   */\n      0x00\n        /* \"#utility.yul\":1028:1030   */\n      0x1f\n        /* \"#utility.yul\":1024:1031   */\n      not\n        /* \"#utility.yul\":1019:1021   */\n      0x1f\n        /* \"#utility.yul\":1012:1017   */\n      dup4\n        /* \"#utility.yul\":1008:1022   */\n      add\n        /* \"#utility.yul\":1004:1032   */\n      and\n        /* \"#utility.yul\":994:1032   */\n      swap1\n      pop\n        /* \"#utility.yul\":936:1038   */\n      swap2\n      swap1\n      pop\n      jump\t// out\n        /* \"#utility.yul\":1044:1224   */\n    tag_45:\n        /* \"#utility.yul\":1092:1169   */\n      0x4e487b7100000000000000000000000000000000000000000000000000000000\n        /* \"#utility.yul\":1089:1090   */\n      0x00\n        /* \"#utility.yul\":1082:1170   */\n      mstore\n        /* \"#utility.yul\":1189:1193   */\n      0x41\n        /* \"#utility.yul\":1186:1187   */\n      0x04\n        /* \"#utility.yul\":1179:1194   */\n      mstore\n        /* \"#utility.yul\":1213:1217   */\n      0x24\n        /* \"#utility.yul\":1210:1211   */\n      0x00\n        /* \"#utility.yul\":1203:1218   */\n      revert\n        /* \"#utility.yul\":1230:1511   */\n    tag_46:\n        /* \"#utility.yul\":1313:1340   */\n      tag_80\n        /* \"#utility.yul\":1335:1339   */\n      dup3\n        /* \"#utility.yul\":1313:1340   */\n      tag_44\n      jump\t// in\n    tag_80:\n        /* \"#utility.yul\":1305:1311   */\n      dup2\n        /* \"#utility.yul\":1301:1341   */\n      add\n        /* \"#utility.yul\":1443:1449   */\n      dup2\n        /* \"#utility.yul\":1431:1441   */\n      dup2\n        /* \"#utility.yul\":1428:1450   */\n      lt\n        /* \"#utility.yul\":1407:1425   */\n      0xffffffffffffffff\n        /* \"#utility.yul\":1395:1405   */\n      dup3\n        /* \"#utility.yul\":1392:1426   */\n      gt\n        /* \"#utility.yul\":1389:1451   */\n      or\n        /* \"#utility.yul\":1386:1474   */\n      iszero\n      tag_81\n      jumpi\n        /* \"#utility.yul\":1454:1472   */\n      tag_82\n      tag_45\n      jump\t// in\n    tag_82:\n        /* \"#utility.yul\":1386:1474   */\n    tag_81:\n        /* \"#utility.yul\":1494:1504   */\n      dup1\n        /* \"#utility.yul\":1490:1492   */\n      0x40\n        /* \"#utility.yul\":1483:1505   */\n      mstore\n        /* \"#utility.yul\":1273:1511   */\n      pop\n        /* \"#utility.yul\":1230:1511   */\n      pop\n      pop\n      jump\t// out\n        /* \"#utility.yul\":1517:1646   */\n    tag_47:\n        /* \"#utility.yul\":1551:1557   */\n      0x00\n        /* \"#utility.yul\":1578:1598   */\n      tag_84\n      tag_36\n      jump\t// in\n    tag_84:\n        /* \"#utility.yul\":1568:1598   */\n      swap1\n      pop\n        /* \"#utility.yul\":1607:1640   */\n      tag_85\n        /* \"#utility.yul\":1635:1639   */\n      dup3\n        /* \"#utility.yul\":1627:1633   */\n      dup3\n        /* \"#utility.yul\":1607:1640   */\n      tag_46\n      jump\t// in\n    tag_85:\n        /* \"#utility.yul\":1517:1646   */\n      swap2\n      swap1\n      pop\n      jump\t// out\n        /* \"#utility.yul\":1652:1960   */\n    tag_48:\n        /* \"#utility.yul\":1714:1718   */\n      0x00\n        /* \"#utility.yul\":1804:1822   */\n      0xffffffffffffffff\n        /* \"#utility.yul\":1796:1802   */\n      dup3\n        /* \"#utility.yul\":1793:1823   */\n      gt\n        /* \"#utility.yul\":1790:1846   */\n      iszero\n      tag_87\n      jumpi\n        /* \"#utility.yul\":1826:1844   */\n      tag_88\n      tag_45\n      jump\t// in\n    tag_88:\n        /* \"#utility.yul\":1790:1846   */\n    tag_87:\n        /* \"#utility.yul\":1864:1893   */\n      tag_89\n        /* \"#utility.yul\":1886:1892   */\n      dup3\n        /* \"#utility.yul\":1864:1893   */\n      tag_44\n      jump\t// in\n    tag_89:\n        /* \"#utility.yul\":1856:1893   */\n      swap1\n      pop\n        /* \"#utility.yul\":1948:1952   */\n      0x20\n        /* \"#utility.yul\":1942:1946   */\n      dup2\n        /* \"#utility.yul\":1938:1953   */\n      add\n        /* \"#utility.yul\":1930:1953   */\n      swap1\n      pop\n        /* \"#utility.yul\":1652:1960   */\n      swap2\n      swap1\n      pop\n      jump\t// out\n        /* \"#utility.yul\":1966:2112   */\n    tag_49:\n        /* \"#utility.yul\":2063:2069   */\n      dup3\n        /* \"#utility.yul\":2058:2061   */\n      dup2\n        /* \"#utility.yul\":2053:2056   */\n      dup4\n        /* \"#utility.yul\":2040:2070   */\n      calldatacopy\n        /* \"#utility.yul\":2104:2105   */\n      0x00\n        /* \"#utility.yul\":2095:2101   */\n      dup4\n        /* \"#utility.yul\":2090:2093   */\n      dup4\n        /* \"#utility.yul\":2086:2102   */\n      add\n        /* \"#utility.yul\":2079:2106   */\n      mstore\n        /* \"#utility.yul\":1966:2112   */\n      pop\n      pop\n      pop\n      jump\t// out\n        /* \"#utility.yul\":2118:2543   */\n    tag_50:\n        /* \"#utility.yul\":2196:2201   */\n      0x00\n        /* \"#utility.yul\":2221:2287   */\n      tag_92\n        /* \"#utility.yul\":2237:2286   */\n      tag_93\n        /* \"#utility.yul\":2279:2285   */\n      dup5\n        /* \"#utility.yul\":2237:2286   */\n      tag_48\n      jump\t// in\n    tag_93:\n        /* \"#utility.yul\":2221:2287   */\n      tag_47\n      jump\t// in\n    tag_92:\n        /* \"#utility.yul\":2212:2287   */\n      swap1\n      pop\n        /* \"#utility.yul\":2310:2316   */\n      dup3\n        /* \"#utility.yul\":2303:2308   */\n      dup2\n        /* \"#utility.yul\":2296:2317   */\n      mstore\n        /* \"#utility.yul\":2348:2352   */\n      0x20\n        /* \"#utility.yul\":2341:2346   */\n      dup2\n        /* \"#utility.yul\":2337:2353   */\n      add\n        /* \"#utility.yul\":2386:2389   */\n      dup5\n        /* \"#utility.yul\":2377:2383   */\n      dup5\n        /* \"#utility.yul\":2372:2375   */\n      dup5\n        /* \"#utility.yul\":2368:2384   */\n      add\n        /* \"#utility.yul\":2365:2390   */\n      gt\n        /* \"#utility.yul\":2362:2474   */\n      iszero\n      tag_94\n      jumpi\n        /* \"#utility.yul\":2393:2472   */\n      tag_95\n      tag_43\n      jump\t// in\n    tag_95:\n        /* \"#utility.yul\":2362:2474   */\n    tag_94:\n        /* \"#utility.yul\":2483:2537   */\n      tag_96\n        /* \"#utility.yul\":2530:2536   */\n      dup5\n        /* \"#utility.yul\":2525:2528   */\n      dup3\n        /* \"#utility.yul\":2520:2523   */\n      dup6\n        /* \"#utility.yul\":2483:2537   */\n      tag_49\n      jump\t// in\n    tag_96:\n        /* \"#utility.yul\":2202:2543   */\n      pop\n        /* \"#utility.yul\":2118:2543   */\n      swap4\n      swap3\n      pop\n      pop\n      pop\n      jump\t// out\n        /* \"#utility.yul\":2563:2903   */\n    tag_51:\n        /* \"#utility.yul\":2619:2624   */\n      0x00\n        /* \"#utility.yul\":2668:2671   */\n      dup3\n        /* \"#utility.yul\":2661:2665   */\n      0x1f\n        /* \"#utility.yul\":2653:2659   */\n      dup4\n        /* \"#utility.yul\":2649:2666   */\n      add\n        /* \"#utility.yul\":2645:2672   */\n      slt\n        /* \"#utility.yul\":2635:2757   */\n      tag_98\n      jumpi\n        /* \"#utility.yul\":2676:2755   */\n      tag_99\n      tag_42\n      jump\t// in\n    tag_99:\n        /* \"#utility.yul\":2635:2757   */\n    tag_98:\n        /* \"#utility.yul\":2793:2799   */\n      dup2\n        /* \"#utility.yul\":2780:2800   */\n      calldataload\n        /* \"#utility.yul\":2818:2897   */\n      tag_100\n        /* \"#utility.yul\":2893:2896   */\n      dup5\n        /* \"#utility.yul\":2885:2891   */\n      dup3\n        /* \"#utility.yul\":2878:2882   */\n      0x20\n        /* \"#utility.yul\":2870:2876   */\n      dup7\n        /* \"#utility.yul\":2866:2883   */\n      add\n        /* \"#utility.yul\":2818:2897   */\n      tag_50\n      jump\t// in\n    tag_100:\n        /* \"#utility.yul\":2809:2897   */\n      swap2\n      pop\n        /* \"#utility.yul\":2625:2903   */\n      pop\n        /* \"#utility.yul\":2563:2903   */\n      swap3\n      swap2\n      pop\n      pop\n      jump\t// out\n        /* \"#utility.yul\":2909:3563   */\n    tag_8:\n        /* \"#utility.yul\":2987:2993   */\n      0x00\n        /* \"#utility.yul\":2995:3001   */\n      dup1\n        /* \"#utility.yul\":3044:3046   */\n      0x40\n        /* \"#utility.yul\":3032:3041   */\n      dup4\n        /* \"#utility.yul\":3023:3030   */\n      dup6\n        /* \"#utility.yul\":3019:3042   */\n      sub\n        /* \"#utility.yul\":3015:3047   */\n      slt\n        /* \"#utility.yul\":3012:3131   */\n      iszero\n      tag_102\n      jumpi\n        /* \"#utility.yul\":3050:3129   */\n      tag_103\n      tag_37\n      jump\t// in\n    tag_103:\n        /* \"#utility.yul\":3012:3131   */\n    tag_102:\n        /* \"#utility.yul\":3170:3171   */\n      0x00\n        /* \"#utility.yul\":3195:3248   */\n      tag_104\n        /* \"#utility.yul\":3240:3247   */\n      dup6\n        /* \"#utility.yul\":3231:3237   */\n      dup3\n        /* \"#utility.yul\":3220:3229   */\n      dup7\n        /* \"#utility.yul\":3216:3238   */\n      add\n        /* \"#utility.yul\":3195:3248   */\n      tag_41\n      jump\t// in\n    tag_104:\n        /* \"#utility.yul\":3185:3248   */\n      swap3\n      pop\n        /* \"#utility.yul\":3141:3258   */\n      pop\n        /* \"#utility.yul\":3325:3327   */\n      0x20\n        /* \"#utility.yul\":3314:3323   */\n      dup4\n        /* \"#utility.yul\":3310:3328   */\n      add\n        /* \"#utility.yul\":3297:3329   */\n      calldataload\n        /* \"#utility.yul\":3356:3374   */\n      0xffffffffffffffff\n        /* \"#utility.yul\":3348:3354   */\n      dup2\n        /* \"#utility.yul\":3345:3375   */\n      gt\n        /* \"#utility.yul\":3342:3459   */\n      iszero\n      tag_105\n      jumpi\n        /* \"#utility.yul\":3378:3457   */\n      tag_106\n      tag_38\n      jump\t// in\n    tag_106:\n        /* \"#utility.yul\":3342:3459   */\n    tag_105:\n        /* \"#utility.yul\":3483:3546   */\n      tag_107\n        /* \"#utility.yul\":3538:3545   */\n      dup6\n        /* \"#utility.yul\":3529:3535   */\n      dup3\n        /* \"#utility.yul\":3518:3527   */\n      dup7\n        /* \"#utility.yul\":3514:3536   */\n      add\n        /* \"#utility.yul\":3483:3546   */\n      tag_51\n      jump\t// in\n    tag_107:\n        /* \"#utility.yul\":3473:3546   */\n      swap2\n      pop\n        /* \"#utility.yul\":3268:3556   */\n      pop\n        /* \"#utility.yul\":2909:3563   */\n      swap3\n      pop\n      swap3\n      swap1\n      pop\n      jump\t// out\n        /* \"#utility.yul\":3569:3646   */\n    tag_52:\n        /* \"#utility.yul\":3606:3613   */\n      0x00\n        /* \"#utility.yul\":3635:3640   */\n      dup2\n        /* \"#utility.yul\":3624:3640   */\n      swap1\n      pop\n        /* \"#utility.yul\":3569:3646   */\n      swap2\n      swap1\n      pop\n      jump\t// out\n        /* \"#utility.yul\":3652:3770   */\n    tag_53:\n        /* \"#utility.yul\":3739:3763   */\n      tag_110\n        /* \"#utility.yul\":3757:3762   */\n      dup2\n        /* \"#utility.yul\":3739:3763   */\n      tag_52\n      jump\t// in\n    tag_110:\n        /* \"#utility.yul\":3734:3737   */\n      dup3\n        /* \"#utility.yul\":3727:3764   */\n      mstore\n        /* \"#utility.yul\":3652:3770   */\n      pop\n      pop\n      jump\t// out\n        /* \"#utility.yul\":3776:3998   */\n    tag_11:\n        /* \"#utility.yul\":3869:3873   */\n      0x00\n        /* \"#utility.yul\":3907:3909   */\n      0x20\n        /* \"#utility.yul\":3896:3905   */\n      dup3\n        /* \"#utility.yul\":3892:3910   */\n      add\n        /* \"#utility.yul\":3884:3910   */\n      swap1\n      pop\n        /* \"#utility.yul\":3920:3991   */\n      tag_112\n        /* \"#utility.yul\":3988:3989   */\n      0x00\n        /* \"#utility.yul\":3977:3986   */\n      dup4\n        /* \"#utility.yul\":3973:3990   */\n      add\n        /* \"#utility.yul\":3964:3970   */\n      dup5\n        /* \"#utility.yul\":3920:3991   */\n      tag_53\n      jump\t// in\n    tag_112:\n        /* \"#utility.yul\":3776:3998   */\n      swap3\n      swap2\n      pop\n      pop\n      jump\t// out\n        /* \"#utility.yul\":4004:4083   */\n    tag_54:\n        /* \"#utility.yul\":4043:4050   */\n      0x00\n        /* \"#utility.yul\":4072:4077   */\n      dup2\n        /* \"#utility.yul\":4061:4077   */\n      swap1\n      pop\n        /* \"#utility.yul\":4004:4083   */\n      swap2\n      swap1\n      pop\n      jump\t// out\n        /* \"#utility.yul\":4089:4246   */\n    tag_55:\n        /* \"#utility.yul\":4194:4239   */\n      tag_115\n        /* \"#utility.yul\":4214:4238   */\n      tag_116\n        /* \"#utility.yul\":4232:4237   */\n      dup3\n        /* \"#utility.yul\":4214:4238   */\n      tag_39\n      jump\t// in\n    tag_116:\n        /* \"#utility.yul\":4194:4239   */\n      tag_54\n      jump\t// in\n    tag_115:\n        /* \"#utility.yul\":4189:4192   */\n      dup3\n        /* \"#utility.yul\":4182:4240   */\n      mstore\n        /* \"#utility.yul\":4089:4246   */\n      pop\n      pop\n      jump\t// out\n        /* \"#utility.yul\":4252:4351   */\n    tag_56:\n        /* \"#utility.yul\":4304:4310   */\n      0x00\n        /* \"#utility.yul\":4338:4343   */\n      dup2\n        /* \"#utility.yul\":4332:4344   */\n      mload\n        /* \"#utility.yul\":4322:4344   */\n      swap1\n      pop\n        /* \"#utility.yul\":4252:4351   */\n      swap2\n      swap1\n      pop\n      jump\t// out\n        /* \"#utility.yul\":4357:4505   */\n    tag_57:\n        /* \"#utility.yul\":4459:4470   */\n      0x00\n        /* \"#utility.yul\":4496:4499   */\n      dup2\n        /* \"#utility.yul\":4481:4499   */\n      swap1\n      pop\n        /* \"#utility.yul\":4357:4505   */\n      swap3\n      swap2\n      pop\n      pop\n      jump\t// out\n        /* \"#utility.yul\":4511:4757   */\n    tag_58:\n        /* \"#utility.yul\":4592:4593   */\n      0x00\n        /* \"#utility.yul\":4602:4715   */\n    tag_120:\n        /* \"#utility.yul\":4616:4622   */\n      dup4\n        /* \"#utility.yul\":4613:4614   */\n      dup2\n        /* \"#utility.yul\":4610:4623   */\n      lt\n        /* \"#utility.yul\":4602:4715   */\n      iszero\n      tag_122\n      jumpi\n        /* \"#utility.yul\":4701:4702   */\n      dup1\n        /* \"#utility.yul\":4696:4699   */\n      dup3\n        /* \"#utility.yul\":4692:4703   */\n      add\n        /* \"#utility.yul\":4686:4704   */\n      mload\n        /* \"#utility.yul\":4682:4683   */\n      dup2\n        /* \"#utility.yul\":4677:4680   */\n      dup5\n        /* \"#utility.yul\":4673:4684   */\n      add\n        /* \"#utility.yul\":4666:4705   */\n      mstore\n        /* \"#utility.yul\":4638:4640   */\n      0x20\n        /* \"#utility.yul\":4635:4636   */\n      dup2\n        /* \"#utility.yul\":4631:4641   */\n      add\n        /* \"#utility.yul\":4626:4641   */\n      swap1\n      pop\n        /* \"#utility.yul\":4602:4715   */\n      jump(tag_120)\n    tag_122:\n        /* \"#utility.yul\":4749:4750   */\n      0x00\n        /* \"#utility.yul\":4740:4746   */\n      dup5\n        /* \"#utility.yul\":4735:4738   */\n      dup5\n        /* \"#utility.yul\":4731:4747   */\n      add\n        /* \"#utility.yul\":4724:4751   */\n      mstore\n        /* \"#utility.yul\":4573:4757   */\n      pop\n        /* \"#utility.yul\":4511:4757   */\n      pop\n      pop\n      pop\n      jump\t// out\n        /* \"#utility.yul\":4763:5153   */\n    tag_59:\n        /* \"#utility.yul\":4869:4872   */\n      0x00\n        /* \"#utility.yul\":4897:4936   */\n      tag_124\n        /* \"#utility.yul\":4930:4935   */\n      dup3\n        /* \"#utility.yul\":4897:4936   */\n      tag_56\n      jump\t// in\n    tag_124:\n        /* \"#utility.yul\":4952:5041   */\n      tag_125\n        /* \"#utility.yul\":5034:5040   */\n      dup2\n        /* \"#utility.yul\":5029:5032   */\n      dup6\n        /* \"#utility.yul\":4952:5041   */\n      tag_57\n      jump\t// in\n    tag_125:\n        /* \"#utility.yul\":4945:5041   */\n      swap4\n      pop\n        /* \"#utility.yul\":5050:5115   */\n      tag_126\n        /* \"#utility.yul\":5108:5114   */\n      dup2\n        /* \"#utility.yul\":5103:5106   */\n      dup6\n        /* \"#utility.yul\":5096:5100   */\n      0x20\n        /* \"#utility.yul\":5089:5094   */\n      dup7\n        /* \"#utility.yul\":5085:5101   */\n      add\n        /* \"#utility.yul\":5050:5115   */\n      tag_58\n      jump\t// in\n    tag_126:\n        /* \"#utility.yul\":5140:5146   */\n      dup1\n        /* \"#utility.yul\":5135:5138   */\n      dup5\n        /* \"#utility.yul\":5131:5147   */\n      add\n        /* \"#utility.yul\":5124:5147   */\n      swap2\n      pop\n        /* \"#utility.yul\":4873:5153   */\n      pop\n        /* \"#utility.yul\":4763:5153   */\n      swap3\n      swap2\n      pop\n      pop\n      jump\t// out\n        /* \"#utility.yul\":5159:5575   */\n    tag_22:\n        /* \"#utility.yul\":5319:5322   */\n      0x00\n        /* \"#utility.yul\":5334:5409   */\n      tag_128\n        /* \"#utility.yul\":5405:5408   */\n      dup3\n        /* \"#utility.yul\":5396:5402   */\n      dup6\n        /* \"#utility.yul\":5334:5409   */\n      tag_55\n      jump\t// in\n    tag_128:\n        /* \"#utility.yul\":5434:5436   */\n      0x20\n        /* \"#utility.yul\":5429:5432   */\n      dup3\n        /* \"#utility.yul\":5425:5437   */\n      add\n        /* \"#utility.yul\":5418:5437   */\n      swap2\n      pop\n        /* \"#utility.yul\":5454:5549   */\n      tag_129\n        /* \"#utility.yul\":5545:5548   */\n      dup3\n        /* \"#utility.yul\":5536:5542   */\n      dup5\n        /* \"#utility.yul\":5454:5549   */\n      tag_59\n      jump\t// in\n    tag_129:\n        /* \"#utility.yul\":5447:5549   */\n      swap2\n      pop\n        /* \"#utility.yul\":5566:5569   */\n      dup2\n        /* \"#utility.yul\":5559:5569   */\n      swap1\n      pop\n        /* \"#utility.yul\":5159:5575   */\n      swap4\n      swap3\n      pop\n      pop\n      pop\n      jump\t// out\n        /* \"#utility.yul\":5581:5679   */\n    tag_60:\n        /* \"#utility.yul\":5632:5638   */\n      0x00\n        /* \"#utility.yul\":5666:5671   */\n      dup2\n        /* \"#utility.yul\":5660:5672   */\n      mload\n        /* \"#utility.yul\":5650:5672   */\n      swap1\n      pop\n        /* \"#utility.yul\":5581:5679   */\n      swap2\n      swap1\n      pop\n      jump\t// out\n        /* \"#utility.yul\":5685:5832   */\n    tag_61:\n        /* \"#utility.yul\":5786:5797   */\n      0x00\n        /* \"#utility.yul\":5823:5826   */\n      dup2\n        /* \"#utility.yul\":5808:5826   */\n      swap1\n      pop\n        /* \"#utility.yul\":5685:5832   */\n      swap3\n      swap2\n      pop\n      pop\n      jump\t// out\n        /* \"#utility.yul\":5838:6224   */\n    tag_62:\n        /* \"#utility.yul\":5942:5945   */\n      0x00\n        /* \"#utility.yul\":5970:6008   */\n      tag_133\n        /* \"#utility.yul\":6002:6007   */\n      dup3\n        /* \"#utility.yul\":5970:6008   */\n      tag_60\n      jump\t// in\n    tag_133:\n        /* \"#utility.yul\":6024:6112   */\n      tag_134\n        /* \"#utility.yul\":6105:6111   */\n      dup2\n        /* \"#utility.yul\":6100:6103   */\n      dup6\n        /* \"#utility.yul\":6024:6112   */\n      tag_61\n      jump\t// in\n    tag_134:\n        /* \"#utility.yul\":6017:6112   */\n      swap4\n      pop\n        /* \"#utility.yul\":6121:6186   */\n      tag_135\n        /* \"#utility.yul\":6179:6185   */\n      dup2\n        /* \"#utility.yul\":6174:6177   */\n      dup6\n        /* \"#utility.yul\":6167:6171   */\n      0x20\n        /* \"#utility.yul\":6160:6165   */\n      dup7\n        /* \"#utility.yul\":6156:6172   */\n      add\n        /* \"#utility.yul\":6121:6186   */\n      tag_58\n      jump\t// in\n    tag_135:\n        /* \"#utility.yul\":6211:6217   */\n      dup1\n        /* \"#utility.yul\":6206:6209   */\n      dup5\n        /* \"#utility.yul\":6202:6218   */\n      add\n        /* \"#utility.yul\":6195:6218   */\n      swap2\n      pop\n        /* \"#utility.yul\":5946:6224   */\n      pop\n        /* \"#utility.yul\":5838:6224   */\n      swap3\n      swap2\n      pop\n      pop\n      jump\t// out\n        /* \"#utility.yul\":6230:6501   */\n    tag_24:\n        /* \"#utility.yul\":6360:6363   */\n      0x00\n        /* \"#utility.yul\":6382:6475   */\n      tag_137\n        /* \"#utility.yul\":6471:6474   */\n      dup3\n        /* \"#utility.yul\":6462:6468   */\n      dup5\n        /* \"#utility.yul\":6382:6475   */\n      tag_62\n      jump\t// in\n    tag_137:\n        /* \"#utility.yul\":6375:6475   */\n      swap2\n      pop\n        /* \"#utility.yul\":6492:6495   */\n      dup2\n        /* \"#utility.yul\":6485:6495   */\n      swap1\n      pop\n        /* \"#utility.yul\":6230:6501   */\n      swap3\n      swap2\n      pop\n      pop\n      jump\t// out\n        /* \"#utility.yul\":6507:6629   */\n    tag_63:\n        /* \"#utility.yul\":6580:6604   */\n      tag_139\n        /* \"#utility.yul\":6598:6603   */\n      dup2\n        /* \"#utility.yul\":6580:6604   */\n      tag_52\n      jump\t// in\n    tag_139:\n        /* \"#utility.yul\":6573:6578   */\n      dup2\n        /* \"#utility.yul\":6570:6605   */\n      eq\n        /* \"#utility.yul\":6560:6623   */\n      tag_140\n      jumpi\n        /* \"#utility.yul\":6619:6620   */\n      0x00\n        /* \"#utility.yul\":6616:6617   */\n      dup1\n        /* \"#utility.yul\":6609:6621   */\n      revert\n        /* \"#utility.yul\":6560:6623   */\n    tag_140:\n        /* \"#utility.yul\":6507:6629   */\n      pop\n      jump\t// out\n        /* \"#utility.yul\":6635:6778   */\n    tag_64:\n        /* \"#utility.yul\":6692:6697   */\n      0x00\n        /* \"#utility.yul\":6723:6729   */\n      dup2\n        /* \"#utility.yul\":6717:6730   */\n      mload\n        /* \"#utility.yul\":6708:6730   */\n      swap1\n      pop\n        /* \"#utility.yul\":6739:6772   */\n      tag_142\n        /* \"#utility.yul\":6766:6771   */\n      dup2\n        /* \"#utility.yul\":6739:6772   */\n      tag_63\n      jump\t// in\n    tag_142:\n        /* \"#utility.yul\":6635:6778   */\n      swap3\n      swap2\n      pop\n      pop\n      jump\t// out\n        /* \"#utility.yul\":6784:7135   */\n    tag_35:\n        /* \"#utility.yul\":6854:6860   */\n      0x00\n        /* \"#utility.yul\":6903:6905   */\n      0x20\n        /* \"#utility.yul\":6891:6900   */\n      dup3\n        /* \"#utility.yul\":6882:6889   */\n      dup5\n        /* \"#utility.yul\":6878:6901   */\n      sub\n        /* \"#utility.yul\":6874:6906   */\n      slt\n        /* \"#utility.yul\":6871:6990   */\n      iszero\n      tag_144\n      jumpi\n        /* \"#utility.yul\":6909:6988   */\n      tag_145\n      tag_37\n      jump\t// in\n    tag_145:\n        /* \"#utility.yul\":6871:6990   */\n    tag_144:\n        /* \"#utility.yul\":7029:7030   */\n      0x00\n        /* \"#utility.yul\":7054:7118   */\n      tag_146\n        /* \"#utility.yul\":7110:7117   */\n      dup5\n        /* \"#utility.yul\":7101:7107   */\n      dup3\n        /* \"#utility.yul\":7090:7099   */\n      dup6\n        /* \"#utility.yul\":7086:7108   */\n      add\n        /* \"#utility.yul\":7054:7118   */\n      tag_64\n      jump\t// in\n    tag_146:\n        /* \"#utility.yul\":7044:7118   */\n      swap2\n      pop\n        /* \"#utility.yul\":7000:7128   */\n      pop\n        /* \"#utility.yul\":6784:7135   */\n      swap3\n      swap2\n      pop\n      pop\n      jump\t// out\n\n    auxdata: 0xa26469706673582212207fac807462c2fe126dd8cb16796421b05c9cdbbef02115a7f28f82d8f096aa8d64736f6c63430008120033\n}\n",
				"bytecode": {
					"linkReferences": {},
					"object": "608060405234801561001057600080fd5b506105bc806100206000396000f3fe608060405234801561001057600080fd5b50600436106100415760003560e01c806305ec40db14610046578063559174bb14610076578063b1fbcefb146100a6575b600080fd5b610060600480360381019061005b9190610385565b6100d6565b60405161006d91906103fa565b60405180910390f35b610090600480360381019061008b9190610385565b610147565b60405161009d91906103fa565b60405180910390f35b6100c060048036038101906100bb9190610385565b61017a565b6040516100cd91906103fa565b60405180910390f35b6000600383836040516020016100ed9291906104a7565b6040516020818303038152906040526040516101099190610516565b602060405180830381855afa158015610126573d6000803e3d6000fd5b5050506040515160601b6bffffffffffffffffffffffff1916905092915050565b6000828260405160200161015c9291906104a7565b60405160208183030381529060405280519060200120905092915050565b6000600283836040516020016101919291906104a7565b6040516020818303038152906040526040516101ad9190610516565b602060405180830381855afa1580156101ca573d6000803e3d6000fd5b5050506040513d601f19601f820116820180604052508101906101ed9190610559565b905092915050565b6000604051905090565b600080fd5b600080fd5b6000819050919050565b61021c81610209565b811461022757600080fd5b50565b60008135905061023981610213565b92915050565b600080fd5b600080fd5b6000601f19601f8301169050919050565b7f4e487b7100000000000000000000000000000000000000000000000000000000600052604160045260246000fd5b61029282610249565b810181811067ffffffffffffffff821117156102b1576102b061025a565b5b80604052505050565b60006102c46101f5565b90506102d08282610289565b919050565b600067ffffffffffffffff8211156102f0576102ef61025a565b5b6102f982610249565b9050602081019050919050565b82818337600083830152505050565b6000610328610323846102d5565b6102ba565b90508281526020810184848401111561034457610343610244565b5b61034f848285610306565b509392505050565b600082601f83011261036c5761036b61023f565b5b813561037c848260208601610315565b91505092915050565b6000806040838503121561039c5761039b6101ff565b5b60006103aa8582860161022a565b925050602083013567ffffffffffffffff8111156103cb576103ca610204565b5b6103d785828601610357565b9150509250929050565b6000819050919050565b6103f4816103e1565b82525050565b600060208201905061040f60008301846103eb565b92915050565b6000819050919050565b61043061042b82610209565b610415565b82525050565b600081519050919050565b600081905092915050565b60005b8381101561046a57808201518184015260208101905061044f565b60008484015250505050565b600061048182610436565b61048b8185610441565b935061049b81856020860161044c565b80840191505092915050565b60006104b3828561041f565b6020820191506104c38284610476565b91508190509392505050565b600081519050919050565b600081905092915050565b60006104f0826104cf565b6104fa81856104da565b935061050a81856020860161044c565b80840191505092915050565b600061052282846104e5565b915081905092915050565b610536816103e1565b811461054157600080fd5b50565b6000815190506105538161052d565b92915050565b60006020828403121561056f5761056e6101ff565b5b600061057d84828501610544565b9150509291505056fea26469706673582212207fac807462c2fe126dd8cb16796421b05c9cdbbef02115a7f28f82d8f096aa8d64736f6c63430008120033",
					"opcodes": "PUSH1 0x80 PUSH1 0x40 MSTORE CALLVALUE DUP1 ISZERO PUSH2 0x10 JUMPI PUSH1 0x0 DUP1 REVERT JUMPDEST POP PUSH2 0x5BC DUP1 PUSH2 0x20 PUSH1 0x0 CODECOPY PUSH1 0x0 RETURN INVALID PUSH1 0x80 PUSH1 0x40 MSTORE CALLVALUE DUP1 ISZERO PUSH2 0x10 JUMPI PUSH1 0x0 DUP1 REVERT JUMPDEST POP PUSH1 0x4 CALLDATASIZE LT PUSH2 0x41 JUMPI PUSH1 0x0 CALLDATALOAD PUSH1 0xE0 SHR DUP1 PUSH4 0x5EC40DB EQ PUSH2 0x46 JUMPI DUP1 PUSH4 0x559174BB EQ PUSH2 0x76 JUMPI DUP1 PUSH4 0xB1FBCEFB EQ PUSH2 0xA6 JUMPI JUMPDEST PUSH1 0x0 DUP1 REVERT JUMPDEST PUSH2 0x60 PUSH1 0x4 DUP1 CALLDATASIZE SUB DUP2 ADD SWAP1 PUSH2 0x5B SWAP2 SWAP1 PUSH2 0x385 JUMP JUMPDEST PUSH2 0xD6 JUMP JUMPDEST PUSH1 0x40 MLOAD PUSH2 0x6D SWAP2 SWAP1 PUSH2 0x3FA JUMP JUMPDEST PUSH1 0x40 MLOAD DUP1 SWAP2 SUB SWAP1 RETURN JUMPDEST PUSH2 0x90 PUSH1 0x4 DUP1 CALLDATASIZE SUB DUP2 ADD SWAP1 PUSH2 0x8B SWAP2 SWAP1 PUSH2 0x385 JUMP JUMPDEST PUSH2 0x147 JUMP JUMPDEST PUSH1 0x40 MLOAD PUSH2 0x9D SWAP2 SWAP1 PUSH2 0x3FA JUMP JUMPDEST PUSH1 0x40 MLOAD DUP1 SWAP2 SUB SWAP1 RETURN JUMPDEST PUSH2 0xC0 PUSH1 0x4 DUP1 CALLDATASIZE SUB DUP2 ADD SWAP1 PUSH2 0xBB SWAP2 SWAP1 PUSH2 0x385 JUMP JUMPDEST PUSH2 0x17A JUMP JUMPDEST PUSH1 0x40 MLOAD PUSH2 0xCD SWAP2 SWAP1 PUSH2 0x3FA JUMP JUMPDEST PUSH1 0x40 MLOAD DUP1 SWAP2 SUB SWAP1 RETURN JUMPDEST PUSH1 0x0 PUSH1 0x3 DUP4 DUP4 PUSH1 0x40 MLOAD PUSH1 0x20 ADD PUSH2 0xED SWAP3 SWAP2 SWAP1 PUSH2 0x4A7 JUMP JUMPDEST PUSH1 0x40 MLOAD PUSH1 0x20 DUP2 DUP4 SUB SUB DUP2 MSTORE SWAP1 PUSH1 0x40 MSTORE PUSH1 0x40 MLOAD PUSH2 0x109 SWAP2 SWAP1 PUSH2 0x516 JUMP JUMPDEST PUSH1 0x20 PUSH1 0x40 MLOAD DUP1 DUP4 SUB DUP2 DUP6 GAS STATICCALL ISZERO DUP1 ISZERO PUSH2 0x126 JUMPI RETURNDATASIZE PUSH1 0x0 DUP1 RETURNDATACOPY RETURNDATASIZE PUSH1 0x0 REVERT JUMPDEST POP POP POP PUSH1 0x40 MLOAD MLOAD PUSH1 0x60 SHL PUSH12 0xFFFFFFFFFFFFFFFFFFFFFFFF NOT AND SWAP1 POP SWAP3 SWAP2 POP POP JUMP JUMPDEST PUSH1 0x0 DUP3 DUP3 PUSH1 0x40 MLOAD PUSH1 0x20 ADD PUSH2 0x15C SWAP3 SWAP2 SWAP1 PUSH2 0x4A7 JUMP JUMPDEST PUSH1 0x40 MLOAD PUSH1 0x20 DUP2 DUP4 SUB SUB DUP2 MSTORE SWAP1 PUSH1 0x40 MSTORE DUP1 MLOAD SWAP1 PUSH1 0x20 ADD KECCAK256 SWAP1 POP SWAP3 SWAP2 POP POP JUMP JUMPDEST PUSH1 0x0 PUSH1 0x2 DUP4 DUP4 PUSH1 0x40 MLOAD PUSH1 0x20 ADD PUSH2 0x191 SWAP3 SWAP2 SWAP1 PUSH2 0x4A7 JUMP JUMPDEST PUSH1 0x40 MLOAD PUSH1 0x20 DUP2 DUP4 SUB SUB DUP2 MSTORE SWAP1 PUSH1 0x40 MSTORE PUSH1 0x40 MLOAD PUSH2 0x1AD SWAP2 SWAP1 PUSH2 0x516 JUMP JUMPDEST PUSH1 0x20 PUSH1 0x40 MLOAD DUP1 DUP4 SUB DUP2 DUP6 GAS STATICCALL ISZERO DUP1 ISZERO PUSH2 0x1CA JUMPI RETURNDATASIZE PUSH1 0x0 DUP1 RETURNDATACOPY RETURNDATASIZE PUSH1 0x0 REVERT JUMPDEST POP POP POP PUSH1 0x40 MLOAD RETURNDATASIZE PUSH1 0x1F NOT PUSH1 0x1F DUP3 ADD AND DUP3 ADD DUP1 PUSH1 0x40 MSTORE POP DUP2 ADD SWAP1 PUSH2 0x1ED SWAP2 SWAP1 PUSH2 0x559 JUMP JUMPDEST SWAP1 POP SWAP3 SWAP2 POP POP JUMP JUMPDEST PUSH1 0x0 PUSH1 0x40 MLOAD SWAP1 POP SWAP1 JUMP JUMPDEST PUSH1 0x0 DUP1 REVERT JUMPDEST PUSH1 0x0 DUP1 REVERT JUMPDEST PUSH1 0x0 DUP2 SWAP1 POP SWAP2 SWAP1 POP JUMP JUMPDEST PUSH2 0x21C DUP2 PUSH2 0x209 JUMP JUMPDEST DUP2 EQ PUSH2 0x227 JUMPI PUSH1 0x0 DUP1 REVERT JUMPDEST POP JUMP JUMPDEST PUSH1 0x0 DUP2 CALLDATALOAD SWAP1 POP PUSH2 0x239 DUP2 PUSH2 0x213 JUMP JUMPDEST SWAP3 SWAP2 POP POP JUMP JUMPDEST PUSH1 0x0 DUP1 REVERT JUMPDEST PUSH1 0x0 DUP1 REVERT JUMPDEST PUSH1 0x0 PUSH1 0x1F NOT PUSH1 0x1F DUP4 ADD AND SWAP1 POP SWAP2 SWAP1 POP JUMP JUMPDEST PUSH32 0x4E487B7100000000000000000000000000000000000000000000000000000000 PUSH1 0x0 MSTORE PUSH1 0x41 PUSH1 0x4 MSTORE PUSH1 0x24 PUSH1 0x0 REVERT JUMPDEST PUSH2 0x292 DUP3 PUSH2 0x249 JUMP JUMPDEST DUP2 ADD DUP2 DUP2 LT PUSH8 0xFFFFFFFFFFFFFFFF DUP3 GT OR ISZERO PUSH2 0x2B1 JUMPI PUSH2 0x2B0 PUSH2 0x25A JUMP JUMPDEST JUMPDEST DUP1 PUSH1 0x40 MSTORE POP POP POP JUMP JUMPDEST PUSH1 0x0 PUSH2 0x2C4 PUSH2 0x1F5 JUMP JUMPDEST SWAP1 POP PUSH2 0x2D0 DUP3 DUP3 PUSH2 0x289 JUMP JUMPDEST SWAP2 SWAP1 POP JUMP JUMPDEST PUSH1 0x0 PUSH8 0xFFFFFFFFFFFFFFFF DUP3 GT ISZERO PUSH2 0x2F0 JUMPI PUSH2 0x2EF PUSH2 0x25A JUMP JUMPDEST JUMPDEST PUSH2 0x2F9 DUP3 PUSH2 0x249 JUMP JUMPDEST SWAP1 POP PUSH1 0x20 DUP2 ADD SWAP1 POP SWAP2 SWAP1 POP JUMP JUMPDEST DUP3 DUP2 DUP4 CALLDATACOPY PUSH1 0x0 DUP4 DUP4 ADD MSTORE POP POP POP JUMP JUMPDEST PUSH1 0x0 PUSH2 0x328 PUSH2 0x323 DUP5 PUSH2 0x2D5 JUMP JUMPDEST PUSH2 0x2BA JUMP JUMPDEST SWAP1 POP DUP3 DUP2 MSTORE PUSH1 0x20 DUP2 ADD DUP5 DUP5 DUP5 ADD GT ISZERO PUSH2 0x344 JUMPI PUSH2 0x343 PUSH2 0x244 JUMP JUMPDEST JUMPDEST PUSH2 0x34F DUP5 DUP3 DUP6 PUSH2 0x306 JUMP JUMPDEST POP SWAP4 SWAP3 POP POP POP JUMP JUMPDEST PUSH1 0x0 DUP3 PUSH1 0x1F DUP4 ADD SLT PUSH2 0x36C JUMPI PUSH2 0x36B PUSH2 0x23F JUMP JUMPDEST JUMPDEST DUP2 CALLDATALOAD PUSH2 0x37C DUP5 DUP3 PUSH1 0x20 DUP7 ADD PUSH2 0x315 JUMP JUMPDEST SWAP2 POP POP SWAP3 SWAP2 POP POP JUMP JUMPDEST PUSH1 0x0 DUP1 PUSH1 0x40 DUP4 DUP6 SUB SLT ISZERO PUSH2 0x39C JUMPI PUSH2 0x39B PUSH2 0x1FF JUMP JUMPDEST JUMPDEST PUSH1 0x0 PUSH2 0x3AA DUP6 DUP3 DUP7 ADD PUSH2 0x22A JUMP JUMPDEST SWAP3 POP POP PUSH1 0x20 DUP4 ADD CALLDATALOAD PUSH8 0xFFFFFFFFFFFFFFFF DUP2 GT ISZERO PUSH2 0x3CB JUMPI PUSH2 0x3CA PUSH2 0x204 JUMP JUMPDEST JUMPDEST PUSH2 0x3D7 DUP6 DUP3 DUP7 ADD PUSH2 0x357 JUMP JUMPDEST SWAP2 POP POP SWAP3 POP SWAP3 SWAP1 POP JUMP JUMPDEST PUSH1 0x0 DUP2 SWAP1 POP SWAP2 SWAP1 POP JUMP JUMPDEST PUSH2 0x3F4 DUP2 PUSH2 0x3E1 JUMP JUMPDEST DUP3 MSTORE POP POP JUMP JUMPDEST PUSH1 0x0 PUSH1 0x20 DUP3 ADD SWAP1 POP PUSH2 0x40F PUSH1 0x0 DUP4 ADD DUP5 PUSH2 0x3EB JUMP JUMPDEST SWAP3 SWAP2 POP POP JUMP JUMPDEST PUSH1 0x0 DUP2 SWAP1 POP SWAP2 SWAP1 POP JUMP JUMPDEST PUSH2 0x430 PUSH2 0x42B DUP3 PUSH2 0x209 JUMP JUMPDEST PUSH2 0x415 JUMP JUMPDEST DUP3 MSTORE POP POP JUMP JUMPDEST PUSH1 0x0 DUP2 MLOAD SWAP1 POP SWAP2 SWAP1 POP JUMP JUMPDEST PUSH1 0x0 DUP2 SWAP1 POP SWAP3 SWAP2 POP POP JUMP JUMPDEST PUSH1 0x0 JUMPDEST DUP4 DUP2 LT ISZERO PUSH2 0x46A JUMPI DUP1 DUP3 ADD MLOAD DUP2 DUP5 ADD MSTORE PUSH1 0x20 DUP2 ADD SWAP1 POP PUSH2 0x44F JUMP JUMPDEST PUSH1 0x0 DUP5 DUP5 ADD MSTORE POP POP POP POP JUMP JUMPDEST PUSH1 0x0 PUSH2 0x481 DUP3 PUSH2 0x436 JUMP JUMPDEST PUSH2 0x48B DUP2 DUP6 PUSH2 0x441 JUMP JUMPDEST SWAP4 POP PUSH2 0x49B DUP2 DUP6 PUSH1 0x20 DUP7 ADD PUSH2 0x44C JUMP JUMPDEST DUP1 DUP5 ADD SWAP2 POP POP SWAP3 SWAP2 POP POP JUMP JUMPDEST PUSH1 0x0 PUSH2 0x4B3 DUP3 DUP6 PUSH2 0x41F JUMP JUMPDEST PUSH1 0x20 DUP3 ADD SWAP2 POP PUSH2 0x4C3 DUP3 DUP5 PUSH2 0x476 JUMP JUMPDEST SWAP2 POP DUP2 SWAP1 POP SWAP4 SWAP3 POP POP POP JUMP JUMPDEST PUSH1 0x0 DUP2 MLOAD SWAP1 POP SWAP2 SWAP1 POP JUMP JUMPDEST PUSH1 0x0 DUP2 SWAP1 POP SWAP3 SWAP2 POP POP JUMP JUMPDEST PUSH1 0x0 PUSH2 0x4F0 DUP3 PUSH2 0x4CF JUMP JUMPDEST PUSH2 0x4FA DUP2 DUP6 PUSH2 0x4DA JUMP JUMPDEST SWAP4 POP PUSH2 0x50A DUP2 DUP6 PUSH1 0x20 DUP7 ADD PUSH2 0x44C JUMP JUMPDEST DUP1 DUP5 ADD SWAP2 POP POP SWAP3 SWAP2 POP POP JUMP JUMPDEST PUSH1 0x0 PUSH2 0x522 DUP3 DUP5 PUSH2 0x4E5 JUMP JUMPDEST SWAP2 POP DUP2 SWAP1 POP SWAP3 SWAP2 POP POP JUMP JUMPDEST PUSH2 0x536 DUP2 PUSH2 0x3E1 JUMP JUMPDEST DUP2 EQ PUSH2 0x541 JUMPI PUSH1 0x0 DUP1 REVERT JUMPDEST POP JUMP JUMPDEST PUSH1 0x0 DUP2 MLOAD SWAP1 POP PUSH2 0x553 DUP2 PUSH2 0x52D JUMP JUMPDEST SWAP3 SWAP2 POP POP JUMP JUMPDEST PUSH1 0x0 PUSH1 0x20 DUP3 DUP5 SUB SLT ISZERO PUSH2 0x56F JUMPI PUSH2 0x56E PUSH2 0x1FF JUMP JUMPDEST JUMPDEST PUSH1 0x0 PUSH2 0x57D DUP5 DUP3 DUP6 ADD PUSH2 0x544 JUMP JUMPDEST SWAP2 POP POP SWAP3 SWAP2 POP POP JUMP INVALID LOG2 PUSH5 0x6970667358 0x22 SLT KECCAK256 PUSH32 0xAC807462C2FE126DD8CB16796421B05C9CDBBEF02115A7F28F82D8F096AA8D64 PUSH20 0x6F6C634300081200330000000000000000000000 "
				},
				"gasEstimates": {
					"creation": {
						"codeDepositCost": "293600",
						"executionCost": "331",
						"totalCost": "293931"
					},
					"external": {
						"hash1(uint256,string)": "infinite",
						"hash2(uint256,string)": "infinite",
						"hash3(uint256,string)": "infinite"
					}
				},
				"methodIdentifiers": {
					"hash1(uint256,string)": "559174bb",
					"hash2(uint256,string)": "b1fbcefb",
					"hash3(uint256,string)": "05ec40db"
				}
			},
			"storageLayout": {
				"storage": [],
				"types": null
			},
			"userdoc": {
				"kind": "user",
				"methods": {},
				"version": 1
			}
		}
	}
}