{
	"event.sol": {
		"Event_Org": {
			"abi": [
				{
					"inputs": [],
					"stateMutability": "nonpayable",
					"type": "constructor"
				},
				{
					"inputs": [
						{
							"internalType": "uint256",
							"name": "id",
							"type": "uint256"
						},
						{
							"internalType": "uint256",
							"name": "cash",
							"type": "uint256"
						}
					],
					"name": "BuyTicket",
					"outputs": [
						{
							"internalType": "string",
							"name": "",
							"type": "string"
						}
					],
					"stateMutability": "view",
					"type": "function"
				},
				{
					"inputs": [
						{
							"internalType": "uint256",
							"name": "id_",
							"type": "uint256"
						}
					],
					"name": "Checkevent",
					"outputs": [
						{
							"internalType": "string",
							"name": "",
							"type": "string"
						},
						{
							"internalType": "uint256",
							"name": "",
							"type": "uint256"
						}
					],
					"stateMutability": "view",
					"type": "function"
				},
				{
					"inputs": [
						{
							"internalType": "string",
							"name": "name",
							"type": "string"
						},
						{
							"internalType": "uint256",
							"name": "date",
							"type": "uint256"
						},
						{
							"internalType": "uint256",
							"name": "price",
							"type": "uint256"
						}
					],
					"name": "CreateEvent",
					"outputs": [],
					"stateMutability": "nonpayable",
					"type": "function"
				}
			],
			"devdoc": {
				"kind": "dev",
				"methods": {},
				"version": 1
			},
			"evm": {
				"assembly": "    /* \"event.sol\":127:942  contract Event_Org{... */\n  mstore(0x40, 0x80)\n    /* \"event.sol\":170:223  constructor(){... */\n  callvalue\n  dup1\n  iszero\n  tag_1\n  jumpi\n  0x00\n  dup1\n  revert\ntag_1:\n  pop\n    /* \"event.sol\":197:207  msg.sender */\n  caller\n    /* \"event.sol\":187:194  manager */\n  0x00\n  dup1\n    /* \"event.sol\":187:207  manager = msg.sender */\n  0x0100\n  exp\n  dup2\n  sload\n  dup2\n  0xffffffffffffffffffffffffffffffffffffffff\n  mul\n  not\n  and\n  swap1\n  dup4\n  0xffffffffffffffffffffffffffffffffffffffff\n  and\n  mul\n  or\n  swap1\n  sstore\n  pop\n    /* \"event.sol\":127:942  contract Event_Org{... */\n  dataSize(sub_0)\n  dup1\n  dataOffset(sub_0)\n  0x00\n  codecopy\n  0x00\n  return\nstop\n\nsub_0: assembly {\n        /* \"event.sol\":127:942  contract Event_Org{... */\n      mstore(0x40, 0x80)\n      callvalue\n      dup1\n      iszero\n      tag_1\n      jumpi\n      0x00\n      dup1\n      revert\n    tag_1:\n      pop\n      jumpi(tag_2, lt(calldatasize, 0x04))\n      shr(0xe0, calldataload(0x00))\n      dup1\n      0x163f41af\n      eq\n      tag_3\n      jumpi\n      dup1\n      0xa8445a1e\n      eq\n      tag_4\n      jumpi\n      dup1\n      0xdc8903a8\n      eq\n      tag_5\n      jumpi\n    tag_2:\n      0x00\n      dup1\n      revert\n        /* \"event.sol\":340:500  function CreateEvent(string memory name , uint date , uint price) public {... */\n    tag_3:\n      tag_6\n      0x04\n      dup1\n      calldatasize\n      sub\n      dup2\n      add\n      swap1\n      tag_7\n      swap2\n      swap1\n      tag_8\n      jump\t// in\n    tag_7:\n      tag_9\n      jump\t// in\n    tag_6:\n      stop\n        /* \"event.sol\":636:939  function BuyTicket(uint id , uint cash) public view returns (string memory) {... */\n    tag_4:\n      tag_10\n      0x04\n      dup1\n      calldatasize\n      sub\n      dup2\n      add\n      swap1\n      tag_11\n      swap2\n      swap1\n      tag_12\n      jump\t// in\n    tag_11:\n      tag_13\n      jump\t// in\n    tag_10:\n      mload(0x40)\n      tag_14\n      swap2\n      swap1\n      tag_15\n      jump\t// in\n    tag_14:\n      mload(0x40)\n      dup1\n      swap2\n      sub\n      swap1\n      return\n        /* \"event.sol\":504:632  function Checkevent(uint id_) public view returns (string memory , uint){... */\n    tag_5:\n      tag_16\n      0x04\n      dup1\n      calldatasize\n      sub\n      dup2\n      add\n      swap1\n      tag_17\n      swap2\n      swap1\n      tag_18\n      jump\t// in\n    tag_17:\n      tag_19\n      jump\t// in\n    tag_16:\n      mload(0x40)\n      tag_20\n      swap3\n      swap2\n      swap1\n      tag_21\n      jump\t// in\n    tag_20:\n      mload(0x40)\n      dup1\n      swap2\n      sub\n      swap1\n      return\n        /* \"event.sol\":340:500  function CreateEvent(string memory name , uint date , uint price) public {... */\n    tag_9:\n        /* \"event.sol\":435:445  msg.sender */\n      caller\n        /* \"event.sol\":424:445  manager == msg.sender */\n      0xffffffffffffffffffffffffffffffffffffffff\n      and\n        /* \"event.sol\":424:431  manager */\n      0x00\n      dup1\n      sload\n      swap1\n      0x0100\n      exp\n      swap1\n      div\n      0xffffffffffffffffffffffffffffffffffffffff\n      and\n        /* \"event.sol\":424:445  manager == msg.sender */\n      0xffffffffffffffffffffffffffffffffffffffff\n      and\n      eq\n        /* \"event.sol\":416:446  require(manager == msg.sender) */\n      tag_23\n      jumpi\n      0x00\n      dup1\n      revert\n    tag_23:\n        /* \"event.sol\":462:487  Event(name , date ,price) */\n      mload(0x40)\n      dup1\n      0x60\n      add\n      0x40\n      mstore\n      dup1\n        /* \"event.sol\":468:472  name */\n      dup5\n        /* \"event.sol\":462:487  Event(name , date ,price) */\n      dup2\n      mstore\n      0x20\n      add\n        /* \"event.sol\":475:479  date */\n      dup4\n        /* \"event.sol\":462:487  Event(name , date ,price) */\n      dup2\n      mstore\n      0x20\n      add\n        /* \"event.sol\":481:486  price */\n      dup3\n        /* \"event.sol\":462:487  Event(name , date ,price) */\n      dup2\n      mstore\n      pop\n        /* \"event.sol\":449:455  noname */\n      0x02\n        /* \"event.sol\":449:459  noname[id] */\n      0x00\n        /* \"event.sol\":456:458  id */\n      sload(0x01)\n        /* \"event.sol\":449:459  noname[id] */\n      dup2\n      mstore\n      0x20\n      add\n      swap1\n      dup2\n      mstore\n      0x20\n      add\n      0x00\n      keccak256\n        /* \"event.sol\":449:487  noname[id] = Event(name , date ,price) */\n      0x00\n      dup3\n      add\n      mload\n      dup2\n      0x00\n      add\n      swap1\n      dup2\n      tag_24\n      swap2\n      swap1\n      tag_25\n      jump\t// in\n    tag_24:\n      pop\n      0x20\n      dup3\n      add\n      mload\n      dup2\n      0x01\n      add\n      sstore\n      0x40\n      dup3\n      add\n      mload\n      dup2\n      0x02\n      add\n      sstore\n      swap1\n      pop\n      pop\n        /* \"event.sol\":490:492  id */\n      0x01\n      0x00\n        /* \"event.sol\":490:494  id++ */\n      dup2\n      sload\n      dup1\n      swap3\n      swap2\n      swap1\n      tag_26\n      swap1\n      tag_27\n      jump\t// in\n    tag_26:\n      swap2\n      swap1\n      pop\n      sstore\n      pop\n        /* \"event.sol\":340:500  function CreateEvent(string memory name , uint date , uint price) public {... */\n      pop\n      pop\n      pop\n      jump\t// out\n        /* \"event.sol\":636:939  function BuyTicket(uint id , uint cash) public view returns (string memory) {... */\n    tag_13:\n        /* \"event.sol\":697:710  string memory */\n      0x60\n        /* \"event.sol\":802:808  noname */\n      0x02\n        /* \"event.sol\":802:812  noname[id] */\n      0x00\n        /* \"event.sol\":809:811  id */\n      dup5\n        /* \"event.sol\":802:812  noname[id] */\n      dup2\n      mstore\n      0x20\n      add\n      swap1\n      dup2\n      mstore\n      0x20\n      add\n      0x00\n      keccak256\n        /* \"event.sol\":802:818  noname[id].price */\n      0x02\n      add\n      sload\n        /* \"event.sol\":795:799  cash */\n      dup3\n        /* \"event.sol\":795:818  cash < noname[id].price */\n      lt\n        /* \"event.sol\":795:845  cash < noname[id].price || cash > noname[id].price */\n      dup1\n      tag_29\n      jumpi\n      pop\n        /* \"event.sol\":829:835  noname */\n      0x02\n        /* \"event.sol\":829:839  noname[id] */\n      0x00\n        /* \"event.sol\":836:838  id */\n      dup5\n        /* \"event.sol\":829:839  noname[id] */\n      dup2\n      mstore\n      0x20\n      add\n      swap1\n      dup2\n      mstore\n      0x20\n      add\n      0x00\n      keccak256\n        /* \"event.sol\":829:845  noname[id].price */\n      0x02\n      add\n      sload\n        /* \"event.sol\":822:826  cash */\n      dup3\n        /* \"event.sol\":822:845  cash > noname[id].price */\n      gt\n        /* \"event.sol\":795:845  cash < noname[id].price || cash > noname[id].price */\n    tag_29:\n        /* \"event.sol\":792:932  if(cash < noname[id].price || cash > noname[id].price){... */\n      iszero\n      tag_30\n      jumpi\n        /* \"event.sol\":893:927  Strings.toString(noname[id].price) */\n      tag_31\n        /* \"event.sol\":910:916  noname */\n      0x02\n        /* \"event.sol\":910:920  noname[id] */\n      0x00\n        /* \"event.sol\":917:919  id */\n      dup6\n        /* \"event.sol\":910:920  noname[id] */\n      dup2\n      mstore\n      0x20\n      add\n      swap1\n      dup2\n      mstore\n      0x20\n      add\n      0x00\n      keccak256\n        /* \"event.sol\":910:926  noname[id].price */\n      0x02\n      add\n      sload\n        /* \"event.sol\":893:909  Strings.toString */\n      tag_32\n        /* \"event.sol\":893:927  Strings.toString(noname[id].price) */\n      jump\t// in\n    tag_31:\n        /* \"event.sol\":860:928  string.concat(\"Ticket price is \",Strings.toString(noname[id].price)) */\n      add(0x20, mload(0x40))\n      tag_33\n      swap2\n      swap1\n      tag_34\n      jump\t// in\n    tag_33:\n      mload(0x40)\n      0x20\n      dup2\n      dup4\n      sub\n      sub\n      dup2\n      mstore\n      swap1\n      0x40\n      mstore\n        /* \"event.sol\":853:928  return string.concat(\"Ticket price is \",Strings.toString(noname[id].price)) */\n      swap1\n      pop\n      jump(tag_28)\n        /* \"event.sol\":792:932  if(cash < noname[id].price || cash > noname[id].price){... */\n    tag_30:\n        /* \"event.sol\":636:939  function BuyTicket(uint id , uint cash) public view returns (string memory) {... */\n    tag_28:\n      swap3\n      swap2\n      pop\n      pop\n      jump\t// out\n        /* \"event.sol\":504:632  function Checkevent(uint id_) public view returns (string memory , uint){... */\n    tag_19:\n        /* \"event.sol\":555:568  string memory */\n      0x60\n        /* \"event.sol\":571:575  uint */\n      0x00\n        /* \"event.sol\":589:595  noname */\n      0x02\n        /* \"event.sol\":589:600  noname[id_] */\n      0x00\n        /* \"event.sol\":596:599  id_ */\n      dup5\n        /* \"event.sol\":589:600  noname[id_] */\n      dup2\n      mstore\n      0x20\n      add\n      swap1\n      dup2\n      mstore\n      0x20\n      add\n      0x00\n      keccak256\n        /* \"event.sol\":589:605  noname[id_].name */\n      0x00\n      add\n        /* \"event.sol\":608:614  noname */\n      0x02\n        /* \"event.sol\":608:619  noname[id_] */\n      0x00\n        /* \"event.sol\":615:618  id_ */\n      dup6\n        /* \"event.sol\":608:619  noname[id_] */\n      dup2\n      mstore\n      0x20\n      add\n      swap1\n      dup2\n      mstore\n      0x20\n      add\n      0x00\n      keccak256\n        /* \"event.sol\":608:625  noname[id_].price */\n      0x02\n      add\n      sload\n        /* \"event.sol\":581:626  return( noname[id_].name , noname[id_].price) */\n      dup2\n      dup1\n      sload\n      tag_36\n      swap1\n      tag_37\n      jump\t// in\n    tag_36:\n      dup1\n      0x1f\n      add\n      0x20\n      dup1\n      swap2\n      div\n      mul\n      0x20\n      add\n      mload(0x40)\n      swap1\n      dup2\n      add\n      0x40\n      mstore\n      dup1\n      swap3\n      swap2\n      swap1\n      dup2\n      dup2\n      mstore\n      0x20\n      add\n      dup3\n      dup1\n      sload\n      tag_38\n      swap1\n      tag_37\n      jump\t// in\n    tag_38:\n      dup1\n      iszero\n      tag_39\n      jumpi\n      dup1\n      0x1f\n      lt\n      tag_40\n      jumpi\n      0x0100\n      dup1\n      dup4\n      sload\n      div\n      mul\n      dup4\n      mstore\n      swap2\n      0x20\n      add\n      swap2\n      jump(tag_39)\n    tag_40:\n      dup3\n      add\n      swap2\n      swap1\n      0x00\n      mstore\n      keccak256(0x00, 0x20)\n      swap1\n    tag_41:\n      dup2\n      sload\n      dup2\n      mstore\n      swap1\n      0x01\n      add\n      swap1\n      0x20\n      add\n      dup1\n      dup4\n      gt\n      tag_41\n      jumpi\n      dup3\n      swap1\n      sub\n      0x1f\n      and\n      dup3\n      add\n      swap2\n    tag_39:\n      pop\n      pop\n      pop\n      pop\n      pop\n      swap2\n      pop\n      swap2\n      pop\n      swap2\n      pop\n        /* \"event.sol\":504:632  function Checkevent(uint id_) public view returns (string memory , uint){... */\n      swap2\n      pop\n      swap2\n      jump\t// out\n        /* \"@openzeppelin/contracts/utils/Strings.sol\":447:1143  function toString(uint256 value) internal pure returns (string memory) {... */\n    tag_32:\n        /* \"@openzeppelin/contracts/utils/Strings.sol\":503:516  string memory */\n      0x60\n        /* \"@openzeppelin/contracts/utils/Strings.sol\":552:566  uint256 length */\n      0x00\n        /* \"@openzeppelin/contracts/utils/Strings.sol\":589:590  1 */\n      0x01\n        /* \"@openzeppelin/contracts/utils/Strings.sol\":569:586  Math.log10(value) */\n      tag_43\n        /* \"@openzeppelin/contracts/utils/Strings.sol\":580:585  value */\n      dup5\n        /* \"@openzeppelin/contracts/utils/Strings.sol\":569:579  Math.log10 */\n      tag_44\n        /* \"@openzeppelin/contracts/utils/Strings.sol\":569:586  Math.log10(value) */\n      jump\t// in\n    tag_43:\n        /* \"@openzeppelin/contracts/utils/Strings.sol\":569:590  Math.log10(value) + 1 */\n      add\n        /* \"@openzeppelin/contracts/utils/Strings.sol\":552:590  uint256 length = Math.log10(value) + 1 */\n      swap1\n      pop\n        /* \"@openzeppelin/contracts/utils/Strings.sol\":604:624  string memory buffer */\n      0x00\n        /* \"@openzeppelin/contracts/utils/Strings.sol\":638:644  length */\n      dup2\n        /* \"@openzeppelin/contracts/utils/Strings.sol\":627:645  new string(length) */\n      0xffffffffffffffff\n      dup2\n      gt\n      iszero\n      tag_45\n      jumpi\n      tag_46\n      tag_47\n      jump\t// in\n    tag_46:\n    tag_45:\n      mload(0x40)\n      swap1\n      dup1\n      dup3\n      mstore\n      dup1\n      0x1f\n      add\n      not(0x1f)\n      and\n      0x20\n      add\n      dup3\n      add\n      0x40\n      mstore\n      dup1\n      iszero\n      tag_48\n      jumpi\n      dup2\n      0x20\n      add\n      0x01\n      dup3\n      mul\n      dup1\n      calldatasize\n      dup4\n      calldatacopy\n      dup1\n      dup3\n      add\n      swap2\n      pop\n      pop\n      swap1\n      pop\n    tag_48:\n      pop\n        /* \"@openzeppelin/contracts/utils/Strings.sol\":604:645  string memory buffer = new string(length) */\n      swap1\n      pop\n        /* \"@openzeppelin/contracts/utils/Strings.sol\":659:670  uint256 ptr */\n      0x00\n        /* \"@openzeppelin/contracts/utils/Strings.sol\":785:791  length */\n      dup3\n        /* \"@openzeppelin/contracts/utils/Strings.sol\":781:783  32 */\n      0x20\n        /* \"@openzeppelin/contracts/utils/Strings.sol\":777:792  add(32, length) */\n      add\n        /* \"@openzeppelin/contracts/utils/Strings.sol\":769:775  buffer */\n      dup3\n        /* \"@openzeppelin/contracts/utils/Strings.sol\":765:793  add(buffer, add(32, length)) */\n      add\n        /* \"@openzeppelin/contracts/utils/Strings.sol\":758:793  ptr := add(buffer, add(32, length)) */\n      swap1\n      pop\n        /* \"@openzeppelin/contracts/utils/Strings.sol\":820:1100  while (true) {... */\n    tag_49:\n        /* \"@openzeppelin/contracts/utils/Strings.sol\":827:831  true */\n      0x01\n        /* \"@openzeppelin/contracts/utils/Strings.sol\":820:1100  while (true) {... */\n      iszero\n      tag_50\n      jumpi\n        /* \"@openzeppelin/contracts/utils/Strings.sol\":851:856  ptr-- */\n      dup1\n      dup1\n      0x01\n      swap1\n      sub\n      swap2\n      pop\n      pop\n        /* \"@openzeppelin/contracts/utils/Strings.sol\":990:998  _SYMBOLS */\n      0x3031323334353637383961626364656600000000000000000000000000000000\n        /* \"@openzeppelin/contracts/utils/Strings.sol\":985:987  10 */\n      0x0a\n        /* \"@openzeppelin/contracts/utils/Strings.sol\":978:983  value */\n      dup7\n        /* \"@openzeppelin/contracts/utils/Strings.sol\":974:988  mod(value, 10) */\n      mod\n        /* \"@openzeppelin/contracts/utils/Strings.sol\":969:999  byte(mod(value, 10), _SYMBOLS) */\n      byte\n        /* \"@openzeppelin/contracts/utils/Strings.sol\":964:967  ptr */\n      dup2\n        /* \"@openzeppelin/contracts/utils/Strings.sol\":956:1000  mstore8(ptr, byte(mod(value, 10), _SYMBOLS)) */\n      mstore8\n        /* \"@openzeppelin/contracts/utils/Strings.sol\":1044:1046  10 */\n      0x0a\n        /* \"@openzeppelin/contracts/utils/Strings.sol\":1035:1046  value /= 10 */\n      dup6\n      dup2\n      tag_51\n      jumpi\n      tag_52\n      tag_53\n      jump\t// in\n    tag_52:\n    tag_51:\n      div\n      swap5\n      pop\n        /* \"@openzeppelin/contracts/utils/Strings.sol\":1077:1078  0 */\n      0x00\n        /* \"@openzeppelin/contracts/utils/Strings.sol\":1068:1073  value */\n      dup6\n        /* \"@openzeppelin/contracts/utils/Strings.sol\":1068:1078  value == 0 */\n      sub\n        /* \"@openzeppelin/contracts/utils/Strings.sol\":820:1100  while (true) {... */\n      tag_49\n        /* \"@openzeppelin/contracts/utils/Strings.sol\":1064:1085  if (value == 0) break */\n      jumpi\n        /* \"@openzeppelin/contracts/utils/Strings.sol\":820:1100  while (true) {... */\n    tag_50:\n        /* \"@openzeppelin/contracts/utils/Strings.sol\":1120:1126  buffer */\n      dup2\n        /* \"@openzeppelin/contracts/utils/Strings.sol\":1113:1126  return buffer */\n      swap4\n      pop\n      pop\n      pop\n      pop\n        /* \"@openzeppelin/contracts/utils/Strings.sol\":447:1143  function toString(uint256 value) internal pure returns (string memory) {... */\n      swap2\n      swap1\n      pop\n      jump\t// out\n        /* \"@openzeppelin/contracts/utils/math/Math.sol\":10139:11055  function log10(uint256 value) internal pure returns (uint256) {... */\n    tag_44:\n        /* \"@openzeppelin/contracts/utils/math/Math.sol\":10192:10199  uint256 */\n      0x00\n        /* \"@openzeppelin/contracts/utils/math/Math.sol\":10211:10225  uint256 result */\n      dup1\n        /* \"@openzeppelin/contracts/utils/math/Math.sol\":10228:10229  0 */\n      0x00\n        /* \"@openzeppelin/contracts/utils/math/Math.sol\":10211:10229  uint256 result = 0 */\n      swap1\n      pop\n        /* \"@openzeppelin/contracts/utils/math/Math.sol\":10276:10284  10 ** 64 */\n      0x184f03e93ff9f4daa797ed6e38ed64bf6a1f010000000000000000\n        /* \"@openzeppelin/contracts/utils/math/Math.sol\":10267:10272  value */\n      dup4\n        /* \"@openzeppelin/contracts/utils/math/Math.sol\":10267:10284  value >= 10 ** 64 */\n      lt\n        /* \"@openzeppelin/contracts/utils/math/Math.sol\":10263:10366  if (value >= 10 ** 64) {... */\n      tag_56\n      jumpi\n        /* \"@openzeppelin/contracts/utils/math/Math.sol\":10313:10321  10 ** 64 */\n      0x184f03e93ff9f4daa797ed6e38ed64bf6a1f010000000000000000\n        /* \"@openzeppelin/contracts/utils/math/Math.sol\":10304:10321  value /= 10 ** 64 */\n      dup4\n      dup2\n      tag_57\n      jumpi\n      tag_58\n      tag_53\n      jump\t// in\n    tag_58:\n    tag_57:\n      div\n      swap3\n      pop\n        /* \"@openzeppelin/contracts/utils/math/Math.sol\":10349:10351  64 */\n      0x40\n        /* \"@openzeppelin/contracts/utils/math/Math.sol\":10339:10351  result += 64 */\n      dup2\n      add\n      swap1\n      pop\n        /* \"@openzeppelin/contracts/utils/math/Math.sol\":10263:10366  if (value >= 10 ** 64) {... */\n    tag_56:\n        /* \"@openzeppelin/contracts/utils/math/Math.sol\":10392:10400  10 ** 32 */\n      0x04ee2d6d415b85acef8100000000\n        /* \"@openzeppelin/contracts/utils/math/Math.sol\":10383:10388  value */\n      dup4\n        /* \"@openzeppelin/contracts/utils/math/Math.sol\":10383:10400  value >= 10 ** 32 */\n      lt\n        /* \"@openzeppelin/contracts/utils/math/Math.sol\":10379:10482  if (value >= 10 ** 32) {... */\n      tag_59\n      jumpi\n        /* \"@openzeppelin/contracts/utils/math/Math.sol\":10429:10437  10 ** 32 */\n      0x04ee2d6d415b85acef8100000000\n        /* \"@openzeppelin/contracts/utils/math/Math.sol\":10420:10437  value /= 10 ** 32 */\n      dup4\n      dup2\n      tag_60\n      jumpi\n      tag_61\n      tag_53\n      jump\t// in\n    tag_61:\n    tag_60:\n      div\n      swap3\n      pop\n        /* \"@openzeppelin/contracts/utils/math/Math.sol\":10465:10467  32 */\n      0x20\n        /* \"@openzeppelin/contracts/utils/math/Math.sol\":10455:10467  result += 32 */\n      dup2\n      add\n      swap1\n      pop\n        /* \"@openzeppelin/contracts/utils/math/Math.sol\":10379:10482  if (value >= 10 ** 32) {... */\n    tag_59:\n        /* \"@openzeppelin/contracts/utils/math/Math.sol\":10508:10516  10 ** 16 */\n      0x2386f26fc10000\n        /* \"@openzeppelin/contracts/utils/math/Math.sol\":10499:10504  value */\n      dup4\n        /* \"@openzeppelin/contracts/utils/math/Math.sol\":10499:10516  value >= 10 ** 16 */\n      lt\n        /* \"@openzeppelin/contracts/utils/math/Math.sol\":10495:10598  if (value >= 10 ** 16) {... */\n      tag_62\n      jumpi\n        /* \"@openzeppelin/contracts/utils/math/Math.sol\":10545:10553  10 ** 16 */\n      0x2386f26fc10000\n        /* \"@openzeppelin/contracts/utils/math/Math.sol\":10536:10553  value /= 10 ** 16 */\n      dup4\n      dup2\n      tag_63\n      jumpi\n      tag_64\n      tag_53\n      jump\t// in\n    tag_64:\n    tag_63:\n      div\n      swap3\n      pop\n        /* \"@openzeppelin/contracts/utils/math/Math.sol\":10581:10583  16 */\n      0x10\n        /* \"@openzeppelin/contracts/utils/math/Math.sol\":10571:10583  result += 16 */\n      dup2\n      add\n      swap1\n      pop\n        /* \"@openzeppelin/contracts/utils/math/Math.sol\":10495:10598  if (value >= 10 ** 16) {... */\n    tag_62:\n        /* \"@openzeppelin/contracts/utils/math/Math.sol\":10624:10631  10 ** 8 */\n      0x05f5e100\n        /* \"@openzeppelin/contracts/utils/math/Math.sol\":10615:10620  value */\n      dup4\n        /* \"@openzeppelin/contracts/utils/math/Math.sol\":10615:10631  value >= 10 ** 8 */\n      lt\n        /* \"@openzeppelin/contracts/utils/math/Math.sol\":10611:10711  if (value >= 10 ** 8) {... */\n      tag_65\n      jumpi\n        /* \"@openzeppelin/contracts/utils/math/Math.sol\":10660:10667  10 ** 8 */\n      0x05f5e100\n        /* \"@openzeppelin/contracts/utils/math/Math.sol\":10651:10667  value /= 10 ** 8 */\n      dup4\n      dup2\n      tag_66\n      jumpi\n      tag_67\n      tag_53\n      jump\t// in\n    tag_67:\n    tag_66:\n      div\n      swap3\n      pop\n        /* \"@openzeppelin/contracts/utils/math/Math.sol\":10695:10696  8 */\n      0x08\n        /* \"@openzeppelin/contracts/utils/math/Math.sol\":10685:10696  result += 8 */\n      dup2\n      add\n      swap1\n      pop\n        /* \"@openzeppelin/contracts/utils/math/Math.sol\":10611:10711  if (value >= 10 ** 8) {... */\n    tag_65:\n        /* \"@openzeppelin/contracts/utils/math/Math.sol\":10737:10744  10 ** 4 */\n      0x2710\n        /* \"@openzeppelin/contracts/utils/math/Math.sol\":10728:10733  value */\n      dup4\n        /* \"@openzeppelin/contracts/utils/math/Math.sol\":10728:10744  value >= 10 ** 4 */\n      lt\n        /* \"@openzeppelin/contracts/utils/math/Math.sol\":10724:10824  if (value >= 10 ** 4) {... */\n      tag_68\n      jumpi\n        /* \"@openzeppelin/contracts/utils/math/Math.sol\":10773:10780  10 ** 4 */\n      0x2710\n        /* \"@openzeppelin/contracts/utils/math/Math.sol\":10764:10780  value /= 10 ** 4 */\n      dup4\n      dup2\n      tag_69\n      jumpi\n      tag_70\n      tag_53\n      jump\t// in\n    tag_70:\n    tag_69:\n      div\n      swap3\n      pop\n        /* \"@openzeppelin/contracts/utils/math/Math.sol\":10808:10809  4 */\n      0x04\n        /* \"@openzeppelin/contracts/utils/math/Math.sol\":10798:10809  result += 4 */\n      dup2\n      add\n      swap1\n      pop\n        /* \"@openzeppelin/contracts/utils/math/Math.sol\":10724:10824  if (value >= 10 ** 4) {... */\n    tag_68:\n        /* \"@openzeppelin/contracts/utils/math/Math.sol\":10850:10857  10 ** 2 */\n      0x64\n        /* \"@openzeppelin/contracts/utils/math/Math.sol\":10841:10846  value */\n      dup4\n        /* \"@openzeppelin/contracts/utils/math/Math.sol\":10841:10857  value >= 10 ** 2 */\n      lt\n        /* \"@openzeppelin/contracts/utils/math/Math.sol\":10837:10937  if (value >= 10 ** 2) {... */\n      tag_71\n      jumpi\n        /* \"@openzeppelin/contracts/utils/math/Math.sol\":10886:10893  10 ** 2 */\n      0x64\n        /* \"@openzeppelin/contracts/utils/math/Math.sol\":10877:10893  value /= 10 ** 2 */\n      dup4\n      dup2\n      tag_72\n      jumpi\n      tag_73\n      tag_53\n      jump\t// in\n    tag_73:\n    tag_72:\n      div\n      swap3\n      pop\n        /* \"@openzeppelin/contracts/utils/math/Math.sol\":10921:10922  2 */\n      0x02\n        /* \"@openzeppelin/contracts/utils/math/Math.sol\":10911:10922  result += 2 */\n      dup2\n      add\n      swap1\n      pop\n        /* \"@openzeppelin/contracts/utils/math/Math.sol\":10837:10937  if (value >= 10 ** 2) {... */\n    tag_71:\n        /* \"@openzeppelin/contracts/utils/math/Math.sol\":10963:10970  10 ** 1 */\n      0x0a\n        /* \"@openzeppelin/contracts/utils/math/Math.sol\":10954:10959  value */\n      dup4\n        /* \"@openzeppelin/contracts/utils/math/Math.sol\":10954:10970  value >= 10 ** 1 */\n      lt\n        /* \"@openzeppelin/contracts/utils/math/Math.sol\":10950:11016  if (value >= 10 ** 1) {... */\n      tag_74\n      jumpi\n        /* \"@openzeppelin/contracts/utils/math/Math.sol\":11000:11001  1 */\n      0x01\n        /* \"@openzeppelin/contracts/utils/math/Math.sol\":10990:11001  result += 1 */\n      dup2\n      add\n      swap1\n      pop\n        /* \"@openzeppelin/contracts/utils/math/Math.sol\":10950:11016  if (value >= 10 ** 1) {... */\n    tag_74:\n        /* \"@openzeppelin/contracts/utils/math/Math.sol\":11042:11048  result */\n      dup1\n        /* \"@openzeppelin/contracts/utils/math/Math.sol\":11035:11048  return result */\n      swap2\n      pop\n      pop\n        /* \"@openzeppelin/contracts/utils/math/Math.sol\":10139:11055  function log10(uint256 value) internal pure returns (uint256) {... */\n      swap2\n      swap1\n      pop\n      jump\t// out\n        /* \"#utility.yul\":7:82   */\n    tag_75:\n        /* \"#utility.yul\":40:46   */\n      0x00\n        /* \"#utility.yul\":73:75   */\n      0x40\n        /* \"#utility.yul\":67:76   */\n      mload\n        /* \"#utility.yul\":57:76   */\n      swap1\n      pop\n        /* \"#utility.yul\":7:82   */\n      swap1\n      jump\t// out\n        /* \"#utility.yul\":88:205   */\n    tag_76:\n        /* \"#utility.yul\":197:198   */\n      0x00\n        /* \"#utility.yul\":194:195   */\n      dup1\n        /* \"#utility.yul\":187:199   */\n      revert\n        /* \"#utility.yul\":211:328   */\n    tag_77:\n        /* \"#utility.yul\":320:321   */\n      0x00\n        /* \"#utility.yul\":317:318   */\n      dup1\n        /* \"#utility.yul\":310:322   */\n      revert\n        /* \"#utility.yul\":334:451   */\n    tag_78:\n        /* \"#utility.yul\":443:444   */\n      0x00\n        /* \"#utility.yul\":440:441   */\n      dup1\n        /* \"#utility.yul\":433:445   */\n      revert\n        /* \"#utility.yul\":457:574   */\n    tag_79:\n        /* \"#utility.yul\":566:567   */\n      0x00\n        /* \"#utility.yul\":563:564   */\n      dup1\n        /* \"#utility.yul\":556:568   */\n      revert\n        /* \"#utility.yul\":580:682   */\n    tag_80:\n        /* \"#utility.yul\":621:627   */\n      0x00\n        /* \"#utility.yul\":672:674   */\n      0x1f\n        /* \"#utility.yul\":668:675   */\n      not\n        /* \"#utility.yul\":663:665   */\n      0x1f\n        /* \"#utility.yul\":656:661   */\n      dup4\n        /* \"#utility.yul\":652:666   */\n      add\n        /* \"#utility.yul\":648:676   */\n      and\n        /* \"#utility.yul\":638:676   */\n      swap1\n      pop\n        /* \"#utility.yul\":580:682   */\n      swap2\n      swap1\n      pop\n      jump\t// out\n        /* \"#utility.yul\":688:868   */\n    tag_47:\n        /* \"#utility.yul\":736:813   */\n      0x4e487b7100000000000000000000000000000000000000000000000000000000\n        /* \"#utility.yul\":733:734   */\n      0x00\n        /* \"#utility.yul\":726:814   */\n      mstore\n        /* \"#utility.yul\":833:837   */\n      0x41\n        /* \"#utility.yul\":830:831   */\n      0x04\n        /* \"#utility.yul\":823:838   */\n      mstore\n        /* \"#utility.yul\":857:861   */\n      0x24\n        /* \"#utility.yul\":854:855   */\n      0x00\n        /* \"#utility.yul\":847:862   */\n      revert\n        /* \"#utility.yul\":874:1155   */\n    tag_81:\n        /* \"#utility.yul\":957:984   */\n      tag_124\n        /* \"#utility.yul\":979:983   */\n      dup3\n        /* \"#utility.yul\":957:984   */\n      tag_80\n      jump\t// in\n    tag_124:\n        /* \"#utility.yul\":949:955   */\n      dup2\n        /* \"#utility.yul\":945:985   */\n      add\n        /* \"#utility.yul\":1087:1093   */\n      dup2\n        /* \"#utility.yul\":1075:1085   */\n      dup2\n        /* \"#utility.yul\":1072:1094   */\n      lt\n        /* \"#utility.yul\":1051:1069   */\n      0xffffffffffffffff\n        /* \"#utility.yul\":1039:1049   */\n      dup3\n        /* \"#utility.yul\":1036:1070   */\n      gt\n        /* \"#utility.yul\":1033:1095   */\n      or\n        /* \"#utility.yul\":1030:1118   */\n      iszero\n      tag_125\n      jumpi\n        /* \"#utility.yul\":1098:1116   */\n      tag_126\n      tag_47\n      jump\t// in\n    tag_126:\n        /* \"#utility.yul\":1030:1118   */\n    tag_125:\n        /* \"#utility.yul\":1138:1148   */\n      dup1\n        /* \"#utility.yul\":1134:1136   */\n      0x40\n        /* \"#utility.yul\":1127:1149   */\n      mstore\n        /* \"#utility.yul\":917:1155   */\n      pop\n        /* \"#utility.yul\":874:1155   */\n      pop\n      pop\n      jump\t// out\n        /* \"#utility.yul\":1161:1290   */\n    tag_82:\n        /* \"#utility.yul\":1195:1201   */\n      0x00\n        /* \"#utility.yul\":1222:1242   */\n      tag_128\n      tag_75\n      jump\t// in\n    tag_128:\n        /* \"#utility.yul\":1212:1242   */\n      swap1\n      pop\n        /* \"#utility.yul\":1251:1284   */\n      tag_129\n        /* \"#utility.yul\":1279:1283   */\n      dup3\n        /* \"#utility.yul\":1271:1277   */\n      dup3\n        /* \"#utility.yul\":1251:1284   */\n      tag_81\n      jump\t// in\n    tag_129:\n        /* \"#utility.yul\":1161:1290   */\n      swap2\n      swap1\n      pop\n      jump\t// out\n        /* \"#utility.yul\":1296:1604   */\n    tag_83:\n        /* \"#utility.yul\":1358:1362   */\n      0x00\n        /* \"#utility.yul\":1448:1466   */\n      0xffffffffffffffff\n        /* \"#utility.yul\":1440:1446   */\n      dup3\n        /* \"#utility.yul\":1437:1467   */\n      gt\n        /* \"#utility.yul\":1434:1490   */\n      iszero\n      tag_131\n      jumpi\n        /* \"#utility.yul\":1470:1488   */\n      tag_132\n      tag_47\n      jump\t// in\n    tag_132:\n        /* \"#utility.yul\":1434:1490   */\n    tag_131:\n        /* \"#utility.yul\":1508:1537   */\n      tag_133\n        /* \"#utility.yul\":1530:1536   */\n      dup3\n        /* \"#utility.yul\":1508:1537   */\n      tag_80\n      jump\t// in\n    tag_133:\n        /* \"#utility.yul\":1500:1537   */\n      swap1\n      pop\n        /* \"#utility.yul\":1592:1596   */\n      0x20\n        /* \"#utility.yul\":1586:1590   */\n      dup2\n        /* \"#utility.yul\":1582:1597   */\n      add\n        /* \"#utility.yul\":1574:1597   */\n      swap1\n      pop\n        /* \"#utility.yul\":1296:1604   */\n      swap2\n      swap1\n      pop\n      jump\t// out\n        /* \"#utility.yul\":1610:1756   */\n    tag_84:\n        /* \"#utility.yul\":1707:1713   */\n      dup3\n        /* \"#utility.yul\":1702:1705   */\n      dup2\n        /* \"#utility.yul\":1697:1700   */\n      dup4\n        /* \"#utility.yul\":1684:1714   */\n      calldatacopy\n        /* \"#utility.yul\":1748:1749   */\n      0x00\n        /* \"#utility.yul\":1739:1745   */\n      dup4\n        /* \"#utility.yul\":1734:1737   */\n      dup4\n        /* \"#utility.yul\":1730:1746   */\n      add\n        /* \"#utility.yul\":1723:1750   */\n      mstore\n        /* \"#utility.yul\":1610:1756   */\n      pop\n      pop\n      pop\n      jump\t// out\n        /* \"#utility.yul\":1762:2187   */\n    tag_85:\n        /* \"#utility.yul\":1840:1845   */\n      0x00\n        /* \"#utility.yul\":1865:1931   */\n      tag_136\n        /* \"#utility.yul\":1881:1930   */\n      tag_137\n        /* \"#utility.yul\":1923:1929   */\n      dup5\n        /* \"#utility.yul\":1881:1930   */\n      tag_83\n      jump\t// in\n    tag_137:\n        /* \"#utility.yul\":1865:1931   */\n      tag_82\n      jump\t// in\n    tag_136:\n        /* \"#utility.yul\":1856:1931   */\n      swap1\n      pop\n        /* \"#utility.yul\":1954:1960   */\n      dup3\n        /* \"#utility.yul\":1947:1952   */\n      dup2\n        /* \"#utility.yul\":1940:1961   */\n      mstore\n        /* \"#utility.yul\":1992:1996   */\n      0x20\n        /* \"#utility.yul\":1985:1990   */\n      dup2\n        /* \"#utility.yul\":1981:1997   */\n      add\n        /* \"#utility.yul\":2030:2033   */\n      dup5\n        /* \"#utility.yul\":2021:2027   */\n      dup5\n        /* \"#utility.yul\":2016:2019   */\n      dup5\n        /* \"#utility.yul\":2012:2028   */\n      add\n        /* \"#utility.yul\":2009:2034   */\n      gt\n        /* \"#utility.yul\":2006:2118   */\n      iszero\n      tag_138\n      jumpi\n        /* \"#utility.yul\":2037:2116   */\n      tag_139\n      tag_79\n      jump\t// in\n    tag_139:\n        /* \"#utility.yul\":2006:2118   */\n    tag_138:\n        /* \"#utility.yul\":2127:2181   */\n      tag_140\n        /* \"#utility.yul\":2174:2180   */\n      dup5\n        /* \"#utility.yul\":2169:2172   */\n      dup3\n        /* \"#utility.yul\":2164:2167   */\n      dup6\n        /* \"#utility.yul\":2127:2181   */\n      tag_84\n      jump\t// in\n    tag_140:\n        /* \"#utility.yul\":1846:2187   */\n      pop\n        /* \"#utility.yul\":1762:2187   */\n      swap4\n      swap3\n      pop\n      pop\n      pop\n      jump\t// out\n        /* \"#utility.yul\":2207:2547   */\n    tag_86:\n        /* \"#utility.yul\":2263:2268   */\n      0x00\n        /* \"#utility.yul\":2312:2315   */\n      dup3\n        /* \"#utility.yul\":2305:2309   */\n      0x1f\n        /* \"#utility.yul\":2297:2303   */\n      dup4\n        /* \"#utility.yul\":2293:2310   */\n      add\n        /* \"#utility.yul\":2289:2316   */\n      slt\n        /* \"#utility.yul\":2279:2401   */\n      tag_142\n      jumpi\n        /* \"#utility.yul\":2320:2399   */\n      tag_143\n      tag_78\n      jump\t// in\n    tag_143:\n        /* \"#utility.yul\":2279:2401   */\n    tag_142:\n        /* \"#utility.yul\":2437:2443   */\n      dup2\n        /* \"#utility.yul\":2424:2444   */\n      calldataload\n        /* \"#utility.yul\":2462:2541   */\n      tag_144\n        /* \"#utility.yul\":2537:2540   */\n      dup5\n        /* \"#utility.yul\":2529:2535   */\n      dup3\n        /* \"#utility.yul\":2522:2526   */\n      0x20\n        /* \"#utility.yul\":2514:2520   */\n      dup7\n        /* \"#utility.yul\":2510:2527   */\n      add\n        /* \"#utility.yul\":2462:2541   */\n      tag_85\n      jump\t// in\n    tag_144:\n        /* \"#utility.yul\":2453:2541   */\n      swap2\n      pop\n        /* \"#utility.yul\":2269:2547   */\n      pop\n        /* \"#utility.yul\":2207:2547   */\n      swap3\n      swap2\n      pop\n      pop\n      jump\t// out\n        /* \"#utility.yul\":2553:2630   */\n    tag_87:\n        /* \"#utility.yul\":2590:2597   */\n      0x00\n        /* \"#utility.yul\":2619:2624   */\n      dup2\n        /* \"#utility.yul\":2608:2624   */\n      swap1\n      pop\n        /* \"#utility.yul\":2553:2630   */\n      swap2\n      swap1\n      pop\n      jump\t// out\n        /* \"#utility.yul\":2636:2758   */\n    tag_88:\n        /* \"#utility.yul\":2709:2733   */\n      tag_147\n        /* \"#utility.yul\":2727:2732   */\n      dup2\n        /* \"#utility.yul\":2709:2733   */\n      tag_87\n      jump\t// in\n    tag_147:\n        /* \"#utility.yul\":2702:2707   */\n      dup2\n        /* \"#utility.yul\":2699:2734   */\n      eq\n        /* \"#utility.yul\":2689:2752   */\n      tag_148\n      jumpi\n        /* \"#utility.yul\":2748:2749   */\n      0x00\n        /* \"#utility.yul\":2745:2746   */\n      dup1\n        /* \"#utility.yul\":2738:2750   */\n      revert\n        /* \"#utility.yul\":2689:2752   */\n    tag_148:\n        /* \"#utility.yul\":2636:2758   */\n      pop\n      jump\t// out\n        /* \"#utility.yul\":2764:2903   */\n    tag_89:\n        /* \"#utility.yul\":2810:2815   */\n      0x00\n        /* \"#utility.yul\":2848:2854   */\n      dup2\n        /* \"#utility.yul\":2835:2855   */\n      calldataload\n        /* \"#utility.yul\":2826:2855   */\n      swap1\n      pop\n        /* \"#utility.yul\":2864:2897   */\n      tag_150\n        /* \"#utility.yul\":2891:2896   */\n      dup2\n        /* \"#utility.yul\":2864:2897   */\n      tag_88\n      jump\t// in\n    tag_150:\n        /* \"#utility.yul\":2764:2903   */\n      swap3\n      swap2\n      pop\n      pop\n      jump\t// out\n        /* \"#utility.yul\":2909:3708   */\n    tag_8:\n        /* \"#utility.yul\":2996:3002   */\n      0x00\n        /* \"#utility.yul\":3004:3010   */\n      dup1\n        /* \"#utility.yul\":3012:3018   */\n      0x00\n        /* \"#utility.yul\":3061:3063   */\n      0x60\n        /* \"#utility.yul\":3049:3058   */\n      dup5\n        /* \"#utility.yul\":3040:3047   */\n      dup7\n        /* \"#utility.yul\":3036:3059   */\n      sub\n        /* \"#utility.yul\":3032:3064   */\n      slt\n        /* \"#utility.yul\":3029:3148   */\n      iszero\n      tag_152\n      jumpi\n        /* \"#utility.yul\":3067:3146   */\n      tag_153\n      tag_76\n      jump\t// in\n    tag_153:\n        /* \"#utility.yul\":3029:3148   */\n    tag_152:\n        /* \"#utility.yul\":3215:3216   */\n      0x00\n        /* \"#utility.yul\":3204:3213   */\n      dup5\n        /* \"#utility.yul\":3200:3217   */\n      add\n        /* \"#utility.yul\":3187:3218   */\n      calldataload\n        /* \"#utility.yul\":3245:3263   */\n      0xffffffffffffffff\n        /* \"#utility.yul\":3237:3243   */\n      dup2\n        /* \"#utility.yul\":3234:3264   */\n      gt\n        /* \"#utility.yul\":3231:3348   */\n      iszero\n      tag_154\n      jumpi\n        /* \"#utility.yul\":3267:3346   */\n      tag_155\n      tag_77\n      jump\t// in\n    tag_155:\n        /* \"#utility.yul\":3231:3348   */\n    tag_154:\n        /* \"#utility.yul\":3372:3435   */\n      tag_156\n        /* \"#utility.yul\":3427:3434   */\n      dup7\n        /* \"#utility.yul\":3418:3424   */\n      dup3\n        /* \"#utility.yul\":3407:3416   */\n      dup8\n        /* \"#utility.yul\":3403:3425   */\n      add\n        /* \"#utility.yul\":3372:3435   */\n      tag_86\n      jump\t// in\n    tag_156:\n        /* \"#utility.yul\":3362:3435   */\n      swap4\n      pop\n        /* \"#utility.yul\":3158:3445   */\n      pop\n        /* \"#utility.yul\":3484:3486   */\n      0x20\n        /* \"#utility.yul\":3510:3563   */\n      tag_157\n        /* \"#utility.yul\":3555:3562   */\n      dup7\n        /* \"#utility.yul\":3546:3552   */\n      dup3\n        /* \"#utility.yul\":3535:3544   */\n      dup8\n        /* \"#utility.yul\":3531:3553   */\n      add\n        /* \"#utility.yul\":3510:3563   */\n      tag_89\n      jump\t// in\n    tag_157:\n        /* \"#utility.yul\":3500:3563   */\n      swap3\n      pop\n        /* \"#utility.yul\":3455:3573   */\n      pop\n        /* \"#utility.yul\":3612:3614   */\n      0x40\n        /* \"#utility.yul\":3638:3691   */\n      tag_158\n        /* \"#utility.yul\":3683:3690   */\n      dup7\n        /* \"#utility.yul\":3674:3680   */\n      dup3\n        /* \"#utility.yul\":3663:3672   */\n      dup8\n        /* \"#utility.yul\":3659:3681   */\n      add\n        /* \"#utility.yul\":3638:3691   */\n      tag_89\n      jump\t// in\n    tag_158:\n        /* \"#utility.yul\":3628:3691   */\n      swap2\n      pop\n        /* \"#utility.yul\":3583:3701   */\n      pop\n        /* \"#utility.yul\":2909:3708   */\n      swap3\n      pop\n      swap3\n      pop\n      swap3\n      jump\t// out\n        /* \"#utility.yul\":3714:4188   */\n    tag_12:\n        /* \"#utility.yul\":3782:3788   */\n      0x00\n        /* \"#utility.yul\":3790:3796   */\n      dup1\n        /* \"#utility.yul\":3839:3841   */\n      0x40\n        /* \"#utility.yul\":3827:3836   */\n      dup4\n        /* \"#utility.yul\":3818:3825   */\n      dup6\n        /* \"#utility.yul\":3814:3837   */\n      sub\n        /* \"#utility.yul\":3810:3842   */\n      slt\n        /* \"#utility.yul\":3807:3926   */\n      iszero\n      tag_160\n      jumpi\n        /* \"#utility.yul\":3845:3924   */\n      tag_161\n      tag_76\n      jump\t// in\n    tag_161:\n        /* \"#utility.yul\":3807:3926   */\n    tag_160:\n        /* \"#utility.yul\":3965:3966   */\n      0x00\n        /* \"#utility.yul\":3990:4043   */\n      tag_162\n        /* \"#utility.yul\":4035:4042   */\n      dup6\n        /* \"#utility.yul\":4026:4032   */\n      dup3\n        /* \"#utility.yul\":4015:4024   */\n      dup7\n        /* \"#utility.yul\":4011:4033   */\n      add\n        /* \"#utility.yul\":3990:4043   */\n      tag_89\n      jump\t// in\n    tag_162:\n        /* \"#utility.yul\":3980:4043   */\n      swap3\n      pop\n        /* \"#utility.yul\":3936:4053   */\n      pop\n        /* \"#utility.yul\":4092:4094   */\n      0x20\n        /* \"#utility.yul\":4118:4171   */\n      tag_163\n        /* \"#utility.yul\":4163:4170   */\n      dup6\n        /* \"#utility.yul\":4154:4160   */\n      dup3\n        /* \"#utility.yul\":4143:4152   */\n      dup7\n        /* \"#utility.yul\":4139:4161   */\n      add\n        /* \"#utility.yul\":4118:4171   */\n      tag_89\n      jump\t// in\n    tag_163:\n        /* \"#utility.yul\":4108:4171   */\n      swap2\n      pop\n        /* \"#utility.yul\":4063:4181   */\n      pop\n        /* \"#utility.yul\":3714:4188   */\n      swap3\n      pop\n      swap3\n      swap1\n      pop\n      jump\t// out\n        /* \"#utility.yul\":4194:4293   */\n    tag_90:\n        /* \"#utility.yul\":4246:4252   */\n      0x00\n        /* \"#utility.yul\":4280:4285   */\n      dup2\n        /* \"#utility.yul\":4274:4286   */\n      mload\n        /* \"#utility.yul\":4264:4286   */\n      swap1\n      pop\n        /* \"#utility.yul\":4194:4293   */\n      swap2\n      swap1\n      pop\n      jump\t// out\n        /* \"#utility.yul\":4299:4468   */\n    tag_91:\n        /* \"#utility.yul\":4383:4394   */\n      0x00\n        /* \"#utility.yul\":4417:4423   */\n      dup3\n        /* \"#utility.yul\":4412:4415   */\n      dup3\n        /* \"#utility.yul\":4405:4424   */\n      mstore\n        /* \"#utility.yul\":4457:4461   */\n      0x20\n        /* \"#utility.yul\":4452:4455   */\n      dup3\n        /* \"#utility.yul\":4448:4462   */\n      add\n        /* \"#utility.yul\":4433:4462   */\n      swap1\n      pop\n        /* \"#utility.yul\":4299:4468   */\n      swap3\n      swap2\n      pop\n      pop\n      jump\t// out\n        /* \"#utility.yul\":4474:4720   */\n    tag_92:\n        /* \"#utility.yul\":4555:4556   */\n      0x00\n        /* \"#utility.yul\":4565:4678   */\n    tag_167:\n        /* \"#utility.yul\":4579:4585   */\n      dup4\n        /* \"#utility.yul\":4576:4577   */\n      dup2\n        /* \"#utility.yul\":4573:4586   */\n      lt\n        /* \"#utility.yul\":4565:4678   */\n      iszero\n      tag_169\n      jumpi\n        /* \"#utility.yul\":4664:4665   */\n      dup1\n        /* \"#utility.yul\":4659:4662   */\n      dup3\n        /* \"#utility.yul\":4655:4666   */\n      add\n        /* \"#utility.yul\":4649:4667   */\n      mload\n        /* \"#utility.yul\":4645:4646   */\n      dup2\n        /* \"#utility.yul\":4640:4643   */\n      dup5\n        /* \"#utility.yul\":4636:4647   */\n      add\n        /* \"#utility.yul\":4629:4668   */\n      mstore\n        /* \"#utility.yul\":4601:4603   */\n      0x20\n        /* \"#utility.yul\":4598:4599   */\n      dup2\n        /* \"#utility.yul\":4594:4604   */\n      add\n        /* \"#utility.yul\":4589:4604   */\n      swap1\n      pop\n        /* \"#utility.yul\":4565:4678   */\n      jump(tag_167)\n    tag_169:\n        /* \"#utility.yul\":4712:4713   */\n      0x00\n        /* \"#utility.yul\":4703:4709   */\n      dup5\n        /* \"#utility.yul\":4698:4701   */\n      dup5\n        /* \"#utility.yul\":4694:4710   */\n      add\n        /* \"#utility.yul\":4687:4714   */\n      mstore\n        /* \"#utility.yul\":4536:4720   */\n      pop\n        /* \"#utility.yul\":4474:4720   */\n      pop\n      pop\n      pop\n      jump\t// out\n        /* \"#utility.yul\":4726:5103   */\n    tag_93:\n        /* \"#utility.yul\":4814:4817   */\n      0x00\n        /* \"#utility.yul\":4842:4881   */\n      tag_171\n        /* \"#utility.yul\":4875:4880   */\n      dup3\n        /* \"#utility.yul\":4842:4881   */\n      tag_90\n      jump\t// in\n    tag_171:\n        /* \"#utility.yul\":4897:4968   */\n      tag_172\n        /* \"#utility.yul\":4961:4967   */\n      dup2\n        /* \"#utility.yul\":4956:4959   */\n      dup6\n        /* \"#utility.yul\":4897:4968   */\n      tag_91\n      jump\t// in\n    tag_172:\n        /* \"#utility.yul\":4890:4968   */\n      swap4\n      pop\n        /* \"#utility.yul\":4977:5042   */\n      tag_173\n        /* \"#utility.yul\":5035:5041   */\n      dup2\n        /* \"#utility.yul\":5030:5033   */\n      dup6\n        /* \"#utility.yul\":5023:5027   */\n      0x20\n        /* \"#utility.yul\":5016:5021   */\n      dup7\n        /* \"#utility.yul\":5012:5028   */\n      add\n        /* \"#utility.yul\":4977:5042   */\n      tag_92\n      jump\t// in\n    tag_173:\n        /* \"#utility.yul\":5067:5096   */\n      tag_174\n        /* \"#utility.yul\":5089:5095   */\n      dup2\n        /* \"#utility.yul\":5067:5096   */\n      tag_80\n      jump\t// in\n    tag_174:\n        /* \"#utility.yul\":5062:5065   */\n      dup5\n        /* \"#utility.yul\":5058:5097   */\n      add\n        /* \"#utility.yul\":5051:5097   */\n      swap2\n      pop\n        /* \"#utility.yul\":4818:5103   */\n      pop\n        /* \"#utility.yul\":4726:5103   */\n      swap3\n      swap2\n      pop\n      pop\n      jump\t// out\n        /* \"#utility.yul\":5109:5422   */\n    tag_15:\n        /* \"#utility.yul\":5222:5226   */\n      0x00\n        /* \"#utility.yul\":5260:5262   */\n      0x20\n        /* \"#utility.yul\":5249:5258   */\n      dup3\n        /* \"#utility.yul\":5245:5263   */\n      add\n        /* \"#utility.yul\":5237:5263   */\n      swap1\n      pop\n        /* \"#utility.yul\":5309:5318   */\n      dup2\n        /* \"#utility.yul\":5303:5307   */\n      dup2\n        /* \"#utility.yul\":5299:5319   */\n      sub\n        /* \"#utility.yul\":5295:5296   */\n      0x00\n        /* \"#utility.yul\":5284:5293   */\n      dup4\n        /* \"#utility.yul\":5280:5297   */\n      add\n        /* \"#utility.yul\":5273:5320   */\n      mstore\n        /* \"#utility.yul\":5337:5415   */\n      tag_176\n        /* \"#utility.yul\":5410:5414   */\n      dup2\n        /* \"#utility.yul\":5401:5407   */\n      dup5\n        /* \"#utility.yul\":5337:5415   */\n      tag_93\n      jump\t// in\n    tag_176:\n        /* \"#utility.yul\":5329:5415   */\n      swap1\n      pop\n        /* \"#utility.yul\":5109:5422   */\n      swap3\n      swap2\n      pop\n      pop\n      jump\t// out\n        /* \"#utility.yul\":5428:5757   */\n    tag_18:\n        /* \"#utility.yul\":5487:5493   */\n      0x00\n        /* \"#utility.yul\":5536:5538   */\n      0x20\n        /* \"#utility.yul\":5524:5533   */\n      dup3\n        /* \"#utility.yul\":5515:5522   */\n      dup5\n        /* \"#utility.yul\":5511:5534   */\n      sub\n        /* \"#utility.yul\":5507:5539   */\n      slt\n        /* \"#utility.yul\":5504:5623   */\n      iszero\n      tag_178\n      jumpi\n        /* \"#utility.yul\":5542:5621   */\n      tag_179\n      tag_76\n      jump\t// in\n    tag_179:\n        /* \"#utility.yul\":5504:5623   */\n    tag_178:\n        /* \"#utility.yul\":5662:5663   */\n      0x00\n        /* \"#utility.yul\":5687:5740   */\n      tag_180\n        /* \"#utility.yul\":5732:5739   */\n      dup5\n        /* \"#utility.yul\":5723:5729   */\n      dup3\n        /* \"#utility.yul\":5712:5721   */\n      dup6\n        /* \"#utility.yul\":5708:5730   */\n      add\n        /* \"#utility.yul\":5687:5740   */\n      tag_89\n      jump\t// in\n    tag_180:\n        /* \"#utility.yul\":5677:5740   */\n      swap2\n      pop\n        /* \"#utility.yul\":5633:5750   */\n      pop\n        /* \"#utility.yul\":5428:5757   */\n      swap3\n      swap2\n      pop\n      pop\n      jump\t// out\n        /* \"#utility.yul\":5763:5881   */\n    tag_94:\n        /* \"#utility.yul\":5850:5874   */\n      tag_182\n        /* \"#utility.yul\":5868:5873   */\n      dup2\n        /* \"#utility.yul\":5850:5874   */\n      tag_87\n      jump\t// in\n    tag_182:\n        /* \"#utility.yul\":5845:5848   */\n      dup3\n        /* \"#utility.yul\":5838:5875   */\n      mstore\n        /* \"#utility.yul\":5763:5881   */\n      pop\n      pop\n      jump\t// out\n        /* \"#utility.yul\":5887:6310   */\n    tag_21:\n        /* \"#utility.yul\":6028:6032   */\n      0x00\n        /* \"#utility.yul\":6066:6068   */\n      0x40\n        /* \"#utility.yul\":6055:6064   */\n      dup3\n        /* \"#utility.yul\":6051:6069   */\n      add\n        /* \"#utility.yul\":6043:6069   */\n      swap1\n      pop\n        /* \"#utility.yul\":6115:6124   */\n      dup2\n        /* \"#utility.yul\":6109:6113   */\n      dup2\n        /* \"#utility.yul\":6105:6125   */\n      sub\n        /* \"#utility.yul\":6101:6102   */\n      0x00\n        /* \"#utility.yul\":6090:6099   */\n      dup4\n        /* \"#utility.yul\":6086:6103   */\n      add\n        /* \"#utility.yul\":6079:6126   */\n      mstore\n        /* \"#utility.yul\":6143:6221   */\n      tag_184\n        /* \"#utility.yul\":6216:6220   */\n      dup2\n        /* \"#utility.yul\":6207:6213   */\n      dup6\n        /* \"#utility.yul\":6143:6221   */\n      tag_93\n      jump\t// in\n    tag_184:\n        /* \"#utility.yul\":6135:6221   */\n      swap1\n      pop\n        /* \"#utility.yul\":6231:6303   */\n      tag_185\n        /* \"#utility.yul\":6299:6301   */\n      0x20\n        /* \"#utility.yul\":6288:6297   */\n      dup4\n        /* \"#utility.yul\":6284:6302   */\n      add\n        /* \"#utility.yul\":6275:6281   */\n      dup5\n        /* \"#utility.yul\":6231:6303   */\n      tag_94\n      jump\t// in\n    tag_185:\n        /* \"#utility.yul\":5887:6310   */\n      swap4\n      swap3\n      pop\n      pop\n      pop\n      jump\t// out\n        /* \"#utility.yul\":6316:6496   */\n    tag_95:\n        /* \"#utility.yul\":6364:6441   */\n      0x4e487b7100000000000000000000000000000000000000000000000000000000\n        /* \"#utility.yul\":6361:6362   */\n      0x00\n        /* \"#utility.yul\":6354:6442   */\n      mstore\n        /* \"#utility.yul\":6461:6465   */\n      0x22\n        /* \"#utility.yul\":6458:6459   */\n      0x04\n        /* \"#utility.yul\":6451:6466   */\n      mstore\n        /* \"#utility.yul\":6485:6489   */\n      0x24\n        /* \"#utility.yul\":6482:6483   */\n      0x00\n        /* \"#utility.yul\":6475:6490   */\n      revert\n        /* \"#utility.yul\":6502:6822   */\n    tag_37:\n        /* \"#utility.yul\":6546:6552   */\n      0x00\n        /* \"#utility.yul\":6583:6584   */\n      0x02\n        /* \"#utility.yul\":6577:6581   */\n      dup3\n        /* \"#utility.yul\":6573:6585   */\n      div\n        /* \"#utility.yul\":6563:6585   */\n      swap1\n      pop\n        /* \"#utility.yul\":6630:6631   */\n      0x01\n        /* \"#utility.yul\":6624:6628   */\n      dup3\n        /* \"#utility.yul\":6620:6632   */\n      and\n        /* \"#utility.yul\":6651:6669   */\n      dup1\n        /* \"#utility.yul\":6641:6722   */\n      tag_188\n      jumpi\n        /* \"#utility.yul\":6707:6711   */\n      0x7f\n        /* \"#utility.yul\":6699:6705   */\n      dup3\n        /* \"#utility.yul\":6695:6712   */\n      and\n        /* \"#utility.yul\":6685:6712   */\n      swap2\n      pop\n        /* \"#utility.yul\":6641:6722   */\n    tag_188:\n        /* \"#utility.yul\":6769:6771   */\n      0x20\n        /* \"#utility.yul\":6761:6767   */\n      dup3\n        /* \"#utility.yul\":6758:6772   */\n      lt\n        /* \"#utility.yul\":6738:6756   */\n      dup2\n        /* \"#utility.yul\":6735:6773   */\n      sub\n        /* \"#utility.yul\":6732:6816   */\n      tag_189\n      jumpi\n        /* \"#utility.yul\":6788:6806   */\n      tag_190\n      tag_95\n      jump\t// in\n    tag_190:\n        /* \"#utility.yul\":6732:6816   */\n    tag_189:\n        /* \"#utility.yul\":6553:6822   */\n      pop\n        /* \"#utility.yul\":6502:6822   */\n      swap2\n      swap1\n      pop\n      jump\t// out\n        /* \"#utility.yul\":6828:6969   */\n    tag_96:\n        /* \"#utility.yul\":6877:6881   */\n      0x00\n        /* \"#utility.yul\":6900:6903   */\n      dup2\n        /* \"#utility.yul\":6892:6903   */\n      swap1\n      pop\n        /* \"#utility.yul\":6923:6926   */\n      dup2\n        /* \"#utility.yul\":6920:6921   */\n      0x00\n        /* \"#utility.yul\":6913:6927   */\n      mstore\n        /* \"#utility.yul\":6957:6961   */\n      0x20\n        /* \"#utility.yul\":6954:6955   */\n      0x00\n        /* \"#utility.yul\":6944:6962   */\n      keccak256\n        /* \"#utility.yul\":6936:6962   */\n      swap1\n      pop\n        /* \"#utility.yul\":6828:6969   */\n      swap2\n      swap1\n      pop\n      jump\t// out\n        /* \"#utility.yul\":6975:7068   */\n    tag_97:\n        /* \"#utility.yul\":7012:7018   */\n      0x00\n        /* \"#utility.yul\":7059:7061   */\n      0x20\n        /* \"#utility.yul\":7054:7056   */\n      0x1f\n        /* \"#utility.yul\":7047:7052   */\n      dup4\n        /* \"#utility.yul\":7043:7057   */\n      add\n        /* \"#utility.yul\":7039:7062   */\n      div\n        /* \"#utility.yul\":7029:7062   */\n      swap1\n      pop\n        /* \"#utility.yul\":6975:7068   */\n      swap2\n      swap1\n      pop\n      jump\t// out\n        /* \"#utility.yul\":7074:7181   */\n    tag_98:\n        /* \"#utility.yul\":7118:7126   */\n      0x00\n        /* \"#utility.yul\":7168:7173   */\n      dup3\n        /* \"#utility.yul\":7162:7166   */\n      dup3\n        /* \"#utility.yul\":7158:7174   */\n      shl\n        /* \"#utility.yul\":7137:7174   */\n      swap1\n      pop\n        /* \"#utility.yul\":7074:7181   */\n      swap3\n      swap2\n      pop\n      pop\n      jump\t// out\n        /* \"#utility.yul\":7187:7580   */\n    tag_99:\n        /* \"#utility.yul\":7256:7262   */\n      0x00\n        /* \"#utility.yul\":7306:7307   */\n      0x08\n        /* \"#utility.yul\":7294:7304   */\n      dup4\n        /* \"#utility.yul\":7290:7308   */\n      mul\n        /* \"#utility.yul\":7329:7426   */\n      tag_195\n        /* \"#utility.yul\":7359:7425   */\n      0xffffffffffffffffffffffffffffffffffffffffffffffffffffffffffffffff\n        /* \"#utility.yul\":7348:7357   */\n      dup3\n        /* \"#utility.yul\":7329:7426   */\n      tag_98\n      jump\t// in\n    tag_195:\n        /* \"#utility.yul\":7447:7486   */\n      tag_196\n        /* \"#utility.yul\":7477:7485   */\n      dup7\n        /* \"#utility.yul\":7466:7475   */\n      dup4\n        /* \"#utility.yul\":7447:7486   */\n      tag_98\n      jump\t// in\n    tag_196:\n        /* \"#utility.yul\":7435:7486   */\n      swap6\n      pop\n        /* \"#utility.yul\":7519:7523   */\n      dup1\n        /* \"#utility.yul\":7515:7524   */\n      not\n        /* \"#utility.yul\":7508:7513   */\n      dup5\n        /* \"#utility.yul\":7504:7525   */\n      and\n        /* \"#utility.yul\":7495:7525   */\n      swap4\n      pop\n        /* \"#utility.yul\":7568:7572   */\n      dup1\n        /* \"#utility.yul\":7558:7566   */\n      dup7\n        /* \"#utility.yul\":7554:7573   */\n      and\n        /* \"#utility.yul\":7547:7552   */\n      dup5\n        /* \"#utility.yul\":7544:7574   */\n      or\n        /* \"#utility.yul\":7534:7574   */\n      swap3\n      pop\n        /* \"#utility.yul\":7263:7580   */\n      pop\n      pop\n        /* \"#utility.yul\":7187:7580   */\n      swap4\n      swap3\n      pop\n      pop\n      pop\n      jump\t// out\n        /* \"#utility.yul\":7586:7646   */\n    tag_100:\n        /* \"#utility.yul\":7614:7617   */\n      0x00\n        /* \"#utility.yul\":7635:7640   */\n      dup2\n        /* \"#utility.yul\":7628:7640   */\n      swap1\n      pop\n        /* \"#utility.yul\":7586:7646   */\n      swap2\n      swap1\n      pop\n      jump\t// out\n        /* \"#utility.yul\":7652:7794   */\n    tag_101:\n        /* \"#utility.yul\":7702:7711   */\n      0x00\n        /* \"#utility.yul\":7735:7788   */\n      tag_199\n        /* \"#utility.yul\":7753:7787   */\n      tag_200\n        /* \"#utility.yul\":7762:7786   */\n      tag_201\n        /* \"#utility.yul\":7780:7785   */\n      dup5\n        /* \"#utility.yul\":7762:7786   */\n      tag_87\n      jump\t// in\n    tag_201:\n        /* \"#utility.yul\":7753:7787   */\n      tag_100\n      jump\t// in\n    tag_200:\n        /* \"#utility.yul\":7735:7788   */\n      tag_87\n      jump\t// in\n    tag_199:\n        /* \"#utility.yul\":7722:7788   */\n      swap1\n      pop\n        /* \"#utility.yul\":7652:7794   */\n      swap2\n      swap1\n      pop\n      jump\t// out\n        /* \"#utility.yul\":7800:7875   */\n    tag_102:\n        /* \"#utility.yul\":7843:7846   */\n      0x00\n        /* \"#utility.yul\":7864:7869   */\n      dup2\n        /* \"#utility.yul\":7857:7869   */\n      swap1\n      pop\n        /* \"#utility.yul\":7800:7875   */\n      swap2\n      swap1\n      pop\n      jump\t// out\n        /* \"#utility.yul\":7881:8150   */\n    tag_103:\n        /* \"#utility.yul\":7991:8030   */\n      tag_204\n        /* \"#utility.yul\":8022:8029   */\n      dup4\n        /* \"#utility.yul\":7991:8030   */\n      tag_101\n      jump\t// in\n    tag_204:\n        /* \"#utility.yul\":8052:8143   */\n      tag_205\n        /* \"#utility.yul\":8101:8142   */\n      tag_206\n        /* \"#utility.yul\":8125:8141   */\n      dup3\n        /* \"#utility.yul\":8101:8142   */\n      tag_102\n      jump\t// in\n    tag_206:\n        /* \"#utility.yul\":8093:8099   */\n      dup5\n        /* \"#utility.yul\":8086:8090   */\n      dup5\n        /* \"#utility.yul\":8080:8091   */\n      sload\n        /* \"#utility.yul\":8052:8143   */\n      tag_99\n      jump\t// in\n    tag_205:\n        /* \"#utility.yul\":8046:8050   */\n      dup3\n        /* \"#utility.yul\":8039:8144   */\n      sstore\n        /* \"#utility.yul\":7957:8150   */\n      pop\n        /* \"#utility.yul\":7881:8150   */\n      pop\n      pop\n      pop\n      jump\t// out\n        /* \"#utility.yul\":8156:8229   */\n    tag_104:\n        /* \"#utility.yul\":8201:8204   */\n      0x00\n        /* \"#utility.yul\":8156:8229   */\n      swap1\n      jump\t// out\n        /* \"#utility.yul\":8235:8424   */\n    tag_105:\n        /* \"#utility.yul\":8312:8344   */\n      tag_209\n      tag_104\n      jump\t// in\n    tag_209:\n        /* \"#utility.yul\":8353:8418   */\n      tag_210\n        /* \"#utility.yul\":8411:8417   */\n      dup2\n        /* \"#utility.yul\":8403:8409   */\n      dup5\n        /* \"#utility.yul\":8397:8401   */\n      dup5\n        /* \"#utility.yul\":8353:8418   */\n      tag_103\n      jump\t// in\n    tag_210:\n        /* \"#utility.yul\":8288:8424   */\n      pop\n        /* \"#utility.yul\":8235:8424   */\n      pop\n      pop\n      jump\t// out\n        /* \"#utility.yul\":8430:8616   */\n    tag_106:\n        /* \"#utility.yul\":8490:8610   */\n    tag_212:\n        /* \"#utility.yul\":8507:8510   */\n      dup2\n        /* \"#utility.yul\":8500:8505   */\n      dup2\n        /* \"#utility.yul\":8497:8511   */\n      lt\n        /* \"#utility.yul\":8490:8610   */\n      iszero\n      tag_214\n      jumpi\n        /* \"#utility.yul\":8561:8600   */\n      tag_215\n        /* \"#utility.yul\":8598:8599   */\n      0x00\n        /* \"#utility.yul\":8591:8596   */\n      dup3\n        /* \"#utility.yul\":8561:8600   */\n      tag_105\n      jump\t// in\n    tag_215:\n        /* \"#utility.yul\":8534:8535   */\n      0x01\n        /* \"#utility.yul\":8527:8532   */\n      dup2\n        /* \"#utility.yul\":8523:8536   */\n      add\n        /* \"#utility.yul\":8514:8536   */\n      swap1\n      pop\n        /* \"#utility.yul\":8490:8610   */\n      jump(tag_212)\n    tag_214:\n        /* \"#utility.yul\":8430:8616   */\n      pop\n      pop\n      jump\t// out\n        /* \"#utility.yul\":8622:9165   */\n    tag_107:\n        /* \"#utility.yul\":8723:8725   */\n      0x1f\n        /* \"#utility.yul\":8718:8721   */\n      dup3\n        /* \"#utility.yul\":8715:8726   */\n      gt\n        /* \"#utility.yul\":8712:9158   */\n      iszero\n      tag_217\n      jumpi\n        /* \"#utility.yul\":8757:8795   */\n      tag_218\n        /* \"#utility.yul\":8789:8794   */\n      dup2\n        /* \"#utility.yul\":8757:8795   */\n      tag_96\n      jump\t// in\n    tag_218:\n        /* \"#utility.yul\":8841:8870   */\n      tag_219\n        /* \"#utility.yul\":8859:8869   */\n      dup5\n        /* \"#utility.yul\":8841:8870   */\n      tag_97\n      jump\t// in\n    tag_219:\n        /* \"#utility.yul\":8831:8839   */\n      dup2\n        /* \"#utility.yul\":8827:8871   */\n      add\n        /* \"#utility.yul\":9024:9026   */\n      0x20\n        /* \"#utility.yul\":9012:9022   */\n      dup6\n        /* \"#utility.yul\":9009:9027   */\n      lt\n        /* \"#utility.yul\":9006:9055   */\n      iszero\n      tag_220\n      jumpi\n        /* \"#utility.yul\":9045:9053   */\n      dup2\n        /* \"#utility.yul\":9030:9053   */\n      swap1\n      pop\n        /* \"#utility.yul\":9006:9055   */\n    tag_220:\n        /* \"#utility.yul\":9068:9148   */\n      tag_221\n        /* \"#utility.yul\":9124:9146   */\n      tag_222\n        /* \"#utility.yul\":9142:9145   */\n      dup6\n        /* \"#utility.yul\":9124:9146   */\n      tag_97\n      jump\t// in\n    tag_222:\n        /* \"#utility.yul\":9114:9122   */\n      dup4\n        /* \"#utility.yul\":9110:9147   */\n      add\n        /* \"#utility.yul\":9097:9108   */\n      dup3\n        /* \"#utility.yul\":9068:9148   */\n      tag_106\n      jump\t// in\n    tag_221:\n        /* \"#utility.yul\":8727:9158   */\n      pop\n      pop\n        /* \"#utility.yul\":8712:9158   */\n    tag_217:\n        /* \"#utility.yul\":8622:9165   */\n      pop\n      pop\n      pop\n      jump\t// out\n        /* \"#utility.yul\":9171:9288   */\n    tag_108:\n        /* \"#utility.yul\":9225:9233   */\n      0x00\n        /* \"#utility.yul\":9275:9280   */\n      dup3\n        /* \"#utility.yul\":9269:9273   */\n      dup3\n        /* \"#utility.yul\":9265:9281   */\n      shr\n        /* \"#utility.yul\":9244:9281   */\n      swap1\n      pop\n        /* \"#utility.yul\":9171:9288   */\n      swap3\n      swap2\n      pop\n      pop\n      jump\t// out\n        /* \"#utility.yul\":9294:9463   */\n    tag_109:\n        /* \"#utility.yul\":9338:9344   */\n      0x00\n        /* \"#utility.yul\":9371:9422   */\n      tag_225\n        /* \"#utility.yul\":9419:9420   */\n      0x00\n        /* \"#utility.yul\":9415:9421   */\n      not\n        /* \"#utility.yul\":9407:9412   */\n      dup5\n        /* \"#utility.yul\":9404:9405   */\n      0x08\n        /* \"#utility.yul\":9400:9413   */\n      mul\n        /* \"#utility.yul\":9371:9422   */\n      tag_108\n      jump\t// in\n    tag_225:\n        /* \"#utility.yul\":9367:9423   */\n      not\n        /* \"#utility.yul\":9452:9456   */\n      dup1\n        /* \"#utility.yul\":9446:9450   */\n      dup4\n        /* \"#utility.yul\":9442:9457   */\n      and\n        /* \"#utility.yul\":9432:9457   */\n      swap2\n      pop\n        /* \"#utility.yul\":9345:9463   */\n      pop\n        /* \"#utility.yul\":9294:9463   */\n      swap3\n      swap2\n      pop\n      pop\n      jump\t// out\n        /* \"#utility.yul\":9468:9763   */\n    tag_110:\n        /* \"#utility.yul\":9544:9548   */\n      0x00\n        /* \"#utility.yul\":9690:9719   */\n      tag_227\n        /* \"#utility.yul\":9715:9718   */\n      dup4\n        /* \"#utility.yul\":9709:9713   */\n      dup4\n        /* \"#utility.yul\":9690:9719   */\n      tag_109\n      jump\t// in\n    tag_227:\n        /* \"#utility.yul\":9682:9719   */\n      swap2\n      pop\n        /* \"#utility.yul\":9752:9755   */\n      dup3\n        /* \"#utility.yul\":9749:9750   */\n      0x02\n        /* \"#utility.yul\":9745:9756   */\n      mul\n        /* \"#utility.yul\":9739:9743   */\n      dup3\n        /* \"#utility.yul\":9736:9757   */\n      or\n        /* \"#utility.yul\":9728:9757   */\n      swap1\n      pop\n        /* \"#utility.yul\":9468:9763   */\n      swap3\n      swap2\n      pop\n      pop\n      jump\t// out\n        /* \"#utility.yul\":9768:11163   */\n    tag_25:\n        /* \"#utility.yul\":9885:9922   */\n      tag_229\n        /* \"#utility.yul\":9918:9921   */\n      dup3\n        /* \"#utility.yul\":9885:9922   */\n      tag_90\n      jump\t// in\n    tag_229:\n        /* \"#utility.yul\":9987:10005   */\n      0xffffffffffffffff\n        /* \"#utility.yul\":9979:9985   */\n      dup2\n        /* \"#utility.yul\":9976:10006   */\n      gt\n        /* \"#utility.yul\":9973:10029   */\n      iszero\n      tag_230\n      jumpi\n        /* \"#utility.yul\":10009:10027   */\n      tag_231\n      tag_47\n      jump\t// in\n    tag_231:\n        /* \"#utility.yul\":9973:10029   */\n    tag_230:\n        /* \"#utility.yul\":10053:10091   */\n      tag_232\n        /* \"#utility.yul\":10085:10089   */\n      dup3\n        /* \"#utility.yul\":10079:10090   */\n      sload\n        /* \"#utility.yul\":10053:10091   */\n      tag_37\n      jump\t// in\n    tag_232:\n        /* \"#utility.yul\":10138:10205   */\n      tag_233\n        /* \"#utility.yul\":10198:10204   */\n      dup3\n        /* \"#utility.yul\":10190:10196   */\n      dup3\n        /* \"#utility.yul\":10184:10188   */\n      dup6\n        /* \"#utility.yul\":10138:10205   */\n      tag_107\n      jump\t// in\n    tag_233:\n        /* \"#utility.yul\":10232:10233   */\n      0x00\n        /* \"#utility.yul\":10256:10260   */\n      0x20\n        /* \"#utility.yul\":10243:10260   */\n      swap1\n      pop\n        /* \"#utility.yul\":10288:10290   */\n      0x1f\n        /* \"#utility.yul\":10280:10286   */\n      dup4\n        /* \"#utility.yul\":10277:10291   */\n      gt\n        /* \"#utility.yul\":10305:10306   */\n      0x01\n        /* \"#utility.yul\":10300:10918   */\n      dup2\n      eq\n      tag_235\n      jumpi\n        /* \"#utility.yul\":10962:10963   */\n      0x00\n        /* \"#utility.yul\":10979:10985   */\n      dup5\n        /* \"#utility.yul\":10976:11053   */\n      iszero\n      tag_236\n      jumpi\n        /* \"#utility.yul\":11028:11037   */\n      dup3\n        /* \"#utility.yul\":11023:11026   */\n      dup8\n        /* \"#utility.yul\":11019:11038   */\n      add\n        /* \"#utility.yul\":11013:11039   */\n      mload\n        /* \"#utility.yul\":11004:11039   */\n      swap1\n      pop\n        /* \"#utility.yul\":10976:11053   */\n    tag_236:\n        /* \"#utility.yul\":11079:11146   */\n      tag_237\n        /* \"#utility.yul\":11139:11145   */\n      dup6\n        /* \"#utility.yul\":11132:11137   */\n      dup3\n        /* \"#utility.yul\":11079:11146   */\n      tag_110\n      jump\t// in\n    tag_237:\n        /* \"#utility.yul\":11073:11077   */\n      dup7\n        /* \"#utility.yul\":11066:11147   */\n      sstore\n        /* \"#utility.yul\":10935:11157   */\n      pop\n        /* \"#utility.yul\":10270:11157   */\n      jump(tag_234)\n        /* \"#utility.yul\":10300:10918   */\n    tag_235:\n        /* \"#utility.yul\":10352:10356   */\n      0x1f\n        /* \"#utility.yul\":10348:10357   */\n      not\n        /* \"#utility.yul\":10340:10346   */\n      dup5\n        /* \"#utility.yul\":10336:10358   */\n      and\n        /* \"#utility.yul\":10386:10423   */\n      tag_238\n        /* \"#utility.yul\":10418:10422   */\n      dup7\n        /* \"#utility.yul\":10386:10423   */\n      tag_96\n      jump\t// in\n    tag_238:\n        /* \"#utility.yul\":10445:10446   */\n      0x00\n        /* \"#utility.yul\":10459:10667   */\n    tag_239:\n        /* \"#utility.yul\":10473:10480   */\n      dup3\n        /* \"#utility.yul\":10470:10471   */\n      dup2\n        /* \"#utility.yul\":10467:10481   */\n      lt\n        /* \"#utility.yul\":10459:10667   */\n      iszero\n      tag_241\n      jumpi\n        /* \"#utility.yul\":10552:10561   */\n      dup5\n        /* \"#utility.yul\":10547:10550   */\n      dup10\n        /* \"#utility.yul\":10543:10562   */\n      add\n        /* \"#utility.yul\":10537:10563   */\n      mload\n        /* \"#utility.yul\":10529:10535   */\n      dup3\n        /* \"#utility.yul\":10522:10564   */\n      sstore\n        /* \"#utility.yul\":10603:10604   */\n      0x01\n        /* \"#utility.yul\":10595:10601   */\n      dup3\n        /* \"#utility.yul\":10591:10605   */\n      add\n        /* \"#utility.yul\":10581:10605   */\n      swap2\n      pop\n        /* \"#utility.yul\":10650:10652   */\n      0x20\n        /* \"#utility.yul\":10639:10648   */\n      dup6\n        /* \"#utility.yul\":10635:10653   */\n      add\n        /* \"#utility.yul\":10622:10653   */\n      swap5\n      pop\n        /* \"#utility.yul\":10496:10500   */\n      0x20\n        /* \"#utility.yul\":10493:10494   */\n      dup2\n        /* \"#utility.yul\":10489:10501   */\n      add\n        /* \"#utility.yul\":10484:10501   */\n      swap1\n      pop\n        /* \"#utility.yul\":10459:10667   */\n      jump(tag_239)\n    tag_241:\n        /* \"#utility.yul\":10695:10701   */\n      dup7\n        /* \"#utility.yul\":10686:10693   */\n      dup4\n        /* \"#utility.yul\":10683:10702   */\n      lt\n        /* \"#utility.yul\":10680:10859   */\n      iszero\n      tag_242\n      jumpi\n        /* \"#utility.yul\":10753:10762   */\n      dup5\n        /* \"#utility.yul\":10748:10751   */\n      dup10\n        /* \"#utility.yul\":10744:10763   */\n      add\n        /* \"#utility.yul\":10738:10764   */\n      mload\n        /* \"#utility.yul\":10796:10844   */\n      tag_243\n        /* \"#utility.yul\":10838:10842   */\n      0x1f\n        /* \"#utility.yul\":10830:10836   */\n      dup10\n        /* \"#utility.yul\":10826:10843   */\n      and\n        /* \"#utility.yul\":10815:10824   */\n      dup3\n        /* \"#utility.yul\":10796:10844   */\n      tag_109\n      jump\t// in\n    tag_243:\n        /* \"#utility.yul\":10788:10794   */\n      dup4\n        /* \"#utility.yul\":10781:10845   */\n      sstore\n        /* \"#utility.yul\":10703:10859   */\n      pop\n        /* \"#utility.yul\":10680:10859   */\n    tag_242:\n        /* \"#utility.yul\":10905:10906   */\n      0x01\n        /* \"#utility.yul\":10901:10902   */\n      0x02\n        /* \"#utility.yul\":10893:10899   */\n      dup9\n        /* \"#utility.yul\":10889:10903   */\n      mul\n        /* \"#utility.yul\":10885:10907   */\n      add\n        /* \"#utility.yul\":10879:10883   */\n      dup9\n        /* \"#utility.yul\":10872:10908   */\n      sstore\n        /* \"#utility.yul\":10307:10918   */\n      pop\n      pop\n      pop\n        /* \"#utility.yul\":10270:11157   */\n    tag_234:\n      pop\n        /* \"#utility.yul\":9860:11163   */\n      pop\n      pop\n      pop\n        /* \"#utility.yul\":9768:11163   */\n      pop\n      pop\n      jump\t// out\n        /* \"#utility.yul\":11169:11349   */\n    tag_111:\n        /* \"#utility.yul\":11217:11294   */\n      0x4e487b7100000000000000000000000000000000000000000000000000000000\n        /* \"#utility.yul\":11214:11215   */\n      0x00\n        /* \"#utility.yul\":11207:11295   */\n      mstore\n        /* \"#utility.yul\":11314:11318   */\n      0x11\n        /* \"#utility.yul\":11311:11312   */\n      0x04\n        /* \"#utility.yul\":11304:11319   */\n      mstore\n        /* \"#utility.yul\":11338:11342   */\n      0x24\n        /* \"#utility.yul\":11335:11336   */\n      0x00\n        /* \"#utility.yul\":11328:11343   */\n      revert\n        /* \"#utility.yul\":11355:11588   */\n    tag_27:\n        /* \"#utility.yul\":11394:11397   */\n      0x00\n        /* \"#utility.yul\":11417:11441   */\n      tag_246\n        /* \"#utility.yul\":11435:11440   */\n      dup3\n        /* \"#utility.yul\":11417:11441   */\n      tag_87\n      jump\t// in\n    tag_246:\n        /* \"#utility.yul\":11408:11441   */\n      swap2\n      pop\n        /* \"#utility.yul\":11463:11529   */\n      0xffffffffffffffffffffffffffffffffffffffffffffffffffffffffffffffff\n        /* \"#utility.yul\":11456:11461   */\n      dup3\n        /* \"#utility.yul\":11453:11530   */\n      sub\n        /* \"#utility.yul\":11450:11553   */\n      tag_247\n      jumpi\n        /* \"#utility.yul\":11533:11551   */\n      tag_248\n      tag_111\n      jump\t// in\n    tag_248:\n        /* \"#utility.yul\":11450:11553   */\n    tag_247:\n        /* \"#utility.yul\":11580:11581   */\n      0x01\n        /* \"#utility.yul\":11573:11578   */\n      dup3\n        /* \"#utility.yul\":11569:11582   */\n      add\n        /* \"#utility.yul\":11562:11582   */\n      swap1\n      pop\n        /* \"#utility.yul\":11355:11588   */\n      swap2\n      swap1\n      pop\n      jump\t// out\n        /* \"#utility.yul\":11594:11788   */\n    tag_112:\n        /* \"#utility.yul\":11763:11781   */\n      0x5469636b65742070726963652069732000000000000000000000000000000000\n        /* \"#utility.yul\":11758:11761   */\n      dup2\n        /* \"#utility.yul\":11751:11782   */\n      mstore\n        /* \"#utility.yul\":11594:11788   */\n      pop\n      jump\t// out\n        /* \"#utility.yul\":11794:11942   */\n    tag_113:\n        /* \"#utility.yul\":11896:11907   */\n      0x00\n        /* \"#utility.yul\":11933:11936   */\n      dup2\n        /* \"#utility.yul\":11918:11936   */\n      swap1\n      pop\n        /* \"#utility.yul\":11794:11942   */\n      swap3\n      swap2\n      pop\n      pop\n      jump\t// out\n        /* \"#utility.yul\":11948:12338   */\n    tag_114:\n        /* \"#utility.yul\":12054:12057   */\n      0x00\n        /* \"#utility.yul\":12082:12121   */\n      tag_252\n        /* \"#utility.yul\":12115:12120   */\n      dup3\n        /* \"#utility.yul\":12082:12121   */\n      tag_90\n      jump\t// in\n    tag_252:\n        /* \"#utility.yul\":12137:12226   */\n      tag_253\n        /* \"#utility.yul\":12219:12225   */\n      dup2\n        /* \"#utility.yul\":12214:12217   */\n      dup6\n        /* \"#utility.yul\":12137:12226   */\n      tag_113\n      jump\t// in\n    tag_253:\n        /* \"#utility.yul\":12130:12226   */\n      swap4\n      pop\n        /* \"#utility.yul\":12235:12300   */\n      tag_254\n        /* \"#utility.yul\":12293:12299   */\n      dup2\n        /* \"#utility.yul\":12288:12291   */\n      dup6\n        /* \"#utility.yul\":12281:12285   */\n      0x20\n        /* \"#utility.yul\":12274:12279   */\n      dup7\n        /* \"#utility.yul\":12270:12286   */\n      add\n        /* \"#utility.yul\":12235:12300   */\n      tag_92\n      jump\t// in\n    tag_254:\n        /* \"#utility.yul\":12325:12331   */\n      dup1\n        /* \"#utility.yul\":12320:12323   */\n      dup5\n        /* \"#utility.yul\":12316:12332   */\n      add\n        /* \"#utility.yul\":12309:12332   */\n      swap2\n      pop\n        /* \"#utility.yul\":12058:12338   */\n      pop\n        /* \"#utility.yul\":11948:12338   */\n      swap3\n      swap2\n      pop\n      pop\n      jump\t// out\n        /* \"#utility.yul\":12344:12886   */\n    tag_34:\n        /* \"#utility.yul\":12567:12570   */\n      0x00\n        /* \"#utility.yul\":12582:12720   */\n      tag_256\n        /* \"#utility.yul\":12716:12719   */\n      dup3\n        /* \"#utility.yul\":12582:12720   */\n      tag_112\n      jump\t// in\n    tag_256:\n        /* \"#utility.yul\":12745:12747   */\n      0x10\n        /* \"#utility.yul\":12740:12743   */\n      dup3\n        /* \"#utility.yul\":12736:12748   */\n      add\n        /* \"#utility.yul\":12729:12748   */\n      swap2\n      pop\n        /* \"#utility.yul\":12765:12860   */\n      tag_257\n        /* \"#utility.yul\":12856:12859   */\n      dup3\n        /* \"#utility.yul\":12847:12853   */\n      dup5\n        /* \"#utility.yul\":12765:12860   */\n      tag_114\n      jump\t// in\n    tag_257:\n        /* \"#utility.yul\":12758:12860   */\n      swap2\n      pop\n        /* \"#utility.yul\":12877:12880   */\n      dup2\n        /* \"#utility.yul\":12870:12880   */\n      swap1\n      pop\n        /* \"#utility.yul\":12344:12886   */\n      swap3\n      swap2\n      pop\n      pop\n      jump\t// out\n        /* \"#utility.yul\":12892:13072   */\n    tag_53:\n        /* \"#utility.yul\":12940:13017   */\n      0x4e487b7100000000000000000000000000000000000000000000000000000000\n        /* \"#utility.yul\":12937:12938   */\n      0x00\n        /* \"#utility.yul\":12930:13018   */\n      mstore\n        /* \"#utility.yul\":13037:13041   */\n      0x12\n        /* \"#utility.yul\":13034:13035   */\n      0x04\n        /* \"#utility.yul\":13027:13042   */\n      mstore\n        /* \"#utility.yul\":13061:13065   */\n      0x24\n        /* \"#utility.yul\":13058:13059   */\n      0x00\n        /* \"#utility.yul\":13051:13066   */\n      revert\n\n    auxdata: 0xa264697066735822122039344f6800ea4d8b4b0a1d39e40368d1cd141d37ecf4a165a7f536b63740e38e64736f6c63430008120033\n}\n",
				"bytecode": {
					"linkReferences": {},
					"object": "608060405234801561001057600080fd5b50336000806101000a81548173ffffffffffffffffffffffffffffffffffffffff021916908373ffffffffffffffffffffffffffffffffffffffff160217905550610c96806100606000396000f3fe608060405234801561001057600080fd5b50600436106100415760003560e01c8063163f41af14610046578063a8445a1e14610062578063dc8903a814610092575b600080fd5b610060600480360381019061005b9190610698565b6100c3565b005b61007c60048036038101906100779190610707565b610195565b60405161008991906107c6565b60405180910390f35b6100ac60048036038101906100a791906107e8565b610221565b6040516100ba929190610824565b60405180910390f35b3373ffffffffffffffffffffffffffffffffffffffff1660008054906101000a900473ffffffffffffffffffffffffffffffffffffffff1673ffffffffffffffffffffffffffffffffffffffff161461011b57600080fd5b60405180606001604052808481526020018381526020018281525060026000600154815260200190815260200160002060008201518160000190816101609190610a60565b5060208201518160010155604082015181600201559050506001600081548092919061018b90610b61565b9190505550505050565b606060026000848152602001908152602001600020600201548210806101d05750600260008481526020019081526020016000206002015482115b1561021a576101f460026000858152602001908152602001600020600201546102e7565b6040516020016102049190610c0b565b604051602081830303815290604052905061021b565b5b92915050565b6060600060026000848152602001908152602001600020600001600260008581526020019081526020016000206002015481805461025e90610883565b80601f016020809104026020016040519081016040528092919081815260200182805461028a90610883565b80156102d75780601f106102ac576101008083540402835291602001916102d7565b820191906000526020600020905b8154815290600101906020018083116102ba57829003601f168201915b5050505050915091509150915091565b6060600060016102f6846103b5565b01905060008167ffffffffffffffff81111561031557610314610537565b5b6040519080825280601f01601f1916602001820160405280156103475781602001600182028036833780820191505090505b509050600082602001820190505b6001156103aa578080600190039150507f3031323334353637383961626364656600000000000000000000000000000000600a86061a8153600a858161039e5761039d610c31565b5b04945060008503610355575b819350505050919050565b600080600090507a184f03e93ff9f4daa797ed6e38ed64bf6a1f0100000000000000008310610413577a184f03e93ff9f4daa797ed6e38ed64bf6a1f010000000000000000838161040957610408610c31565b5b0492506040810190505b6d04ee2d6d415b85acef81000000008310610450576d04ee2d6d415b85acef8100000000838161044657610445610c31565b5b0492506020810190505b662386f26fc10000831061047f57662386f26fc10000838161047557610474610c31565b5b0492506010810190505b6305f5e10083106104a8576305f5e100838161049e5761049d610c31565b5b0492506008810190505b61271083106104cd5761271083816104c3576104c2610c31565b5b0492506004810190505b606483106104f057606483816104e6576104e5610c31565b5b0492506002810190505b600a83106104ff576001810190505b80915050919050565b6000604051905090565b600080fd5b600080fd5b600080fd5b600080fd5b6000601f19601f8301169050919050565b7f4e487b7100000000000000000000000000000000000000000000000000000000600052604160045260246000fd5b61056f82610526565b810181811067ffffffffffffffff8211171561058e5761058d610537565b5b80604052505050565b60006105a1610508565b90506105ad8282610566565b919050565b600067ffffffffffffffff8211156105cd576105cc610537565b5b6105d682610526565b9050602081019050919050565b82818337600083830152505050565b6000610605610600846105b2565b610597565b90508281526020810184848401111561062157610620610521565b5b61062c8482856105e3565b509392505050565b600082601f8301126106495761064861051c565b5b81356106598482602086016105f2565b91505092915050565b6000819050919050565b61067581610662565b811461068057600080fd5b50565b6000813590506106928161066c565b92915050565b6000806000606084860312156106b1576106b0610512565b5b600084013567ffffffffffffffff8111156106cf576106ce610517565b5b6106db86828701610634565b93505060206106ec86828701610683565b92505060406106fd86828701610683565b9150509250925092565b6000806040838503121561071e5761071d610512565b5b600061072c85828601610683565b925050602061073d85828601610683565b9150509250929050565b600081519050919050565b600082825260208201905092915050565b60005b83811015610781578082015181840152602081019050610766565b60008484015250505050565b600061079882610747565b6107a28185610752565b93506107b2818560208601610763565b6107bb81610526565b840191505092915050565b600060208201905081810360008301526107e0818461078d565b905092915050565b6000602082840312156107fe576107fd610512565b5b600061080c84828501610683565b91505092915050565b61081e81610662565b82525050565b6000604082019050818103600083015261083e818561078d565b905061084d6020830184610815565b9392505050565b7f4e487b7100000000000000000000000000000000000000000000000000000000600052602260045260246000fd5b6000600282049050600182168061089b57607f821691505b6020821081036108ae576108ad610854565b5b50919050565b60008190508160005260206000209050919050565b60006020601f8301049050919050565b600082821b905092915050565b6000600883026109167fffffffffffffffffffffffffffffffffffffffffffffffffffffffffffffffff826108d9565b61092086836108d9565b95508019841693508086168417925050509392505050565b6000819050919050565b600061095d61095861095384610662565b610938565b610662565b9050919050565b6000819050919050565b61097783610942565b61098b61098382610964565b8484546108e6565b825550505050565b600090565b6109a0610993565b6109ab81848461096e565b505050565b5b818110156109cf576109c4600082610998565b6001810190506109b1565b5050565b601f821115610a14576109e5816108b4565b6109ee846108c9565b810160208510156109fd578190505b610a11610a09856108c9565b8301826109b0565b50505b505050565b600082821c905092915050565b6000610a3760001984600802610a19565b1980831691505092915050565b6000610a508383610a26565b9150826002028217905092915050565b610a6982610747565b67ffffffffffffffff811115610a8257610a81610537565b5b610a8c8254610883565b610a978282856109d3565b600060209050601f831160018114610aca5760008415610ab8578287015190505b610ac28582610a44565b865550610b2a565b601f198416610ad8866108b4565b60005b82811015610b0057848901518255600182019150602085019450602081019050610adb565b86831015610b1d5784890151610b19601f891682610a26565b8355505b6001600288020188555050505b505050505050565b7f4e487b7100000000000000000000000000000000000000000000000000000000600052601160045260246000fd5b6000610b6c82610662565b91507fffffffffffffffffffffffffffffffffffffffffffffffffffffffffffffffff8203610b9e57610b9d610b32565b5b600182019050919050565b7f5469636b65742070726963652069732000000000000000000000000000000000815250565b600081905092915050565b6000610be582610747565b610bef8185610bcf565b9350610bff818560208601610763565b80840191505092915050565b6000610c1682610ba9565b601082019150610c268284610bda565b915081905092915050565b7f4e487b7100000000000000000000000000000000000000000000000000000000600052601260045260246000fdfea264697066735822122039344f6800ea4d8b4b0a1d39e40368d1cd141d37ecf4a165a7f536b63740e38e64736f6c63430008120033",
					"opcodes": "PUSH1 0x80 PUSH1 0x40 MSTORE CALLVALUE DUP1 ISZERO PUSH2 0x10 JUMPI PUSH1 0x0 DUP1 REVERT JUMPDEST POP CALLER PUSH1 0x0 DUP1 PUSH2 0x100 EXP DUP2 SLOAD DUP2 PUSH20 0xFFFFFFFFFFFFFFFFFFFFFFFFFFFFFFFFFFFFFFFF MUL NOT AND SWAP1 DUP4 PUSH20 0xFFFFFFFFFFFFFFFFFFFFFFFFFFFFFFFFFFFFFFFF AND MUL OR SWAP1 SSTORE POP PUSH2 0xC96 DUP1 PUSH2 0x60 PUSH1 0x0 CODECOPY PUSH1 0x0 RETURN INVALID PUSH1 0x80 PUSH1 0x40 MSTORE CALLVALUE DUP1 ISZERO PUSH2 0x10 JUMPI PUSH1 0x0 DUP1 REVERT JUMPDEST POP PUSH1 0x4 CALLDATASIZE LT PUSH2 0x41 JUMPI PUSH1 0x0 CALLDATALOAD PUSH1 0xE0 SHR DUP1 PUSH4 0x163F41AF EQ PUSH2 0x46 JUMPI DUP1 PUSH4 0xA8445A1E EQ PUSH2 0x62 JUMPI DUP1 PUSH4 0xDC8903A8 EQ PUSH2 0x92 JUMPI JUMPDEST PUSH1 0x0 DUP1 REVERT JUMPDEST PUSH2 0x60 PUSH1 0x4 DUP1 CALLDATASIZE SUB DUP2 ADD SWAP1 PUSH2 0x5B SWAP2 SWAP1 PUSH2 0x698 JUMP JUMPDEST PUSH2 0xC3 JUMP JUMPDEST STOP JUMPDEST PUSH2 0x7C PUSH1 0x4 DUP1 CALLDATASIZE SUB DUP2 ADD SWAP1 PUSH2 0x77 SWAP2 SWAP1 PUSH2 0x707 JUMP JUMPDEST PUSH2 0x195 JUMP JUMPDEST PUSH1 0x40 MLOAD PUSH2 0x89 SWAP2 SWAP1 PUSH2 0x7C6 JUMP JUMPDEST PUSH1 0x40 MLOAD DUP1 SWAP2 SUB SWAP1 RETURN JUMPDEST PUSH2 0xAC PUSH1 0x4 DUP1 CALLDATASIZE SUB DUP2 ADD SWAP1 PUSH2 0xA7 SWAP2 SWAP1 PUSH2 0x7E8 JUMP JUMPDEST PUSH2 0x221 JUMP JUMPDEST PUSH1 0x40 MLOAD PUSH2 0xBA SWAP3 SWAP2 SWAP1 PUSH2 0x824 JUMP JUMPDEST PUSH1 0x40 MLOAD DUP1 SWAP2 SUB SWAP1 RETURN JUMPDEST CALLER PUSH20 0xFFFFFFFFFFFFFFFFFFFFFFFFFFFFFFFFFFFFFFFF AND PUSH1 0x0 DUP1 SLOAD SWAP1 PUSH2 0x100 EXP SWAP1 DIV PUSH20 0xFFFFFFFFFFFFFFFFFFFFFFFFFFFFFFFFFFFFFFFF AND PUSH20 0xFFFFFFFFFFFFFFFFFFFFFFFFFFFFFFFFFFFFFFFF AND EQ PUSH2 0x11B JUMPI PUSH1 0x0 DUP1 REVERT JUMPDEST PUSH1 0x40 MLOAD DUP1 PUSH1 0x60 ADD PUSH1 0x40 MSTORE DUP1 DUP5 DUP2 MSTORE PUSH1 0x20 ADD DUP4 DUP2 MSTORE PUSH1 0x20 ADD DUP3 DUP2 MSTORE POP PUSH1 0x2 PUSH1 0x0 PUSH1 0x1 SLOAD DUP2 MSTORE PUSH1 0x20 ADD SWAP1 DUP2 MSTORE PUSH1 0x20 ADD PUSH1 0x0 KECCAK256 PUSH1 0x0 DUP3 ADD MLOAD DUP2 PUSH1 0x0 ADD SWAP1 DUP2 PUSH2 0x160 SWAP2 SWAP1 PUSH2 0xA60 JUMP JUMPDEST POP PUSH1 0x20 DUP3 ADD MLOAD DUP2 PUSH1 0x1 ADD SSTORE PUSH1 0x40 DUP3 ADD MLOAD DUP2 PUSH1 0x2 ADD SSTORE SWAP1 POP POP PUSH1 0x1 PUSH1 0x0 DUP2 SLOAD DUP1 SWAP3 SWAP2 SWAP1 PUSH2 0x18B SWAP1 PUSH2 0xB61 JUMP JUMPDEST SWAP2 SWAP1 POP SSTORE POP POP POP POP JUMP JUMPDEST PUSH1 0x60 PUSH1 0x2 PUSH1 0x0 DUP5 DUP2 MSTORE PUSH1 0x20 ADD SWAP1 DUP2 MSTORE PUSH1 0x20 ADD PUSH1 0x0 KECCAK256 PUSH1 0x2 ADD SLOAD DUP3 LT DUP1 PUSH2 0x1D0 JUMPI POP PUSH1 0x2 PUSH1 0x0 DUP5 DUP2 MSTORE PUSH1 0x20 ADD SWAP1 DUP2 MSTORE PUSH1 0x20 ADD PUSH1 0x0 KECCAK256 PUSH1 0x2 ADD SLOAD DUP3 GT JUMPDEST ISZERO PUSH2 0x21A JUMPI PUSH2 0x1F4 PUSH1 0x2 PUSH1 0x0 DUP6 DUP2 MSTORE PUSH1 0x20 ADD SWAP1 DUP2 MSTORE PUSH1 0x20 ADD PUSH1 0x0 KECCAK256 PUSH1 0x2 ADD SLOAD PUSH2 0x2E7 JUMP JUMPDEST PUSH1 0x40 MLOAD PUSH1 0x20 ADD PUSH2 0x204 SWAP2 SWAP1 PUSH2 0xC0B JUMP JUMPDEST PUSH1 0x40 MLOAD PUSH1 0x20 DUP2 DUP4 SUB SUB DUP2 MSTORE SWAP1 PUSH1 0x40 MSTORE SWAP1 POP PUSH2 0x21B JUMP JUMPDEST JUMPDEST SWAP3 SWAP2 POP POP JUMP JUMPDEST PUSH1 0x60 PUSH1 0x0 PUSH1 0x2 PUSH1 0x0 DUP5 DUP2 MSTORE PUSH1 0x20 ADD SWAP1 DUP2 MSTORE PUSH1 0x20 ADD PUSH1 0x0 KECCAK256 PUSH1 0x0 ADD PUSH1 0x2 PUSH1 0x0 DUP6 DUP2 MSTORE PUSH1 0x20 ADD SWAP1 DUP2 MSTORE PUSH1 0x20 ADD PUSH1 0x0 KECCAK256 PUSH1 0x2 ADD SLOAD DUP2 DUP1 SLOAD PUSH2 0x25E SWAP1 PUSH2 0x883 JUMP JUMPDEST DUP1 PUSH1 0x1F ADD PUSH1 0x20 DUP1 SWAP2 DIV MUL PUSH1 0x20 ADD PUSH1 0x40 MLOAD SWAP1 DUP2 ADD PUSH1 0x40 MSTORE DUP1 SWAP3 SWAP2 SWAP1 DUP2 DUP2 MSTORE PUSH1 0x20 ADD DUP3 DUP1 SLOAD PUSH2 0x28A SWAP1 PUSH2 0x883 JUMP JUMPDEST DUP1 ISZERO PUSH2 0x2D7 JUMPI DUP1 PUSH1 0x1F LT PUSH2 0x2AC JUMPI PUSH2 0x100 DUP1 DUP4 SLOAD DIV MUL DUP4 MSTORE SWAP2 PUSH1 0x20 ADD SWAP2 PUSH2 0x2D7 JUMP JUMPDEST DUP3 ADD SWAP2 SWAP1 PUSH1 0x0 MSTORE PUSH1 0x20 PUSH1 0x0 KECCAK256 SWAP1 JUMPDEST DUP2 SLOAD DUP2 MSTORE SWAP1 PUSH1 0x1 ADD SWAP1 PUSH1 0x20 ADD DUP1 DUP4 GT PUSH2 0x2BA JUMPI DUP3 SWAP1 SUB PUSH1 0x1F AND DUP3 ADD SWAP2 JUMPDEST POP POP POP POP POP SWAP2 POP SWAP2 POP SWAP2 POP SWAP2 POP SWAP2 JUMP JUMPDEST PUSH1 0x60 PUSH1 0x0 PUSH1 0x1 PUSH2 0x2F6 DUP5 PUSH2 0x3B5 JUMP JUMPDEST ADD SWAP1 POP PUSH1 0x0 DUP2 PUSH8 0xFFFFFFFFFFFFFFFF DUP2 GT ISZERO PUSH2 0x315 JUMPI PUSH2 0x314 PUSH2 0x537 JUMP JUMPDEST JUMPDEST PUSH1 0x40 MLOAD SWAP1 DUP1 DUP3 MSTORE DUP1 PUSH1 0x1F ADD PUSH1 0x1F NOT AND PUSH1 0x20 ADD DUP3 ADD PUSH1 0x40 MSTORE DUP1 ISZERO PUSH2 0x347 JUMPI DUP2 PUSH1 0x20 ADD PUSH1 0x1 DUP3 MUL DUP1 CALLDATASIZE DUP4 CALLDATACOPY DUP1 DUP3 ADD SWAP2 POP POP SWAP1 POP JUMPDEST POP SWAP1 POP PUSH1 0x0 DUP3 PUSH1 0x20 ADD DUP3 ADD SWAP1 POP JUMPDEST PUSH1 0x1 ISZERO PUSH2 0x3AA JUMPI DUP1 DUP1 PUSH1 0x1 SWAP1 SUB SWAP2 POP POP PUSH32 0x3031323334353637383961626364656600000000000000000000000000000000 PUSH1 0xA DUP7 MOD BYTE DUP2 MSTORE8 PUSH1 0xA DUP6 DUP2 PUSH2 0x39E JUMPI PUSH2 0x39D PUSH2 0xC31 JUMP JUMPDEST JUMPDEST DIV SWAP5 POP PUSH1 0x0 DUP6 SUB PUSH2 0x355 JUMPI JUMPDEST DUP2 SWAP4 POP POP POP POP SWAP2 SWAP1 POP JUMP JUMPDEST PUSH1 0x0 DUP1 PUSH1 0x0 SWAP1 POP PUSH27 0x184F03E93FF9F4DAA797ED6E38ED64BF6A1F010000000000000000 DUP4 LT PUSH2 0x413 JUMPI PUSH27 0x184F03E93FF9F4DAA797ED6E38ED64BF6A1F010000000000000000 DUP4 DUP2 PUSH2 0x409 JUMPI PUSH2 0x408 PUSH2 0xC31 JUMP JUMPDEST JUMPDEST DIV SWAP3 POP PUSH1 0x40 DUP2 ADD SWAP1 POP JUMPDEST PUSH14 0x4EE2D6D415B85ACEF8100000000 DUP4 LT PUSH2 0x450 JUMPI PUSH14 0x4EE2D6D415B85ACEF8100000000 DUP4 DUP2 PUSH2 0x446 JUMPI PUSH2 0x445 PUSH2 0xC31 JUMP JUMPDEST JUMPDEST DIV SWAP3 POP PUSH1 0x20 DUP2 ADD SWAP1 POP JUMPDEST PUSH7 0x2386F26FC10000 DUP4 LT PUSH2 0x47F JUMPI PUSH7 0x2386F26FC10000 DUP4 DUP2 PUSH2 0x475 JUMPI PUSH2 0x474 PUSH2 0xC31 JUMP JUMPDEST JUMPDEST DIV SWAP3 POP PUSH1 0x10 DUP2 ADD SWAP1 POP JUMPDEST PUSH4 0x5F5E100 DUP4 LT PUSH2 0x4A8 JUMPI PUSH4 0x5F5E100 DUP4 DUP2 PUSH2 0x49E JUMPI PUSH2 0x49D PUSH2 0xC31 JUMP JUMPDEST JUMPDEST DIV SWAP3 POP PUSH1 0x8 DUP2 ADD SWAP1 POP JUMPDEST PUSH2 0x2710 DUP4 LT PUSH2 0x4CD JUMPI PUSH2 0x2710 DUP4 DUP2 PUSH2 0x4C3 JUMPI PUSH2 0x4C2 PUSH2 0xC31 JUMP JUMPDEST JUMPDEST DIV SWAP3 POP PUSH1 0x4 DUP2 ADD SWAP1 POP JUMPDEST PUSH1 0x64 DUP4 LT PUSH2 0x4F0 JUMPI PUSH1 0x64 DUP4 DUP2 PUSH2 0x4E6 JUMPI PUSH2 0x4E5 PUSH2 0xC31 JUMP JUMPDEST JUMPDEST DIV SWAP3 POP PUSH1 0x2 DUP2 ADD SWAP1 POP JUMPDEST PUSH1 0xA DUP4 LT PUSH2 0x4FF JUMPI PUSH1 0x1 DUP2 ADD SWAP1 POP JUMPDEST DUP1 SWAP2 POP POP SWAP2 SWAP1 POP JUMP JUMPDEST PUSH1 0x0 PUSH1 0x40 MLOAD SWAP1 POP SWAP1 JUMP JUMPDEST PUSH1 0x0 DUP1 REVERT JUMPDEST PUSH1 0x0 DUP1 REVERT JUMPDEST PUSH1 0x0 DUP1 REVERT JUMPDEST PUSH1 0x0 DUP1 REVERT JUMPDEST PUSH1 0x0 PUSH1 0x1F NOT PUSH1 0x1F DUP4 ADD AND SWAP1 POP SWAP2 SWAP1 POP JUMP JUMPDEST PUSH32 0x4E487B7100000000000000000000000000000000000000000000000000000000 PUSH1 0x0 MSTORE PUSH1 0x41 PUSH1 0x4 MSTORE PUSH1 0x24 PUSH1 0x0 REVERT JUMPDEST PUSH2 0x56F DUP3 PUSH2 0x526 JUMP JUMPDEST DUP2 ADD DUP2 DUP2 LT PUSH8 0xFFFFFFFFFFFFFFFF DUP3 GT OR ISZERO PUSH2 0x58E JUMPI PUSH2 0x58D PUSH2 0x537 JUMP JUMPDEST JUMPDEST DUP1 PUSH1 0x40 MSTORE POP POP POP JUMP JUMPDEST PUSH1 0x0 PUSH2 0x5A1 PUSH2 0x508 JUMP JUMPDEST SWAP1 POP PUSH2 0x5AD DUP3 DUP3 PUSH2 0x566 JUMP JUMPDEST SWAP2 SWAP1 POP JUMP JUMPDEST PUSH1 0x0 PUSH8 0xFFFFFFFFFFFFFFFF DUP3 GT ISZERO PUSH2 0x5CD JUMPI PUSH2 0x5CC PUSH2 0x537 JUMP JUMPDEST JUMPDEST PUSH2 0x5D6 DUP3 PUSH2 0x526 JUMP JUMPDEST SWAP1 POP PUSH1 0x20 DUP2 ADD SWAP1 POP SWAP2 SWAP1 POP JUMP JUMPDEST DUP3 DUP2 DUP4 CALLDATACOPY PUSH1 0x0 DUP4 DUP4 ADD MSTORE POP POP POP JUMP JUMPDEST PUSH1 0x0 PUSH2 0x605 PUSH2 0x600 DUP5 PUSH2 0x5B2 JUMP JUMPDEST PUSH2 0x597 JUMP JUMPDEST SWAP1 POP DUP3 DUP2 MSTORE PUSH1 0x20 DUP2 ADD DUP5 DUP5 DUP5 ADD GT ISZERO PUSH2 0x621 JUMPI PUSH2 0x620 PUSH2 0x521 JUMP JUMPDEST JUMPDEST PUSH2 0x62C DUP5 DUP3 DUP6 PUSH2 0x5E3 JUMP JUMPDEST POP SWAP4 SWAP3 POP POP POP JUMP JUMPDEST PUSH1 0x0 DUP3 PUSH1 0x1F DUP4 ADD SLT PUSH2 0x649 JUMPI PUSH2 0x648 PUSH2 0x51C JUMP JUMPDEST JUMPDEST DUP2 CALLDATALOAD PUSH2 0x659 DUP5 DUP3 PUSH1 0x20 DUP7 ADD PUSH2 0x5F2 JUMP JUMPDEST SWAP2 POP POP SWAP3 SWAP2 POP POP JUMP JUMPDEST PUSH1 0x0 DUP2 SWAP1 POP SWAP2 SWAP1 POP JUMP JUMPDEST PUSH2 0x675 DUP2 PUSH2 0x662 JUMP JUMPDEST DUP2 EQ PUSH2 0x680 JUMPI PUSH1 0x0 DUP1 REVERT JUMPDEST POP JUMP JUMPDEST PUSH1 0x0 DUP2 CALLDATALOAD SWAP1 POP PUSH2 0x692 DUP2 PUSH2 0x66C JUMP JUMPDEST SWAP3 SWAP2 POP POP JUMP JUMPDEST PUSH1 0x0 DUP1 PUSH1 0x0 PUSH1 0x60 DUP5 DUP7 SUB SLT ISZERO PUSH2 0x6B1 JUMPI PUSH2 0x6B0 PUSH2 0x512 JUMP JUMPDEST JUMPDEST PUSH1 0x0 DUP5 ADD CALLDATALOAD PUSH8 0xFFFFFFFFFFFFFFFF DUP2 GT ISZERO PUSH2 0x6CF JUMPI PUSH2 0x6CE PUSH2 0x517 JUMP JUMPDEST JUMPDEST PUSH2 0x6DB DUP7 DUP3 DUP8 ADD PUSH2 0x634 JUMP JUMPDEST SWAP4 POP POP PUSH1 0x20 PUSH2 0x6EC DUP7 DUP3 DUP8 ADD PUSH2 0x683 JUMP JUMPDEST SWAP3 POP POP PUSH1 0x40 PUSH2 0x6FD DUP7 DUP3 DUP8 ADD PUSH2 0x683 JUMP JUMPDEST SWAP2 POP POP SWAP3 POP SWAP3 POP SWAP3 JUMP JUMPDEST PUSH1 0x0 DUP1 PUSH1 0x40 DUP4 DUP6 SUB SLT ISZERO PUSH2 0x71E JUMPI PUSH2 0x71D PUSH2 0x512 JUMP JUMPDEST JUMPDEST PUSH1 0x0 PUSH2 0x72C DUP6 DUP3 DUP7 ADD PUSH2 0x683 JUMP JUMPDEST SWAP3 POP POP PUSH1 0x20 PUSH2 0x73D DUP6 DUP3 DUP7 ADD PUSH2 0x683 JUMP JUMPDEST SWAP2 POP POP SWAP3 POP SWAP3 SWAP1 POP JUMP JUMPDEST PUSH1 0x0 DUP2 MLOAD SWAP1 POP SWAP2 SWAP1 POP JUMP JUMPDEST PUSH1 0x0 DUP3 DUP3 MSTORE PUSH1 0x20 DUP3 ADD SWAP1 POP SWAP3 SWAP2 POP POP JUMP JUMPDEST PUSH1 0x0 JUMPDEST DUP4 DUP2 LT ISZERO PUSH2 0x781 JUMPI DUP1 DUP3 ADD MLOAD DUP2 DUP5 ADD MSTORE PUSH1 0x20 DUP2 ADD SWAP1 POP PUSH2 0x766 JUMP JUMPDEST PUSH1 0x0 DUP5 DUP5 ADD MSTORE POP POP POP POP JUMP JUMPDEST PUSH1 0x0 PUSH2 0x798 DUP3 PUSH2 0x747 JUMP JUMPDEST PUSH2 0x7A2 DUP2 DUP6 PUSH2 0x752 JUMP JUMPDEST SWAP4 POP PUSH2 0x7B2 DUP2 DUP6 PUSH1 0x20 DUP7 ADD PUSH2 0x763 JUMP JUMPDEST PUSH2 0x7BB DUP2 PUSH2 0x526 JUMP JUMPDEST DUP5 ADD SWAP2 POP POP SWAP3 SWAP2 POP POP JUMP JUMPDEST PUSH1 0x0 PUSH1 0x20 DUP3 ADD SWAP1 POP DUP2 DUP2 SUB PUSH1 0x0 DUP4 ADD MSTORE PUSH2 0x7E0 DUP2 DUP5 PUSH2 0x78D JUMP JUMPDEST SWAP1 POP SWAP3 SWAP2 POP POP JUMP JUMPDEST PUSH1 0x0 PUSH1 0x20 DUP3 DUP5 SUB SLT ISZERO PUSH2 0x7FE JUMPI PUSH2 0x7FD PUSH2 0x512 JUMP JUMPDEST JUMPDEST PUSH1 0x0 PUSH2 0x80C DUP5 DUP3 DUP6 ADD PUSH2 0x683 JUMP JUMPDEST SWAP2 POP POP SWAP3 SWAP2 POP POP JUMP JUMPDEST PUSH2 0x81E DUP2 PUSH2 0x662 JUMP JUMPDEST DUP3 MSTORE POP POP JUMP JUMPDEST PUSH1 0x0 PUSH1 0x40 DUP3 ADD SWAP1 POP DUP2 DUP2 SUB PUSH1 0x0 DUP4 ADD MSTORE PUSH2 0x83E DUP2 DUP6 PUSH2 0x78D JUMP JUMPDEST SWAP1 POP PUSH2 0x84D PUSH1 0x20 DUP4 ADD DUP5 PUSH2 0x815 JUMP JUMPDEST SWAP4 SWAP3 POP POP POP JUMP JUMPDEST PUSH32 0x4E487B7100000000000000000000000000000000000000000000000000000000 PUSH1 0x0 MSTORE PUSH1 0x22 PUSH1 0x4 MSTORE PUSH1 0x24 PUSH1 0x0 REVERT JUMPDEST PUSH1 0x0 PUSH1 0x2 DUP3 DIV SWAP1 POP PUSH1 0x1 DUP3 AND DUP1 PUSH2 0x89B JUMPI PUSH1 0x7F DUP3 AND SWAP2 POP JUMPDEST PUSH1 0x20 DUP3 LT DUP2 SUB PUSH2 0x8AE JUMPI PUSH2 0x8AD PUSH2 0x854 JUMP JUMPDEST JUMPDEST POP SWAP2 SWAP1 POP JUMP JUMPDEST PUSH1 0x0 DUP2 SWAP1 POP DUP2 PUSH1 0x0 MSTORE PUSH1 0x20 PUSH1 0x0 KECCAK256 SWAP1 POP SWAP2 SWAP1 POP JUMP JUMPDEST PUSH1 0x0 PUSH1 0x20 PUSH1 0x1F DUP4 ADD DIV SWAP1 POP SWAP2 SWAP1 POP JUMP JUMPDEST PUSH1 0x0 DUP3 DUP3 SHL SWAP1 POP SWAP3 SWAP2 POP POP JUMP JUMPDEST PUSH1 0x0 PUSH1 0x8 DUP4 MUL PUSH2 0x916 PUSH32 0xFFFFFFFFFFFFFFFFFFFFFFFFFFFFFFFFFFFFFFFFFFFFFFFFFFFFFFFFFFFFFFFF DUP3 PUSH2 0x8D9 JUMP JUMPDEST PUSH2 0x920 DUP7 DUP4 PUSH2 0x8D9 JUMP JUMPDEST SWAP6 POP DUP1 NOT DUP5 AND SWAP4 POP DUP1 DUP7 AND DUP5 OR SWAP3 POP POP POP SWAP4 SWAP3 POP POP POP JUMP JUMPDEST PUSH1 0x0 DUP2 SWAP1 POP SWAP2 SWAP1 POP JUMP JUMPDEST PUSH1 0x0 PUSH2 0x95D PUSH2 0x958 PUSH2 0x953 DUP5 PUSH2 0x662 JUMP JUMPDEST PUSH2 0x938 JUMP JUMPDEST PUSH2 0x662 JUMP JUMPDEST SWAP1 POP SWAP2 SWAP1 POP JUMP JUMPDEST PUSH1 0x0 DUP2 SWAP1 POP SWAP2 SWAP1 POP JUMP JUMPDEST PUSH2 0x977 DUP4 PUSH2 0x942 JUMP JUMPDEST PUSH2 0x98B PUSH2 0x983 DUP3 PUSH2 0x964 JUMP JUMPDEST DUP5 DUP5 SLOAD PUSH2 0x8E6 JUMP JUMPDEST DUP3 SSTORE POP POP POP POP JUMP JUMPDEST PUSH1 0x0 SWAP1 JUMP JUMPDEST PUSH2 0x9A0 PUSH2 0x993 JUMP JUMPDEST PUSH2 0x9AB DUP2 DUP5 DUP5 PUSH2 0x96E JUMP JUMPDEST POP POP POP JUMP JUMPDEST JUMPDEST DUP2 DUP2 LT ISZERO PUSH2 0x9CF JUMPI PUSH2 0x9C4 PUSH1 0x0 DUP3 PUSH2 0x998 JUMP JUMPDEST PUSH1 0x1 DUP2 ADD SWAP1 POP PUSH2 0x9B1 JUMP JUMPDEST POP POP JUMP JUMPDEST PUSH1 0x1F DUP3 GT ISZERO PUSH2 0xA14 JUMPI PUSH2 0x9E5 DUP2 PUSH2 0x8B4 JUMP JUMPDEST PUSH2 0x9EE DUP5 PUSH2 0x8C9 JUMP JUMPDEST DUP2 ADD PUSH1 0x20 DUP6 LT ISZERO PUSH2 0x9FD JUMPI DUP2 SWAP1 POP JUMPDEST PUSH2 0xA11 PUSH2 0xA09 DUP6 PUSH2 0x8C9 JUMP JUMPDEST DUP4 ADD DUP3 PUSH2 0x9B0 JUMP JUMPDEST POP POP JUMPDEST POP POP POP JUMP JUMPDEST PUSH1 0x0 DUP3 DUP3 SHR SWAP1 POP SWAP3 SWAP2 POP POP JUMP JUMPDEST PUSH1 0x0 PUSH2 0xA37 PUSH1 0x0 NOT DUP5 PUSH1 0x8 MUL PUSH2 0xA19 JUMP JUMPDEST NOT DUP1 DUP4 AND SWAP2 POP POP SWAP3 SWAP2 POP POP JUMP JUMPDEST PUSH1 0x0 PUSH2 0xA50 DUP4 DUP4 PUSH2 0xA26 JUMP JUMPDEST SWAP2 POP DUP3 PUSH1 0x2 MUL DUP3 OR SWAP1 POP SWAP3 SWAP2 POP POP JUMP JUMPDEST PUSH2 0xA69 DUP3 PUSH2 0x747 JUMP JUMPDEST PUSH8 0xFFFFFFFFFFFFFFFF DUP2 GT ISZERO PUSH2 0xA82 JUMPI PUSH2 0xA81 PUSH2 0x537 JUMP JUMPDEST JUMPDEST PUSH2 0xA8C DUP3 SLOAD PUSH2 0x883 JUMP JUMPDEST PUSH2 0xA97 DUP3 DUP3 DUP6 PUSH2 0x9D3 JUMP JUMPDEST PUSH1 0x0 PUSH1 0x20 SWAP1 POP PUSH1 0x1F DUP4 GT PUSH1 0x1 DUP2 EQ PUSH2 0xACA JUMPI PUSH1 0x0 DUP5 ISZERO PUSH2 0xAB8 JUMPI DUP3 DUP8 ADD MLOAD SWAP1 POP JUMPDEST PUSH2 0xAC2 DUP6 DUP3 PUSH2 0xA44 JUMP JUMPDEST DUP7 SSTORE POP PUSH2 0xB2A JUMP JUMPDEST PUSH1 0x1F NOT DUP5 AND PUSH2 0xAD8 DUP7 PUSH2 0x8B4 JUMP JUMPDEST PUSH1 0x0 JUMPDEST DUP3 DUP2 LT ISZERO PUSH2 0xB00 JUMPI DUP5 DUP10 ADD MLOAD DUP3 SSTORE PUSH1 0x1 DUP3 ADD SWAP2 POP PUSH1 0x20 DUP6 ADD SWAP5 POP PUSH1 0x20 DUP2 ADD SWAP1 POP PUSH2 0xADB JUMP JUMPDEST DUP7 DUP4 LT ISZERO PUSH2 0xB1D JUMPI DUP5 DUP10 ADD MLOAD PUSH2 0xB19 PUSH1 0x1F DUP10 AND DUP3 PUSH2 0xA26 JUMP JUMPDEST DUP4 SSTORE POP JUMPDEST PUSH1 0x1 PUSH1 0x2 DUP9 MUL ADD DUP9 SSTORE POP POP POP JUMPDEST POP POP POP POP POP POP JUMP JUMPDEST PUSH32 0x4E487B7100000000000000000000000000000000000000000000000000000000 PUSH1 0x0 MSTORE PUSH1 0x11 PUSH1 0x4 MSTORE PUSH1 0x24 PUSH1 0x0 REVERT JUMPDEST PUSH1 0x0 PUSH2 0xB6C DUP3 PUSH2 0x662 JUMP JUMPDEST SWAP2 POP PUSH32 0xFFFFFFFFFFFFFFFFFFFFFFFFFFFFFFFFFFFFFFFFFFFFFFFFFFFFFFFFFFFFFFFF DUP3 SUB PUSH2 0xB9E JUMPI PUSH2 0xB9D PUSH2 0xB32 JUMP JUMPDEST JUMPDEST PUSH1 0x1 DUP3 ADD SWAP1 POP SWAP2 SWAP1 POP JUMP JUMPDEST PUSH32 0x5469636B65742070726963652069732000000000000000000000000000000000 DUP2 MSTORE POP JUMP JUMPDEST PUSH1 0x0 DUP2 SWAP1 POP SWAP3 SWAP2 POP POP JUMP JUMPDEST PUSH1 0x0 PUSH2 0xBE5 DUP3 PUSH2 0x747 JUMP JUMPDEST PUSH2 0xBEF DUP2 DUP6 PUSH2 0xBCF JUMP JUMPDEST SWAP4 POP PUSH2 0xBFF DUP2 DUP6 PUSH1 0x20 DUP7 ADD PUSH2 0x763 JUMP JUMPDEST DUP1 DUP5 ADD SWAP2 POP POP SWAP3 SWAP2 POP POP JUMP JUMPDEST PUSH1 0x0 PUSH2 0xC16 DUP3 PUSH2 0xBA9 JUMP JUMPDEST PUSH1 0x10 DUP3 ADD SWAP2 POP PUSH2 0xC26 DUP3 DUP5 PUSH2 0xBDA JUMP JUMPDEST SWAP2 POP DUP2 SWAP1 POP SWAP3 SWAP2 POP POP JUMP JUMPDEST PUSH32 0x4E487B7100000000000000000000000000000000000000000000000000000000 PUSH1 0x0 MSTORE PUSH1 0x12 PUSH1 0x4 MSTORE PUSH1 0x24 PUSH1 0x0 REVERT INVALID LOG2 PUSH5 0x6970667358 0x22 SLT KECCAK256 CODECOPY CALLVALUE 0x4F PUSH9 0xEA4D8B4B0A1D39E4 SUB PUSH9 0xD1CD141D37ECF4A165 0xA7 CREATE2 CALLDATASIZE 0xB6 CALLDATACOPY BLOCKHASH 0xE3 DUP15 PUSH5 0x736F6C6343 STOP ADDMOD SLT STOP CALLER "
				},
				"gasEstimates": {
					"creation": {
						"codeDepositCost": "644400",
						"executionCost": "24942",
						"totalCost": "669342"
					},
					"external": {
						"BuyTicket(uint256,uint256)": "infinite",
						"Checkevent(uint256)": "infinite",
						"CreateEvent(string,uint256,uint256)": "infinite"
					}
				},
				"methodIdentifiers": {
					"BuyTicket(uint256,uint256)": "a8445a1e",
					"Checkevent(uint256)": "dc8903a8",
					"CreateEvent(string,uint256,uint256)": "163f41af"
				}
			},
			"storageLayout": {
				"storage": [
					{
						"astId": 1204,
						"contract": "event.sol:Event_Org",
						"label": "manager",
						"offset": 0,
						"slot": "0",
						"type": "t_address"
					},
					{
						"astId": 1222,
						"contract": "event.sol:Event_Org",
						"label": "id",
						"offset": 0,
						"slot": "1",
						"type": "t_uint256"
					},
					{
						"astId": 1227,
						"contract": "event.sol:Event_Org",
						"label": "noname",
						"offset": 0,
						"slot": "2",
						"type": "t_mapping(t_uint256,t_struct(Event)1220_storage)"
					}
				],
				"types": {
					"t_address": {
						"encoding": "inplace",
						"label": "address",
						"numberOfBytes": "20"
					},
					"t_mapping(t_uint256,t_struct(Event)1220_storage)": {
						"encoding": "mapping",
						"key": "t_uint256",
						"label": "mapping(uint256 => struct Event_Org.Event)",
						"numberOfBytes": "32",
						"value": "t_struct(Event)1220_storage"
					},
					"t_string_storage": {
						"encoding": "bytes",
						"label": "string",
						"numberOfBytes": "32"
					},
					"t_struct(Event)1220_storage": {
						"encoding": "inplace",
						"label": "struct Event_Org.Event",
						"members": [
							{
								"astId": 1215,
								"contract": "event.sol:Event_Org",
								"label": "name",
								"offset": 0,
								"slot": "0",
								"type": "t_string_storage"
							},
							{
								"astId": 1217,
								"contract": "event.sol:Event_Org",
								"label": "date",
								"offset": 0,
								"slot": "1",
								"type": "t_uint256"
							},
							{
								"astId": 1219,
								"contract": "event.sol:Event_Org",
								"label": "price",
								"offset": 0,
								"slot": "2",
								"type": "t_uint256"
							}
						],
						"numberOfBytes": "96"
					},
					"t_uint256": {
						"encoding": "inplace",
						"label": "uint256",
						"numberOfBytes": "32"
					}
				}
			},
			"userdoc": {
				"kind": "user",
				"methods": {},
				"version": 1
			}
		}
	}
}