{
	"multiple inheritance.sol": {
		"C": {
			"abi": [
				{
					"inputs": [],
					"name": "a",
					"outputs": [
						{
							"internalType": "uint256",
							"name": "",
							"type": "uint256"
						}
					],
					"stateMutability": "view",
					"type": "function"
				},
				{
					"inputs": [],
					"name": "b",
					"outputs": [
						{
							"internalType": "uint256",
							"name": "",
							"type": "uint256"
						}
					],
					"stateMutability": "view",
					"type": "function"
				},
				{
					"inputs": [],
					"name": "funA",
					"outputs": [],
					"stateMutability": "nonpayable",
					"type": "function"
				},
				{
					"inputs": [],
					"name": "funB",
					"outputs": [],
					"stateMutability": "nonpayable",
					"type": "function"
				}
			],
			"devdoc": {
				"kind": "dev",
				"methods": {},
				"version": 1
			},
			"evm": {
				"assembly": "    /* \"multiple inheritance.sol\":317:494  contract C is A,B{... */\n  mstore(0x40, 0x80)\n  callvalue\n  dup1\n  iszero\n  tag_1\n  jumpi\n  0x00\n  dup1\n  revert\ntag_1:\n  pop\n    /* \"multiple inheritance.sol\":127:130  100 */\n  0x64\n    /* \"multiple inheritance.sol\":125:126  a */\n  0x00\n    /* \"multiple inheritance.sol\":125:130  a=100 */\n  dup2\n  swap1\n  sstore\n  pop\n    /* \"multiple inheritance.sol\":253:256  200 */\n  0xc8\n    /* \"multiple inheritance.sol\":251:252  b */\n  0x01\n    /* \"multiple inheritance.sol\":251:256  b=200 */\n  dup2\n  swap1\n  sstore\n  pop\n    /* \"multiple inheritance.sol\":317:494  contract C is A,B{... */\n  dataSize(sub_0)\n  dup1\n  dataOffset(sub_0)\n  0x00\n  codecopy\n  0x00\n  return\nstop\n\nsub_0: assembly {\n        /* \"multiple inheritance.sol\":317:494  contract C is A,B{... */\n      mstore(0x40, 0x80)\n      callvalue\n      dup1\n      iszero\n      tag_1\n      jumpi\n      0x00\n      dup1\n      revert\n    tag_1:\n      pop\n      jumpi(tag_2, lt(calldatasize, 0x04))\n      shr(0xe0, calldataload(0x00))\n      dup1\n      0x09ebbbdb\n      eq\n      tag_3\n      jumpi\n      dup1\n      0x0dbe671f\n      eq\n      tag_4\n      jumpi\n      dup1\n      0x4df7e3d0\n      eq\n      tag_5\n      jumpi\n      dup1\n      0x8e5159b0\n      eq\n      tag_6\n      jumpi\n    tag_2:\n      0x00\n      dup1\n      revert\n        /* \"multiple inheritance.sol\":266:308  function funB() public {... */\n    tag_3:\n      tag_7\n      tag_8\n      jump\t// in\n    tag_7:\n      stop\n        /* \"multiple inheritance.sol\":91:104  uint public a */\n    tag_4:\n      tag_9\n      tag_10\n      jump\t// in\n    tag_9:\n      mload(0x40)\n      tag_11\n      swap2\n      swap1\n      tag_12\n      jump\t// in\n    tag_11:\n      mload(0x40)\n      dup1\n      swap2\n      sub\n      swap1\n      return\n        /* \"multiple inheritance.sol\":209:222  uint public b */\n    tag_5:\n      tag_13\n      tag_14\n      jump\t// in\n    tag_13:\n      mload(0x40)\n      tag_15\n      swap2\n      swap1\n      tag_12\n      jump\t// in\n    tag_15:\n      mload(0x40)\n      dup1\n      swap2\n      sub\n      swap1\n      return\n        /* \"multiple inheritance.sol\":138:178  function funA() public {... */\n    tag_6:\n      tag_16\n      tag_17\n      jump\t// in\n    tag_16:\n      stop\n        /* \"multiple inheritance.sol\":266:308  function funB() public {... */\n    tag_8:\n        /* \"multiple inheritance.sol\":301:303  20 */\n      0x14\n        /* \"multiple inheritance.sol\":299:300  b */\n      0x01\n        /* \"multiple inheritance.sol\":299:303  b=20 */\n      dup2\n      swap1\n      sstore\n      pop\n        /* \"multiple inheritance.sol\":266:308  function funB() public {... */\n      jump\t// out\n        /* \"multiple inheritance.sol\":91:104  uint public a */\n    tag_10:\n      sload(0x00)\n      dup2\n      jump\t// out\n        /* \"multiple inheritance.sol\":209:222  uint public b */\n    tag_14:\n      sload(0x01)\n      dup2\n      jump\t// out\n        /* \"multiple inheritance.sol\":138:178  function funA() public {... */\n    tag_17:\n        /* \"multiple inheritance.sol\":172:174  10 */\n      0x0a\n        /* \"multiple inheritance.sol\":170:171  a */\n      0x00\n        /* \"multiple inheritance.sol\":170:174  a=10 */\n      dup2\n      swap1\n      sstore\n      pop\n        /* \"multiple inheritance.sol\":138:178  function funA() public {... */\n      jump\t// out\n        /* \"#utility.yul\":7:84   */\n    tag_20:\n        /* \"#utility.yul\":44:51   */\n      0x00\n        /* \"#utility.yul\":73:78   */\n      dup2\n        /* \"#utility.yul\":62:78   */\n      swap1\n      pop\n        /* \"#utility.yul\":7:84   */\n      swap2\n      swap1\n      pop\n      jump\t// out\n        /* \"#utility.yul\":90:208   */\n    tag_21:\n        /* \"#utility.yul\":177:201   */\n      tag_25\n        /* \"#utility.yul\":195:200   */\n      dup2\n        /* \"#utility.yul\":177:201   */\n      tag_20\n      jump\t// in\n    tag_25:\n        /* \"#utility.yul\":172:175   */\n      dup3\n        /* \"#utility.yul\":165:202   */\n      mstore\n        /* \"#utility.yul\":90:208   */\n      pop\n      pop\n      jump\t// out\n        /* \"#utility.yul\":214:436   */\n    tag_12:\n        /* \"#utility.yul\":307:311   */\n      0x00\n        /* \"#utility.yul\":345:347   */\n      0x20\n        /* \"#utility.yul\":334:343   */\n      dup3\n        /* \"#utility.yul\":330:348   */\n      add\n        /* \"#utility.yul\":322:348   */\n      swap1\n      pop\n        /* \"#utility.yul\":358:429   */\n      tag_27\n        /* \"#utility.yul\":426:427   */\n      0x00\n        /* \"#utility.yul\":415:424   */\n      dup4\n        /* \"#utility.yul\":411:428   */\n      add\n        /* \"#utility.yul\":402:408   */\n      dup5\n        /* \"#utility.yul\":358:429   */\n      tag_21\n      jump\t// in\n    tag_27:\n        /* \"#utility.yul\":214:436   */\n      swap3\n      swap2\n      pop\n      pop\n      jump\t// out\n\n    auxdata: 0xa26469706673582212203a2d687e4e897cac78d346ac8335747153a7930146f2953c4858f7d40df2baa164736f6c63430008120033\n}\n",
				"bytecode": {
					"linkReferences": {},
					"object": "608060405234801561001057600080fd5b50606460008190555060c8600181905550610115806100306000396000f3fe6080604052348015600f57600080fd5b506004361060465760003560e01c806309ebbbdb14604b5780630dbe671f1460535780634df7e3d014606d5780638e5159b0146087575b600080fd5b6051608f565b005b60596099565b6040516064919060c6565b60405180910390f35b6073609f565b604051607e919060c6565b60405180910390f35b608d60a5565b005b6014600181905550565b60005481565b60015481565b600a600081905550565b6000819050919050565b60c08160af565b82525050565b600060208201905060d9600083018460b9565b9291505056fea26469706673582212203a2d687e4e897cac78d346ac8335747153a7930146f2953c4858f7d40df2baa164736f6c63430008120033",
					"opcodes": "PUSH1 0x80 PUSH1 0x40 MSTORE CALLVALUE DUP1 ISZERO PUSH2 0x10 JUMPI PUSH1 0x0 DUP1 REVERT JUMPDEST POP PUSH1 0x64 PUSH1 0x0 DUP2 SWAP1 SSTORE POP PUSH1 0xC8 PUSH1 0x1 DUP2 SWAP1 SSTORE POP PUSH2 0x115 DUP1 PUSH2 0x30 PUSH1 0x0 CODECOPY PUSH1 0x0 RETURN INVALID PUSH1 0x80 PUSH1 0x40 MSTORE CALLVALUE DUP1 ISZERO PUSH1 0xF JUMPI PUSH1 0x0 DUP1 REVERT JUMPDEST POP PUSH1 0x4 CALLDATASIZE LT PUSH1 0x46 JUMPI PUSH1 0x0 CALLDATALOAD PUSH1 0xE0 SHR DUP1 PUSH4 0x9EBBBDB EQ PUSH1 0x4B JUMPI DUP1 PUSH4 0xDBE671F EQ PUSH1 0x53 JUMPI DUP1 PUSH4 0x4DF7E3D0 EQ PUSH1 0x6D JUMPI DUP1 PUSH4 0x8E5159B0 EQ PUSH1 0x87 JUMPI JUMPDEST PUSH1 0x0 DUP1 REVERT JUMPDEST PUSH1 0x51 PUSH1 0x8F JUMP JUMPDEST STOP JUMPDEST PUSH1 0x59 PUSH1 0x99 JUMP JUMPDEST PUSH1 0x40 MLOAD PUSH1 0x64 SWAP2 SWAP1 PUSH1 0xC6 JUMP JUMPDEST PUSH1 0x40 MLOAD DUP1 SWAP2 SUB SWAP1 RETURN JUMPDEST PUSH1 0x73 PUSH1 0x9F JUMP JUMPDEST PUSH1 0x40 MLOAD PUSH1 0x7E SWAP2 SWAP1 PUSH1 0xC6 JUMP JUMPDEST PUSH1 0x40 MLOAD DUP1 SWAP2 SUB SWAP1 RETURN JUMPDEST PUSH1 0x8D PUSH1 0xA5 JUMP JUMPDEST STOP JUMPDEST PUSH1 0x14 PUSH1 0x1 DUP2 SWAP1 SSTORE POP JUMP JUMPDEST PUSH1 0x0 SLOAD DUP2 JUMP JUMPDEST PUSH1 0x1 SLOAD DUP2 JUMP JUMPDEST PUSH1 0xA PUSH1 0x0 DUP2 SWAP1 SSTORE POP JUMP JUMPDEST PUSH1 0x0 DUP2 SWAP1 POP SWAP2 SWAP1 POP JUMP JUMPDEST PUSH1 0xC0 DUP2 PUSH1 0xAF JUMP JUMPDEST DUP3 MSTORE POP POP JUMP JUMPDEST PUSH1 0x0 PUSH1 0x20 DUP3 ADD SWAP1 POP PUSH1 0xD9 PUSH1 0x0 DUP4 ADD DUP5 PUSH1 0xB9 JUMP JUMPDEST SWAP3 SWAP2 POP POP JUMP INVALID LOG2 PUSH5 0x6970667358 0x22 SLT KECCAK256 GASPRICE 0x2D PUSH9 0x7E4E897CAC78D346AC DUP4 CALLDATALOAD PUSH21 0x7153A7930146F2953C4858F7D40DF2BAA164736F6C PUSH4 0x43000812 STOP CALLER "
				},
				"gasEstimates": {
					"creation": {
						"codeDepositCost": "55400",
						"executionCost": "44333",
						"totalCost": "99733"
					},
					"external": {
						"a()": "2429",
						"b()": "2451",
						"funA()": "22302",
						"funB()": "22236"
					}
				},
				"methodIdentifiers": {
					"a()": "0dbe671f",
					"b()": "4df7e3d0",
					"funA()": "8e5159b0",
					"funB()": "09ebbbdb"
				}
			},
			"storageLayout": {
				"storage": [
					{
						"astId": 3,
						"contract": "multiple inheritance.sol:C",
						"label": "a",
						"offset": 0,
						"slot": "0",
						"type": "t_uint256"
					},
					{
						"astId": 24,
						"contract": "multiple inheritance.sol:C",
						"label": "b",
						"offset": 0,
						"slot": "1",
						"type": "t_uint256"
					}
				],
				"types": {
					"t_uint256": {
						"encoding": "inplace",
						"label": "uint256",
						"numberOfBytes": "32"
					}
				}
			},
			"userdoc": {
				"kind": "user",
				"methods": {},
				"version": 1
			}
		}
	}
}